{
	"lcm.sol": {
		"SharedWallet": {
			"abi": [
				{
					"inputs": [
						{
							"internalType": "address[]",
							"name": "_members",
							"type": "address[]"
						},
						{
							"internalType": "uint256",
							"name": "_credits",
							"type": "uint256"
						}
					],
					"stateMutability": "nonpayable",
					"type": "constructor"
				},
				{
					"inputs": [
						{
							"internalType": "uint256",
							"name": "_n",
							"type": "uint256"
						}
					],
					"name": "approve",
					"outputs": [],
					"stateMutability": "nonpayable",
					"type": "function"
				},
				{
					"inputs": [],
					"name": "credits",
					"outputs": [
						{
							"internalType": "uint256",
							"name": "",
							"type": "uint256"
						}
					],
					"stateMutability": "view",
					"type": "function"
				},
				{
					"inputs": [],
					"name": "deployer",
					"outputs": [
						{
							"internalType": "address",
							"name": "",
							"type": "address"
						}
					],
					"stateMutability": "view",
					"type": "function"
				},
				{
					"inputs": [
						{
							"internalType": "address",
							"name": "",
							"type": "address"
						}
					],
					"name": "isMember",
					"outputs": [
						{
							"internalType": "bool",
							"name": "",
							"type": "bool"
						}
					],
					"stateMutability": "view",
					"type": "function"
				},
				{
					"inputs": [
						{
							"internalType": "uint256",
							"name": "",
							"type": "uint256"
						}
					],
					"name": "members",
					"outputs": [
						{
							"internalType": "address",
							"name": "",
							"type": "address"
						}
					],
					"stateMutability": "view",
					"type": "function"
				},
				{
					"inputs": [
						{
							"internalType": "uint256",
							"name": "_n",
							"type": "uint256"
						}
					],
					"name": "reject",
					"outputs": [],
					"stateMutability": "nonpayable",
					"type": "function"
				},
				{
					"inputs": [
						{
							"internalType": "address[]",
							"name": "_members",
							"type": "address[]"
						},
						{
							"internalType": "uint256",
							"name": "_credits",
							"type": "uint256"
						}
					],
					"name": "setWallet",
					"outputs": [],
					"stateMutability": "nonpayable",
					"type": "function"
				},
				{
					"inputs": [
						{
							"internalType": "uint256",
							"name": "_amount",
							"type": "uint256"
						}
					],
					"name": "spend",
					"outputs": [],
					"stateMutability": "nonpayable",
					"type": "function"
				},
				{
					"inputs": [],
					"name": "totalCredits",
					"outputs": [
						{
							"internalType": "uint256",
							"name": "",
							"type": "uint256"
						}
					],
					"stateMutability": "view",
					"type": "function"
				},
				{
					"inputs": [
						{
							"internalType": "uint256",
							"name": "",
							"type": "uint256"
						}
					],
					"name": "transactions",
					"outputs": [
						{
							"internalType": "uint256",
							"name": "amount",
							"type": "uint256"
						},
						{
							"internalType": "enum SharedWallet.TransactionStatus",
							"name": "status",
							"type": "uint8"
						},
						{
							"internalType": "uint256",
							"name": "approvals",
							"type": "uint256"
						}
					],
					"stateMutability": "view",
					"type": "function"
				},
				{
					"inputs": [
						{
							"internalType": "uint256",
							"name": "_n",
							"type": "uint256"
						}
					],
					"name": "viewTransaction",
					"outputs": [
						{
							"internalType": "uint256",
							"name": "",
							"type": "uint256"
						},
						{
							"internalType": "string",
							"name": "",
							"type": "string"
						}
					],
					"stateMutability": "view",
					"type": "function"
				}
			],
			"devdoc": {
				"kind": "dev",
				"methods": {},
				"version": 1
			},
			"evm": {
				"assembly": "    /* \"lcm.sol\":1854:5858  contract SharedWallet {... */\n  mstore(0x40, 0x80)\n    /* \"lcm.sol\":2583:3081  constructor(address[] memory _members, uint _credits) {... */\n  callvalue\n  dup1\n  iszero\n  tag_1\n  jumpi\n  0x00\n  dup1\n  revert\ntag_1:\n  pop\n  mload(0x40)\n  sub(codesize, bytecodeSize)\n  dup1\n  bytecodeSize\n  dup4\n  codecopy\n  dup2\n  dup2\n  add\n  0x40\n  mstore\n  dup2\n  add\n  swap1\n  tag_2\n  swap2\n  swap1\n  tag_3\n  jump\t// in\ntag_2:\n    /* \"lcm.sol\":2674:2675  0 */\n  0x00\n    /* \"lcm.sol\":2656:2664  _members */\n  dup3\n    /* \"lcm.sol\":2656:2671  _members.length */\n  mload\n    /* \"lcm.sol\":2656:2675  _members.length > 0 */\n  gt\n    /* \"lcm.sol\":2648:2711  require(_members.length > 0, \"At least one member is required\") */\n  tag_6\n  jumpi\n  mload(0x40)\n  0x08c379a000000000000000000000000000000000000000000000000000000000\n  dup2\n  mstore\n  0x04\n  add\n  tag_7\n  swap1\n  tag_8\n  jump\t// in\ntag_7:\n  mload(0x40)\n  dup1\n  swap2\n  sub\n  swap1\n  revert\ntag_6:\n    /* \"lcm.sol\":2741:2742  0 */\n  0x00\n    /* \"lcm.sol\":2730:2738  _credits */\n  dup2\n    /* \"lcm.sol\":2730:2742  _credits > 0 */\n  gt\n    /* \"lcm.sol\":2722:2777  require(_credits > 0, \"Credits must be greater than 0\") */\n  tag_9\n  jumpi\n  mload(0x40)\n  0x08c379a000000000000000000000000000000000000000000000000000000000\n  dup2\n  mstore\n  0x04\n  add\n  tag_10\n  swap1\n  tag_11\n  jump\t// in\ntag_10:\n  mload(0x40)\n  dup1\n  swap2\n  sub\n  swap1\n  revert\ntag_9:\n    /* \"lcm.sol\":2799:2809  msg.sender */\n  caller\n    /* \"lcm.sol\":2788:2796  deployer */\n  0x00\n  dup1\n    /* \"lcm.sol\":2788:2809  deployer = msg.sender */\n  0x0100\n  exp\n  dup2\n  sload\n  dup2\n  0xffffffffffffffffffffffffffffffffffffffff\n  mul\n  not\n  and\n  swap1\n  dup4\n  0xffffffffffffffffffffffffffffffffffffffff\n  and\n  mul\n  or\n  swap1\n  sstore\n  pop\n    /* \"lcm.sol\":2830:2838  _members */\n  dup2\n    /* \"lcm.sol\":2820:2827  members */\n  0x01\n    /* \"lcm.sol\":2820:2838  members = _members */\n  swap1\n  dup1\n  mload\n  swap1\n  0x20\n  add\n  swap1\n  tag_12\n  swap3\n  swap2\n  swap1\n  tag_13\n  jump\t// in\ntag_12:\n  pop\n    /* \"lcm.sol\":2864:2872  _credits */\n  dup1\n    /* \"lcm.sol\":2849:2861  totalCredits */\n  0x02\n    /* \"lcm.sol\":2849:2872  totalCredits = _credits */\n  dup2\n  swap1\n  sstore\n  pop\n    /* \"lcm.sol\":2898:2904  uint i */\n  0x00\n    /* \"lcm.sol\":2893:3074  for (uint i = 0; i < _members.length; i++) {... */\ntag_14:\n    /* \"lcm.sol\":2914:2922  _members */\n  dup3\n    /* \"lcm.sol\":2914:2929  _members.length */\n  mload\n    /* \"lcm.sol\":2910:2911  i */\n  dup2\n    /* \"lcm.sol\":2910:2929  i < _members.length */\n  lt\n    /* \"lcm.sol\":2893:3074  for (uint i = 0; i < _members.length; i++) {... */\n  iszero\n  tag_15\n  jumpi\n    /* \"lcm.sol\":2974:2982  deployer */\n  0x00\n  dup1\n  sload\n  swap1\n  0x0100\n  exp\n  swap1\n  div\n  0xffffffffffffffffffffffffffffffffffffffff\n  and\n    /* \"lcm.sol\":2959:2982  _members[i] != deployer */\n  0xffffffffffffffffffffffffffffffffffffffff\n  and\n    /* \"lcm.sol\":2959:2967  _members */\n  dup4\n    /* \"lcm.sol\":2968:2969  i */\n  dup3\n    /* \"lcm.sol\":2959:2970  _members[i] */\n  dup2\n  mload\n  dup2\n  lt\n  tag_17\n  jumpi\n  tag_18\n  tag_19\n  jump\t// in\ntag_18:\ntag_17:\n  0x20\n  mul\n  0x20\n  add\n  add\n  mload\n    /* \"lcm.sol\":2959:2982  _members[i] != deployer */\n  0xffffffffffffffffffffffffffffffffffffffff\n  and\n  sub\n    /* \"lcm.sol\":2951:3019  require(_members[i] != deployer, \"Deployer cannot be a team member\") */\n  tag_20\n  jumpi\n  mload(0x40)\n  0x08c379a000000000000000000000000000000000000000000000000000000000\n  dup2\n  mstore\n  0x04\n  add\n  tag_21\n  swap1\n  tag_22\n  jump\t// in\ntag_21:\n  mload(0x40)\n  dup1\n  swap2\n  sub\n  swap1\n  revert\ntag_20:\n    /* \"lcm.sol\":3058:3062  true */\n  0x01\n    /* \"lcm.sol\":3034:3042  isMember */\n  0x04\n    /* \"lcm.sol\":3034:3055  isMember[_members[i]] */\n  0x00\n    /* \"lcm.sol\":3043:3051  _members */\n  dup6\n    /* \"lcm.sol\":3052:3053  i */\n  dup5\n    /* \"lcm.sol\":3043:3054  _members[i] */\n  dup2\n  mload\n  dup2\n  lt\n  tag_23\n  jumpi\n  tag_24\n  tag_19\n  jump\t// in\ntag_24:\ntag_23:\n  0x20\n  mul\n  0x20\n  add\n  add\n  mload\n    /* \"lcm.sol\":3034:3055  isMember[_members[i]] */\n  0xffffffffffffffffffffffffffffffffffffffff\n  and\n  0xffffffffffffffffffffffffffffffffffffffff\n  and\n  dup2\n  mstore\n  0x20\n  add\n  swap1\n  dup2\n  mstore\n  0x20\n  add\n  0x00\n  keccak256\n  0x00\n    /* \"lcm.sol\":3034:3062  isMember[_members[i]] = true */\n  0x0100\n  exp\n  dup2\n  sload\n  dup2\n  0xff\n  mul\n  not\n  and\n  swap1\n  dup4\n  iszero\n  iszero\n  mul\n  or\n  swap1\n  sstore\n  pop\n    /* \"lcm.sol\":2931:2934  i++ */\n  dup1\n  dup1\n  tag_25\n  swap1\n  tag_26\n  jump\t// in\ntag_25:\n  swap2\n  pop\n  pop\n    /* \"lcm.sol\":2893:3074  for (uint i = 0; i < _members.length; i++) {... */\n  jump(tag_14)\ntag_15:\n  pop\n    /* \"lcm.sol\":2583:3081  constructor(address[] memory _members, uint _credits) {... */\n  pop\n  pop\n    /* \"lcm.sol\":1854:5858  contract SharedWallet {... */\n  jump(tag_27)\ntag_13:\n  dup3\n  dup1\n  sload\n  dup3\n  dup3\n  sstore\n  swap1\n  0x00\n  mstore\n  keccak256(0x00, 0x20)\n  swap1\n  dup2\n  add\n  swap3\n  dup3\n  iszero\n  tag_28\n  jumpi\n  swap2\n  0x20\n  mul\n  dup3\n  add\ntag_29:\n  dup3\n  dup2\n  gt\n  iszero\n  tag_30\n  jumpi\n  dup3\n  mload\n  dup3\n  exp(0x0100, 0x00)\n  dup2\n  sload\n  dup2\n  0xffffffffffffffffffffffffffffffffffffffff\n  mul\n  not\n  and\n  swap1\n  dup4\n  0xffffffffffffffffffffffffffffffffffffffff\n  and\n  mul\n  or\n  swap1\n  sstore\n  pop\n  swap2\n  0x20\n  add\n  swap2\n  swap1\n  0x01\n  add\n  swap1\n  jump(tag_29)\ntag_30:\ntag_28:\n  pop\n  swap1\n  pop\n  tag_31\n  swap2\n  swap1\n  tag_32\n  jump\t// in\ntag_31:\n  pop\n  swap1\n  jump\t// out\ntag_32:\ntag_33:\n  dup1\n  dup3\n  gt\n  iszero\n  tag_34\n  jumpi\n  0x00\n  dup2\n  0x00\n  swap1\n  sstore\n  pop\n  0x01\n  add\n  jump(tag_33)\ntag_34:\n  pop\n  swap1\n  jump\t// out\n    /* \"#utility.yul\":7:82   */\ntag_35:\n    /* \"#utility.yul\":40:46   */\n  0x00\n    /* \"#utility.yul\":73:75   */\n  0x40\n    /* \"#utility.yul\":67:76   */\n  mload\n    /* \"#utility.yul\":57:76   */\n  swap1\n  pop\n    /* \"#utility.yul\":7:82   */\n  swap1\n  jump\t// out\n    /* \"#utility.yul\":88:205   */\ntag_36:\n    /* \"#utility.yul\":197:198   */\n  0x00\n    /* \"#utility.yul\":194:195   */\n  dup1\n    /* \"#utility.yul\":187:199   */\n  revert\n    /* \"#utility.yul\":211:328   */\ntag_37:\n    /* \"#utility.yul\":320:321   */\n  0x00\n    /* \"#utility.yul\":317:318   */\n  dup1\n    /* \"#utility.yul\":310:322   */\n  revert\n    /* \"#utility.yul\":334:451   */\ntag_38:\n    /* \"#utility.yul\":443:444   */\n  0x00\n    /* \"#utility.yul\":440:441   */\n  dup1\n    /* \"#utility.yul\":433:445   */\n  revert\n    /* \"#utility.yul\":457:559   */\ntag_39:\n    /* \"#utility.yul\":498:504   */\n  0x00\n    /* \"#utility.yul\":549:551   */\n  0x1f\n    /* \"#utility.yul\":545:552   */\n  not\n    /* \"#utility.yul\":540:542   */\n  0x1f\n    /* \"#utility.yul\":533:538   */\n  dup4\n    /* \"#utility.yul\":529:543   */\n  add\n    /* \"#utility.yul\":525:553   */\n  and\n    /* \"#utility.yul\":515:553   */\n  swap1\n  pop\n    /* \"#utility.yul\":457:559   */\n  swap2\n  swap1\n  pop\n  jump\t// out\n    /* \"#utility.yul\":565:745   */\ntag_40:\n    /* \"#utility.yul\":613:690   */\n  0x4e487b7100000000000000000000000000000000000000000000000000000000\n    /* \"#utility.yul\":610:611   */\n  0x00\n    /* \"#utility.yul\":603:691   */\n  mstore\n    /* \"#utility.yul\":710:714   */\n  0x41\n    /* \"#utility.yul\":707:708   */\n  0x04\n    /* \"#utility.yul\":700:715   */\n  mstore\n    /* \"#utility.yul\":734:738   */\n  0x24\n    /* \"#utility.yul\":731:732   */\n  0x00\n    /* \"#utility.yul\":724:739   */\n  revert\n    /* \"#utility.yul\":751:1032   */\ntag_41:\n    /* \"#utility.yul\":834:861   */\n  tag_70\n    /* \"#utility.yul\":856:860   */\n  dup3\n    /* \"#utility.yul\":834:861   */\n  tag_39\n  jump\t// in\ntag_70:\n    /* \"#utility.yul\":826:832   */\n  dup2\n    /* \"#utility.yul\":822:862   */\n  add\n    /* \"#utility.yul\":964:970   */\n  dup2\n    /* \"#utility.yul\":952:962   */\n  dup2\n    /* \"#utility.yul\":949:971   */\n  lt\n    /* \"#utility.yul\":928:946   */\n  0xffffffffffffffff\n    /* \"#utility.yul\":916:926   */\n  dup3\n    /* \"#utility.yul\":913:947   */\n  gt\n    /* \"#utility.yul\":910:972   */\n  or\n    /* \"#utility.yul\":907:995   */\n  iszero\n  tag_71\n  jumpi\n    /* \"#utility.yul\":975:993   */\n  tag_72\n  tag_40\n  jump\t// in\ntag_72:\n    /* \"#utility.yul\":907:995   */\ntag_71:\n    /* \"#utility.yul\":1015:1025   */\n  dup1\n    /* \"#utility.yul\":1011:1013   */\n  0x40\n    /* \"#utility.yul\":1004:1026   */\n  mstore\n    /* \"#utility.yul\":794:1032   */\n  pop\n    /* \"#utility.yul\":751:1032   */\n  pop\n  pop\n  jump\t// out\n    /* \"#utility.yul\":1038:1167   */\ntag_42:\n    /* \"#utility.yul\":1072:1078   */\n  0x00\n    /* \"#utility.yul\":1099:1119   */\n  tag_74\n  tag_35\n  jump\t// in\ntag_74:\n    /* \"#utility.yul\":1089:1119   */\n  swap1\n  pop\n    /* \"#utility.yul\":1128:1161   */\n  tag_75\n    /* \"#utility.yul\":1156:1160   */\n  dup3\n    /* \"#utility.yul\":1148:1154   */\n  dup3\n    /* \"#utility.yul\":1128:1161   */\n  tag_41\n  jump\t// in\ntag_75:\n    /* \"#utility.yul\":1038:1167   */\n  swap2\n  swap1\n  pop\n  jump\t// out\n    /* \"#utility.yul\":1173:1484   */\ntag_43:\n    /* \"#utility.yul\":1250:1254   */\n  0x00\n    /* \"#utility.yul\":1340:1358   */\n  0xffffffffffffffff\n    /* \"#utility.yul\":1332:1338   */\n  dup3\n    /* \"#utility.yul\":1329:1359   */\n  gt\n    /* \"#utility.yul\":1326:1382   */\n  iszero\n  tag_77\n  jumpi\n    /* \"#utility.yul\":1362:1380   */\n  tag_78\n  tag_40\n  jump\t// in\ntag_78:\n    /* \"#utility.yul\":1326:1382   */\ntag_77:\n    /* \"#utility.yul\":1412:1416   */\n  0x20\n    /* \"#utility.yul\":1404:1410   */\n  dup3\n    /* \"#utility.yul\":1400:1417   */\n  mul\n    /* \"#utility.yul\":1392:1417   */\n  swap1\n  pop\n    /* \"#utility.yul\":1472:1476   */\n  0x20\n    /* \"#utility.yul\":1466:1470   */\n  dup2\n    /* \"#utility.yul\":1462:1477   */\n  add\n    /* \"#utility.yul\":1454:1477   */\n  swap1\n  pop\n    /* \"#utility.yul\":1173:1484   */\n  swap2\n  swap1\n  pop\n  jump\t// out\n    /* \"#utility.yul\":1490:1607   */\ntag_44:\n    /* \"#utility.yul\":1599:1600   */\n  0x00\n    /* \"#utility.yul\":1596:1597   */\n  dup1\n    /* \"#utility.yul\":1589:1601   */\n  revert\n    /* \"#utility.yul\":1613:1739   */\ntag_45:\n    /* \"#utility.yul\":1650:1657   */\n  0x00\n    /* \"#utility.yul\":1690:1732   */\n  0xffffffffffffffffffffffffffffffffffffffff\n    /* \"#utility.yul\":1683:1688   */\n  dup3\n    /* \"#utility.yul\":1679:1733   */\n  and\n    /* \"#utility.yul\":1668:1733   */\n  swap1\n  pop\n    /* \"#utility.yul\":1613:1739   */\n  swap2\n  swap1\n  pop\n  jump\t// out\n    /* \"#utility.yul\":1745:1841   */\ntag_46:\n    /* \"#utility.yul\":1782:1789   */\n  0x00\n    /* \"#utility.yul\":1811:1835   */\n  tag_82\n    /* \"#utility.yul\":1829:1834   */\n  dup3\n    /* \"#utility.yul\":1811:1835   */\n  tag_45\n  jump\t// in\ntag_82:\n    /* \"#utility.yul\":1800:1835   */\n  swap1\n  pop\n    /* \"#utility.yul\":1745:1841   */\n  swap2\n  swap1\n  pop\n  jump\t// out\n    /* \"#utility.yul\":1847:1969   */\ntag_47:\n    /* \"#utility.yul\":1920:1944   */\n  tag_84\n    /* \"#utility.yul\":1938:1943   */\n  dup2\n    /* \"#utility.yul\":1920:1944   */\n  tag_46\n  jump\t// in\ntag_84:\n    /* \"#utility.yul\":1913:1918   */\n  dup2\n    /* \"#utility.yul\":1910:1945   */\n  eq\n    /* \"#utility.yul\":1900:1963   */\n  tag_85\n  jumpi\n    /* \"#utility.yul\":1959:1960   */\n  0x00\n    /* \"#utility.yul\":1956:1957   */\n  dup1\n    /* \"#utility.yul\":1949:1961   */\n  revert\n    /* \"#utility.yul\":1900:1963   */\ntag_85:\n    /* \"#utility.yul\":1847:1969   */\n  pop\n  jump\t// out\n    /* \"#utility.yul\":1975:2118   */\ntag_48:\n    /* \"#utility.yul\":2032:2037   */\n  0x00\n    /* \"#utility.yul\":2063:2069   */\n  dup2\n    /* \"#utility.yul\":2057:2070   */\n  mload\n    /* \"#utility.yul\":2048:2070   */\n  swap1\n  pop\n    /* \"#utility.yul\":2079:2112   */\n  tag_87\n    /* \"#utility.yul\":2106:2111   */\n  dup2\n    /* \"#utility.yul\":2079:2112   */\n  tag_47\n  jump\t// in\ntag_87:\n    /* \"#utility.yul\":1975:2118   */\n  swap3\n  swap2\n  pop\n  pop\n  jump\t// out\n    /* \"#utility.yul\":2141:2873   */\ntag_49:\n    /* \"#utility.yul\":2248:2253   */\n  0x00\n    /* \"#utility.yul\":2273:2354   */\n  tag_89\n    /* \"#utility.yul\":2289:2353   */\n  tag_90\n    /* \"#utility.yul\":2346:2352   */\n  dup5\n    /* \"#utility.yul\":2289:2353   */\n  tag_43\n  jump\t// in\ntag_90:\n    /* \"#utility.yul\":2273:2354   */\n  tag_42\n  jump\t// in\ntag_89:\n    /* \"#utility.yul\":2264:2354   */\n  swap1\n  pop\n    /* \"#utility.yul\":2374:2379   */\n  dup1\n    /* \"#utility.yul\":2403:2409   */\n  dup4\n    /* \"#utility.yul\":2396:2401   */\n  dup3\n    /* \"#utility.yul\":2389:2410   */\n  mstore\n    /* \"#utility.yul\":2437:2441   */\n  0x20\n    /* \"#utility.yul\":2430:2435   */\n  dup3\n    /* \"#utility.yul\":2426:2442   */\n  add\n    /* \"#utility.yul\":2419:2442   */\n  swap1\n  pop\n    /* \"#utility.yul\":2490:2494   */\n  0x20\n    /* \"#utility.yul\":2482:2488   */\n  dup5\n    /* \"#utility.yul\":2478:2495   */\n  mul\n    /* \"#utility.yul\":2470:2476   */\n  dup4\n    /* \"#utility.yul\":2466:2496   */\n  add\n    /* \"#utility.yul\":2519:2522   */\n  dup6\n    /* \"#utility.yul\":2511:2517   */\n  dup2\n    /* \"#utility.yul\":2508:2523   */\n  gt\n    /* \"#utility.yul\":2505:2627   */\n  iszero\n  tag_91\n  jumpi\n    /* \"#utility.yul\":2538:2617   */\n  tag_92\n  tag_44\n  jump\t// in\ntag_92:\n    /* \"#utility.yul\":2505:2627   */\ntag_91:\n    /* \"#utility.yul\":2653:2659   */\n  dup4\n    /* \"#utility.yul\":2636:2867   */\ntag_93:\n    /* \"#utility.yul\":2670:2676   */\n  dup2\n    /* \"#utility.yul\":2665:2668   */\n  dup2\n    /* \"#utility.yul\":2662:2677   */\n  lt\n    /* \"#utility.yul\":2636:2867   */\n  iszero\n  tag_95\n  jumpi\n    /* \"#utility.yul\":2745:2748   */\n  dup1\n    /* \"#utility.yul\":2774:2822   */\n  tag_96\n    /* \"#utility.yul\":2818:2821   */\n  dup9\n    /* \"#utility.yul\":2806:2816   */\n  dup3\n    /* \"#utility.yul\":2774:2822   */\n  tag_48\n  jump\t// in\ntag_96:\n    /* \"#utility.yul\":2769:2772   */\n  dup5\n    /* \"#utility.yul\":2762:2823   */\n  mstore\n    /* \"#utility.yul\":2852:2856   */\n  0x20\n    /* \"#utility.yul\":2847:2850   */\n  dup5\n    /* \"#utility.yul\":2843:2857   */\n  add\n    /* \"#utility.yul\":2836:2857   */\n  swap4\n  pop\n    /* \"#utility.yul\":2712:2867   */\n  pop\n    /* \"#utility.yul\":2696:2700   */\n  0x20\n    /* \"#utility.yul\":2691:2694   */\n  dup2\n    /* \"#utility.yul\":2687:2701   */\n  add\n    /* \"#utility.yul\":2680:2701   */\n  swap1\n  pop\n    /* \"#utility.yul\":2636:2867   */\n  jump(tag_93)\ntag_95:\n    /* \"#utility.yul\":2640:2661   */\n  pop\n    /* \"#utility.yul\":2254:2873   */\n  pop\n  pop\n    /* \"#utility.yul\":2141:2873   */\n  swap4\n  swap3\n  pop\n  pop\n  pop\n  jump\t// out\n    /* \"#utility.yul\":2896:3281   */\ntag_50:\n    /* \"#utility.yul\":2978:2983   */\n  0x00\n    /* \"#utility.yul\":3027:3030   */\n  dup3\n    /* \"#utility.yul\":3020:3024   */\n  0x1f\n    /* \"#utility.yul\":3012:3018   */\n  dup4\n    /* \"#utility.yul\":3008:3025   */\n  add\n    /* \"#utility.yul\":3004:3031   */\n  slt\n    /* \"#utility.yul\":2994:3116   */\n  tag_98\n  jumpi\n    /* \"#utility.yul\":3035:3114   */\n  tag_99\n  tag_38\n  jump\t// in\ntag_99:\n    /* \"#utility.yul\":2994:3116   */\ntag_98:\n    /* \"#utility.yul\":3145:3151   */\n  dup2\n    /* \"#utility.yul\":3139:3152   */\n  mload\n    /* \"#utility.yul\":3170:3275   */\n  tag_100\n    /* \"#utility.yul\":3271:3274   */\n  dup5\n    /* \"#utility.yul\":3263:3269   */\n  dup3\n    /* \"#utility.yul\":3256:3260   */\n  0x20\n    /* \"#utility.yul\":3248:3254   */\n  dup7\n    /* \"#utility.yul\":3244:3261   */\n  add\n    /* \"#utility.yul\":3170:3275   */\n  tag_49\n  jump\t// in\ntag_100:\n    /* \"#utility.yul\":3161:3275   */\n  swap2\n  pop\n    /* \"#utility.yul\":2984:3281   */\n  pop\n    /* \"#utility.yul\":2896:3281   */\n  swap3\n  swap2\n  pop\n  pop\n  jump\t// out\n    /* \"#utility.yul\":3287:3364   */\ntag_51:\n    /* \"#utility.yul\":3324:3331   */\n  0x00\n    /* \"#utility.yul\":3353:3358   */\n  dup2\n    /* \"#utility.yul\":3342:3358   */\n  swap1\n  pop\n    /* \"#utility.yul\":3287:3364   */\n  swap2\n  swap1\n  pop\n  jump\t// out\n    /* \"#utility.yul\":3370:3492   */\ntag_52:\n    /* \"#utility.yul\":3443:3467   */\n  tag_103\n    /* \"#utility.yul\":3461:3466   */\n  dup2\n    /* \"#utility.yul\":3443:3467   */\n  tag_51\n  jump\t// in\ntag_103:\n    /* \"#utility.yul\":3436:3441   */\n  dup2\n    /* \"#utility.yul\":3433:3468   */\n  eq\n    /* \"#utility.yul\":3423:3486   */\n  tag_104\n  jumpi\n    /* \"#utility.yul\":3482:3483   */\n  0x00\n    /* \"#utility.yul\":3479:3480   */\n  dup1\n    /* \"#utility.yul\":3472:3484   */\n  revert\n    /* \"#utility.yul\":3423:3486   */\ntag_104:\n    /* \"#utility.yul\":3370:3492   */\n  pop\n  jump\t// out\n    /* \"#utility.yul\":3498:3641   */\ntag_53:\n    /* \"#utility.yul\":3555:3560   */\n  0x00\n    /* \"#utility.yul\":3586:3592   */\n  dup2\n    /* \"#utility.yul\":3580:3593   */\n  mload\n    /* \"#utility.yul\":3571:3593   */\n  swap1\n  pop\n    /* \"#utility.yul\":3602:3635   */\n  tag_106\n    /* \"#utility.yul\":3629:3634   */\n  dup2\n    /* \"#utility.yul\":3602:3635   */\n  tag_52\n  jump\t// in\ntag_106:\n    /* \"#utility.yul\":3498:3641   */\n  swap3\n  swap2\n  pop\n  pop\n  jump\t// out\n    /* \"#utility.yul\":3647:4357   */\ntag_3:\n    /* \"#utility.yul\":3751:3757   */\n  0x00\n    /* \"#utility.yul\":3759:3765   */\n  dup1\n    /* \"#utility.yul\":3808:3810   */\n  0x40\n    /* \"#utility.yul\":3796:3805   */\n  dup4\n    /* \"#utility.yul\":3787:3794   */\n  dup6\n    /* \"#utility.yul\":3783:3806   */\n  sub\n    /* \"#utility.yul\":3779:3811   */\n  slt\n    /* \"#utility.yul\":3776:3895   */\n  iszero\n  tag_108\n  jumpi\n    /* \"#utility.yul\":3814:3893   */\n  tag_109\n  tag_36\n  jump\t// in\ntag_109:\n    /* \"#utility.yul\":3776:3895   */\ntag_108:\n    /* \"#utility.yul\":3955:3956   */\n  0x00\n    /* \"#utility.yul\":3944:3953   */\n  dup4\n    /* \"#utility.yul\":3940:3957   */\n  add\n    /* \"#utility.yul\":3934:3958   */\n  mload\n    /* \"#utility.yul\":3985:4003   */\n  0xffffffffffffffff\n    /* \"#utility.yul\":3977:3983   */\n  dup2\n    /* \"#utility.yul\":3974:4004   */\n  gt\n    /* \"#utility.yul\":3971:4088   */\n  iszero\n  tag_110\n  jumpi\n    /* \"#utility.yul\":4007:4086   */\n  tag_111\n  tag_37\n  jump\t// in\ntag_111:\n    /* \"#utility.yul\":3971:4088   */\ntag_110:\n    /* \"#utility.yul\":4112:4201   */\n  tag_112\n    /* \"#utility.yul\":4193:4200   */\n  dup6\n    /* \"#utility.yul\":4184:4190   */\n  dup3\n    /* \"#utility.yul\":4173:4182   */\n  dup7\n    /* \"#utility.yul\":4169:4191   */\n  add\n    /* \"#utility.yul\":4112:4201   */\n  tag_50\n  jump\t// in\ntag_112:\n    /* \"#utility.yul\":4102:4201   */\n  swap3\n  pop\n    /* \"#utility.yul\":3905:4211   */\n  pop\n    /* \"#utility.yul\":4250:4252   */\n  0x20\n    /* \"#utility.yul\":4276:4340   */\n  tag_113\n    /* \"#utility.yul\":4332:4339   */\n  dup6\n    /* \"#utility.yul\":4323:4329   */\n  dup3\n    /* \"#utility.yul\":4312:4321   */\n  dup7\n    /* \"#utility.yul\":4308:4330   */\n  add\n    /* \"#utility.yul\":4276:4340   */\n  tag_53\n  jump\t// in\ntag_113:\n    /* \"#utility.yul\":4266:4340   */\n  swap2\n  pop\n    /* \"#utility.yul\":4221:4350   */\n  pop\n    /* \"#utility.yul\":3647:4357   */\n  swap3\n  pop\n  swap3\n  swap1\n  pop\n  jump\t// out\n    /* \"#utility.yul\":4363:4532   */\ntag_54:\n    /* \"#utility.yul\":4447:4458   */\n  0x00\n    /* \"#utility.yul\":4481:4487   */\n  dup3\n    /* \"#utility.yul\":4476:4479   */\n  dup3\n    /* \"#utility.yul\":4469:4488   */\n  mstore\n    /* \"#utility.yul\":4521:4525   */\n  0x20\n    /* \"#utility.yul\":4516:4519   */\n  dup3\n    /* \"#utility.yul\":4512:4526   */\n  add\n    /* \"#utility.yul\":4497:4526   */\n  swap1\n  pop\n    /* \"#utility.yul\":4363:4532   */\n  swap3\n  swap2\n  pop\n  pop\n  jump\t// out\n    /* \"#utility.yul\":4538:4719   */\ntag_55:\n    /* \"#utility.yul\":4678:4711   */\n  0x4174206c65617374206f6e65206d656d62657220697320726571756972656400\n    /* \"#utility.yul\":4674:4675   */\n  0x00\n    /* \"#utility.yul\":4666:4672   */\n  dup3\n    /* \"#utility.yul\":4662:4676   */\n  add\n    /* \"#utility.yul\":4655:4712   */\n  mstore\n    /* \"#utility.yul\":4538:4719   */\n  pop\n  jump\t// out\n    /* \"#utility.yul\":4725:5091   */\ntag_56:\n    /* \"#utility.yul\":4867:4870   */\n  0x00\n    /* \"#utility.yul\":4888:4955   */\n  tag_117\n    /* \"#utility.yul\":4952:4954   */\n  0x1f\n    /* \"#utility.yul\":4947:4950   */\n  dup4\n    /* \"#utility.yul\":4888:4955   */\n  tag_54\n  jump\t// in\ntag_117:\n    /* \"#utility.yul\":4881:4955   */\n  swap2\n  pop\n    /* \"#utility.yul\":4964:5057   */\n  tag_118\n    /* \"#utility.yul\":5053:5056   */\n  dup3\n    /* \"#utility.yul\":4964:5057   */\n  tag_55\n  jump\t// in\ntag_118:\n    /* \"#utility.yul\":5082:5084   */\n  0x20\n    /* \"#utility.yul\":5077:5080   */\n  dup3\n    /* \"#utility.yul\":5073:5085   */\n  add\n    /* \"#utility.yul\":5066:5085   */\n  swap1\n  pop\n    /* \"#utility.yul\":4725:5091   */\n  swap2\n  swap1\n  pop\n  jump\t// out\n    /* \"#utility.yul\":5097:5516   */\ntag_8:\n    /* \"#utility.yul\":5263:5267   */\n  0x00\n    /* \"#utility.yul\":5301:5303   */\n  0x20\n    /* \"#utility.yul\":5290:5299   */\n  dup3\n    /* \"#utility.yul\":5286:5304   */\n  add\n    /* \"#utility.yul\":5278:5304   */\n  swap1\n  pop\n    /* \"#utility.yul\":5350:5359   */\n  dup2\n    /* \"#utility.yul\":5344:5348   */\n  dup2\n    /* \"#utility.yul\":5340:5360   */\n  sub\n    /* \"#utility.yul\":5336:5337   */\n  0x00\n    /* \"#utility.yul\":5325:5334   */\n  dup4\n    /* \"#utility.yul\":5321:5338   */\n  add\n    /* \"#utility.yul\":5314:5361   */\n  mstore\n    /* \"#utility.yul\":5378:5509   */\n  tag_120\n    /* \"#utility.yul\":5504:5508   */\n  dup2\n    /* \"#utility.yul\":5378:5509   */\n  tag_56\n  jump\t// in\ntag_120:\n    /* \"#utility.yul\":5370:5509   */\n  swap1\n  pop\n    /* \"#utility.yul\":5097:5516   */\n  swap2\n  swap1\n  pop\n  jump\t// out\n    /* \"#utility.yul\":5522:5702   */\ntag_57:\n    /* \"#utility.yul\":5662:5694   */\n  0x43726564697473206d7573742062652067726561746572207468616e20300000\n    /* \"#utility.yul\":5658:5659   */\n  0x00\n    /* \"#utility.yul\":5650:5656   */\n  dup3\n    /* \"#utility.yul\":5646:5660   */\n  add\n    /* \"#utility.yul\":5639:5695   */\n  mstore\n    /* \"#utility.yul\":5522:5702   */\n  pop\n  jump\t// out\n    /* \"#utility.yul\":5708:6074   */\ntag_58:\n    /* \"#utility.yul\":5850:5853   */\n  0x00\n    /* \"#utility.yul\":5871:5938   */\n  tag_123\n    /* \"#utility.yul\":5935:5937   */\n  0x1e\n    /* \"#utility.yul\":5930:5933   */\n  dup4\n    /* \"#utility.yul\":5871:5938   */\n  tag_54\n  jump\t// in\ntag_123:\n    /* \"#utility.yul\":5864:5938   */\n  swap2\n  pop\n    /* \"#utility.yul\":5947:6040   */\n  tag_124\n    /* \"#utility.yul\":6036:6039   */\n  dup3\n    /* \"#utility.yul\":5947:6040   */\n  tag_57\n  jump\t// in\ntag_124:\n    /* \"#utility.yul\":6065:6067   */\n  0x20\n    /* \"#utility.yul\":6060:6063   */\n  dup3\n    /* \"#utility.yul\":6056:6068   */\n  add\n    /* \"#utility.yul\":6049:6068   */\n  swap1\n  pop\n    /* \"#utility.yul\":5708:6074   */\n  swap2\n  swap1\n  pop\n  jump\t// out\n    /* \"#utility.yul\":6080:6499   */\ntag_11:\n    /* \"#utility.yul\":6246:6250   */\n  0x00\n    /* \"#utility.yul\":6284:6286   */\n  0x20\n    /* \"#utility.yul\":6273:6282   */\n  dup3\n    /* \"#utility.yul\":6269:6287   */\n  add\n    /* \"#utility.yul\":6261:6287   */\n  swap1\n  pop\n    /* \"#utility.yul\":6333:6342   */\n  dup2\n    /* \"#utility.yul\":6327:6331   */\n  dup2\n    /* \"#utility.yul\":6323:6343   */\n  sub\n    /* \"#utility.yul\":6319:6320   */\n  0x00\n    /* \"#utility.yul\":6308:6317   */\n  dup4\n    /* \"#utility.yul\":6304:6321   */\n  add\n    /* \"#utility.yul\":6297:6344   */\n  mstore\n    /* \"#utility.yul\":6361:6492   */\n  tag_126\n    /* \"#utility.yul\":6487:6491   */\n  dup2\n    /* \"#utility.yul\":6361:6492   */\n  tag_58\n  jump\t// in\ntag_126:\n    /* \"#utility.yul\":6353:6492   */\n  swap1\n  pop\n    /* \"#utility.yul\":6080:6499   */\n  swap2\n  swap1\n  pop\n  jump\t// out\n    /* \"#utility.yul\":6505:6685   */\ntag_19:\n    /* \"#utility.yul\":6553:6630   */\n  0x4e487b7100000000000000000000000000000000000000000000000000000000\n    /* \"#utility.yul\":6550:6551   */\n  0x00\n    /* \"#utility.yul\":6543:6631   */\n  mstore\n    /* \"#utility.yul\":6650:6654   */\n  0x32\n    /* \"#utility.yul\":6647:6648   */\n  0x04\n    /* \"#utility.yul\":6640:6655   */\n  mstore\n    /* \"#utility.yul\":6674:6678   */\n  0x24\n    /* \"#utility.yul\":6671:6672   */\n  0x00\n    /* \"#utility.yul\":6664:6679   */\n  revert\n    /* \"#utility.yul\":6691:6873   */\ntag_59:\n    /* \"#utility.yul\":6831:6865   */\n  0x4465706c6f7965722063616e6e6f742062652061207465616d206d656d626572\n    /* \"#utility.yul\":6827:6828   */\n  0x00\n    /* \"#utility.yul\":6819:6825   */\n  dup3\n    /* \"#utility.yul\":6815:6829   */\n  add\n    /* \"#utility.yul\":6808:6866   */\n  mstore\n    /* \"#utility.yul\":6691:6873   */\n  pop\n  jump\t// out\n    /* \"#utility.yul\":6879:7245   */\ntag_60:\n    /* \"#utility.yul\":7021:7024   */\n  0x00\n    /* \"#utility.yul\":7042:7109   */\n  tag_130\n    /* \"#utility.yul\":7106:7108   */\n  0x20\n    /* \"#utility.yul\":7101:7104   */\n  dup4\n    /* \"#utility.yul\":7042:7109   */\n  tag_54\n  jump\t// in\ntag_130:\n    /* \"#utility.yul\":7035:7109   */\n  swap2\n  pop\n    /* \"#utility.yul\":7118:7211   */\n  tag_131\n    /* \"#utility.yul\":7207:7210   */\n  dup3\n    /* \"#utility.yul\":7118:7211   */\n  tag_59\n  jump\t// in\ntag_131:\n    /* \"#utility.yul\":7236:7238   */\n  0x20\n    /* \"#utility.yul\":7231:7234   */\n  dup3\n    /* \"#utility.yul\":7227:7239   */\n  add\n    /* \"#utility.yul\":7220:7239   */\n  swap1\n  pop\n    /* \"#utility.yul\":6879:7245   */\n  swap2\n  swap1\n  pop\n  jump\t// out\n    /* \"#utility.yul\":7251:7670   */\ntag_22:\n    /* \"#utility.yul\":7417:7421   */\n  0x00\n    /* \"#utility.yul\":7455:7457   */\n  0x20\n    /* \"#utility.yul\":7444:7453   */\n  dup3\n    /* \"#utility.yul\":7440:7458   */\n  add\n    /* \"#utility.yul\":7432:7458   */\n  swap1\n  pop\n    /* \"#utility.yul\":7504:7513   */\n  dup2\n    /* \"#utility.yul\":7498:7502   */\n  dup2\n    /* \"#utility.yul\":7494:7514   */\n  sub\n    /* \"#utility.yul\":7490:7491   */\n  0x00\n    /* \"#utility.yul\":7479:7488   */\n  dup4\n    /* \"#utility.yul\":7475:7492   */\n  add\n    /* \"#utility.yul\":7468:7515   */\n  mstore\n    /* \"#utility.yul\":7532:7663   */\n  tag_133\n    /* \"#utility.yul\":7658:7662   */\n  dup2\n    /* \"#utility.yul\":7532:7663   */\n  tag_60\n  jump\t// in\ntag_133:\n    /* \"#utility.yul\":7524:7663   */\n  swap1\n  pop\n    /* \"#utility.yul\":7251:7670   */\n  swap2\n  swap1\n  pop\n  jump\t// out\n    /* \"#utility.yul\":7676:7856   */\ntag_61:\n    /* \"#utility.yul\":7724:7801   */\n  0x4e487b7100000000000000000000000000000000000000000000000000000000\n    /* \"#utility.yul\":7721:7722   */\n  0x00\n    /* \"#utility.yul\":7714:7802   */\n  mstore\n    /* \"#utility.yul\":7821:7825   */\n  0x11\n    /* \"#utility.yul\":7818:7819   */\n  0x04\n    /* \"#utility.yul\":7811:7826   */\n  mstore\n    /* \"#utility.yul\":7845:7849   */\n  0x24\n    /* \"#utility.yul\":7842:7843   */\n  0x00\n    /* \"#utility.yul\":7835:7850   */\n  revert\n    /* \"#utility.yul\":7862:8095   */\ntag_26:\n    /* \"#utility.yul\":7901:7904   */\n  0x00\n    /* \"#utility.yul\":7924:7948   */\n  tag_136\n    /* \"#utility.yul\":7942:7947   */\n  dup3\n    /* \"#utility.yul\":7924:7948   */\n  tag_51\n  jump\t// in\ntag_136:\n    /* \"#utility.yul\":7915:7948   */\n  swap2\n  pop\n    /* \"#utility.yul\":7970:8036   */\n  0xffffffffffffffffffffffffffffffffffffffffffffffffffffffffffffffff\n    /* \"#utility.yul\":7963:7968   */\n  dup3\n    /* \"#utility.yul\":7960:8037   */\n  sub\n    /* \"#utility.yul\":7957:8060   */\n  tag_137\n  jumpi\n    /* \"#utility.yul\":8040:8058   */\n  tag_138\n  tag_61\n  jump\t// in\ntag_138:\n    /* \"#utility.yul\":7957:8060   */\ntag_137:\n    /* \"#utility.yul\":8087:8088   */\n  0x01\n    /* \"#utility.yul\":8080:8085   */\n  dup3\n    /* \"#utility.yul\":8076:8089   */\n  add\n    /* \"#utility.yul\":8069:8089   */\n  swap1\n  pop\n    /* \"#utility.yul\":7862:8095   */\n  swap2\n  swap1\n  pop\n  jump\t// out\n    /* \"lcm.sol\":1854:5858  contract SharedWallet {... */\ntag_27:\n  dataSize(sub_0)\n  dup1\n  dataOffset(sub_0)\n  0x00\n  codecopy\n  0x00\n  return\nstop\n\nsub_0: assembly {\n        /* \"lcm.sol\":1854:5858  contract SharedWallet {... */\n      mstore(0x40, 0x80)\n      callvalue\n      dup1\n      iszero\n      tag_1\n      jumpi\n      0x00\n      dup1\n      revert\n    tag_1:\n      pop\n      jumpi(tag_2, lt(calldatasize, 0x04))\n      shr(0xe0, calldataload(0x00))\n      dup1\n      0x9c86836b\n      gt\n      tag_14\n      jumpi\n      dup1\n      0x9c86836b\n      eq\n      tag_8\n      jumpi\n      dup1\n      0xa230c524\n      eq\n      tag_9\n      jumpi\n      dup1\n      0xb5bd3eb9\n      eq\n      tag_10\n      jumpi\n      dup1\n      0xb759f954\n      eq\n      tag_11\n      jumpi\n      dup1\n      0xb8adaa11\n      eq\n      tag_12\n      jumpi\n      dup1\n      0xd5f39488\n      eq\n      tag_13\n      jumpi\n      jump(tag_2)\n    tag_14:\n      dup1\n      0x1dbf3bc7\n      eq\n      tag_3\n      jumpi\n      dup1\n      0x26540fd2\n      eq\n      tag_4\n      jumpi\n      dup1\n      0x5daf08ca\n      eq\n      tag_5\n      jumpi\n      dup1\n      0x8916d12c\n      eq\n      tag_6\n      jumpi\n      dup1\n      0x9ace38c2\n      eq\n      tag_7\n      jumpi\n    tag_2:\n      0x00\n      dup1\n      revert\n        /* \"lcm.sol\":3666:4011  function spend(uint _amount) public onlyMembers {... */\n    tag_3:\n      tag_15\n      0x04\n      dup1\n      calldatasize\n      sub\n      dup2\n      add\n      swap1\n      tag_16\n      swap2\n      swap1\n      tag_17\n      jump\t// in\n    tag_16:\n      tag_18\n      jump\t// in\n    tag_15:\n      stop\n        /* \"lcm.sol\":5214:5310  function credits() public view onlyMembers returns (uint) {... */\n    tag_4:\n      tag_19\n      tag_20\n      jump\t// in\n    tag_19:\n      mload(0x40)\n      tag_21\n      swap2\n      swap1\n      tag_22\n      jump\t// in\n    tag_21:\n      mload(0x40)\n      dup1\n      swap2\n      sub\n      swap1\n      return\n        /* \"lcm.sol\":1913:1937  address[] public members */\n    tag_5:\n      tag_23\n      0x04\n      dup1\n      calldatasize\n      sub\n      dup2\n      add\n      swap1\n      tag_24\n      swap2\n      swap1\n      tag_17\n      jump\t// in\n    tag_24:\n      tag_25\n      jump\t// in\n    tag_23:\n      mload(0x40)\n      tag_26\n      swap2\n      swap1\n      tag_27\n      jump\t// in\n    tag_26:\n      mload(0x40)\n      dup1\n      swap2\n      sub\n      swap1\n      return\n        /* \"lcm.sol\":5322:5849  function viewTransaction(uint _n) public view onlyMembers returns (uint, string memory) {... */\n    tag_6:\n      tag_28\n      0x04\n      dup1\n      calldatasize\n      sub\n      dup2\n      add\n      swap1\n      tag_29\n      swap2\n      swap1\n      tag_17\n      jump\t// in\n    tag_29:\n      tag_30\n      jump\t// in\n    tag_28:\n      mload(0x40)\n      tag_31\n      swap3\n      swap2\n      swap1\n      tag_32\n      jump\t// in\n    tag_31:\n      mload(0x40)\n      dup1\n      swap2\n      sub\n      swap1\n      return\n        /* \"lcm.sol\":2209:2242  Transaction[] public transactions */\n    tag_7:\n      tag_33\n      0x04\n      dup1\n      calldatasize\n      sub\n      dup2\n      add\n      swap1\n      tag_34\n      swap2\n      swap1\n      tag_17\n      jump\t// in\n    tag_34:\n      tag_35\n      jump\t// in\n    tag_33:\n      mload(0x40)\n      tag_36\n      swap4\n      swap3\n      swap2\n      swap1\n      tag_37\n      jump\t// in\n    tag_36:\n      mload(0x40)\n      dup1\n      swap2\n      sub\n      swap1\n      return\n        /* \"lcm.sol\":3093:3660  function setWallet(address[] memory _members, uint _credits) public onlyDeployer {... */\n    tag_8:\n      tag_38\n      0x04\n      dup1\n      calldatasize\n      sub\n      dup2\n      add\n      swap1\n      tag_39\n      swap2\n      swap1\n      tag_40\n      jump\t// in\n    tag_39:\n      tag_41\n      jump\t// in\n    tag_38:\n      stop\n        /* \"lcm.sol\":2249:2289  mapping(address => bool) public isMember */\n    tag_9:\n      tag_42\n      0x04\n      dup1\n      calldatasize\n      sub\n      dup2\n      add\n      swap1\n      tag_43\n      swap2\n      swap1\n      tag_44\n      jump\t// in\n    tag_43:\n      tag_45\n      jump\t// in\n    tag_42:\n      mload(0x40)\n      tag_46\n      swap2\n      swap1\n      tag_47\n      jump\t// in\n    tag_46:\n      mload(0x40)\n      dup1\n      swap2\n      sub\n      swap1\n      return\n        /* \"lcm.sol\":1944:1968  uint public totalCredits */\n    tag_10:\n      tag_48\n      tag_49\n      jump\t// in\n    tag_48:\n      mload(0x40)\n      tag_50\n      swap2\n      swap1\n      tag_22\n      jump\t// in\n    tag_50:\n      mload(0x40)\n      dup1\n      swap2\n      sub\n      swap1\n      return\n        /* \"lcm.sol\":4019:4738  function approve(uint _n) public  onlyMembers {... */\n    tag_11:\n      tag_51\n      0x04\n      dup1\n      calldatasize\n      sub\n      dup2\n      add\n      swap1\n      tag_52\n      swap2\n      swap1\n      tag_17\n      jump\t// in\n    tag_52:\n      tag_53\n      jump\t// in\n    tag_51:\n      stop\n        /* \"lcm.sol\":4750:5202  function reject(uint _n) public onlyMembers {... */\n    tag_12:\n      tag_54\n      0x04\n      dup1\n      calldatasize\n      sub\n      dup2\n      add\n      swap1\n      tag_55\n      swap2\n      swap1\n      tag_17\n      jump\t// in\n    tag_55:\n      tag_56\n      jump\t// in\n    tag_54:\n      stop\n        /* \"lcm.sol\":1883:1906  address public deployer */\n    tag_13:\n      tag_57\n      tag_58\n      jump\t// in\n    tag_57:\n      mload(0x40)\n      tag_59\n      swap2\n      swap1\n      tag_27\n      jump\t// in\n    tag_59:\n      mload(0x40)\n      dup1\n      swap2\n      sub\n      swap1\n      return\n        /* \"lcm.sol\":3666:4011  function spend(uint _amount) public onlyMembers {... */\n    tag_18:\n        /* \"lcm.sol\":2486:2494  isMember */\n      0x04\n        /* \"lcm.sol\":2486:2506  isMember[msg.sender] */\n      0x00\n        /* \"lcm.sol\":2495:2505  msg.sender */\n      caller\n        /* \"lcm.sol\":2486:2506  isMember[msg.sender] */\n      0xffffffffffffffffffffffffffffffffffffffff\n      and\n      0xffffffffffffffffffffffffffffffffffffffff\n      and\n      dup2\n      mstore\n      0x20\n      add\n      swap1\n      dup2\n      mstore\n      0x20\n      add\n      0x00\n      keccak256\n      0x00\n      swap1\n      sload\n      swap1\n      0x0100\n      exp\n      swap1\n      div\n      0xff\n      and\n        /* \"lcm.sol\":2478:2551  require(isMember[msg.sender], \"Only team members can call this function\") */\n      tag_61\n      jumpi\n      mload(0x40)\n      0x08c379a000000000000000000000000000000000000000000000000000000000\n      dup2\n      mstore\n      0x04\n      add\n      tag_62\n      swap1\n      tag_63\n      jump\t// in\n    tag_62:\n      mload(0x40)\n      dup1\n      swap2\n      sub\n      swap1\n      revert\n    tag_61:\n        /* \"lcm.sol\":3739:3740  0 */\n      0x00\n        /* \"lcm.sol\":3729:3736  _amount */\n      dup2\n        /* \"lcm.sol\":3729:3740  _amount > 0 */\n      gt\n        /* \"lcm.sol\":3721:3774  require(_amount > 0, \"Amount must be greater than 0\") */\n      tag_65\n      jumpi\n      mload(0x40)\n      0x08c379a000000000000000000000000000000000000000000000000000000000\n      dup2\n      mstore\n      0x04\n      add\n      tag_66\n      swap1\n      tag_67\n      jump\t// in\n    tag_66:\n      mload(0x40)\n      dup1\n      swap2\n      sub\n      swap1\n      revert\n    tag_65:\n        /* \"lcm.sol\":3783:3817  Transaction storage newTransaction */\n      0x00\n        /* \"lcm.sol\":3820:3832  transactions */\n      0x03\n        /* \"lcm.sol\":3820:3839  transactions.push() */\n      0x01\n      dup2\n      0x01\n      dup2\n      sload\n      add\n      dup1\n      dup3\n      sstore\n      dup1\n      swap2\n      pop\n      pop\n      sub\n      swap1\n      0x00\n      mstore\n      keccak256(0x00, 0x20)\n      swap1\n      0x04\n      mul\n      add\n        /* \"lcm.sol\":3783:3839  Transaction storage newTransaction = transactions.push() */\n      swap1\n      pop\n        /* \"lcm.sol\":3870:3877  _amount */\n      dup2\n        /* \"lcm.sol\":3846:3860  newTransaction */\n      dup2\n        /* \"lcm.sol\":3846:3867  newTransaction.amount */\n      0x00\n      add\n        /* \"lcm.sol\":3846:3877  newTransaction.amount = _amount */\n      dup2\n      swap1\n      sstore\n      pop\n        /* \"lcm.sol\":3908:3933  TransactionStatus.Pending */\n      0x00\n        /* \"lcm.sol\":3884:3898  newTransaction */\n      dup2\n        /* \"lcm.sol\":3884:3905  newTransaction.status */\n      0x01\n      add\n      0x00\n        /* \"lcm.sol\":3884:3933  newTransaction.status = TransactionStatus.Pending */\n      0x0100\n      exp\n      dup2\n      sload\n      dup2\n      0xff\n      mul\n      not\n      and\n      swap1\n      dup4\n      0x02\n      dup2\n      gt\n      iszero\n      tag_69\n      jumpi\n      tag_70\n      tag_71\n      jump\t// in\n    tag_70:\n    tag_69:\n      mul\n      or\n      swap1\n      sstore\n      pop\n        /* \"lcm.sol\":3967:3968  1 */\n      0x01\n        /* \"lcm.sol\":3940:3954  newTransaction */\n      dup2\n        /* \"lcm.sol\":3940:3964  newTransaction.approvals */\n      0x02\n      add\n        /* \"lcm.sol\":3940:3968  newTransaction.approvals = 1 */\n      dup2\n      swap1\n      sstore\n      pop\n        /* \"lcm.sol\":3714:4011  {... */\n      pop\n        /* \"lcm.sol\":3666:4011  function spend(uint _amount) public onlyMembers {... */\n      pop\n      jump\t// out\n        /* \"lcm.sol\":5214:5310  function credits() public view onlyMembers returns (uint) {... */\n    tag_20:\n        /* \"lcm.sol\":5266:5270  uint */\n      0x00\n        /* \"lcm.sol\":2486:2494  isMember */\n      0x04\n        /* \"lcm.sol\":2486:2506  isMember[msg.sender] */\n      0x00\n        /* \"lcm.sol\":2495:2505  msg.sender */\n      caller\n        /* \"lcm.sol\":2486:2506  isMember[msg.sender] */\n      0xffffffffffffffffffffffffffffffffffffffff\n      and\n      0xffffffffffffffffffffffffffffffffffffffff\n      and\n      dup2\n      mstore\n      0x20\n      add\n      swap1\n      dup2\n      mstore\n      0x20\n      add\n      0x00\n      keccak256\n      0x00\n      swap1\n      sload\n      swap1\n      0x0100\n      exp\n      swap1\n      div\n      0xff\n      and\n        /* \"lcm.sol\":2478:2551  require(isMember[msg.sender], \"Only team members can call this function\") */\n      tag_73\n      jumpi\n      mload(0x40)\n      0x08c379a000000000000000000000000000000000000000000000000000000000\n      dup2\n      mstore\n      0x04\n      add\n      tag_74\n      swap1\n      tag_63\n      jump\t// in\n    tag_74:\n      mload(0x40)\n      dup1\n      swap2\n      sub\n      swap1\n      revert\n    tag_73:\n        /* \"lcm.sol\":5290:5302  totalCredits */\n      sload(0x02)\n        /* \"lcm.sol\":5283:5302  return totalCredits */\n      swap1\n      pop\n        /* \"lcm.sol\":5214:5310  function credits() public view onlyMembers returns (uint) {... */\n      swap1\n      jump\t// out\n        /* \"lcm.sol\":1913:1937  address[] public members */\n    tag_25:\n      0x01\n      dup2\n      dup2\n      sload\n      dup2\n      lt\n      tag_76\n      jumpi\n      0x00\n      dup1\n      revert\n    tag_76:\n      swap1\n      0x00\n      mstore\n      keccak256(0x00, 0x20)\n      add\n      0x00\n      swap2\n      pop\n      sload\n      swap1\n      0x0100\n      exp\n      swap1\n      div\n      0xffffffffffffffffffffffffffffffffffffffff\n      and\n      dup2\n      jump\t// out\n        /* \"lcm.sol\":5322:5849  function viewTransaction(uint _n) public view onlyMembers returns (uint, string memory) {... */\n    tag_30:\n        /* \"lcm.sol\":5389:5393  uint */\n      0x00\n        /* \"lcm.sol\":5395:5408  string memory */\n      0x60\n        /* \"lcm.sol\":2486:2494  isMember */\n      0x04\n        /* \"lcm.sol\":2486:2506  isMember[msg.sender] */\n      0x00\n        /* \"lcm.sol\":2495:2505  msg.sender */\n      caller\n        /* \"lcm.sol\":2486:2506  isMember[msg.sender] */\n      0xffffffffffffffffffffffffffffffffffffffff\n      and\n      0xffffffffffffffffffffffffffffffffffffffff\n      and\n      dup2\n      mstore\n      0x20\n      add\n      swap1\n      dup2\n      mstore\n      0x20\n      add\n      0x00\n      keccak256\n      0x00\n      swap1\n      sload\n      swap1\n      0x0100\n      exp\n      swap1\n      div\n      0xff\n      and\n        /* \"lcm.sol\":2478:2551  require(isMember[msg.sender], \"Only team members can call this function\") */\n      tag_79\n      jumpi\n      mload(0x40)\n      0x08c379a000000000000000000000000000000000000000000000000000000000\n      dup2\n      mstore\n      0x04\n      add\n      tag_80\n      swap1\n      tag_63\n      jump\t// in\n    tag_80:\n      mload(0x40)\n      dup1\n      swap2\n      sub\n      swap1\n      revert\n    tag_79:\n        /* \"lcm.sol\":5434:5446  transactions */\n      0x03\n        /* \"lcm.sol\":5434:5453  transactions.length */\n      dup1\n      sload\n      swap1\n      pop\n        /* \"lcm.sol\":5429:5431  _n */\n      dup4\n        /* \"lcm.sol\":5429:5453  _n < transactions.length */\n      lt\n        /* \"lcm.sol\":5421:5484  require(_n < transactions.length, \"Transaction does not exist\") */\n      tag_82\n      jumpi\n      mload(0x40)\n      0x08c379a000000000000000000000000000000000000000000000000000000000\n      dup2\n      mstore\n      0x04\n      add\n      tag_83\n      swap1\n      tag_84\n      jump\t// in\n    tag_83:\n      mload(0x40)\n      dup1\n      swap2\n      sub\n      swap1\n      revert\n    tag_82:\n        /* \"lcm.sol\":5536:5561  TransactionStatus.Pending */\n      0x00\n        /* \"lcm.sol\":5509:5561  transactions[_n].status == TransactionStatus.Pending */\n      0x02\n      dup2\n      gt\n      iszero\n      tag_85\n      jumpi\n      tag_86\n      tag_71\n      jump\t// in\n    tag_86:\n    tag_85:\n        /* \"lcm.sol\":5509:5521  transactions */\n      0x03\n        /* \"lcm.sol\":5522:5524  _n */\n      dup5\n        /* \"lcm.sol\":5509:5525  transactions[_n] */\n      dup2\n      sload\n      dup2\n      lt\n      tag_87\n      jumpi\n      tag_88\n      tag_89\n      jump\t// in\n    tag_88:\n    tag_87:\n      swap1\n      0x00\n      mstore\n      keccak256(0x00, 0x20)\n      swap1\n      0x04\n      mul\n      add\n        /* \"lcm.sol\":5509:5532  transactions[_n].status */\n      0x01\n      add\n      0x00\n      swap1\n      sload\n      swap1\n      0x0100\n      exp\n      swap1\n      div\n      0xff\n      and\n        /* \"lcm.sol\":5509:5561  transactions[_n].status == TransactionStatus.Pending */\n      0x02\n      dup2\n      gt\n      iszero\n      tag_91\n      jumpi\n      tag_92\n      tag_71\n      jump\t// in\n    tag_92:\n    tag_91:\n      sub\n        /* \"lcm.sol\":5505:5842  if (transactions[_n].status == TransactionStatus.Pending) {... */\n      tag_93\n      jumpi\n        /* \"lcm.sol\":5586:5598  transactions */\n      0x03\n        /* \"lcm.sol\":5599:5601  _n */\n      dup4\n        /* \"lcm.sol\":5586:5602  transactions[_n] */\n      dup2\n      sload\n      dup2\n      lt\n      tag_94\n      jumpi\n      tag_95\n      tag_89\n      jump\t// in\n    tag_95:\n    tag_94:\n      swap1\n      0x00\n      mstore\n      keccak256(0x00, 0x20)\n      swap1\n      0x04\n      mul\n      add\n        /* \"lcm.sol\":5586:5609  transactions[_n].amount */\n      0x00\n      add\n      sload\n        /* \"lcm.sol\":5578:5621  return (transactions[_n].amount, \"pending\") */\n      mload(0x40)\n      dup1\n      0x40\n      add\n      0x40\n      mstore\n      dup1\n      0x07\n      dup2\n      mstore\n      0x20\n      add\n      0x70656e64696e6700000000000000000000000000000000000000000000000000\n      dup2\n      mstore\n      pop\n      swap2\n      pop\n      swap2\n      pop\n      jump(tag_81)\n        /* \"lcm.sol\":5505:5842  if (transactions[_n].status == TransactionStatus.Pending) {... */\n    tag_93:\n        /* \"lcm.sol\":5670:5695  TransactionStatus.Debited */\n      0x01\n        /* \"lcm.sol\":5643:5695  transactions[_n].status == TransactionStatus.Debited */\n      0x02\n      dup2\n      gt\n      iszero\n      tag_98\n      jumpi\n      tag_99\n      tag_71\n      jump\t// in\n    tag_99:\n    tag_98:\n        /* \"lcm.sol\":5643:5655  transactions */\n      0x03\n        /* \"lcm.sol\":5656:5658  _n */\n      dup5\n        /* \"lcm.sol\":5643:5659  transactions[_n] */\n      dup2\n      sload\n      dup2\n      lt\n      tag_100\n      jumpi\n      tag_101\n      tag_89\n      jump\t// in\n    tag_101:\n    tag_100:\n      swap1\n      0x00\n      mstore\n      keccak256(0x00, 0x20)\n      swap1\n      0x04\n      mul\n      add\n        /* \"lcm.sol\":5643:5666  transactions[_n].status */\n      0x01\n      add\n      0x00\n      swap1\n      sload\n      swap1\n      0x0100\n      exp\n      swap1\n      div\n      0xff\n      and\n        /* \"lcm.sol\":5643:5695  transactions[_n].status == TransactionStatus.Debited */\n      0x02\n      dup2\n      gt\n      iszero\n      tag_103\n      jumpi\n      tag_104\n      tag_71\n      jump\t// in\n    tag_104:\n    tag_103:\n      sub\n        /* \"lcm.sol\":5639:5842  if (transactions[_n].status == TransactionStatus.Debited) {... */\n      tag_105\n      jumpi\n        /* \"lcm.sol\":5720:5732  transactions */\n      0x03\n        /* \"lcm.sol\":5733:5735  _n */\n      dup4\n        /* \"lcm.sol\":5720:5736  transactions[_n] */\n      dup2\n      sload\n      dup2\n      lt\n      tag_106\n      jumpi\n      tag_107\n      tag_89\n      jump\t// in\n    tag_107:\n    tag_106:\n      swap1\n      0x00\n      mstore\n      keccak256(0x00, 0x20)\n      swap1\n      0x04\n      mul\n      add\n        /* \"lcm.sol\":5720:5743  transactions[_n].amount */\n      0x00\n      add\n      sload\n        /* \"lcm.sol\":5712:5755  return (transactions[_n].amount, \"debited\") */\n      mload(0x40)\n      dup1\n      0x40\n      add\n      0x40\n      mstore\n      dup1\n      0x07\n      dup2\n      mstore\n      0x20\n      add\n      0x6465626974656400000000000000000000000000000000000000000000000000\n      dup2\n      mstore\n      pop\n      swap2\n      pop\n      swap2\n      pop\n      jump(tag_81)\n        /* \"lcm.sol\":5639:5842  if (transactions[_n].status == TransactionStatus.Debited) {... */\n    tag_105:\n        /* \"lcm.sol\":5796:5808  transactions */\n      0x03\n        /* \"lcm.sol\":5809:5811  _n */\n      dup4\n        /* \"lcm.sol\":5796:5812  transactions[_n] */\n      dup2\n      sload\n      dup2\n      lt\n      tag_110\n      jumpi\n      tag_111\n      tag_89\n      jump\t// in\n    tag_111:\n    tag_110:\n      swap1\n      0x00\n      mstore\n      keccak256(0x00, 0x20)\n      swap1\n      0x04\n      mul\n      add\n        /* \"lcm.sol\":5796:5819  transactions[_n].amount */\n      0x00\n      add\n      sload\n        /* \"lcm.sol\":5788:5830  return (transactions[_n].amount, \"failed\") */\n      mload(0x40)\n      dup1\n      0x40\n      add\n      0x40\n      mstore\n      dup1\n      0x06\n      dup2\n      mstore\n      0x20\n      add\n      0x6661696c65640000000000000000000000000000000000000000000000000000\n      dup2\n      mstore\n      pop\n      swap2\n      pop\n      swap2\n      pop\n        /* \"lcm.sol\":2562:2563  _ */\n    tag_81:\n        /* \"lcm.sol\":5322:5849  function viewTransaction(uint _n) public view onlyMembers returns (uint, string memory) {... */\n      swap2\n      pop\n      swap2\n      jump\t// out\n        /* \"lcm.sol\":2209:2242  Transaction[] public transactions */\n    tag_35:\n      0x03\n      dup2\n      dup2\n      sload\n      dup2\n      lt\n      tag_113\n      jumpi\n      0x00\n      dup1\n      revert\n    tag_113:\n      swap1\n      0x00\n      mstore\n      keccak256(0x00, 0x20)\n      swap1\n      0x04\n      mul\n      add\n      0x00\n      swap2\n      pop\n      swap1\n      pop\n      dup1\n      0x00\n      add\n      sload\n      swap1\n      dup1\n      0x01\n      add\n      0x00\n      swap1\n      sload\n      swap1\n      0x0100\n      exp\n      swap1\n      div\n      0xff\n      and\n      swap1\n      dup1\n      0x02\n      add\n      sload\n      swap1\n      pop\n      dup4\n      jump\t// out\n        /* \"lcm.sol\":3093:3660  function setWallet(address[] memory _members, uint _credits) public onlyDeployer {... */\n    tag_41:\n        /* \"lcm.sol\":2359:2367  deployer */\n      0x00\n      dup1\n      sload\n      swap1\n      0x0100\n      exp\n      swap1\n      div\n      0xffffffffffffffffffffffffffffffffffffffff\n      and\n        /* \"lcm.sol\":2345:2367  msg.sender == deployer */\n      0xffffffffffffffffffffffffffffffffffffffff\n      and\n        /* \"lcm.sol\":2345:2355  msg.sender */\n      caller\n        /* \"lcm.sol\":2345:2367  msg.sender == deployer */\n      0xffffffffffffffffffffffffffffffffffffffff\n      and\n      eq\n        /* \"lcm.sol\":2337:2412  require(msg.sender == deployer, \"Only the deployer can call this function\") */\n      tag_116\n      jumpi\n      mload(0x40)\n      0x08c379a000000000000000000000000000000000000000000000000000000000\n      dup2\n      mstore\n      0x04\n      add\n      tag_117\n      swap1\n      tag_118\n      jump\t// in\n    tag_117:\n      mload(0x40)\n      dup1\n      swap2\n      sub\n      swap1\n      revert\n    tag_116:\n        /* \"lcm.sol\":3211:3212  0 */\n      0x00\n        /* \"lcm.sol\":3193:3200  members */\n      0x01\n        /* \"lcm.sol\":3193:3207  members.length */\n      dup1\n      sload\n      swap1\n      pop\n        /* \"lcm.sol\":3193:3212  members.length == 0 */\n      eq\n        /* \"lcm.sol\":3185:3238  require(members.length == 0, \"Wallet is already set\") */\n      tag_120\n      jumpi\n      mload(0x40)\n      0x08c379a000000000000000000000000000000000000000000000000000000000\n      dup2\n      mstore\n      0x04\n      add\n      tag_121\n      swap1\n      tag_122\n      jump\t// in\n    tag_121:\n      mload(0x40)\n      dup1\n      swap2\n      sub\n      swap1\n      revert\n    tag_120:\n        /* \"lcm.sol\":3275:3276  0 */\n      0x00\n        /* \"lcm.sol\":3257:3265  _members */\n      dup3\n        /* \"lcm.sol\":3257:3272  _members.length */\n      mload\n        /* \"lcm.sol\":3257:3276  _members.length > 0 */\n      gt\n        /* \"lcm.sol\":3249:3312  require(_members.length > 0, \"At least one member is required\") */\n      tag_123\n      jumpi\n      mload(0x40)\n      0x08c379a000000000000000000000000000000000000000000000000000000000\n      dup2\n      mstore\n      0x04\n      add\n      tag_124\n      swap1\n      tag_125\n      jump\t// in\n    tag_124:\n      mload(0x40)\n      dup1\n      swap2\n      sub\n      swap1\n      revert\n    tag_123:\n        /* \"lcm.sol\":3342:3343  0 */\n      0x00\n        /* \"lcm.sol\":3331:3339  _credits */\n      dup2\n        /* \"lcm.sol\":3331:3343  _credits > 0 */\n      gt\n        /* \"lcm.sol\":3323:3378  require(_credits > 0, \"Credits must be greater than 0\") */\n      tag_126\n      jumpi\n      mload(0x40)\n      0x08c379a000000000000000000000000000000000000000000000000000000000\n      dup2\n      mstore\n      0x04\n      add\n      tag_127\n      swap1\n      tag_128\n      jump\t// in\n    tag_127:\n      mload(0x40)\n      dup1\n      swap2\n      sub\n      swap1\n      revert\n    tag_126:\n        /* \"lcm.sol\":3409:3417  _members */\n      dup2\n        /* \"lcm.sol\":3399:3406  members */\n      0x01\n        /* \"lcm.sol\":3399:3417  members = _members */\n      swap1\n      dup1\n      mload\n      swap1\n      0x20\n      add\n      swap1\n      tag_129\n      swap3\n      swap2\n      swap1\n      tag_130\n      jump\t// in\n    tag_129:\n      pop\n        /* \"lcm.sol\":3443:3451  _credits */\n      dup1\n        /* \"lcm.sol\":3428:3440  totalCredits */\n      0x02\n        /* \"lcm.sol\":3428:3451  totalCredits = _credits */\n      dup2\n      swap1\n      sstore\n      pop\n        /* \"lcm.sol\":3477:3483  uint i */\n      0x00\n        /* \"lcm.sol\":3472:3653  for (uint i = 0; i < _members.length; i++) {... */\n    tag_131:\n        /* \"lcm.sol\":3493:3501  _members */\n      dup3\n        /* \"lcm.sol\":3493:3508  _members.length */\n      mload\n        /* \"lcm.sol\":3489:3490  i */\n      dup2\n        /* \"lcm.sol\":3489:3508  i < _members.length */\n      lt\n        /* \"lcm.sol\":3472:3653  for (uint i = 0; i < _members.length; i++) {... */\n      iszero\n      tag_132\n      jumpi\n        /* \"lcm.sol\":3553:3561  deployer */\n      0x00\n      dup1\n      sload\n      swap1\n      0x0100\n      exp\n      swap1\n      div\n      0xffffffffffffffffffffffffffffffffffffffff\n      and\n        /* \"lcm.sol\":3538:3561  _members[i] != deployer */\n      0xffffffffffffffffffffffffffffffffffffffff\n      and\n        /* \"lcm.sol\":3538:3546  _members */\n      dup4\n        /* \"lcm.sol\":3547:3548  i */\n      dup3\n        /* \"lcm.sol\":3538:3549  _members[i] */\n      dup2\n      mload\n      dup2\n      lt\n      tag_134\n      jumpi\n      tag_135\n      tag_89\n      jump\t// in\n    tag_135:\n    tag_134:\n      0x20\n      mul\n      0x20\n      add\n      add\n      mload\n        /* \"lcm.sol\":3538:3561  _members[i] != deployer */\n      0xffffffffffffffffffffffffffffffffffffffff\n      and\n      sub\n        /* \"lcm.sol\":3530:3598  require(_members[i] != deployer, \"Deployer cannot be a team member\") */\n      tag_136\n      jumpi\n      mload(0x40)\n      0x08c379a000000000000000000000000000000000000000000000000000000000\n      dup2\n      mstore\n      0x04\n      add\n      tag_137\n      swap1\n      tag_138\n      jump\t// in\n    tag_137:\n      mload(0x40)\n      dup1\n      swap2\n      sub\n      swap1\n      revert\n    tag_136:\n        /* \"lcm.sol\":3637:3641  true */\n      0x01\n        /* \"lcm.sol\":3613:3621  isMember */\n      0x04\n        /* \"lcm.sol\":3613:3634  isMember[_members[i]] */\n      0x00\n        /* \"lcm.sol\":3622:3630  _members */\n      dup6\n        /* \"lcm.sol\":3631:3632  i */\n      dup5\n        /* \"lcm.sol\":3622:3633  _members[i] */\n      dup2\n      mload\n      dup2\n      lt\n      tag_139\n      jumpi\n      tag_140\n      tag_89\n      jump\t// in\n    tag_140:\n    tag_139:\n      0x20\n      mul\n      0x20\n      add\n      add\n      mload\n        /* \"lcm.sol\":3613:3634  isMember[_members[i]] */\n      0xffffffffffffffffffffffffffffffffffffffff\n      and\n      0xffffffffffffffffffffffffffffffffffffffff\n      and\n      dup2\n      mstore\n      0x20\n      add\n      swap1\n      dup2\n      mstore\n      0x20\n      add\n      0x00\n      keccak256\n      0x00\n        /* \"lcm.sol\":3613:3641  isMember[_members[i]] = true */\n      0x0100\n      exp\n      dup2\n      sload\n      dup2\n      0xff\n      mul\n      not\n      and\n      swap1\n      dup4\n      iszero\n      iszero\n      mul\n      or\n      swap1\n      sstore\n      pop\n        /* \"lcm.sol\":3510:3513  i++ */\n      dup1\n      dup1\n      tag_141\n      swap1\n      tag_142\n      jump\t// in\n    tag_141:\n      swap2\n      pop\n      pop\n        /* \"lcm.sol\":3472:3653  for (uint i = 0; i < _members.length; i++) {... */\n      jump(tag_131)\n    tag_132:\n      pop\n        /* \"lcm.sol\":3093:3660  function setWallet(address[] memory _members, uint _credits) public onlyDeployer {... */\n      pop\n      pop\n      jump\t// out\n        /* \"lcm.sol\":2249:2289  mapping(address => bool) public isMember */\n    tag_45:\n      mstore(0x20, 0x04)\n      dup1\n      0x00\n      mstore\n      keccak256(0x00, 0x40)\n      0x00\n      swap2\n      pop\n      sload\n      swap1\n      0x0100\n      exp\n      swap1\n      div\n      0xff\n      and\n      dup2\n      jump\t// out\n        /* \"lcm.sol\":1944:1968  uint public totalCredits */\n    tag_49:\n      sload(0x02)\n      dup2\n      jump\t// out\n        /* \"lcm.sol\":4019:4738  function approve(uint _n) public  onlyMembers {... */\n    tag_53:\n        /* \"lcm.sol\":2486:2494  isMember */\n      0x04\n        /* \"lcm.sol\":2486:2506  isMember[msg.sender] */\n      0x00\n        /* \"lcm.sol\":2495:2505  msg.sender */\n      caller\n        /* \"lcm.sol\":2486:2506  isMember[msg.sender] */\n      0xffffffffffffffffffffffffffffffffffffffff\n      and\n      0xffffffffffffffffffffffffffffffffffffffff\n      and\n      dup2\n      mstore\n      0x20\n      add\n      swap1\n      dup2\n      mstore\n      0x20\n      add\n      0x00\n      keccak256\n      0x00\n      swap1\n      sload\n      swap1\n      0x0100\n      exp\n      swap1\n      div\n      0xff\n      and\n        /* \"lcm.sol\":2478:2551  require(isMember[msg.sender], \"Only team members can call this function\") */\n      tag_144\n      jumpi\n      mload(0x40)\n      0x08c379a000000000000000000000000000000000000000000000000000000000\n      dup2\n      mstore\n      0x04\n      add\n      tag_145\n      swap1\n      tag_63\n      jump\t// in\n    tag_145:\n      mload(0x40)\n      dup1\n      swap2\n      sub\n      swap1\n      revert\n    tag_144:\n        /* \"lcm.sol\":4089:4101  transactions */\n      0x03\n        /* \"lcm.sol\":4089:4108  transactions.length */\n      dup1\n      sload\n      swap1\n      pop\n        /* \"lcm.sol\":4084:4086  _n */\n      dup2\n        /* \"lcm.sol\":4084:4108  _n < transactions.length */\n      lt\n        /* \"lcm.sol\":4076:4139  require(_n < transactions.length, \"Transaction does not exist\") */\n      tag_147\n      jumpi\n      mload(0x40)\n      0x08c379a000000000000000000000000000000000000000000000000000000000\n      dup2\n      mstore\n      0x04\n      add\n      tag_148\n      swap1\n      tag_84\n      jump\t// in\n    tag_148:\n      mload(0x40)\n      dup1\n      swap2\n      sub\n      swap1\n      revert\n    tag_147:\n        /* \"lcm.sol\":4159:4171  transactions */\n      0x03\n        /* \"lcm.sol\":4172:4174  _n */\n      dup2\n        /* \"lcm.sol\":4159:4175  transactions[_n] */\n      dup2\n      sload\n      dup2\n      lt\n      tag_149\n      jumpi\n      tag_150\n      tag_89\n      jump\t// in\n    tag_150:\n    tag_149:\n      swap1\n      0x00\n      mstore\n      keccak256(0x00, 0x20)\n      swap1\n      0x04\n      mul\n      add\n        /* \"lcm.sol\":4159:4184  transactions[_n].hasVoted */\n      0x03\n      add\n        /* \"lcm.sol\":4159:4196  transactions[_n].hasVoted[msg.sender] */\n      0x00\n        /* \"lcm.sol\":4185:4195  msg.sender */\n      caller\n        /* \"lcm.sol\":4159:4196  transactions[_n].hasVoted[msg.sender] */\n      0xffffffffffffffffffffffffffffffffffffffff\n      and\n      0xffffffffffffffffffffffffffffffffffffffff\n      and\n      dup2\n      mstore\n      0x20\n      add\n      swap1\n      dup2\n      mstore\n      0x20\n      add\n      0x00\n      keccak256\n      0x00\n      swap1\n      sload\n      swap1\n      0x0100\n      exp\n      swap1\n      div\n      0xff\n      and\n        /* \"lcm.sol\":4158:4196  !transactions[_n].hasVoted[msg.sender] */\n      iszero\n        /* \"lcm.sol\":4150:4243  require(!transactions[_n].hasVoted[msg.sender], \"You have already voted on this transaction\") */\n      tag_152\n      jumpi\n      mload(0x40)\n      0x08c379a000000000000000000000000000000000000000000000000000000000\n      dup2\n      mstore\n      0x04\n      add\n      tag_153\n      swap1\n      tag_154\n      jump\t// in\n    tag_153:\n      mload(0x40)\n      dup1\n      swap2\n      sub\n      swap1\n      revert\n    tag_152:\n        /* \"lcm.sol\":4264:4276  transactions */\n      0x03\n        /* \"lcm.sol\":4277:4279  _n */\n      dup2\n        /* \"lcm.sol\":4264:4280  transactions[_n] */\n      dup2\n      sload\n      dup2\n      lt\n      tag_155\n      jumpi\n      tag_156\n      tag_89\n      jump\t// in\n    tag_156:\n    tag_155:\n      swap1\n      0x00\n      mstore\n      keccak256(0x00, 0x20)\n      swap1\n      0x04\n      mul\n      add\n        /* \"lcm.sol\":4264:4290  transactions[_n].approvals */\n      0x02\n      add\n      0x00\n        /* \"lcm.sol\":4264:4292  transactions[_n].approvals++ */\n      dup2\n      sload\n      dup1\n      swap3\n      swap2\n      swap1\n      tag_158\n      swap1\n      tag_142\n      jump\t// in\n    tag_158:\n      swap2\n      swap1\n      pop\n      sstore\n      pop\n        /* \"lcm.sol\":4343:4347  true */\n      0x01\n        /* \"lcm.sol\":4303:4315  transactions */\n      0x03\n        /* \"lcm.sol\":4316:4318  _n */\n      dup3\n        /* \"lcm.sol\":4303:4319  transactions[_n] */\n      dup2\n      sload\n      dup2\n      lt\n      tag_159\n      jumpi\n      tag_160\n      tag_89\n      jump\t// in\n    tag_160:\n    tag_159:\n      swap1\n      0x00\n      mstore\n      keccak256(0x00, 0x20)\n      swap1\n      0x04\n      mul\n      add\n        /* \"lcm.sol\":4303:4328  transactions[_n].hasVoted */\n      0x03\n      add\n        /* \"lcm.sol\":4303:4340  transactions[_n].hasVoted[msg.sender] */\n      0x00\n        /* \"lcm.sol\":4329:4339  msg.sender */\n      caller\n        /* \"lcm.sol\":4303:4340  transactions[_n].hasVoted[msg.sender] */\n      0xffffffffffffffffffffffffffffffffffffffff\n      and\n      0xffffffffffffffffffffffffffffffffffffffff\n      and\n      dup2\n      mstore\n      0x20\n      add\n      swap1\n      dup2\n      mstore\n      0x20\n      add\n      0x00\n      keccak256\n      0x00\n        /* \"lcm.sol\":4303:4347  transactions[_n].hasVoted[msg.sender] = true */\n      0x0100\n      exp\n      dup2\n      sload\n      dup2\n      0xff\n      mul\n      not\n      and\n      swap1\n      dup4\n      iszero\n      iszero\n      mul\n      or\n      swap1\n      sstore\n      pop\n        /* \"lcm.sol\":4425:4427  70 */\n      0x46\n        /* \"lcm.sol\":4408:4415  members */\n      0x01\n        /* \"lcm.sol\":4408:4422  members.length */\n      dup1\n      sload\n      swap1\n      pop\n        /* \"lcm.sol\":4408:4427  members.length * 70 */\n      tag_162\n      swap2\n      swap1\n      tag_163\n      jump\t// in\n    tag_162:\n        /* \"lcm.sol\":4401:4404  100 */\n      0x64\n        /* \"lcm.sol\":4372:4384  transactions */\n      0x03\n        /* \"lcm.sol\":4385:4387  _n */\n      dup4\n        /* \"lcm.sol\":4372:4388  transactions[_n] */\n      dup2\n      sload\n      dup2\n      lt\n      tag_164\n      jumpi\n      tag_165\n      tag_89\n      jump\t// in\n    tag_165:\n    tag_164:\n      swap1\n      0x00\n      mstore\n      keccak256(0x00, 0x20)\n      swap1\n      0x04\n      mul\n      add\n        /* \"lcm.sol\":4372:4398  transactions[_n].approvals */\n      0x02\n      add\n      sload\n        /* \"lcm.sol\":4372:4404  transactions[_n].approvals * 100 */\n      tag_167\n      swap2\n      swap1\n      tag_163\n      jump\t// in\n    tag_167:\n        /* \"lcm.sol\":4372:4427  transactions[_n].approvals * 100 >= members.length * 70 */\n      lt\n        /* \"lcm.sol\":4368:4731  if (transactions[_n].approvals * 100 >= members.length * 70) {... */\n      tag_168\n      jumpi\n        /* \"lcm.sol\":4470:4495  TransactionStatus.Debited */\n      0x01\n        /* \"lcm.sol\":4444:4456  transactions */\n      0x03\n        /* \"lcm.sol\":4457:4459  _n */\n      dup3\n        /* \"lcm.sol\":4444:4460  transactions[_n] */\n      dup2\n      sload\n      dup2\n      lt\n      tag_169\n      jumpi\n      tag_170\n      tag_89\n      jump\t// in\n    tag_170:\n    tag_169:\n      swap1\n      0x00\n      mstore\n      keccak256(0x00, 0x20)\n      swap1\n      0x04\n      mul\n      add\n        /* \"lcm.sol\":4444:4467  transactions[_n].status */\n      0x01\n      add\n      0x00\n        /* \"lcm.sol\":4444:4495  transactions[_n].status = TransactionStatus.Debited */\n      0x0100\n      exp\n      dup2\n      sload\n      dup2\n      0xff\n      mul\n      not\n      and\n      swap1\n      dup4\n      0x02\n      dup2\n      gt\n      iszero\n      tag_172\n      jumpi\n      tag_173\n      tag_71\n      jump\t// in\n    tag_173:\n    tag_172:\n      mul\n      or\n      swap1\n      sstore\n      pop\n        /* \"lcm.sol\":4541:4553  totalCredits */\n      sload(0x02)\n        /* \"lcm.sol\":4514:4526  transactions */\n      0x03\n        /* \"lcm.sol\":4527:4529  _n */\n      dup3\n        /* \"lcm.sol\":4514:4530  transactions[_n] */\n      dup2\n      sload\n      dup2\n      lt\n      tag_174\n      jumpi\n      tag_175\n      tag_89\n      jump\t// in\n    tag_175:\n    tag_174:\n      swap1\n      0x00\n      mstore\n      keccak256(0x00, 0x20)\n      swap1\n      0x04\n      mul\n      add\n        /* \"lcm.sol\":4514:4537  transactions[_n].amount */\n      0x00\n      add\n      sload\n        /* \"lcm.sol\":4514:4553  transactions[_n].amount <= totalCredits */\n      gt\n        /* \"lcm.sol\":4510:4720  if (transactions[_n].amount <= totalCredits) {... */\n      tag_177\n      jumpi\n        /* \"lcm.sol\":4590:4602  transactions */\n      0x03\n        /* \"lcm.sol\":4603:4605  _n */\n      dup2\n        /* \"lcm.sol\":4590:4606  transactions[_n] */\n      dup2\n      sload\n      dup2\n      lt\n      tag_178\n      jumpi\n      tag_179\n      tag_89\n      jump\t// in\n    tag_179:\n    tag_178:\n      swap1\n      0x00\n      mstore\n      keccak256(0x00, 0x20)\n      swap1\n      0x04\n      mul\n      add\n        /* \"lcm.sol\":4590:4613  transactions[_n].amount */\n      0x00\n      add\n      sload\n        /* \"lcm.sol\":4574:4586  totalCredits */\n      0x02\n      0x00\n        /* \"lcm.sol\":4574:4613  totalCredits -= transactions[_n].amount */\n      dup3\n      dup3\n      sload\n      tag_181\n      swap2\n      swap1\n      tag_182\n      jump\t// in\n    tag_181:\n      swap3\n      pop\n      pop\n      dup2\n      swap1\n      sstore\n      pop\n        /* \"lcm.sol\":4510:4720  if (transactions[_n].amount <= totalCredits) {... */\n      jump(tag_183)\n    tag_177:\n        /* \"lcm.sol\":4680:4704  TransactionStatus.Failed */\n      0x02\n        /* \"lcm.sol\":4654:4666  transactions */\n      0x03\n        /* \"lcm.sol\":4667:4669  _n */\n      dup3\n        /* \"lcm.sol\":4654:4670  transactions[_n] */\n      dup2\n      sload\n      dup2\n      lt\n      tag_184\n      jumpi\n      tag_185\n      tag_89\n      jump\t// in\n    tag_185:\n    tag_184:\n      swap1\n      0x00\n      mstore\n      keccak256(0x00, 0x20)\n      swap1\n      0x04\n      mul\n      add\n        /* \"lcm.sol\":4654:4677  transactions[_n].status */\n      0x01\n      add\n      0x00\n        /* \"lcm.sol\":4654:4704  transactions[_n].status = TransactionStatus.Failed */\n      0x0100\n      exp\n      dup2\n      sload\n      dup2\n      0xff\n      mul\n      not\n      and\n      swap1\n      dup4\n      0x02\n      dup2\n      gt\n      iszero\n      tag_187\n      jumpi\n      tag_188\n      tag_71\n      jump\t// in\n    tag_188:\n    tag_187:\n      mul\n      or\n      swap1\n      sstore\n      pop\n        /* \"lcm.sol\":4510:4720  if (transactions[_n].amount <= totalCredits) {... */\n    tag_183:\n        /* \"lcm.sol\":4368:4731  if (transactions[_n].approvals * 100 >= members.length * 70) {... */\n    tag_168:\n        /* \"lcm.sol\":4019:4738  function approve(uint _n) public  onlyMembers {... */\n      pop\n      jump\t// out\n        /* \"lcm.sol\":4750:5202  function reject(uint _n) public onlyMembers {... */\n    tag_56:\n        /* \"lcm.sol\":2486:2494  isMember */\n      0x04\n        /* \"lcm.sol\":2486:2506  isMember[msg.sender] */\n      0x00\n        /* \"lcm.sol\":2495:2505  msg.sender */\n      caller\n        /* \"lcm.sol\":2486:2506  isMember[msg.sender] */\n      0xffffffffffffffffffffffffffffffffffffffff\n      and\n      0xffffffffffffffffffffffffffffffffffffffff\n      and\n      dup2\n      mstore\n      0x20\n      add\n      swap1\n      dup2\n      mstore\n      0x20\n      add\n      0x00\n      keccak256\n      0x00\n      swap1\n      sload\n      swap1\n      0x0100\n      exp\n      swap1\n      div\n      0xff\n      and\n        /* \"lcm.sol\":2478:2551  require(isMember[msg.sender], \"Only team members can call this function\") */\n      tag_190\n      jumpi\n      mload(0x40)\n      0x08c379a000000000000000000000000000000000000000000000000000000000\n      dup2\n      mstore\n      0x04\n      add\n      tag_191\n      swap1\n      tag_63\n      jump\t// in\n    tag_191:\n      mload(0x40)\n      dup1\n      swap2\n      sub\n      swap1\n      revert\n    tag_190:\n        /* \"lcm.sol\":4818:4830  transactions */\n      0x03\n        /* \"lcm.sol\":4818:4837  transactions.length */\n      dup1\n      sload\n      swap1\n      pop\n        /* \"lcm.sol\":4813:4815  _n */\n      dup2\n        /* \"lcm.sol\":4813:4837  _n < transactions.length */\n      lt\n        /* \"lcm.sol\":4805:4868  require(_n < transactions.length, \"Transaction does not exist\") */\n      tag_193\n      jumpi\n      mload(0x40)\n      0x08c379a000000000000000000000000000000000000000000000000000000000\n      dup2\n      mstore\n      0x04\n      add\n      tag_194\n      swap1\n      tag_84\n      jump\t// in\n    tag_194:\n      mload(0x40)\n      dup1\n      swap2\n      sub\n      swap1\n      revert\n    tag_193:\n        /* \"lcm.sol\":4888:4900  transactions */\n      0x03\n        /* \"lcm.sol\":4901:4903  _n */\n      dup2\n        /* \"lcm.sol\":4888:4904  transactions[_n] */\n      dup2\n      sload\n      dup2\n      lt\n      tag_195\n      jumpi\n      tag_196\n      tag_89\n      jump\t// in\n    tag_196:\n    tag_195:\n      swap1\n      0x00\n      mstore\n      keccak256(0x00, 0x20)\n      swap1\n      0x04\n      mul\n      add\n        /* \"lcm.sol\":4888:4913  transactions[_n].hasVoted */\n      0x03\n      add\n        /* \"lcm.sol\":4888:4925  transactions[_n].hasVoted[msg.sender] */\n      0x00\n        /* \"lcm.sol\":4914:4924  msg.sender */\n      caller\n        /* \"lcm.sol\":4888:4925  transactions[_n].hasVoted[msg.sender] */\n      0xffffffffffffffffffffffffffffffffffffffff\n      and\n      0xffffffffffffffffffffffffffffffffffffffff\n      and\n      dup2\n      mstore\n      0x20\n      add\n      swap1\n      dup2\n      mstore\n      0x20\n      add\n      0x00\n      keccak256\n      0x00\n      swap1\n      sload\n      swap1\n      0x0100\n      exp\n      swap1\n      div\n      0xff\n      and\n        /* \"lcm.sol\":4887:4925  !transactions[_n].hasVoted[msg.sender] */\n      iszero\n        /* \"lcm.sol\":4879:4972  require(!transactions[_n].hasVoted[msg.sender], \"You have already voted on this transaction\") */\n      tag_198\n      jumpi\n      mload(0x40)\n      0x08c379a000000000000000000000000000000000000000000000000000000000\n      dup2\n      mstore\n      0x04\n      add\n      tag_199\n      swap1\n      tag_154\n      jump\t// in\n    tag_199:\n      mload(0x40)\n      dup1\n      swap2\n      sub\n      swap1\n      revert\n    tag_198:\n        /* \"lcm.sol\":5033:5037  true */\n      0x01\n        /* \"lcm.sol\":4993:5005  transactions */\n      0x03\n        /* \"lcm.sol\":5006:5008  _n */\n      dup3\n        /* \"lcm.sol\":4993:5009  transactions[_n] */\n      dup2\n      sload\n      dup2\n      lt\n      tag_200\n      jumpi\n      tag_201\n      tag_89\n      jump\t// in\n    tag_201:\n    tag_200:\n      swap1\n      0x00\n      mstore\n      keccak256(0x00, 0x20)\n      swap1\n      0x04\n      mul\n      add\n        /* \"lcm.sol\":4993:5018  transactions[_n].hasVoted */\n      0x03\n      add\n        /* \"lcm.sol\":4993:5030  transactions[_n].hasVoted[msg.sender] */\n      0x00\n        /* \"lcm.sol\":5019:5029  msg.sender */\n      caller\n        /* \"lcm.sol\":4993:5030  transactions[_n].hasVoted[msg.sender] */\n      0xffffffffffffffffffffffffffffffffffffffff\n      and\n      0xffffffffffffffffffffffffffffffffffffffff\n      and\n      dup2\n      mstore\n      0x20\n      add\n      swap1\n      dup2\n      mstore\n      0x20\n      add\n      0x00\n      keccak256\n      0x00\n        /* \"lcm.sol\":4993:5037  transactions[_n].hasVoted[msg.sender] = true */\n      0x0100\n      exp\n      dup2\n      sload\n      dup2\n      0xff\n      mul\n      not\n      and\n      swap1\n      dup4\n      iszero\n      iszero\n      mul\n      or\n      swap1\n      sstore\n      pop\n        /* \"lcm.sol\":5114:5116  30 */\n      0x1e\n        /* \"lcm.sol\":5097:5104  members */\n      0x01\n        /* \"lcm.sol\":5097:5111  members.length */\n      dup1\n      sload\n      swap1\n      pop\n        /* \"lcm.sol\":5097:5116  members.length * 30 */\n      tag_203\n      swap2\n      swap1\n      tag_163\n      jump\t// in\n    tag_203:\n        /* \"lcm.sol\":5091:5094  100 */\n      0x64\n        /* \"lcm.sol\":5062:5074  transactions */\n      0x03\n        /* \"lcm.sol\":5075:5077  _n */\n      dup4\n        /* \"lcm.sol\":5062:5078  transactions[_n] */\n      dup2\n      sload\n      dup2\n      lt\n      tag_204\n      jumpi\n      tag_205\n      tag_89\n      jump\t// in\n    tag_205:\n    tag_204:\n      swap1\n      0x00\n      mstore\n      keccak256(0x00, 0x20)\n      swap1\n      0x04\n      mul\n      add\n        /* \"lcm.sol\":5062:5088  transactions[_n].approvals */\n      0x02\n      add\n      sload\n        /* \"lcm.sol\":5062:5094  transactions[_n].approvals * 100 */\n      tag_207\n      swap2\n      swap1\n      tag_163\n      jump\t// in\n    tag_207:\n        /* \"lcm.sol\":5062:5116  transactions[_n].approvals * 100 > members.length * 30 */\n      gt\n        /* \"lcm.sol\":5058:5195  if (transactions[_n].approvals * 100 > members.length * 30) {... */\n      iszero\n      tag_208\n      jumpi\n        /* \"lcm.sol\":5159:5183  TransactionStatus.Failed */\n      0x02\n        /* \"lcm.sol\":5133:5145  transactions */\n      0x03\n        /* \"lcm.sol\":5146:5148  _n */\n      dup3\n        /* \"lcm.sol\":5133:5149  transactions[_n] */\n      dup2\n      sload\n      dup2\n      lt\n      tag_209\n      jumpi\n      tag_210\n      tag_89\n      jump\t// in\n    tag_210:\n    tag_209:\n      swap1\n      0x00\n      mstore\n      keccak256(0x00, 0x20)\n      swap1\n      0x04\n      mul\n      add\n        /* \"lcm.sol\":5133:5156  transactions[_n].status */\n      0x01\n      add\n      0x00\n        /* \"lcm.sol\":5133:5183  transactions[_n].status = TransactionStatus.Failed */\n      0x0100\n      exp\n      dup2\n      sload\n      dup2\n      0xff\n      mul\n      not\n      and\n      swap1\n      dup4\n      0x02\n      dup2\n      gt\n      iszero\n      tag_212\n      jumpi\n      tag_213\n      tag_71\n      jump\t// in\n    tag_213:\n    tag_212:\n      mul\n      or\n      swap1\n      sstore\n      pop\n        /* \"lcm.sol\":5058:5195  if (transactions[_n].approvals * 100 > members.length * 30) {... */\n    tag_208:\n        /* \"lcm.sol\":4750:5202  function reject(uint _n) public onlyMembers {... */\n      pop\n      jump\t// out\n        /* \"lcm.sol\":1883:1906  address public deployer */\n    tag_58:\n      0x00\n      dup1\n      sload\n      swap1\n      0x0100\n      exp\n      swap1\n      div\n      0xffffffffffffffffffffffffffffffffffffffff\n      and\n      dup2\n      jump\t// out\n    tag_130:\n      dup3\n      dup1\n      sload\n      dup3\n      dup3\n      sstore\n      swap1\n      0x00\n      mstore\n      keccak256(0x00, 0x20)\n      swap1\n      dup2\n      add\n      swap3\n      dup3\n      iszero\n      tag_214\n      jumpi\n      swap2\n      0x20\n      mul\n      dup3\n      add\n    tag_215:\n      dup3\n      dup2\n      gt\n      iszero\n      tag_216\n      jumpi\n      dup3\n      mload\n      dup3\n      exp(0x0100, 0x00)\n      dup2\n      sload\n      dup2\n      0xffffffffffffffffffffffffffffffffffffffff\n      mul\n      not\n      and\n      swap1\n      dup4\n      0xffffffffffffffffffffffffffffffffffffffff\n      and\n      mul\n      or\n      swap1\n      sstore\n      pop\n      swap2\n      0x20\n      add\n      swap2\n      swap1\n      0x01\n      add\n      swap1\n      jump(tag_215)\n    tag_216:\n    tag_214:\n      pop\n      swap1\n      pop\n      tag_217\n      swap2\n      swap1\n      tag_218\n      jump\t// in\n    tag_217:\n      pop\n      swap1\n      jump\t// out\n    tag_218:\n    tag_219:\n      dup1\n      dup3\n      gt\n      iszero\n      tag_220\n      jumpi\n      0x00\n      dup2\n      0x00\n      swap1\n      sstore\n      pop\n      0x01\n      add\n      jump(tag_219)\n    tag_220:\n      pop\n      swap1\n      jump\t// out\n        /* \"#utility.yul\":7:82   */\n    tag_221:\n        /* \"#utility.yul\":40:46   */\n      0x00\n        /* \"#utility.yul\":73:75   */\n      0x40\n        /* \"#utility.yul\":67:76   */\n      mload\n        /* \"#utility.yul\":57:76   */\n      swap1\n      pop\n        /* \"#utility.yul\":7:82   */\n      swap1\n      jump\t// out\n        /* \"#utility.yul\":88:205   */\n    tag_222:\n        /* \"#utility.yul\":197:198   */\n      0x00\n        /* \"#utility.yul\":194:195   */\n      dup1\n        /* \"#utility.yul\":187:199   */\n      revert\n        /* \"#utility.yul\":211:328   */\n    tag_223:\n        /* \"#utility.yul\":320:321   */\n      0x00\n        /* \"#utility.yul\":317:318   */\n      dup1\n        /* \"#utility.yul\":310:322   */\n      revert\n        /* \"#utility.yul\":334:411   */\n    tag_224:\n        /* \"#utility.yul\":371:378   */\n      0x00\n        /* \"#utility.yul\":400:405   */\n      dup2\n        /* \"#utility.yul\":389:405   */\n      swap1\n      pop\n        /* \"#utility.yul\":334:411   */\n      swap2\n      swap1\n      pop\n      jump\t// out\n        /* \"#utility.yul\":417:539   */\n    tag_225:\n        /* \"#utility.yul\":490:514   */\n      tag_277\n        /* \"#utility.yul\":508:513   */\n      dup2\n        /* \"#utility.yul\":490:514   */\n      tag_224\n      jump\t// in\n    tag_277:\n        /* \"#utility.yul\":483:488   */\n      dup2\n        /* \"#utility.yul\":480:515   */\n      eq\n        /* \"#utility.yul\":470:533   */\n      tag_278\n      jumpi\n        /* \"#utility.yul\":529:530   */\n      0x00\n        /* \"#utility.yul\":526:527   */\n      dup1\n        /* \"#utility.yul\":519:531   */\n      revert\n        /* \"#utility.yul\":470:533   */\n    tag_278:\n        /* \"#utility.yul\":417:539   */\n      pop\n      jump\t// out\n        /* \"#utility.yul\":545:684   */\n    tag_226:\n        /* \"#utility.yul\":591:596   */\n      0x00\n        /* \"#utility.yul\":629:635   */\n      dup2\n        /* \"#utility.yul\":616:636   */\n      calldataload\n        /* \"#utility.yul\":607:636   */\n      swap1\n      pop\n        /* \"#utility.yul\":645:678   */\n      tag_280\n        /* \"#utility.yul\":672:677   */\n      dup2\n        /* \"#utility.yul\":645:678   */\n      tag_225\n      jump\t// in\n    tag_280:\n        /* \"#utility.yul\":545:684   */\n      swap3\n      swap2\n      pop\n      pop\n      jump\t// out\n        /* \"#utility.yul\":690:1019   */\n    tag_17:\n        /* \"#utility.yul\":749:755   */\n      0x00\n        /* \"#utility.yul\":798:800   */\n      0x20\n        /* \"#utility.yul\":786:795   */\n      dup3\n        /* \"#utility.yul\":777:784   */\n      dup5\n        /* \"#utility.yul\":773:796   */\n      sub\n        /* \"#utility.yul\":769:801   */\n      slt\n        /* \"#utility.yul\":766:885   */\n      iszero\n      tag_282\n      jumpi\n        /* \"#utility.yul\":804:883   */\n      tag_283\n      tag_222\n      jump\t// in\n    tag_283:\n        /* \"#utility.yul\":766:885   */\n    tag_282:\n        /* \"#utility.yul\":924:925   */\n      0x00\n        /* \"#utility.yul\":949:1002   */\n      tag_284\n        /* \"#utility.yul\":994:1001   */\n      dup5\n        /* \"#utility.yul\":985:991   */\n      dup3\n        /* \"#utility.yul\":974:983   */\n      dup6\n        /* \"#utility.yul\":970:992   */\n      add\n        /* \"#utility.yul\":949:1002   */\n      tag_226\n      jump\t// in\n    tag_284:\n        /* \"#utility.yul\":939:1002   */\n      swap2\n      pop\n        /* \"#utility.yul\":895:1012   */\n      pop\n        /* \"#utility.yul\":690:1019   */\n      swap3\n      swap2\n      pop\n      pop\n      jump\t// out\n        /* \"#utility.yul\":1025:1143   */\n    tag_227:\n        /* \"#utility.yul\":1112:1136   */\n      tag_286\n        /* \"#utility.yul\":1130:1135   */\n      dup2\n        /* \"#utility.yul\":1112:1136   */\n      tag_224\n      jump\t// in\n    tag_286:\n        /* \"#utility.yul\":1107:1110   */\n      dup3\n        /* \"#utility.yul\":1100:1137   */\n      mstore\n        /* \"#utility.yul\":1025:1143   */\n      pop\n      pop\n      jump\t// out\n        /* \"#utility.yul\":1149:1371   */\n    tag_22:\n        /* \"#utility.yul\":1242:1246   */\n      0x00\n        /* \"#utility.yul\":1280:1282   */\n      0x20\n        /* \"#utility.yul\":1269:1278   */\n      dup3\n        /* \"#utility.yul\":1265:1283   */\n      add\n        /* \"#utility.yul\":1257:1283   */\n      swap1\n      pop\n        /* \"#utility.yul\":1293:1364   */\n      tag_288\n        /* \"#utility.yul\":1361:1362   */\n      0x00\n        /* \"#utility.yul\":1350:1359   */\n      dup4\n        /* \"#utility.yul\":1346:1363   */\n      add\n        /* \"#utility.yul\":1337:1343   */\n      dup5\n        /* \"#utility.yul\":1293:1364   */\n      tag_227\n      jump\t// in\n    tag_288:\n        /* \"#utility.yul\":1149:1371   */\n      swap3\n      swap2\n      pop\n      pop\n      jump\t// out\n        /* \"#utility.yul\":1377:1503   */\n    tag_228:\n        /* \"#utility.yul\":1414:1421   */\n      0x00\n        /* \"#utility.yul\":1454:1496   */\n      0xffffffffffffffffffffffffffffffffffffffff\n        /* \"#utility.yul\":1447:1452   */\n      dup3\n        /* \"#utility.yul\":1443:1497   */\n      and\n        /* \"#utility.yul\":1432:1497   */\n      swap1\n      pop\n        /* \"#utility.yul\":1377:1503   */\n      swap2\n      swap1\n      pop\n      jump\t// out\n        /* \"#utility.yul\":1509:1605   */\n    tag_229:\n        /* \"#utility.yul\":1546:1553   */\n      0x00\n        /* \"#utility.yul\":1575:1599   */\n      tag_291\n        /* \"#utility.yul\":1593:1598   */\n      dup3\n        /* \"#utility.yul\":1575:1599   */\n      tag_228\n      jump\t// in\n    tag_291:\n        /* \"#utility.yul\":1564:1599   */\n      swap1\n      pop\n        /* \"#utility.yul\":1509:1605   */\n      swap2\n      swap1\n      pop\n      jump\t// out\n        /* \"#utility.yul\":1611:1729   */\n    tag_230:\n        /* \"#utility.yul\":1698:1722   */\n      tag_293\n        /* \"#utility.yul\":1716:1721   */\n      dup2\n        /* \"#utility.yul\":1698:1722   */\n      tag_229\n      jump\t// in\n    tag_293:\n        /* \"#utility.yul\":1693:1696   */\n      dup3\n        /* \"#utility.yul\":1686:1723   */\n      mstore\n        /* \"#utility.yul\":1611:1729   */\n      pop\n      pop\n      jump\t// out\n        /* \"#utility.yul\":1735:1957   */\n    tag_27:\n        /* \"#utility.yul\":1828:1832   */\n      0x00\n        /* \"#utility.yul\":1866:1868   */\n      0x20\n        /* \"#utility.yul\":1855:1864   */\n      dup3\n        /* \"#utility.yul\":1851:1869   */\n      add\n        /* \"#utility.yul\":1843:1869   */\n      swap1\n      pop\n        /* \"#utility.yul\":1879:1950   */\n      tag_295\n        /* \"#utility.yul\":1947:1948   */\n      0x00\n        /* \"#utility.yul\":1936:1945   */\n      dup4\n        /* \"#utility.yul\":1932:1949   */\n      add\n        /* \"#utility.yul\":1923:1929   */\n      dup5\n        /* \"#utility.yul\":1879:1950   */\n      tag_230\n      jump\t// in\n    tag_295:\n        /* \"#utility.yul\":1735:1957   */\n      swap3\n      swap2\n      pop\n      pop\n      jump\t// out\n        /* \"#utility.yul\":1963:2062   */\n    tag_231:\n        /* \"#utility.yul\":2015:2021   */\n      0x00\n        /* \"#utility.yul\":2049:2054   */\n      dup2\n        /* \"#utility.yul\":2043:2055   */\n      mload\n        /* \"#utility.yul\":2033:2055   */\n      swap1\n      pop\n        /* \"#utility.yul\":1963:2062   */\n      swap2\n      swap1\n      pop\n      jump\t// out\n        /* \"#utility.yul\":2068:2237   */\n    tag_232:\n        /* \"#utility.yul\":2152:2163   */\n      0x00\n        /* \"#utility.yul\":2186:2192   */\n      dup3\n        /* \"#utility.yul\":2181:2184   */\n      dup3\n        /* \"#utility.yul\":2174:2193   */\n      mstore\n        /* \"#utility.yul\":2226:2230   */\n      0x20\n        /* \"#utility.yul\":2221:2224   */\n      dup3\n        /* \"#utility.yul\":2217:2231   */\n      add\n        /* \"#utility.yul\":2202:2231   */\n      swap1\n      pop\n        /* \"#utility.yul\":2068:2237   */\n      swap3\n      swap2\n      pop\n      pop\n      jump\t// out\n        /* \"#utility.yul\":2243:2489   */\n    tag_233:\n        /* \"#utility.yul\":2324:2325   */\n      0x00\n        /* \"#utility.yul\":2334:2447   */\n    tag_299:\n        /* \"#utility.yul\":2348:2354   */\n      dup4\n        /* \"#utility.yul\":2345:2346   */\n      dup2\n        /* \"#utility.yul\":2342:2355   */\n      lt\n        /* \"#utility.yul\":2334:2447   */\n      iszero\n      tag_301\n      jumpi\n        /* \"#utility.yul\":2433:2434   */\n      dup1\n        /* \"#utility.yul\":2428:2431   */\n      dup3\n        /* \"#utility.yul\":2424:2435   */\n      add\n        /* \"#utility.yul\":2418:2436   */\n      mload\n        /* \"#utility.yul\":2414:2415   */\n      dup2\n        /* \"#utility.yul\":2409:2412   */\n      dup5\n        /* \"#utility.yul\":2405:2416   */\n      add\n        /* \"#utility.yul\":2398:2437   */\n      mstore\n        /* \"#utility.yul\":2370:2372   */\n      0x20\n        /* \"#utility.yul\":2367:2368   */\n      dup2\n        /* \"#utility.yul\":2363:2373   */\n      add\n        /* \"#utility.yul\":2358:2373   */\n      swap1\n      pop\n        /* \"#utility.yul\":2334:2447   */\n      jump(tag_299)\n    tag_301:\n        /* \"#utility.yul\":2481:2482   */\n      0x00\n        /* \"#utility.yul\":2472:2478   */\n      dup5\n        /* \"#utility.yul\":2467:2470   */\n      dup5\n        /* \"#utility.yul\":2463:2479   */\n      add\n        /* \"#utility.yul\":2456:2483   */\n      mstore\n        /* \"#utility.yul\":2305:2489   */\n      pop\n        /* \"#utility.yul\":2243:2489   */\n      pop\n      pop\n      pop\n      jump\t// out\n        /* \"#utility.yul\":2495:2597   */\n    tag_234:\n        /* \"#utility.yul\":2536:2542   */\n      0x00\n        /* \"#utility.yul\":2587:2589   */\n      0x1f\n        /* \"#utility.yul\":2583:2590   */\n      not\n        /* \"#utility.yul\":2578:2580   */\n      0x1f\n        /* \"#utility.yul\":2571:2576   */\n      dup4\n        /* \"#utility.yul\":2567:2581   */\n      add\n        /* \"#utility.yul\":2563:2591   */\n      and\n        /* \"#utility.yul\":2553:2591   */\n      swap1\n      pop\n        /* \"#utility.yul\":2495:2597   */\n      swap2\n      swap1\n      pop\n      jump\t// out\n        /* \"#utility.yul\":2603:2980   */\n    tag_235:\n        /* \"#utility.yul\":2691:2694   */\n      0x00\n        /* \"#utility.yul\":2719:2758   */\n      tag_304\n        /* \"#utility.yul\":2752:2757   */\n      dup3\n        /* \"#utility.yul\":2719:2758   */\n      tag_231\n      jump\t// in\n    tag_304:\n        /* \"#utility.yul\":2774:2845   */\n      tag_305\n        /* \"#utility.yul\":2838:2844   */\n      dup2\n        /* \"#utility.yul\":2833:2836   */\n      dup6\n        /* \"#utility.yul\":2774:2845   */\n      tag_232\n      jump\t// in\n    tag_305:\n        /* \"#utility.yul\":2767:2845   */\n      swap4\n      pop\n        /* \"#utility.yul\":2854:2919   */\n      tag_306\n        /* \"#utility.yul\":2912:2918   */\n      dup2\n        /* \"#utility.yul\":2907:2910   */\n      dup6\n        /* \"#utility.yul\":2900:2904   */\n      0x20\n        /* \"#utility.yul\":2893:2898   */\n      dup7\n        /* \"#utility.yul\":2889:2905   */\n      add\n        /* \"#utility.yul\":2854:2919   */\n      tag_233\n      jump\t// in\n    tag_306:\n        /* \"#utility.yul\":2944:2973   */\n      tag_307\n        /* \"#utility.yul\":2966:2972   */\n      dup2\n        /* \"#utility.yul\":2944:2973   */\n      tag_234\n      jump\t// in\n    tag_307:\n        /* \"#utility.yul\":2939:2942   */\n      dup5\n        /* \"#utility.yul\":2935:2974   */\n      add\n        /* \"#utility.yul\":2928:2974   */\n      swap2\n      pop\n        /* \"#utility.yul\":2695:2980   */\n      pop\n        /* \"#utility.yul\":2603:2980   */\n      swap3\n      swap2\n      pop\n      pop\n      jump\t// out\n        /* \"#utility.yul\":2986:3409   */\n    tag_32:\n        /* \"#utility.yul\":3127:3131   */\n      0x00\n        /* \"#utility.yul\":3165:3167   */\n      0x40\n        /* \"#utility.yul\":3154:3163   */\n      dup3\n        /* \"#utility.yul\":3150:3168   */\n      add\n        /* \"#utility.yul\":3142:3168   */\n      swap1\n      pop\n        /* \"#utility.yul\":3178:3249   */\n      tag_309\n        /* \"#utility.yul\":3246:3247   */\n      0x00\n        /* \"#utility.yul\":3235:3244   */\n      dup4\n        /* \"#utility.yul\":3231:3248   */\n      add\n        /* \"#utility.yul\":3222:3228   */\n      dup6\n        /* \"#utility.yul\":3178:3249   */\n      tag_227\n      jump\t// in\n    tag_309:\n        /* \"#utility.yul\":3296:3305   */\n      dup2\n        /* \"#utility.yul\":3290:3294   */\n      dup2\n        /* \"#utility.yul\":3286:3306   */\n      sub\n        /* \"#utility.yul\":3281:3283   */\n      0x20\n        /* \"#utility.yul\":3270:3279   */\n      dup4\n        /* \"#utility.yul\":3266:3284   */\n      add\n        /* \"#utility.yul\":3259:3307   */\n      mstore\n        /* \"#utility.yul\":3324:3402   */\n      tag_310\n        /* \"#utility.yul\":3397:3401   */\n      dup2\n        /* \"#utility.yul\":3388:3394   */\n      dup5\n        /* \"#utility.yul\":3324:3402   */\n      tag_235\n      jump\t// in\n    tag_310:\n        /* \"#utility.yul\":3316:3402   */\n      swap1\n      pop\n        /* \"#utility.yul\":2986:3409   */\n      swap4\n      swap3\n      pop\n      pop\n      pop\n      jump\t// out\n        /* \"#utility.yul\":3415:3595   */\n    tag_71:\n        /* \"#utility.yul\":3463:3540   */\n      0x4e487b7100000000000000000000000000000000000000000000000000000000\n        /* \"#utility.yul\":3460:3461   */\n      0x00\n        /* \"#utility.yul\":3453:3541   */\n      mstore\n        /* \"#utility.yul\":3560:3564   */\n      0x21\n        /* \"#utility.yul\":3557:3558   */\n      0x04\n        /* \"#utility.yul\":3550:3565   */\n      mstore\n        /* \"#utility.yul\":3584:3588   */\n      0x24\n        /* \"#utility.yul\":3581:3582   */\n      0x00\n        /* \"#utility.yul\":3574:3589   */\n      revert\n        /* \"#utility.yul\":3601:3726   */\n    tag_236:\n        /* \"#utility.yul\":3694:3695   */\n      0x03\n        /* \"#utility.yul\":3687:3692   */\n      dup2\n        /* \"#utility.yul\":3684:3696   */\n      lt\n        /* \"#utility.yul\":3674:3720   */\n      tag_313\n      jumpi\n        /* \"#utility.yul\":3700:3718   */\n      tag_314\n      tag_71\n      jump\t// in\n    tag_314:\n        /* \"#utility.yul\":3674:3720   */\n    tag_313:\n        /* \"#utility.yul\":3601:3726   */\n      pop\n      jump\t// out\n        /* \"#utility.yul\":3732:3883   */\n    tag_237:\n        /* \"#utility.yul\":3789:3796   */\n      0x00\n        /* \"#utility.yul\":3818:3823   */\n      dup2\n        /* \"#utility.yul\":3807:3823   */\n      swap1\n      pop\n        /* \"#utility.yul\":3824:3877   */\n      tag_316\n        /* \"#utility.yul\":3871:3876   */\n      dup3\n        /* \"#utility.yul\":3824:3877   */\n      tag_236\n      jump\t// in\n    tag_316:\n        /* \"#utility.yul\":3732:3883   */\n      swap2\n      swap1\n      pop\n      jump\t// out\n        /* \"#utility.yul\":3889:4040   */\n    tag_238:\n        /* \"#utility.yul\":3957:3966   */\n      0x00\n        /* \"#utility.yul\":3990:4034   */\n      tag_318\n        /* \"#utility.yul\":4028:4033   */\n      dup3\n        /* \"#utility.yul\":3990:4034   */\n      tag_237\n      jump\t// in\n    tag_318:\n        /* \"#utility.yul\":3977:4034   */\n      swap1\n      pop\n        /* \"#utility.yul\":3889:4040   */\n      swap2\n      swap1\n      pop\n      jump\t// out\n        /* \"#utility.yul\":4046:4213   */\n    tag_239:\n        /* \"#utility.yul\":4151:4206   */\n      tag_320\n        /* \"#utility.yul\":4200:4205   */\n      dup2\n        /* \"#utility.yul\":4151:4206   */\n      tag_238\n      jump\t// in\n    tag_320:\n        /* \"#utility.yul\":4146:4149   */\n      dup3\n        /* \"#utility.yul\":4139:4207   */\n      mstore\n        /* \"#utility.yul\":4046:4213   */\n      pop\n      pop\n      jump\t// out\n        /* \"#utility.yul\":4219:4697   */\n    tag_37:\n        /* \"#utility.yul\":4386:4390   */\n      0x00\n        /* \"#utility.yul\":4424:4426   */\n      0x60\n        /* \"#utility.yul\":4413:4422   */\n      dup3\n        /* \"#utility.yul\":4409:4427   */\n      add\n        /* \"#utility.yul\":4401:4427   */\n      swap1\n      pop\n        /* \"#utility.yul\":4437:4508   */\n      tag_322\n        /* \"#utility.yul\":4505:4506   */\n      0x00\n        /* \"#utility.yul\":4494:4503   */\n      dup4\n        /* \"#utility.yul\":4490:4507   */\n      add\n        /* \"#utility.yul\":4481:4487   */\n      dup7\n        /* \"#utility.yul\":4437:4508   */\n      tag_227\n      jump\t// in\n    tag_322:\n        /* \"#utility.yul\":4518:4608   */\n      tag_323\n        /* \"#utility.yul\":4604:4606   */\n      0x20\n        /* \"#utility.yul\":4593:4602   */\n      dup4\n        /* \"#utility.yul\":4589:4607   */\n      add\n        /* \"#utility.yul\":4580:4586   */\n      dup6\n        /* \"#utility.yul\":4518:4608   */\n      tag_239\n      jump\t// in\n    tag_323:\n        /* \"#utility.yul\":4618:4690   */\n      tag_324\n        /* \"#utility.yul\":4686:4688   */\n      0x40\n        /* \"#utility.yul\":4675:4684   */\n      dup4\n        /* \"#utility.yul\":4671:4689   */\n      add\n        /* \"#utility.yul\":4662:4668   */\n      dup5\n        /* \"#utility.yul\":4618:4690   */\n      tag_227\n      jump\t// in\n    tag_324:\n        /* \"#utility.yul\":4219:4697   */\n      swap5\n      swap4\n      pop\n      pop\n      pop\n      pop\n      jump\t// out\n        /* \"#utility.yul\":4703:4820   */\n    tag_240:\n        /* \"#utility.yul\":4812:4813   */\n      0x00\n        /* \"#utility.yul\":4809:4810   */\n      dup1\n        /* \"#utility.yul\":4802:4814   */\n      revert\n        /* \"#utility.yul\":4826:5006   */\n    tag_241:\n        /* \"#utility.yul\":4874:4951   */\n      0x4e487b7100000000000000000000000000000000000000000000000000000000\n        /* \"#utility.yul\":4871:4872   */\n      0x00\n        /* \"#utility.yul\":4864:4952   */\n      mstore\n        /* \"#utility.yul\":4971:4975   */\n      0x41\n        /* \"#utility.yul\":4968:4969   */\n      0x04\n        /* \"#utility.yul\":4961:4976   */\n      mstore\n        /* \"#utility.yul\":4995:4999   */\n      0x24\n        /* \"#utility.yul\":4992:4993   */\n      0x00\n        /* \"#utility.yul\":4985:5000   */\n      revert\n        /* \"#utility.yul\":5012:5293   */\n    tag_242:\n        /* \"#utility.yul\":5095:5122   */\n      tag_328\n        /* \"#utility.yul\":5117:5121   */\n      dup3\n        /* \"#utility.yul\":5095:5122   */\n      tag_234\n      jump\t// in\n    tag_328:\n        /* \"#utility.yul\":5087:5093   */\n      dup2\n        /* \"#utility.yul\":5083:5123   */\n      add\n        /* \"#utility.yul\":5225:5231   */\n      dup2\n        /* \"#utility.yul\":5213:5223   */\n      dup2\n        /* \"#utility.yul\":5210:5232   */\n      lt\n        /* \"#utility.yul\":5189:5207   */\n      0xffffffffffffffff\n        /* \"#utility.yul\":5177:5187   */\n      dup3\n        /* \"#utility.yul\":5174:5208   */\n      gt\n        /* \"#utility.yul\":5171:5233   */\n      or\n        /* \"#utility.yul\":5168:5256   */\n      iszero\n      tag_329\n      jumpi\n        /* \"#utility.yul\":5236:5254   */\n      tag_330\n      tag_241\n      jump\t// in\n    tag_330:\n        /* \"#utility.yul\":5168:5256   */\n    tag_329:\n        /* \"#utility.yul\":5276:5286   */\n      dup1\n        /* \"#utility.yul\":5272:5274   */\n      0x40\n        /* \"#utility.yul\":5265:5287   */\n      mstore\n        /* \"#utility.yul\":5055:5293   */\n      pop\n        /* \"#utility.yul\":5012:5293   */\n      pop\n      pop\n      jump\t// out\n        /* \"#utility.yul\":5299:5428   */\n    tag_243:\n        /* \"#utility.yul\":5333:5339   */\n      0x00\n        /* \"#utility.yul\":5360:5380   */\n      tag_332\n      tag_221\n      jump\t// in\n    tag_332:\n        /* \"#utility.yul\":5350:5380   */\n      swap1\n      pop\n        /* \"#utility.yul\":5389:5422   */\n      tag_333\n        /* \"#utility.yul\":5417:5421   */\n      dup3\n        /* \"#utility.yul\":5409:5415   */\n      dup3\n        /* \"#utility.yul\":5389:5422   */\n      tag_242\n      jump\t// in\n    tag_333:\n        /* \"#utility.yul\":5299:5428   */\n      swap2\n      swap1\n      pop\n      jump\t// out\n        /* \"#utility.yul\":5434:5745   */\n    tag_244:\n        /* \"#utility.yul\":5511:5515   */\n      0x00\n        /* \"#utility.yul\":5601:5619   */\n      0xffffffffffffffff\n        /* \"#utility.yul\":5593:5599   */\n      dup3\n        /* \"#utility.yul\":5590:5620   */\n      gt\n        /* \"#utility.yul\":5587:5643   */\n      iszero\n      tag_335\n      jumpi\n        /* \"#utility.yul\":5623:5641   */\n      tag_336\n      tag_241\n      jump\t// in\n    tag_336:\n        /* \"#utility.yul\":5587:5643   */\n    tag_335:\n        /* \"#utility.yul\":5673:5677   */\n      0x20\n        /* \"#utility.yul\":5665:5671   */\n      dup3\n        /* \"#utility.yul\":5661:5678   */\n      mul\n        /* \"#utility.yul\":5653:5678   */\n      swap1\n      pop\n        /* \"#utility.yul\":5733:5737   */\n      0x20\n        /* \"#utility.yul\":5727:5731   */\n      dup2\n        /* \"#utility.yul\":5723:5738   */\n      add\n        /* \"#utility.yul\":5715:5738   */\n      swap1\n      pop\n        /* \"#utility.yul\":5434:5745   */\n      swap2\n      swap1\n      pop\n      jump\t// out\n        /* \"#utility.yul\":5751:5868   */\n    tag_245:\n        /* \"#utility.yul\":5860:5861   */\n      0x00\n        /* \"#utility.yul\":5857:5858   */\n      dup1\n        /* \"#utility.yul\":5850:5862   */\n      revert\n        /* \"#utility.yul\":5874:5996   */\n    tag_246:\n        /* \"#utility.yul\":5947:5971   */\n      tag_339\n        /* \"#utility.yul\":5965:5970   */\n      dup2\n        /* \"#utility.yul\":5947:5971   */\n      tag_229\n      jump\t// in\n    tag_339:\n        /* \"#utility.yul\":5940:5945   */\n      dup2\n        /* \"#utility.yul\":5937:5972   */\n      eq\n        /* \"#utility.yul\":5927:5990   */\n      tag_340\n      jumpi\n        /* \"#utility.yul\":5986:5987   */\n      0x00\n        /* \"#utility.yul\":5983:5984   */\n      dup1\n        /* \"#utility.yul\":5976:5988   */\n      revert\n        /* \"#utility.yul\":5927:5990   */\n    tag_340:\n        /* \"#utility.yul\":5874:5996   */\n      pop\n      jump\t// out\n        /* \"#utility.yul\":6002:6141   */\n    tag_247:\n        /* \"#utility.yul\":6048:6053   */\n      0x00\n        /* \"#utility.yul\":6086:6092   */\n      dup2\n        /* \"#utility.yul\":6073:6093   */\n      calldataload\n        /* \"#utility.yul\":6064:6093   */\n      swap1\n      pop\n        /* \"#utility.yul\":6102:6135   */\n      tag_342\n        /* \"#utility.yul\":6129:6134   */\n      dup2\n        /* \"#utility.yul\":6102:6135   */\n      tag_246\n      jump\t// in\n    tag_342:\n        /* \"#utility.yul\":6002:6141   */\n      swap3\n      swap2\n      pop\n      pop\n      jump\t// out\n        /* \"#utility.yul\":6164:6874   */\n    tag_248:\n        /* \"#utility.yul\":6260:6265   */\n      0x00\n        /* \"#utility.yul\":6285:6366   */\n      tag_344\n        /* \"#utility.yul\":6301:6365   */\n      tag_345\n        /* \"#utility.yul\":6358:6364   */\n      dup5\n        /* \"#utility.yul\":6301:6365   */\n      tag_244\n      jump\t// in\n    tag_345:\n        /* \"#utility.yul\":6285:6366   */\n      tag_243\n      jump\t// in\n    tag_344:\n        /* \"#utility.yul\":6276:6366   */\n      swap1\n      pop\n        /* \"#utility.yul\":6386:6391   */\n      dup1\n        /* \"#utility.yul\":6415:6421   */\n      dup4\n        /* \"#utility.yul\":6408:6413   */\n      dup3\n        /* \"#utility.yul\":6401:6422   */\n      mstore\n        /* \"#utility.yul\":6449:6453   */\n      0x20\n        /* \"#utility.yul\":6442:6447   */\n      dup3\n        /* \"#utility.yul\":6438:6454   */\n      add\n        /* \"#utility.yul\":6431:6454   */\n      swap1\n      pop\n        /* \"#utility.yul\":6502:6506   */\n      0x20\n        /* \"#utility.yul\":6494:6500   */\n      dup5\n        /* \"#utility.yul\":6490:6507   */\n      mul\n        /* \"#utility.yul\":6482:6488   */\n      dup4\n        /* \"#utility.yul\":6478:6508   */\n      add\n        /* \"#utility.yul\":6531:6534   */\n      dup6\n        /* \"#utility.yul\":6523:6529   */\n      dup2\n        /* \"#utility.yul\":6520:6535   */\n      gt\n        /* \"#utility.yul\":6517:6639   */\n      iszero\n      tag_346\n      jumpi\n        /* \"#utility.yul\":6550:6629   */\n      tag_347\n      tag_245\n      jump\t// in\n    tag_347:\n        /* \"#utility.yul\":6517:6639   */\n    tag_346:\n        /* \"#utility.yul\":6665:6671   */\n      dup4\n        /* \"#utility.yul\":6648:6868   */\n    tag_348:\n        /* \"#utility.yul\":6682:6688   */\n      dup2\n        /* \"#utility.yul\":6677:6680   */\n      dup2\n        /* \"#utility.yul\":6674:6689   */\n      lt\n        /* \"#utility.yul\":6648:6868   */\n      iszero\n      tag_350\n      jumpi\n        /* \"#utility.yul\":6757:6760   */\n      dup1\n        /* \"#utility.yul\":6786:6823   */\n      tag_351\n        /* \"#utility.yul\":6819:6822   */\n      dup9\n        /* \"#utility.yul\":6807:6817   */\n      dup3\n        /* \"#utility.yul\":6786:6823   */\n      tag_247\n      jump\t// in\n    tag_351:\n        /* \"#utility.yul\":6781:6784   */\n      dup5\n        /* \"#utility.yul\":6774:6824   */\n      mstore\n        /* \"#utility.yul\":6853:6857   */\n      0x20\n        /* \"#utility.yul\":6848:6851   */\n      dup5\n        /* \"#utility.yul\":6844:6858   */\n      add\n        /* \"#utility.yul\":6837:6858   */\n      swap4\n      pop\n        /* \"#utility.yul\":6724:6868   */\n      pop\n        /* \"#utility.yul\":6708:6712   */\n      0x20\n        /* \"#utility.yul\":6703:6706   */\n      dup2\n        /* \"#utility.yul\":6699:6713   */\n      add\n        /* \"#utility.yul\":6692:6713   */\n      swap1\n      pop\n        /* \"#utility.yul\":6648:6868   */\n      jump(tag_348)\n    tag_350:\n        /* \"#utility.yul\":6652:6673   */\n      pop\n        /* \"#utility.yul\":6266:6874   */\n      pop\n      pop\n        /* \"#utility.yul\":6164:6874   */\n      swap4\n      swap3\n      pop\n      pop\n      pop\n      jump\t// out\n        /* \"#utility.yul\":6897:7267   */\n    tag_249:\n        /* \"#utility.yul\":6968:6973   */\n      0x00\n        /* \"#utility.yul\":7017:7020   */\n      dup3\n        /* \"#utility.yul\":7010:7014   */\n      0x1f\n        /* \"#utility.yul\":7002:7008   */\n      dup4\n        /* \"#utility.yul\":6998:7015   */\n      add\n        /* \"#utility.yul\":6994:7021   */\n      slt\n        /* \"#utility.yul\":6984:7106   */\n      tag_353\n      jumpi\n        /* \"#utility.yul\":7025:7104   */\n      tag_354\n      tag_240\n      jump\t// in\n    tag_354:\n        /* \"#utility.yul\":6984:7106   */\n    tag_353:\n        /* \"#utility.yul\":7142:7148   */\n      dup2\n        /* \"#utility.yul\":7129:7149   */\n      calldataload\n        /* \"#utility.yul\":7167:7261   */\n      tag_355\n        /* \"#utility.yul\":7257:7260   */\n      dup5\n        /* \"#utility.yul\":7249:7255   */\n      dup3\n        /* \"#utility.yul\":7242:7246   */\n      0x20\n        /* \"#utility.yul\":7234:7240   */\n      dup7\n        /* \"#utility.yul\":7230:7247   */\n      add\n        /* \"#utility.yul\":7167:7261   */\n      tag_248\n      jump\t// in\n    tag_355:\n        /* \"#utility.yul\":7158:7261   */\n      swap2\n      pop\n        /* \"#utility.yul\":6974:7267   */\n      pop\n        /* \"#utility.yul\":6897:7267   */\n      swap3\n      swap2\n      pop\n      pop\n      jump\t// out\n        /* \"#utility.yul\":7273:7957   */\n    tag_40:\n        /* \"#utility.yul\":7366:7372   */\n      0x00\n        /* \"#utility.yul\":7374:7380   */\n      dup1\n        /* \"#utility.yul\":7423:7425   */\n      0x40\n        /* \"#utility.yul\":7411:7420   */\n      dup4\n        /* \"#utility.yul\":7402:7409   */\n      dup6\n        /* \"#utility.yul\":7398:7421   */\n      sub\n        /* \"#utility.yul\":7394:7426   */\n      slt\n        /* \"#utility.yul\":7391:7510   */\n      iszero\n      tag_357\n      jumpi\n        /* \"#utility.yul\":7429:7508   */\n      tag_358\n      tag_222\n      jump\t// in\n    tag_358:\n        /* \"#utility.yul\":7391:7510   */\n    tag_357:\n        /* \"#utility.yul\":7577:7578   */\n      0x00\n        /* \"#utility.yul\":7566:7575   */\n      dup4\n        /* \"#utility.yul\":7562:7579   */\n      add\n        /* \"#utility.yul\":7549:7580   */\n      calldataload\n        /* \"#utility.yul\":7607:7625   */\n      0xffffffffffffffff\n        /* \"#utility.yul\":7599:7605   */\n      dup2\n        /* \"#utility.yul\":7596:7626   */\n      gt\n        /* \"#utility.yul\":7593:7710   */\n      iszero\n      tag_359\n      jumpi\n        /* \"#utility.yul\":7629:7708   */\n      tag_360\n      tag_223\n      jump\t// in\n    tag_360:\n        /* \"#utility.yul\":7593:7710   */\n    tag_359:\n        /* \"#utility.yul\":7734:7812   */\n      tag_361\n        /* \"#utility.yul\":7804:7811   */\n      dup6\n        /* \"#utility.yul\":7795:7801   */\n      dup3\n        /* \"#utility.yul\":7784:7793   */\n      dup7\n        /* \"#utility.yul\":7780:7802   */\n      add\n        /* \"#utility.yul\":7734:7812   */\n      tag_249\n      jump\t// in\n    tag_361:\n        /* \"#utility.yul\":7724:7812   */\n      swap3\n      pop\n        /* \"#utility.yul\":7520:7822   */\n      pop\n        /* \"#utility.yul\":7861:7863   */\n      0x20\n        /* \"#utility.yul\":7887:7940   */\n      tag_362\n        /* \"#utility.yul\":7932:7939   */\n      dup6\n        /* \"#utility.yul\":7923:7929   */\n      dup3\n        /* \"#utility.yul\":7912:7921   */\n      dup7\n        /* \"#utility.yul\":7908:7930   */\n      add\n        /* \"#utility.yul\":7887:7940   */\n      tag_226\n      jump\t// in\n    tag_362:\n        /* \"#utility.yul\":7877:7940   */\n      swap2\n      pop\n        /* \"#utility.yul\":7832:7950   */\n      pop\n        /* \"#utility.yul\":7273:7957   */\n      swap3\n      pop\n      swap3\n      swap1\n      pop\n      jump\t// out\n        /* \"#utility.yul\":7963:8292   */\n    tag_44:\n        /* \"#utility.yul\":8022:8028   */\n      0x00\n        /* \"#utility.yul\":8071:8073   */\n      0x20\n        /* \"#utility.yul\":8059:8068   */\n      dup3\n        /* \"#utility.yul\":8050:8057   */\n      dup5\n        /* \"#utility.yul\":8046:8069   */\n      sub\n        /* \"#utility.yul\":8042:8074   */\n      slt\n        /* \"#utility.yul\":8039:8158   */\n      iszero\n      tag_364\n      jumpi\n        /* \"#utility.yul\":8077:8156   */\n      tag_365\n      tag_222\n      jump\t// in\n    tag_365:\n        /* \"#utility.yul\":8039:8158   */\n    tag_364:\n        /* \"#utility.yul\":8197:8198   */\n      0x00\n        /* \"#utility.yul\":8222:8275   */\n      tag_366\n        /* \"#utility.yul\":8267:8274   */\n      dup5\n        /* \"#utility.yul\":8258:8264   */\n      dup3\n        /* \"#utility.yul\":8247:8256   */\n      dup6\n        /* \"#utility.yul\":8243:8265   */\n      add\n        /* \"#utility.yul\":8222:8275   */\n      tag_247\n      jump\t// in\n    tag_366:\n        /* \"#utility.yul\":8212:8275   */\n      swap2\n      pop\n        /* \"#utility.yul\":8168:8285   */\n      pop\n        /* \"#utility.yul\":7963:8292   */\n      swap3\n      swap2\n      pop\n      pop\n      jump\t// out\n        /* \"#utility.yul\":8298:8388   */\n    tag_250:\n        /* \"#utility.yul\":8332:8339   */\n      0x00\n        /* \"#utility.yul\":8375:8380   */\n      dup2\n        /* \"#utility.yul\":8368:8381   */\n      iszero\n        /* \"#utility.yul\":8361:8382   */\n      iszero\n        /* \"#utility.yul\":8350:8382   */\n      swap1\n      pop\n        /* \"#utility.yul\":8298:8388   */\n      swap2\n      swap1\n      pop\n      jump\t// out\n        /* \"#utility.yul\":8394:8503   */\n    tag_251:\n        /* \"#utility.yul\":8475:8496   */\n      tag_369\n        /* \"#utility.yul\":8490:8495   */\n      dup2\n        /* \"#utility.yul\":8475:8496   */\n      tag_250\n      jump\t// in\n    tag_369:\n        /* \"#utility.yul\":8470:8473   */\n      dup3\n        /* \"#utility.yul\":8463:8497   */\n      mstore\n        /* \"#utility.yul\":8394:8503   */\n      pop\n      pop\n      jump\t// out\n        /* \"#utility.yul\":8509:8719   */\n    tag_47:\n        /* \"#utility.yul\":8596:8600   */\n      0x00\n        /* \"#utility.yul\":8634:8636   */\n      0x20\n        /* \"#utility.yul\":8623:8632   */\n      dup3\n        /* \"#utility.yul\":8619:8637   */\n      add\n        /* \"#utility.yul\":8611:8637   */\n      swap1\n      pop\n        /* \"#utility.yul\":8647:8712   */\n      tag_371\n        /* \"#utility.yul\":8709:8710   */\n      0x00\n        /* \"#utility.yul\":8698:8707   */\n      dup4\n        /* \"#utility.yul\":8694:8711   */\n      add\n        /* \"#utility.yul\":8685:8691   */\n      dup5\n        /* \"#utility.yul\":8647:8712   */\n      tag_251\n      jump\t// in\n    tag_371:\n        /* \"#utility.yul\":8509:8719   */\n      swap3\n      swap2\n      pop\n      pop\n      jump\t// out\n        /* \"#utility.yul\":8725:8952   */\n    tag_252:\n        /* \"#utility.yul\":8865:8899   */\n      0x4f6e6c79207465616d206d656d626572732063616e2063616c6c207468697320\n        /* \"#utility.yul\":8861:8862   */\n      0x00\n        /* \"#utility.yul\":8853:8859   */\n      dup3\n        /* \"#utility.yul\":8849:8863   */\n      add\n        /* \"#utility.yul\":8842:8900   */\n      mstore\n        /* \"#utility.yul\":8934:8944   */\n      0x66756e6374696f6e000000000000000000000000000000000000000000000000\n        /* \"#utility.yul\":8929:8931   */\n      0x20\n        /* \"#utility.yul\":8921:8927   */\n      dup3\n        /* \"#utility.yul\":8917:8932   */\n      add\n        /* \"#utility.yul\":8910:8945   */\n      mstore\n        /* \"#utility.yul\":8725:8952   */\n      pop\n      jump\t// out\n        /* \"#utility.yul\":8958:9324   */\n    tag_253:\n        /* \"#utility.yul\":9100:9103   */\n      0x00\n        /* \"#utility.yul\":9121:9188   */\n      tag_374\n        /* \"#utility.yul\":9185:9187   */\n      0x28\n        /* \"#utility.yul\":9180:9183   */\n      dup4\n        /* \"#utility.yul\":9121:9188   */\n      tag_232\n      jump\t// in\n    tag_374:\n        /* \"#utility.yul\":9114:9188   */\n      swap2\n      pop\n        /* \"#utility.yul\":9197:9290   */\n      tag_375\n        /* \"#utility.yul\":9286:9289   */\n      dup3\n        /* \"#utility.yul\":9197:9290   */\n      tag_252\n      jump\t// in\n    tag_375:\n        /* \"#utility.yul\":9315:9317   */\n      0x40\n        /* \"#utility.yul\":9310:9313   */\n      dup3\n        /* \"#utility.yul\":9306:9318   */\n      add\n        /* \"#utility.yul\":9299:9318   */\n      swap1\n      pop\n        /* \"#utility.yul\":8958:9324   */\n      swap2\n      swap1\n      pop\n      jump\t// out\n        /* \"#utility.yul\":9330:9749   */\n    tag_63:\n        /* \"#utility.yul\":9496:9500   */\n      0x00\n        /* \"#utility.yul\":9534:9536   */\n      0x20\n        /* \"#utility.yul\":9523:9532   */\n      dup3\n        /* \"#utility.yul\":9519:9537   */\n      add\n        /* \"#utility.yul\":9511:9537   */\n      swap1\n      pop\n        /* \"#utility.yul\":9583:9592   */\n      dup2\n        /* \"#utility.yul\":9577:9581   */\n      dup2\n        /* \"#utility.yul\":9573:9593   */\n      sub\n        /* \"#utility.yul\":9569:9570   */\n      0x00\n        /* \"#utility.yul\":9558:9567   */\n      dup4\n        /* \"#utility.yul\":9554:9571   */\n      add\n        /* \"#utility.yul\":9547:9594   */\n      mstore\n        /* \"#utility.yul\":9611:9742   */\n      tag_377\n        /* \"#utility.yul\":9737:9741   */\n      dup2\n        /* \"#utility.yul\":9611:9742   */\n      tag_253\n      jump\t// in\n    tag_377:\n        /* \"#utility.yul\":9603:9742   */\n      swap1\n      pop\n        /* \"#utility.yul\":9330:9749   */\n      swap2\n      swap1\n      pop\n      jump\t// out\n        /* \"#utility.yul\":9755:9934   */\n    tag_254:\n        /* \"#utility.yul\":9895:9926   */\n      0x416d6f756e74206d7573742062652067726561746572207468616e2030000000\n        /* \"#utility.yul\":9891:9892   */\n      0x00\n        /* \"#utility.yul\":9883:9889   */\n      dup3\n        /* \"#utility.yul\":9879:9893   */\n      add\n        /* \"#utility.yul\":9872:9927   */\n      mstore\n        /* \"#utility.yul\":9755:9934   */\n      pop\n      jump\t// out\n        /* \"#utility.yul\":9940:10306   */\n    tag_255:\n        /* \"#utility.yul\":10082:10085   */\n      0x00\n        /* \"#utility.yul\":10103:10170   */\n      tag_380\n        /* \"#utility.yul\":10167:10169   */\n      0x1d\n        /* \"#utility.yul\":10162:10165   */\n      dup4\n        /* \"#utility.yul\":10103:10170   */\n      tag_232\n      jump\t// in\n    tag_380:\n        /* \"#utility.yul\":10096:10170   */\n      swap2\n      pop\n        /* \"#utility.yul\":10179:10272   */\n      tag_381\n        /* \"#utility.yul\":10268:10271   */\n      dup3\n        /* \"#utility.yul\":10179:10272   */\n      tag_254\n      jump\t// in\n    tag_381:\n        /* \"#utility.yul\":10297:10299   */\n      0x20\n        /* \"#utility.yul\":10292:10295   */\n      dup3\n        /* \"#utility.yul\":10288:10300   */\n      add\n        /* \"#utility.yul\":10281:10300   */\n      swap1\n      pop\n        /* \"#utility.yul\":9940:10306   */\n      swap2\n      swap1\n      pop\n      jump\t// out\n        /* \"#utility.yul\":10312:10731   */\n    tag_67:\n        /* \"#utility.yul\":10478:10482   */\n      0x00\n        /* \"#utility.yul\":10516:10518   */\n      0x20\n        /* \"#utility.yul\":10505:10514   */\n      dup3\n        /* \"#utility.yul\":10501:10519   */\n      add\n        /* \"#utility.yul\":10493:10519   */\n      swap1\n      pop\n        /* \"#utility.yul\":10565:10574   */\n      dup2\n        /* \"#utility.yul\":10559:10563   */\n      dup2\n        /* \"#utility.yul\":10555:10575   */\n      sub\n        /* \"#utility.yul\":10551:10552   */\n      0x00\n        /* \"#utility.yul\":10540:10549   */\n      dup4\n        /* \"#utility.yul\":10536:10553   */\n      add\n        /* \"#utility.yul\":10529:10576   */\n      mstore\n        /* \"#utility.yul\":10593:10724   */\n      tag_383\n        /* \"#utility.yul\":10719:10723   */\n      dup2\n        /* \"#utility.yul\":10593:10724   */\n      tag_255\n      jump\t// in\n    tag_383:\n        /* \"#utility.yul\":10585:10724   */\n      swap1\n      pop\n        /* \"#utility.yul\":10312:10731   */\n      swap2\n      swap1\n      pop\n      jump\t// out\n        /* \"#utility.yul\":10737:10913   */\n    tag_256:\n        /* \"#utility.yul\":10877:10905   */\n      0x5472616e73616374696f6e20646f6573206e6f74206578697374000000000000\n        /* \"#utility.yul\":10873:10874   */\n      0x00\n        /* \"#utility.yul\":10865:10871   */\n      dup3\n        /* \"#utility.yul\":10861:10875   */\n      add\n        /* \"#utility.yul\":10854:10906   */\n      mstore\n        /* \"#utility.yul\":10737:10913   */\n      pop\n      jump\t// out\n        /* \"#utility.yul\":10919:11285   */\n    tag_257:\n        /* \"#utility.yul\":11061:11064   */\n      0x00\n        /* \"#utility.yul\":11082:11149   */\n      tag_386\n        /* \"#utility.yul\":11146:11148   */\n      0x1a\n        /* \"#utility.yul\":11141:11144   */\n      dup4\n        /* \"#utility.yul\":11082:11149   */\n      tag_232\n      jump\t// in\n    tag_386:\n        /* \"#utility.yul\":11075:11149   */\n      swap2\n      pop\n        /* \"#utility.yul\":11158:11251   */\n      tag_387\n        /* \"#utility.yul\":11247:11250   */\n      dup3\n        /* \"#utility.yul\":11158:11251   */\n      tag_256\n      jump\t// in\n    tag_387:\n        /* \"#utility.yul\":11276:11278   */\n      0x20\n        /* \"#utility.yul\":11271:11274   */\n      dup3\n        /* \"#utility.yul\":11267:11279   */\n      add\n        /* \"#utility.yul\":11260:11279   */\n      swap1\n      pop\n        /* \"#utility.yul\":10919:11285   */\n      swap2\n      swap1\n      pop\n      jump\t// out\n        /* \"#utility.yul\":11291:11710   */\n    tag_84:\n        /* \"#utility.yul\":11457:11461   */\n      0x00\n        /* \"#utility.yul\":11495:11497   */\n      0x20\n        /* \"#utility.yul\":11484:11493   */\n      dup3\n        /* \"#utility.yul\":11480:11498   */\n      add\n        /* \"#utility.yul\":11472:11498   */\n      swap1\n      pop\n        /* \"#utility.yul\":11544:11553   */\n      dup2\n        /* \"#utility.yul\":11538:11542   */\n      dup2\n        /* \"#utility.yul\":11534:11554   */\n      sub\n        /* \"#utility.yul\":11530:11531   */\n      0x00\n        /* \"#utility.yul\":11519:11528   */\n      dup4\n        /* \"#utility.yul\":11515:11532   */\n      add\n        /* \"#utility.yul\":11508:11555   */\n      mstore\n        /* \"#utility.yul\":11572:11703   */\n      tag_389\n        /* \"#utility.yul\":11698:11702   */\n      dup2\n        /* \"#utility.yul\":11572:11703   */\n      tag_257\n      jump\t// in\n    tag_389:\n        /* \"#utility.yul\":11564:11703   */\n      swap1\n      pop\n        /* \"#utility.yul\":11291:11710   */\n      swap2\n      swap1\n      pop\n      jump\t// out\n        /* \"#utility.yul\":11716:11896   */\n    tag_89:\n        /* \"#utility.yul\":11764:11841   */\n      0x4e487b7100000000000000000000000000000000000000000000000000000000\n        /* \"#utility.yul\":11761:11762   */\n      0x00\n        /* \"#utility.yul\":11754:11842   */\n      mstore\n        /* \"#utility.yul\":11861:11865   */\n      0x32\n        /* \"#utility.yul\":11858:11859   */\n      0x04\n        /* \"#utility.yul\":11851:11866   */\n      mstore\n        /* \"#utility.yul\":11885:11889   */\n      0x24\n        /* \"#utility.yul\":11882:11883   */\n      0x00\n        /* \"#utility.yul\":11875:11890   */\n      revert\n        /* \"#utility.yul\":11902:12129   */\n    tag_258:\n        /* \"#utility.yul\":12042:12076   */\n      0x4f6e6c7920746865206465706c6f7965722063616e2063616c6c207468697320\n        /* \"#utility.yul\":12038:12039   */\n      0x00\n        /* \"#utility.yul\":12030:12036   */\n      dup3\n        /* \"#utility.yul\":12026:12040   */\n      add\n        /* \"#utility.yul\":12019:12077   */\n      mstore\n        /* \"#utility.yul\":12111:12121   */\n      0x66756e6374696f6e000000000000000000000000000000000000000000000000\n        /* \"#utility.yul\":12106:12108   */\n      0x20\n        /* \"#utility.yul\":12098:12104   */\n      dup3\n        /* \"#utility.yul\":12094:12109   */\n      add\n        /* \"#utility.yul\":12087:12122   */\n      mstore\n        /* \"#utility.yul\":11902:12129   */\n      pop\n      jump\t// out\n        /* \"#utility.yul\":12135:12501   */\n    tag_259:\n        /* \"#utility.yul\":12277:12280   */\n      0x00\n        /* \"#utility.yul\":12298:12365   */\n      tag_393\n        /* \"#utility.yul\":12362:12364   */\n      0x28\n        /* \"#utility.yul\":12357:12360   */\n      dup4\n        /* \"#utility.yul\":12298:12365   */\n      tag_232\n      jump\t// in\n    tag_393:\n        /* \"#utility.yul\":12291:12365   */\n      swap2\n      pop\n        /* \"#utility.yul\":12374:12467   */\n      tag_394\n        /* \"#utility.yul\":12463:12466   */\n      dup3\n        /* \"#utility.yul\":12374:12467   */\n      tag_258\n      jump\t// in\n    tag_394:\n        /* \"#utility.yul\":12492:12494   */\n      0x40\n        /* \"#utility.yul\":12487:12490   */\n      dup3\n        /* \"#utility.yul\":12483:12495   */\n      add\n        /* \"#utility.yul\":12476:12495   */\n      swap1\n      pop\n        /* \"#utility.yul\":12135:12501   */\n      swap2\n      swap1\n      pop\n      jump\t// out\n        /* \"#utility.yul\":12507:12926   */\n    tag_118:\n        /* \"#utility.yul\":12673:12677   */\n      0x00\n        /* \"#utility.yul\":12711:12713   */\n      0x20\n        /* \"#utility.yul\":12700:12709   */\n      dup3\n        /* \"#utility.yul\":12696:12714   */\n      add\n        /* \"#utility.yul\":12688:12714   */\n      swap1\n      pop\n        /* \"#utility.yul\":12760:12769   */\n      dup2\n        /* \"#utility.yul\":12754:12758   */\n      dup2\n        /* \"#utility.yul\":12750:12770   */\n      sub\n        /* \"#utility.yul\":12746:12747   */\n      0x00\n        /* \"#utility.yul\":12735:12744   */\n      dup4\n        /* \"#utility.yul\":12731:12748   */\n      add\n        /* \"#utility.yul\":12724:12771   */\n      mstore\n        /* \"#utility.yul\":12788:12919   */\n      tag_396\n        /* \"#utility.yul\":12914:12918   */\n      dup2\n        /* \"#utility.yul\":12788:12919   */\n      tag_259\n      jump\t// in\n    tag_396:\n        /* \"#utility.yul\":12780:12919   */\n      swap1\n      pop\n        /* \"#utility.yul\":12507:12926   */\n      swap2\n      swap1\n      pop\n      jump\t// out\n        /* \"#utility.yul\":12932:13103   */\n    tag_260:\n        /* \"#utility.yul\":13072:13095   */\n      0x57616c6c657420697320616c7265616479207365740000000000000000000000\n        /* \"#utility.yul\":13068:13069   */\n      0x00\n        /* \"#utility.yul\":13060:13066   */\n      dup3\n        /* \"#utility.yul\":13056:13070   */\n      add\n        /* \"#utility.yul\":13049:13096   */\n      mstore\n        /* \"#utility.yul\":12932:13103   */\n      pop\n      jump\t// out\n        /* \"#utility.yul\":13109:13475   */\n    tag_261:\n        /* \"#utility.yul\":13251:13254   */\n      0x00\n        /* \"#utility.yul\":13272:13339   */\n      tag_399\n        /* \"#utility.yul\":13336:13338   */\n      0x15\n        /* \"#utility.yul\":13331:13334   */\n      dup4\n        /* \"#utility.yul\":13272:13339   */\n      tag_232\n      jump\t// in\n    tag_399:\n        /* \"#utility.yul\":13265:13339   */\n      swap2\n      pop\n        /* \"#utility.yul\":13348:13441   */\n      tag_400\n        /* \"#utility.yul\":13437:13440   */\n      dup3\n        /* \"#utility.yul\":13348:13441   */\n      tag_260\n      jump\t// in\n    tag_400:\n        /* \"#utility.yul\":13466:13468   */\n      0x20\n        /* \"#utility.yul\":13461:13464   */\n      dup3\n        /* \"#utility.yul\":13457:13469   */\n      add\n        /* \"#utility.yul\":13450:13469   */\n      swap1\n      pop\n        /* \"#utility.yul\":13109:13475   */\n      swap2\n      swap1\n      pop\n      jump\t// out\n        /* \"#utility.yul\":13481:13900   */\n    tag_122:\n        /* \"#utility.yul\":13647:13651   */\n      0x00\n        /* \"#utility.yul\":13685:13687   */\n      0x20\n        /* \"#utility.yul\":13674:13683   */\n      dup3\n        /* \"#utility.yul\":13670:13688   */\n      add\n        /* \"#utility.yul\":13662:13688   */\n      swap1\n      pop\n        /* \"#utility.yul\":13734:13743   */\n      dup2\n        /* \"#utility.yul\":13728:13732   */\n      dup2\n        /* \"#utility.yul\":13724:13744   */\n      sub\n        /* \"#utility.yul\":13720:13721   */\n      0x00\n        /* \"#utility.yul\":13709:13718   */\n      dup4\n        /* \"#utility.yul\":13705:13722   */\n      add\n        /* \"#utility.yul\":13698:13745   */\n      mstore\n        /* \"#utility.yul\":13762:13893   */\n      tag_402\n        /* \"#utility.yul\":13888:13892   */\n      dup2\n        /* \"#utility.yul\":13762:13893   */\n      tag_261\n      jump\t// in\n    tag_402:\n        /* \"#utility.yul\":13754:13893   */\n      swap1\n      pop\n        /* \"#utility.yul\":13481:13900   */\n      swap2\n      swap1\n      pop\n      jump\t// out\n        /* \"#utility.yul\":13906:14087   */\n    tag_262:\n        /* \"#utility.yul\":14046:14079   */\n      0x4174206c65617374206f6e65206d656d62657220697320726571756972656400\n        /* \"#utility.yul\":14042:14043   */\n      0x00\n        /* \"#utility.yul\":14034:14040   */\n      dup3\n        /* \"#utility.yul\":14030:14044   */\n      add\n        /* \"#utility.yul\":14023:14080   */\n      mstore\n        /* \"#utility.yul\":13906:14087   */\n      pop\n      jump\t// out\n        /* \"#utility.yul\":14093:14459   */\n    tag_263:\n        /* \"#utility.yul\":14235:14238   */\n      0x00\n        /* \"#utility.yul\":14256:14323   */\n      tag_405\n        /* \"#utility.yul\":14320:14322   */\n      0x1f\n        /* \"#utility.yul\":14315:14318   */\n      dup4\n        /* \"#utility.yul\":14256:14323   */\n      tag_232\n      jump\t// in\n    tag_405:\n        /* \"#utility.yul\":14249:14323   */\n      swap2\n      pop\n        /* \"#utility.yul\":14332:14425   */\n      tag_406\n        /* \"#utility.yul\":14421:14424   */\n      dup3\n        /* \"#utility.yul\":14332:14425   */\n      tag_262\n      jump\t// in\n    tag_406:\n        /* \"#utility.yul\":14450:14452   */\n      0x20\n        /* \"#utility.yul\":14445:14448   */\n      dup3\n        /* \"#utility.yul\":14441:14453   */\n      add\n        /* \"#utility.yul\":14434:14453   */\n      swap1\n      pop\n        /* \"#utility.yul\":14093:14459   */\n      swap2\n      swap1\n      pop\n      jump\t// out\n        /* \"#utility.yul\":14465:14884   */\n    tag_125:\n        /* \"#utility.yul\":14631:14635   */\n      0x00\n        /* \"#utility.yul\":14669:14671   */\n      0x20\n        /* \"#utility.yul\":14658:14667   */\n      dup3\n        /* \"#utility.yul\":14654:14672   */\n      add\n        /* \"#utility.yul\":14646:14672   */\n      swap1\n      pop\n        /* \"#utility.yul\":14718:14727   */\n      dup2\n        /* \"#utility.yul\":14712:14716   */\n      dup2\n        /* \"#utility.yul\":14708:14728   */\n      sub\n        /* \"#utility.yul\":14704:14705   */\n      0x00\n        /* \"#utility.yul\":14693:14702   */\n      dup4\n        /* \"#utility.yul\":14689:14706   */\n      add\n        /* \"#utility.yul\":14682:14729   */\n      mstore\n        /* \"#utility.yul\":14746:14877   */\n      tag_408\n        /* \"#utility.yul\":14872:14876   */\n      dup2\n        /* \"#utility.yul\":14746:14877   */\n      tag_263\n      jump\t// in\n    tag_408:\n        /* \"#utility.yul\":14738:14877   */\n      swap1\n      pop\n        /* \"#utility.yul\":14465:14884   */\n      swap2\n      swap1\n      pop\n      jump\t// out\n        /* \"#utility.yul\":14890:15070   */\n    tag_264:\n        /* \"#utility.yul\":15030:15062   */\n      0x43726564697473206d7573742062652067726561746572207468616e20300000\n        /* \"#utility.yul\":15026:15027   */\n      0x00\n        /* \"#utility.yul\":15018:15024   */\n      dup3\n        /* \"#utility.yul\":15014:15028   */\n      add\n        /* \"#utility.yul\":15007:15063   */\n      mstore\n        /* \"#utility.yul\":14890:15070   */\n      pop\n      jump\t// out\n        /* \"#utility.yul\":15076:15442   */\n    tag_265:\n        /* \"#utility.yul\":15218:15221   */\n      0x00\n        /* \"#utility.yul\":15239:15306   */\n      tag_411\n        /* \"#utility.yul\":15303:15305   */\n      0x1e\n        /* \"#utility.yul\":15298:15301   */\n      dup4\n        /* \"#utility.yul\":15239:15306   */\n      tag_232\n      jump\t// in\n    tag_411:\n        /* \"#utility.yul\":15232:15306   */\n      swap2\n      pop\n        /* \"#utility.yul\":15315:15408   */\n      tag_412\n        /* \"#utility.yul\":15404:15407   */\n      dup3\n        /* \"#utility.yul\":15315:15408   */\n      tag_264\n      jump\t// in\n    tag_412:\n        /* \"#utility.yul\":15433:15435   */\n      0x20\n        /* \"#utility.yul\":15428:15431   */\n      dup3\n        /* \"#utility.yul\":15424:15436   */\n      add\n        /* \"#utility.yul\":15417:15436   */\n      swap1\n      pop\n        /* \"#utility.yul\":15076:15442   */\n      swap2\n      swap1\n      pop\n      jump\t// out\n        /* \"#utility.yul\":15448:15867   */\n    tag_128:\n        /* \"#utility.yul\":15614:15618   */\n      0x00\n        /* \"#utility.yul\":15652:15654   */\n      0x20\n        /* \"#utility.yul\":15641:15650   */\n      dup3\n        /* \"#utility.yul\":15637:15655   */\n      add\n        /* \"#utility.yul\":15629:15655   */\n      swap1\n      pop\n        /* \"#utility.yul\":15701:15710   */\n      dup2\n        /* \"#utility.yul\":15695:15699   */\n      dup2\n        /* \"#utility.yul\":15691:15711   */\n      sub\n        /* \"#utility.yul\":15687:15688   */\n      0x00\n        /* \"#utility.yul\":15676:15685   */\n      dup4\n        /* \"#utility.yul\":15672:15689   */\n      add\n        /* \"#utility.yul\":15665:15712   */\n      mstore\n        /* \"#utility.yul\":15729:15860   */\n      tag_414\n        /* \"#utility.yul\":15855:15859   */\n      dup2\n        /* \"#utility.yul\":15729:15860   */\n      tag_265\n      jump\t// in\n    tag_414:\n        /* \"#utility.yul\":15721:15860   */\n      swap1\n      pop\n        /* \"#utility.yul\":15448:15867   */\n      swap2\n      swap1\n      pop\n      jump\t// out\n        /* \"#utility.yul\":15873:16055   */\n    tag_266:\n        /* \"#utility.yul\":16013:16047   */\n      0x4465706c6f7965722063616e6e6f742062652061207465616d206d656d626572\n        /* \"#utility.yul\":16009:16010   */\n      0x00\n        /* \"#utility.yul\":16001:16007   */\n      dup3\n        /* \"#utility.yul\":15997:16011   */\n      add\n        /* \"#utility.yul\":15990:16048   */\n      mstore\n        /* \"#utility.yul\":15873:16055   */\n      pop\n      jump\t// out\n        /* \"#utility.yul\":16061:16427   */\n    tag_267:\n        /* \"#utility.yul\":16203:16206   */\n      0x00\n        /* \"#utility.yul\":16224:16291   */\n      tag_417\n        /* \"#utility.yul\":16288:16290   */\n      0x20\n        /* \"#utility.yul\":16283:16286   */\n      dup4\n        /* \"#utility.yul\":16224:16291   */\n      tag_232\n      jump\t// in\n    tag_417:\n        /* \"#utility.yul\":16217:16291   */\n      swap2\n      pop\n        /* \"#utility.yul\":16300:16393   */\n      tag_418\n        /* \"#utility.yul\":16389:16392   */\n      dup3\n        /* \"#utility.yul\":16300:16393   */\n      tag_266\n      jump\t// in\n    tag_418:\n        /* \"#utility.yul\":16418:16420   */\n      0x20\n        /* \"#utility.yul\":16413:16416   */\n      dup3\n        /* \"#utility.yul\":16409:16421   */\n      add\n        /* \"#utility.yul\":16402:16421   */\n      swap1\n      pop\n        /* \"#utility.yul\":16061:16427   */\n      swap2\n      swap1\n      pop\n      jump\t// out\n        /* \"#utility.yul\":16433:16852   */\n    tag_138:\n        /* \"#utility.yul\":16599:16603   */\n      0x00\n        /* \"#utility.yul\":16637:16639   */\n      0x20\n        /* \"#utility.yul\":16626:16635   */\n      dup3\n        /* \"#utility.yul\":16622:16640   */\n      add\n        /* \"#utility.yul\":16614:16640   */\n      swap1\n      pop\n        /* \"#utility.yul\":16686:16695   */\n      dup2\n        /* \"#utility.yul\":16680:16684   */\n      dup2\n        /* \"#utility.yul\":16676:16696   */\n      sub\n        /* \"#utility.yul\":16672:16673   */\n      0x00\n        /* \"#utility.yul\":16661:16670   */\n      dup4\n        /* \"#utility.yul\":16657:16674   */\n      add\n        /* \"#utility.yul\":16650:16697   */\n      mstore\n        /* \"#utility.yul\":16714:16845   */\n      tag_420\n        /* \"#utility.yul\":16840:16844   */\n      dup2\n        /* \"#utility.yul\":16714:16845   */\n      tag_267\n      jump\t// in\n    tag_420:\n        /* \"#utility.yul\":16706:16845   */\n      swap1\n      pop\n        /* \"#utility.yul\":16433:16852   */\n      swap2\n      swap1\n      pop\n      jump\t// out\n        /* \"#utility.yul\":16858:17038   */\n    tag_268:\n        /* \"#utility.yul\":16906:16983   */\n      0x4e487b7100000000000000000000000000000000000000000000000000000000\n        /* \"#utility.yul\":16903:16904   */\n      0x00\n        /* \"#utility.yul\":16896:16984   */\n      mstore\n        /* \"#utility.yul\":17003:17007   */\n      0x11\n        /* \"#utility.yul\":17000:17001   */\n      0x04\n        /* \"#utility.yul\":16993:17008   */\n      mstore\n        /* \"#utility.yul\":17027:17031   */\n      0x24\n        /* \"#utility.yul\":17024:17025   */\n      0x00\n        /* \"#utility.yul\":17017:17032   */\n      revert\n        /* \"#utility.yul\":17044:17277   */\n    tag_142:\n        /* \"#utility.yul\":17083:17086   */\n      0x00\n        /* \"#utility.yul\":17106:17130   */\n      tag_423\n        /* \"#utility.yul\":17124:17129   */\n      dup3\n        /* \"#utility.yul\":17106:17130   */\n      tag_224\n      jump\t// in\n    tag_423:\n        /* \"#utility.yul\":17097:17130   */\n      swap2\n      pop\n        /* \"#utility.yul\":17152:17218   */\n      0xffffffffffffffffffffffffffffffffffffffffffffffffffffffffffffffff\n        /* \"#utility.yul\":17145:17150   */\n      dup3\n        /* \"#utility.yul\":17142:17219   */\n      sub\n        /* \"#utility.yul\":17139:17242   */\n      tag_424\n      jumpi\n        /* \"#utility.yul\":17222:17240   */\n      tag_425\n      tag_268\n      jump\t// in\n    tag_425:\n        /* \"#utility.yul\":17139:17242   */\n    tag_424:\n        /* \"#utility.yul\":17269:17270   */\n      0x01\n        /* \"#utility.yul\":17262:17267   */\n      dup3\n        /* \"#utility.yul\":17258:17271   */\n      add\n        /* \"#utility.yul\":17251:17271   */\n      swap1\n      pop\n        /* \"#utility.yul\":17044:17277   */\n      swap2\n      swap1\n      pop\n      jump\t// out\n        /* \"#utility.yul\":17283:17512   */\n    tag_269:\n        /* \"#utility.yul\":17423:17457   */\n      0x596f75206861766520616c726561647920766f746564206f6e20746869732074\n        /* \"#utility.yul\":17419:17420   */\n      0x00\n        /* \"#utility.yul\":17411:17417   */\n      dup3\n        /* \"#utility.yul\":17407:17421   */\n      add\n        /* \"#utility.yul\":17400:17458   */\n      mstore\n        /* \"#utility.yul\":17492:17504   */\n      0x72616e73616374696f6e00000000000000000000000000000000000000000000\n        /* \"#utility.yul\":17487:17489   */\n      0x20\n        /* \"#utility.yul\":17479:17485   */\n      dup3\n        /* \"#utility.yul\":17475:17490   */\n      add\n        /* \"#utility.yul\":17468:17505   */\n      mstore\n        /* \"#utility.yul\":17283:17512   */\n      pop\n      jump\t// out\n        /* \"#utility.yul\":17518:17884   */\n    tag_270:\n        /* \"#utility.yul\":17660:17663   */\n      0x00\n        /* \"#utility.yul\":17681:17748   */\n      tag_428\n        /* \"#utility.yul\":17745:17747   */\n      0x2a\n        /* \"#utility.yul\":17740:17743   */\n      dup4\n        /* \"#utility.yul\":17681:17748   */\n      tag_232\n      jump\t// in\n    tag_428:\n        /* \"#utility.yul\":17674:17748   */\n      swap2\n      pop\n        /* \"#utility.yul\":17757:17850   */\n      tag_429\n        /* \"#utility.yul\":17846:17849   */\n      dup3\n        /* \"#utility.yul\":17757:17850   */\n      tag_269\n      jump\t// in\n    tag_429:\n        /* \"#utility.yul\":17875:17877   */\n      0x40\n        /* \"#utility.yul\":17870:17873   */\n      dup3\n        /* \"#utility.yul\":17866:17878   */\n      add\n        /* \"#utility.yul\":17859:17878   */\n      swap1\n      pop\n        /* \"#utility.yul\":17518:17884   */\n      swap2\n      swap1\n      pop\n      jump\t// out\n        /* \"#utility.yul\":17890:18309   */\n    tag_154:\n        /* \"#utility.yul\":18056:18060   */\n      0x00\n        /* \"#utility.yul\":18094:18096   */\n      0x20\n        /* \"#utility.yul\":18083:18092   */\n      dup3\n        /* \"#utility.yul\":18079:18097   */\n      add\n        /* \"#utility.yul\":18071:18097   */\n      swap1\n      pop\n        /* \"#utility.yul\":18143:18152   */\n      dup2\n        /* \"#utility.yul\":18137:18141   */\n      dup2\n        /* \"#utility.yul\":18133:18153   */\n      sub\n        /* \"#utility.yul\":18129:18130   */\n      0x00\n        /* \"#utility.yul\":18118:18127   */\n      dup4\n        /* \"#utility.yul\":18114:18131   */\n      add\n        /* \"#utility.yul\":18107:18154   */\n      mstore\n        /* \"#utility.yul\":18171:18302   */\n      tag_431\n        /* \"#utility.yul\":18297:18301   */\n      dup2\n        /* \"#utility.yul\":18171:18302   */\n      tag_270\n      jump\t// in\n    tag_431:\n        /* \"#utility.yul\":18163:18302   */\n      swap1\n      pop\n        /* \"#utility.yul\":17890:18309   */\n      swap2\n      swap1\n      pop\n      jump\t// out\n        /* \"#utility.yul\":18315:18725   */\n    tag_163:\n        /* \"#utility.yul\":18355:18362   */\n      0x00\n        /* \"#utility.yul\":18378:18398   */\n      tag_433\n        /* \"#utility.yul\":18396:18397   */\n      dup3\n        /* \"#utility.yul\":18378:18398   */\n      tag_224\n      jump\t// in\n    tag_433:\n        /* \"#utility.yul\":18373:18398   */\n      swap2\n      pop\n        /* \"#utility.yul\":18412:18432   */\n      tag_434\n        /* \"#utility.yul\":18430:18431   */\n      dup4\n        /* \"#utility.yul\":18412:18432   */\n      tag_224\n      jump\t// in\n    tag_434:\n        /* \"#utility.yul\":18407:18432   */\n      swap3\n      pop\n        /* \"#utility.yul\":18467:18468   */\n      dup3\n        /* \"#utility.yul\":18464:18465   */\n      dup3\n        /* \"#utility.yul\":18460:18469   */\n      mul\n        /* \"#utility.yul\":18489:18519   */\n      tag_435\n        /* \"#utility.yul\":18507:18518   */\n      dup2\n        /* \"#utility.yul\":18489:18519   */\n      tag_224\n      jump\t// in\n    tag_435:\n        /* \"#utility.yul\":18478:18519   */\n      swap2\n      pop\n        /* \"#utility.yul\":18668:18669   */\n      dup3\n        /* \"#utility.yul\":18659:18666   */\n      dup3\n        /* \"#utility.yul\":18655:18670   */\n      div\n        /* \"#utility.yul\":18652:18653   */\n      dup5\n        /* \"#utility.yul\":18649:18671   */\n      eq\n        /* \"#utility.yul\":18629:18630   */\n      dup4\n        /* \"#utility.yul\":18622:18631   */\n      iszero\n        /* \"#utility.yul\":18602:18685   */\n      or\n        /* \"#utility.yul\":18579:18718   */\n      tag_436\n      jumpi\n        /* \"#utility.yul\":18698:18716   */\n      tag_437\n      tag_268\n      jump\t// in\n    tag_437:\n        /* \"#utility.yul\":18579:18718   */\n    tag_436:\n        /* \"#utility.yul\":18363:18725   */\n      pop\n        /* \"#utility.yul\":18315:18725   */\n      swap3\n      swap2\n      pop\n      pop\n      jump\t// out\n        /* \"#utility.yul\":18731:18925   */\n    tag_182:\n        /* \"#utility.yul\":18771:18775   */\n      0x00\n        /* \"#utility.yul\":18791:18811   */\n      tag_439\n        /* \"#utility.yul\":18809:18810   */\n      dup3\n        /* \"#utility.yul\":18791:18811   */\n      tag_224\n      jump\t// in\n    tag_439:\n        /* \"#utility.yul\":18786:18811   */\n      swap2\n      pop\n        /* \"#utility.yul\":18825:18845   */\n      tag_440\n        /* \"#utility.yul\":18843:18844   */\n      dup4\n        /* \"#utility.yul\":18825:18845   */\n      tag_224\n      jump\t// in\n    tag_440:\n        /* \"#utility.yul\":18820:18845   */\n      swap3\n      pop\n        /* \"#utility.yul\":18869:18870   */\n      dup3\n        /* \"#utility.yul\":18866:18867   */\n      dup3\n        /* \"#utility.yul\":18862:18871   */\n      sub\n        /* \"#utility.yul\":18854:18871   */\n      swap1\n      pop\n        /* \"#utility.yul\":18893:18894   */\n      dup2\n        /* \"#utility.yul\":18887:18891   */\n      dup2\n        /* \"#utility.yul\":18884:18895   */\n      gt\n        /* \"#utility.yul\":18881:18918   */\n      iszero\n      tag_441\n      jumpi\n        /* \"#utility.yul\":18898:18916   */\n      tag_442\n      tag_268\n      jump\t// in\n    tag_442:\n        /* \"#utility.yul\":18881:18918   */\n    tag_441:\n        /* \"#utility.yul\":18731:18925   */\n      swap3\n      swap2\n      pop\n      pop\n      jump\t// out\n\n    auxdata: 0xa264697066735822122042f31e8ec7cab1f450e11ac7213c98cc04261c4816b47304962b049e276c13b464736f6c63430008120033\n}\n",
				"bytecode": {
					"linkReferences": {},
					"object": "60806040523480156200001157600080fd5b50604051620023293803806200232983398181016040528101906200003791906200054a565b60008251116200007e576040517f08c379a0000000000000000000000000000000000000000000000000000000008152600401620000759062000611565b60405180910390fd5b60008111620000c4576040517f08c379a0000000000000000000000000000000000000000000000000000000008152600401620000bb9062000683565b60405180910390fd5b336000806101000a81548173ffffffffffffffffffffffffffffffffffffffff021916908373ffffffffffffffffffffffffffffffffffffffff16021790555081600190805190602001906200011c92919062000273565b508060028190555060005b82518110156200026a5760008054906101000a900473ffffffffffffffffffffffffffffffffffffffff1673ffffffffffffffffffffffffffffffffffffffff168382815181106200017e576200017d620006a5565b5b602002602001015173ffffffffffffffffffffffffffffffffffffffff1603620001df576040517f08c379a0000000000000000000000000000000000000000000000000000000008152600401620001d69062000724565b60405180910390fd5b600160046000858481518110620001fb57620001fa620006a5565b5b602002602001015173ffffffffffffffffffffffffffffffffffffffff1673ffffffffffffffffffffffffffffffffffffffff16815260200190815260200160002060006101000a81548160ff0219169083151502179055508080620002619062000775565b91505062000127565b505050620007c2565b828054828255906000526020600020908101928215620002ef579160200282015b82811115620002ee5782518260006101000a81548173ffffffffffffffffffffffffffffffffffffffff021916908373ffffffffffffffffffffffffffffffffffffffff1602179055509160200191906001019062000294565b5b509050620002fe919062000302565b5090565b5b808211156200031d57600081600090555060010162000303565b5090565b6000604051905090565b600080fd5b600080fd5b600080fd5b6000601f19601f8301169050919050565b7f4e487b7100000000000000000000000000000000000000000000000000000000600052604160045260246000fd5b62000385826200033a565b810181811067ffffffffffffffff82111715620003a757620003a66200034b565b5b80604052505050565b6000620003bc62000321565b9050620003ca82826200037a565b919050565b600067ffffffffffffffff821115620003ed57620003ec6200034b565b5b602082029050602081019050919050565b600080fd5b600073ffffffffffffffffffffffffffffffffffffffff82169050919050565b6000620004308262000403565b9050919050565b620004428162000423565b81146200044e57600080fd5b50565b600081519050620004628162000437565b92915050565b60006200047f6200047984620003cf565b620003b0565b90508083825260208201905060208402830185811115620004a557620004a4620003fe565b5b835b81811015620004d25780620004bd888262000451565b845260208401935050602081019050620004a7565b5050509392505050565b600082601f830112620004f457620004f362000335565b5b81516200050684826020860162000468565b91505092915050565b6000819050919050565b62000524816200050f565b81146200053057600080fd5b50565b600081519050620005448162000519565b92915050565b600080604083850312156200056457620005636200032b565b5b600083015167ffffffffffffffff81111562000585576200058462000330565b5b6200059385828601620004dc565b9250506020620005a68582860162000533565b9150509250929050565b600082825260208201905092915050565b7f4174206c65617374206f6e65206d656d62657220697320726571756972656400600082015250565b6000620005f9601f83620005b0565b91506200060682620005c1565b602082019050919050565b600060208201905081810360008301526200062c81620005ea565b9050919050565b7f43726564697473206d7573742062652067726561746572207468616e20300000600082015250565b60006200066b601e83620005b0565b9150620006788262000633565b602082019050919050565b600060208201905081810360008301526200069e816200065c565b9050919050565b7f4e487b7100000000000000000000000000000000000000000000000000000000600052603260045260246000fd5b7f4465706c6f7965722063616e6e6f742062652061207465616d206d656d626572600082015250565b60006200070c602083620005b0565b91506200071982620006d4565b602082019050919050565b600060208201905081810360008301526200073f81620006fd565b9050919050565b7f4e487b7100000000000000000000000000000000000000000000000000000000600052601160045260246000fd5b600062000782826200050f565b91507fffffffffffffffffffffffffffffffffffffffffffffffffffffffffffffffff8203620007b757620007b662000746565b5b600182019050919050565b611b5780620007d26000396000f3fe608060405234801561001057600080fd5b50600436106100a95760003560e01c80639c86836b116100715780639c86836b1461017b578063a230c52414610197578063b5bd3eb9146101c7578063b759f954146101e5578063b8adaa1114610201578063d5f394881461021d576100a9565b80631dbf3bc7146100ae57806326540fd2146100ca5780635daf08ca146100e85780638916d12c146101185780639ace38c214610149575b600080fd5b6100c860048036038101906100c39190611173565b61023b565b005b6100d2610372565b6040516100df91906111af565b60405180910390f35b61010260048036038101906100fd9190611173565b610408565b60405161010f919061120b565b60405180910390f35b610132600480360381019061012d9190611173565b610447565b6040516101409291906112b6565b60405180910390f35b610163600480360381019061015e9190611173565b61070a565b6040516101729392919061135d565b60405180910390f35b61019560048036038101906101909190611508565b610751565b005b6101b160048036038101906101ac9190611564565b610a0a565b6040516101be91906115ac565b60405180910390f35b6101cf610a2a565b6040516101dc91906111af565b60405180910390f35b6101ff60048036038101906101fa9190611173565b610a30565b005b61021b60048036038101906102169190611173565b610dc4565b005b61022561105e565b604051610232919061120b565b60405180910390f35b600460003373ffffffffffffffffffffffffffffffffffffffff1673ffffffffffffffffffffffffffffffffffffffff16815260200190815260200160002060009054906101000a900460ff166102c7576040517f08c379a00000000000000000000000000000000000000000000000000000000081526004016102be90611639565b60405180910390fd5b6000811161030a576040517f08c379a0000000000000000000000000000000000000000000000000000000008152600401610301906116a5565b60405180910390fd5b60006003600181600181540180825580915050039060005260206000209060040201905081816000018190555060008160010160006101000a81548160ff0219169083600281111561035f5761035e6112e6565b5b0217905550600181600201819055505050565b6000600460003373ffffffffffffffffffffffffffffffffffffffff1673ffffffffffffffffffffffffffffffffffffffff16815260200190815260200160002060009054906101000a900460ff16610400576040517f08c379a00000000000000000000000000000000000000000000000000000000081526004016103f790611639565b60405180910390fd5b600254905090565b6001818154811061041857600080fd5b906000526020600020016000915054906101000a900473ffffffffffffffffffffffffffffffffffffffff1681565b60006060600460003373ffffffffffffffffffffffffffffffffffffffff1673ffffffffffffffffffffffffffffffffffffffff16815260200190815260200160002060009054906101000a900460ff166104d7576040517f08c379a00000000000000000000000000000000000000000000000000000000081526004016104ce90611639565b60405180910390fd5b600380549050831061051e576040517f08c379a000000000000000000000000000000000000000000000000000000000815260040161051590611711565b60405180910390fd5b60006002811115610532576105316112e6565b5b6003848154811061054657610545611731565b5b906000526020600020906004020160010160009054906101000a900460ff166002811115610577576105766112e6565b5b036105e157600383815481106105905761058f611731565b5b9060005260206000209060040201600001546040518060400160405280600781526020017f70656e64696e670000000000000000000000000000000000000000000000000081525091509150610705565b600160028111156105f5576105f46112e6565b5b6003848154811061060957610608611731565b5b906000526020600020906004020160010160009054906101000a900460ff16600281111561063a576106396112e6565b5b036106a4576003838154811061065357610652611731565b5b9060005260206000209060040201600001546040518060400160405280600781526020017f646562697465640000000000000000000000000000000000000000000000000081525091509150610705565b600383815481106106b8576106b7611731565b5b9060005260206000209060040201600001546040518060400160405280600681526020017f6661696c65640000000000000000000000000000000000000000000000000000815250915091505b915091565b6003818154811061071a57600080fd5b90600052602060002090600402016000915090508060000154908060010160009054906101000a900460ff16908060020154905083565b60008054906101000a900473ffffffffffffffffffffffffffffffffffffffff1673ffffffffffffffffffffffffffffffffffffffff163373ffffffffffffffffffffffffffffffffffffffff16146107df576040517f08c379a00000000000000000000000000000000000000000000000000000000081526004016107d6906117d2565b60405180910390fd5b600060018054905014610827576040517f08c379a000000000000000000000000000000000000000000000000000000000815260040161081e9061183e565b60405180910390fd5b600082511161086b576040517f08c379a0000000000000000000000000000000000000000000000000000000008152600401610862906118aa565b60405180910390fd5b600081116108ae576040517f08c379a00000000000000000000000000000000000000000000000000000000081526004016108a590611916565b60405180910390fd5b81600190805190602001906108c4929190611082565b508060028190555060005b8251811015610a055760008054906101000a900473ffffffffffffffffffffffffffffffffffffffff1673ffffffffffffffffffffffffffffffffffffffff1683828151811061092257610921611731565b5b602002602001015173ffffffffffffffffffffffffffffffffffffffff1603610980576040517f08c379a000000000000000000000000000000000000000000000000000000000815260040161097790611982565b60405180910390fd5b60016004600085848151811061099957610998611731565b5b602002602001015173ffffffffffffffffffffffffffffffffffffffff1673ffffffffffffffffffffffffffffffffffffffff16815260200190815260200160002060006101000a81548160ff02191690831515021790555080806109fd906119d1565b9150506108cf565b505050565b60046020528060005260406000206000915054906101000a900460ff1681565b60025481565b600460003373ffffffffffffffffffffffffffffffffffffffff1673ffffffffffffffffffffffffffffffffffffffff16815260200190815260200160002060009054906101000a900460ff16610abc576040517f08c379a0000000000000000000000000000000000000000000000000000000008152600401610ab390611639565b60405180910390fd5b6003805490508110610b03576040517f08c379a0000000000000000000000000000000000000000000000000000000008152600401610afa90611711565b60405180910390fd5b60038181548110610b1757610b16611731565b5b906000526020600020906004020160030160003373ffffffffffffffffffffffffffffffffffffffff1673ffffffffffffffffffffffffffffffffffffffff16815260200190815260200160002060009054906101000a900460ff1615610bb3576040517f08c379a0000000000000000000000000000000000000000000000000000000008152600401610baa90611a8b565b60405180910390fd5b60038181548110610bc757610bc6611731565b5b90600052602060002090600402016002016000815480929190610be9906119d1565b9190505550600160038281548110610c0457610c03611731565b5b906000526020600020906004020160030160003373ffffffffffffffffffffffffffffffffffffffff1673ffffffffffffffffffffffffffffffffffffffff16815260200190815260200160002060006101000a81548160ff0219169083151502179055506046600180549050610c7b9190611aab565b606460038381548110610c9157610c90611731565b5b906000526020600020906004020160020154610cad9190611aab565b10610dc157600160038281548110610cc857610cc7611731565b5b906000526020600020906004020160010160006101000a81548160ff02191690836002811115610cfb57610cfa6112e6565b5b021790555060025460038281548110610d1757610d16611731565b5b90600052602060002090600402016000015411610d715760038181548110610d4257610d41611731565b5b90600052602060002090600402016000015460026000828254610d659190611aed565b92505081905550610dc0565b600260038281548110610d8757610d86611731565b5b906000526020600020906004020160010160006101000a81548160ff02191690836002811115610dba57610db96112e6565b5b02179055505b5b50565b600460003373ffffffffffffffffffffffffffffffffffffffff1673ffffffffffffffffffffffffffffffffffffffff16815260200190815260200160002060009054906101000a900460ff16610e50576040517f08c379a0000000000000000000000000000000000000000000000000000000008152600401610e4790611639565b60405180910390fd5b6003805490508110610e97576040517f08c379a0000000000000000000000000000000000000000000000000000000008152600401610e8e90611711565b60405180910390fd5b60038181548110610eab57610eaa611731565b5b906000526020600020906004020160030160003373ffffffffffffffffffffffffffffffffffffffff1673ffffffffffffffffffffffffffffffffffffffff16815260200190815260200160002060009054906101000a900460ff1615610f47576040517f08c379a0000000000000000000000000000000000000000000000000000000008152600401610f3e90611a8b565b60405180910390fd5b600160038281548110610f5d57610f5c611731565b5b906000526020600020906004020160030160003373ffffffffffffffffffffffffffffffffffffffff1673ffffffffffffffffffffffffffffffffffffffff16815260200190815260200160002060006101000a81548160ff021916908315150217905550601e600180549050610fd49190611aab565b606460038381548110610fea57610fe9611731565b5b9060005260206000209060040201600201546110069190611aab565b111561105b5760026003828154811061102257611021611731565b5b906000526020600020906004020160010160006101000a81548160ff02191690836002811115611055576110546112e6565b5b02179055505b50565b60008054906101000a900473ffffffffffffffffffffffffffffffffffffffff1681565b8280548282559060005260206000209081019282156110fb579160200282015b828111156110fa5782518260006101000a81548173ffffffffffffffffffffffffffffffffffffffff021916908373ffffffffffffffffffffffffffffffffffffffff160217905550916020019190600101906110a2565b5b509050611108919061110c565b5090565b5b8082111561112557600081600090555060010161110d565b5090565b6000604051905090565b600080fd5b600080fd5b6000819050919050565b6111508161113d565b811461115b57600080fd5b50565b60008135905061116d81611147565b92915050565b60006020828403121561118957611188611133565b5b60006111978482850161115e565b91505092915050565b6111a98161113d565b82525050565b60006020820190506111c460008301846111a0565b92915050565b600073ffffffffffffffffffffffffffffffffffffffff82169050919050565b60006111f5826111ca565b9050919050565b611205816111ea565b82525050565b600060208201905061122060008301846111fc565b92915050565b600081519050919050565b600082825260208201905092915050565b60005b83811015611260578082015181840152602081019050611245565b60008484015250505050565b6000601f19601f8301169050919050565b600061128882611226565b6112928185611231565b93506112a2818560208601611242565b6112ab8161126c565b840191505092915050565b60006040820190506112cb60008301856111a0565b81810360208301526112dd818461127d565b90509392505050565b7f4e487b7100000000000000000000000000000000000000000000000000000000600052602160045260246000fd5b60038110611326576113256112e6565b5b50565b600081905061133782611315565b919050565b600061134782611329565b9050919050565b6113578161133c565b82525050565b600060608201905061137260008301866111a0565b61137f602083018561134e565b61138c60408301846111a0565b949350505050565b600080fd5b7f4e487b7100000000000000000000000000000000000000000000000000000000600052604160045260246000fd5b6113d18261126c565b810181811067ffffffffffffffff821117156113f0576113ef611399565b5b80604052505050565b6000611403611129565b905061140f82826113c8565b919050565b600067ffffffffffffffff82111561142f5761142e611399565b5b602082029050602081019050919050565b600080fd5b61144e816111ea565b811461145957600080fd5b50565b60008135905061146b81611445565b92915050565b600061148461147f84611414565b6113f9565b905080838252602082019050602084028301858111156114a7576114a6611440565b5b835b818110156114d057806114bc888261145c565b8452602084019350506020810190506114a9565b5050509392505050565b600082601f8301126114ef576114ee611394565b5b81356114ff848260208601611471565b91505092915050565b6000806040838503121561151f5761151e611133565b5b600083013567ffffffffffffffff81111561153d5761153c611138565b5b611549858286016114da565b925050602061155a8582860161115e565b9150509250929050565b60006020828403121561157a57611579611133565b5b60006115888482850161145c565b91505092915050565b60008115159050919050565b6115a681611591565b82525050565b60006020820190506115c1600083018461159d565b92915050565b7f4f6e6c79207465616d206d656d626572732063616e2063616c6c20746869732060008201527f66756e6374696f6e000000000000000000000000000000000000000000000000602082015250565b6000611623602883611231565b915061162e826115c7565b604082019050919050565b6000602082019050818103600083015261165281611616565b9050919050565b7f416d6f756e74206d7573742062652067726561746572207468616e2030000000600082015250565b600061168f601d83611231565b915061169a82611659565b602082019050919050565b600060208201905081810360008301526116be81611682565b9050919050565b7f5472616e73616374696f6e20646f6573206e6f74206578697374000000000000600082015250565b60006116fb601a83611231565b9150611706826116c5565b602082019050919050565b6000602082019050818103600083015261172a816116ee565b9050919050565b7f4e487b7100000000000000000000000000000000000000000000000000000000600052603260045260246000fd5b7f4f6e6c7920746865206465706c6f7965722063616e2063616c6c20746869732060008201527f66756e6374696f6e000000000000000000000000000000000000000000000000602082015250565b60006117bc602883611231565b91506117c782611760565b604082019050919050565b600060208201905081810360008301526117eb816117af565b9050919050565b7f57616c6c657420697320616c7265616479207365740000000000000000000000600082015250565b6000611828601583611231565b9150611833826117f2565b602082019050919050565b600060208201905081810360008301526118578161181b565b9050919050565b7f4174206c65617374206f6e65206d656d62657220697320726571756972656400600082015250565b6000611894601f83611231565b915061189f8261185e565b602082019050919050565b600060208201905081810360008301526118c381611887565b9050919050565b7f43726564697473206d7573742062652067726561746572207468616e20300000600082015250565b6000611900601e83611231565b915061190b826118ca565b602082019050919050565b6000602082019050818103600083015261192f816118f3565b9050919050565b7f4465706c6f7965722063616e6e6f742062652061207465616d206d656d626572600082015250565b600061196c602083611231565b915061197782611936565b602082019050919050565b6000602082019050818103600083015261199b8161195f565b9050919050565b7f4e487b7100000000000000000000000000000000000000000000000000000000600052601160045260246000fd5b60006119dc8261113d565b91507fffffffffffffffffffffffffffffffffffffffffffffffffffffffffffffffff8203611a0e57611a0d6119a2565b5b600182019050919050565b7f596f75206861766520616c726561647920766f746564206f6e2074686973207460008201527f72616e73616374696f6e00000000000000000000000000000000000000000000602082015250565b6000611a75602a83611231565b9150611a8082611a19565b604082019050919050565b60006020820190508181036000830152611aa481611a68565b9050919050565b6000611ab68261113d565b9150611ac18361113d565b9250828202611acf8161113d565b91508282048414831517611ae657611ae56119a2565b5b5092915050565b6000611af88261113d565b9150611b038361113d565b9250828203905081811115611b1b57611b1a6119a2565b5b9291505056fea264697066735822122042f31e8ec7cab1f450e11ac7213c98cc04261c4816b47304962b049e276c13b464736f6c63430008120033",
					"opcodes": "PUSH1 0x80 PUSH1 0x40 MSTORE CALLVALUE DUP1 ISZERO PUSH3 0x11 JUMPI PUSH1 0x0 DUP1 REVERT JUMPDEST POP PUSH1 0x40 MLOAD PUSH3 0x2329 CODESIZE SUB DUP1 PUSH3 0x2329 DUP4 CODECOPY DUP2 DUP2 ADD PUSH1 0x40 MSTORE DUP2 ADD SWAP1 PUSH3 0x37 SWAP2 SWAP1 PUSH3 0x54A JUMP JUMPDEST PUSH1 0x0 DUP3 MLOAD GT PUSH3 0x7E JUMPI PUSH1 0x40 MLOAD PUSH32 0x8C379A000000000000000000000000000000000000000000000000000000000 DUP2 MSTORE PUSH1 0x4 ADD PUSH3 0x75 SWAP1 PUSH3 0x611 JUMP JUMPDEST PUSH1 0x40 MLOAD DUP1 SWAP2 SUB SWAP1 REVERT JUMPDEST PUSH1 0x0 DUP2 GT PUSH3 0xC4 JUMPI PUSH1 0x40 MLOAD PUSH32 0x8C379A000000000000000000000000000000000000000000000000000000000 DUP2 MSTORE PUSH1 0x4 ADD PUSH3 0xBB SWAP1 PUSH3 0x683 JUMP JUMPDEST PUSH1 0x40 MLOAD DUP1 SWAP2 SUB SWAP1 REVERT JUMPDEST CALLER PUSH1 0x0 DUP1 PUSH2 0x100 EXP DUP2 SLOAD DUP2 PUSH20 0xFFFFFFFFFFFFFFFFFFFFFFFFFFFFFFFFFFFFFFFF MUL NOT AND SWAP1 DUP4 PUSH20 0xFFFFFFFFFFFFFFFFFFFFFFFFFFFFFFFFFFFFFFFF AND MUL OR SWAP1 SSTORE POP DUP2 PUSH1 0x1 SWAP1 DUP1 MLOAD SWAP1 PUSH1 0x20 ADD SWAP1 PUSH3 0x11C SWAP3 SWAP2 SWAP1 PUSH3 0x273 JUMP JUMPDEST POP DUP1 PUSH1 0x2 DUP2 SWAP1 SSTORE POP PUSH1 0x0 JUMPDEST DUP3 MLOAD DUP2 LT ISZERO PUSH3 0x26A JUMPI PUSH1 0x0 DUP1 SLOAD SWAP1 PUSH2 0x100 EXP SWAP1 DIV PUSH20 0xFFFFFFFFFFFFFFFFFFFFFFFFFFFFFFFFFFFFFFFF AND PUSH20 0xFFFFFFFFFFFFFFFFFFFFFFFFFFFFFFFFFFFFFFFF AND DUP4 DUP3 DUP2 MLOAD DUP2 LT PUSH3 0x17E JUMPI PUSH3 0x17D PUSH3 0x6A5 JUMP JUMPDEST JUMPDEST PUSH1 0x20 MUL PUSH1 0x20 ADD ADD MLOAD PUSH20 0xFFFFFFFFFFFFFFFFFFFFFFFFFFFFFFFFFFFFFFFF AND SUB PUSH3 0x1DF JUMPI PUSH1 0x40 MLOAD PUSH32 0x8C379A000000000000000000000000000000000000000000000000000000000 DUP2 MSTORE PUSH1 0x4 ADD PUSH3 0x1D6 SWAP1 PUSH3 0x724 JUMP JUMPDEST PUSH1 0x40 MLOAD DUP1 SWAP2 SUB SWAP1 REVERT JUMPDEST PUSH1 0x1 PUSH1 0x4 PUSH1 0x0 DUP6 DUP5 DUP2 MLOAD DUP2 LT PUSH3 0x1FB JUMPI PUSH3 0x1FA PUSH3 0x6A5 JUMP JUMPDEST JUMPDEST PUSH1 0x20 MUL PUSH1 0x20 ADD ADD MLOAD PUSH20 0xFFFFFFFFFFFFFFFFFFFFFFFFFFFFFFFFFFFFFFFF AND PUSH20 0xFFFFFFFFFFFFFFFFFFFFFFFFFFFFFFFFFFFFFFFF AND DUP2 MSTORE PUSH1 0x20 ADD SWAP1 DUP2 MSTORE PUSH1 0x20 ADD PUSH1 0x0 KECCAK256 PUSH1 0x0 PUSH2 0x100 EXP DUP2 SLOAD DUP2 PUSH1 0xFF MUL NOT AND SWAP1 DUP4 ISZERO ISZERO MUL OR SWAP1 SSTORE POP DUP1 DUP1 PUSH3 0x261 SWAP1 PUSH3 0x775 JUMP JUMPDEST SWAP2 POP POP PUSH3 0x127 JUMP JUMPDEST POP POP POP PUSH3 0x7C2 JUMP JUMPDEST DUP3 DUP1 SLOAD DUP3 DUP3 SSTORE SWAP1 PUSH1 0x0 MSTORE PUSH1 0x20 PUSH1 0x0 KECCAK256 SWAP1 DUP2 ADD SWAP3 DUP3 ISZERO PUSH3 0x2EF JUMPI SWAP2 PUSH1 0x20 MUL DUP3 ADD JUMPDEST DUP3 DUP2 GT ISZERO PUSH3 0x2EE JUMPI DUP3 MLOAD DUP3 PUSH1 0x0 PUSH2 0x100 EXP DUP2 SLOAD DUP2 PUSH20 0xFFFFFFFFFFFFFFFFFFFFFFFFFFFFFFFFFFFFFFFF MUL NOT AND SWAP1 DUP4 PUSH20 0xFFFFFFFFFFFFFFFFFFFFFFFFFFFFFFFFFFFFFFFF AND MUL OR SWAP1 SSTORE POP SWAP2 PUSH1 0x20 ADD SWAP2 SWAP1 PUSH1 0x1 ADD SWAP1 PUSH3 0x294 JUMP JUMPDEST JUMPDEST POP SWAP1 POP PUSH3 0x2FE SWAP2 SWAP1 PUSH3 0x302 JUMP JUMPDEST POP SWAP1 JUMP JUMPDEST JUMPDEST DUP1 DUP3 GT ISZERO PUSH3 0x31D JUMPI PUSH1 0x0 DUP2 PUSH1 0x0 SWAP1 SSTORE POP PUSH1 0x1 ADD PUSH3 0x303 JUMP JUMPDEST POP SWAP1 JUMP JUMPDEST PUSH1 0x0 PUSH1 0x40 MLOAD SWAP1 POP SWAP1 JUMP JUMPDEST PUSH1 0x0 DUP1 REVERT JUMPDEST PUSH1 0x0 DUP1 REVERT JUMPDEST PUSH1 0x0 DUP1 REVERT JUMPDEST PUSH1 0x0 PUSH1 0x1F NOT PUSH1 0x1F DUP4 ADD AND SWAP1 POP SWAP2 SWAP1 POP JUMP JUMPDEST PUSH32 0x4E487B7100000000000000000000000000000000000000000000000000000000 PUSH1 0x0 MSTORE PUSH1 0x41 PUSH1 0x4 MSTORE PUSH1 0x24 PUSH1 0x0 REVERT JUMPDEST PUSH3 0x385 DUP3 PUSH3 0x33A JUMP JUMPDEST DUP2 ADD DUP2 DUP2 LT PUSH8 0xFFFFFFFFFFFFFFFF DUP3 GT OR ISZERO PUSH3 0x3A7 JUMPI PUSH3 0x3A6 PUSH3 0x34B JUMP JUMPDEST JUMPDEST DUP1 PUSH1 0x40 MSTORE POP POP POP JUMP JUMPDEST PUSH1 0x0 PUSH3 0x3BC PUSH3 0x321 JUMP JUMPDEST SWAP1 POP PUSH3 0x3CA DUP3 DUP3 PUSH3 0x37A JUMP JUMPDEST SWAP2 SWAP1 POP JUMP JUMPDEST PUSH1 0x0 PUSH8 0xFFFFFFFFFFFFFFFF DUP3 GT ISZERO PUSH3 0x3ED JUMPI PUSH3 0x3EC PUSH3 0x34B JUMP JUMPDEST JUMPDEST PUSH1 0x20 DUP3 MUL SWAP1 POP PUSH1 0x20 DUP2 ADD SWAP1 POP SWAP2 SWAP1 POP JUMP JUMPDEST PUSH1 0x0 DUP1 REVERT JUMPDEST PUSH1 0x0 PUSH20 0xFFFFFFFFFFFFFFFFFFFFFFFFFFFFFFFFFFFFFFFF DUP3 AND SWAP1 POP SWAP2 SWAP1 POP JUMP JUMPDEST PUSH1 0x0 PUSH3 0x430 DUP3 PUSH3 0x403 JUMP JUMPDEST SWAP1 POP SWAP2 SWAP1 POP JUMP JUMPDEST PUSH3 0x442 DUP2 PUSH3 0x423 JUMP JUMPDEST DUP2 EQ PUSH3 0x44E JUMPI PUSH1 0x0 DUP1 REVERT JUMPDEST POP JUMP JUMPDEST PUSH1 0x0 DUP2 MLOAD SWAP1 POP PUSH3 0x462 DUP2 PUSH3 0x437 JUMP JUMPDEST SWAP3 SWAP2 POP POP JUMP JUMPDEST PUSH1 0x0 PUSH3 0x47F PUSH3 0x479 DUP5 PUSH3 0x3CF JUMP JUMPDEST PUSH3 0x3B0 JUMP JUMPDEST SWAP1 POP DUP1 DUP4 DUP3 MSTORE PUSH1 0x20 DUP3 ADD SWAP1 POP PUSH1 0x20 DUP5 MUL DUP4 ADD DUP6 DUP2 GT ISZERO PUSH3 0x4A5 JUMPI PUSH3 0x4A4 PUSH3 0x3FE JUMP JUMPDEST JUMPDEST DUP4 JUMPDEST DUP2 DUP2 LT ISZERO PUSH3 0x4D2 JUMPI DUP1 PUSH3 0x4BD DUP9 DUP3 PUSH3 0x451 JUMP JUMPDEST DUP5 MSTORE PUSH1 0x20 DUP5 ADD SWAP4 POP POP PUSH1 0x20 DUP2 ADD SWAP1 POP PUSH3 0x4A7 JUMP JUMPDEST POP POP POP SWAP4 SWAP3 POP POP POP JUMP JUMPDEST PUSH1 0x0 DUP3 PUSH1 0x1F DUP4 ADD SLT PUSH3 0x4F4 JUMPI PUSH3 0x4F3 PUSH3 0x335 JUMP JUMPDEST JUMPDEST DUP2 MLOAD PUSH3 0x506 DUP5 DUP3 PUSH1 0x20 DUP7 ADD PUSH3 0x468 JUMP JUMPDEST SWAP2 POP POP SWAP3 SWAP2 POP POP JUMP JUMPDEST PUSH1 0x0 DUP2 SWAP1 POP SWAP2 SWAP1 POP JUMP JUMPDEST PUSH3 0x524 DUP2 PUSH3 0x50F JUMP JUMPDEST DUP2 EQ PUSH3 0x530 JUMPI PUSH1 0x0 DUP1 REVERT JUMPDEST POP JUMP JUMPDEST PUSH1 0x0 DUP2 MLOAD SWAP1 POP PUSH3 0x544 DUP2 PUSH3 0x519 JUMP JUMPDEST SWAP3 SWAP2 POP POP JUMP JUMPDEST PUSH1 0x0 DUP1 PUSH1 0x40 DUP4 DUP6 SUB SLT ISZERO PUSH3 0x564 JUMPI PUSH3 0x563 PUSH3 0x32B JUMP JUMPDEST JUMPDEST PUSH1 0x0 DUP4 ADD MLOAD PUSH8 0xFFFFFFFFFFFFFFFF DUP2 GT ISZERO PUSH3 0x585 JUMPI PUSH3 0x584 PUSH3 0x330 JUMP JUMPDEST JUMPDEST PUSH3 0x593 DUP6 DUP3 DUP7 ADD PUSH3 0x4DC JUMP JUMPDEST SWAP3 POP POP PUSH1 0x20 PUSH3 0x5A6 DUP6 DUP3 DUP7 ADD PUSH3 0x533 JUMP JUMPDEST SWAP2 POP POP SWAP3 POP SWAP3 SWAP1 POP JUMP JUMPDEST PUSH1 0x0 DUP3 DUP3 MSTORE PUSH1 0x20 DUP3 ADD SWAP1 POP SWAP3 SWAP2 POP POP JUMP JUMPDEST PUSH32 0x4174206C65617374206F6E65206D656D62657220697320726571756972656400 PUSH1 0x0 DUP3 ADD MSTORE POP JUMP JUMPDEST PUSH1 0x0 PUSH3 0x5F9 PUSH1 0x1F DUP4 PUSH3 0x5B0 JUMP JUMPDEST SWAP2 POP PUSH3 0x606 DUP3 PUSH3 0x5C1 JUMP JUMPDEST PUSH1 0x20 DUP3 ADD SWAP1 POP SWAP2 SWAP1 POP JUMP JUMPDEST PUSH1 0x0 PUSH1 0x20 DUP3 ADD SWAP1 POP DUP2 DUP2 SUB PUSH1 0x0 DUP4 ADD MSTORE PUSH3 0x62C DUP2 PUSH3 0x5EA JUMP JUMPDEST SWAP1 POP SWAP2 SWAP1 POP JUMP JUMPDEST PUSH32 0x43726564697473206D7573742062652067726561746572207468616E20300000 PUSH1 0x0 DUP3 ADD MSTORE POP JUMP JUMPDEST PUSH1 0x0 PUSH3 0x66B PUSH1 0x1E DUP4 PUSH3 0x5B0 JUMP JUMPDEST SWAP2 POP PUSH3 0x678 DUP3 PUSH3 0x633 JUMP JUMPDEST PUSH1 0x20 DUP3 ADD SWAP1 POP SWAP2 SWAP1 POP JUMP JUMPDEST PUSH1 0x0 PUSH1 0x20 DUP3 ADD SWAP1 POP DUP2 DUP2 SUB PUSH1 0x0 DUP4 ADD MSTORE PUSH3 0x69E DUP2 PUSH3 0x65C JUMP JUMPDEST SWAP1 POP SWAP2 SWAP1 POP JUMP JUMPDEST PUSH32 0x4E487B7100000000000000000000000000000000000000000000000000000000 PUSH1 0x0 MSTORE PUSH1 0x32 PUSH1 0x4 MSTORE PUSH1 0x24 PUSH1 0x0 REVERT JUMPDEST PUSH32 0x4465706C6F7965722063616E6E6F742062652061207465616D206D656D626572 PUSH1 0x0 DUP3 ADD MSTORE POP JUMP JUMPDEST PUSH1 0x0 PUSH3 0x70C PUSH1 0x20 DUP4 PUSH3 0x5B0 JUMP JUMPDEST SWAP2 POP PUSH3 0x719 DUP3 PUSH3 0x6D4 JUMP JUMPDEST PUSH1 0x20 DUP3 ADD SWAP1 POP SWAP2 SWAP1 POP JUMP JUMPDEST PUSH1 0x0 PUSH1 0x20 DUP3 ADD SWAP1 POP DUP2 DUP2 SUB PUSH1 0x0 DUP4 ADD MSTORE PUSH3 0x73F DUP2 PUSH3 0x6FD JUMP JUMPDEST SWAP1 POP SWAP2 SWAP1 POP JUMP JUMPDEST PUSH32 0x4E487B7100000000000000000000000000000000000000000000000000000000 PUSH1 0x0 MSTORE PUSH1 0x11 PUSH1 0x4 MSTORE PUSH1 0x24 PUSH1 0x0 REVERT JUMPDEST PUSH1 0x0 PUSH3 0x782 DUP3 PUSH3 0x50F JUMP JUMPDEST SWAP2 POP PUSH32 0xFFFFFFFFFFFFFFFFFFFFFFFFFFFFFFFFFFFFFFFFFFFFFFFFFFFFFFFFFFFFFFFF DUP3 SUB PUSH3 0x7B7 JUMPI PUSH3 0x7B6 PUSH3 0x746 JUMP JUMPDEST JUMPDEST PUSH1 0x1 DUP3 ADD SWAP1 POP SWAP2 SWAP1 POP JUMP JUMPDEST PUSH2 0x1B57 DUP1 PUSH3 0x7D2 PUSH1 0x0 CODECOPY PUSH1 0x0 RETURN INVALID PUSH1 0x80 PUSH1 0x40 MSTORE CALLVALUE DUP1 ISZERO PUSH2 0x10 JUMPI PUSH1 0x0 DUP1 REVERT JUMPDEST POP PUSH1 0x4 CALLDATASIZE LT PUSH2 0xA9 JUMPI PUSH1 0x0 CALLDATALOAD PUSH1 0xE0 SHR DUP1 PUSH4 0x9C86836B GT PUSH2 0x71 JUMPI DUP1 PUSH4 0x9C86836B EQ PUSH2 0x17B JUMPI DUP1 PUSH4 0xA230C524 EQ PUSH2 0x197 JUMPI DUP1 PUSH4 0xB5BD3EB9 EQ PUSH2 0x1C7 JUMPI DUP1 PUSH4 0xB759F954 EQ PUSH2 0x1E5 JUMPI DUP1 PUSH4 0xB8ADAA11 EQ PUSH2 0x201 JUMPI DUP1 PUSH4 0xD5F39488 EQ PUSH2 0x21D JUMPI PUSH2 0xA9 JUMP JUMPDEST DUP1 PUSH4 0x1DBF3BC7 EQ PUSH2 0xAE JUMPI DUP1 PUSH4 0x26540FD2 EQ PUSH2 0xCA JUMPI DUP1 PUSH4 0x5DAF08CA EQ PUSH2 0xE8 JUMPI DUP1 PUSH4 0x8916D12C EQ PUSH2 0x118 JUMPI DUP1 PUSH4 0x9ACE38C2 EQ PUSH2 0x149 JUMPI JUMPDEST PUSH1 0x0 DUP1 REVERT JUMPDEST PUSH2 0xC8 PUSH1 0x4 DUP1 CALLDATASIZE SUB DUP2 ADD SWAP1 PUSH2 0xC3 SWAP2 SWAP1 PUSH2 0x1173 JUMP JUMPDEST PUSH2 0x23B JUMP JUMPDEST STOP JUMPDEST PUSH2 0xD2 PUSH2 0x372 JUMP JUMPDEST PUSH1 0x40 MLOAD PUSH2 0xDF SWAP2 SWAP1 PUSH2 0x11AF JUMP JUMPDEST PUSH1 0x40 MLOAD DUP1 SWAP2 SUB SWAP1 RETURN JUMPDEST PUSH2 0x102 PUSH1 0x4 DUP1 CALLDATASIZE SUB DUP2 ADD SWAP1 PUSH2 0xFD SWAP2 SWAP1 PUSH2 0x1173 JUMP JUMPDEST PUSH2 0x408 JUMP JUMPDEST PUSH1 0x40 MLOAD PUSH2 0x10F SWAP2 SWAP1 PUSH2 0x120B JUMP JUMPDEST PUSH1 0x40 MLOAD DUP1 SWAP2 SUB SWAP1 RETURN JUMPDEST PUSH2 0x132 PUSH1 0x4 DUP1 CALLDATASIZE SUB DUP2 ADD SWAP1 PUSH2 0x12D SWAP2 SWAP1 PUSH2 0x1173 JUMP JUMPDEST PUSH2 0x447 JUMP JUMPDEST PUSH1 0x40 MLOAD PUSH2 0x140 SWAP3 SWAP2 SWAP1 PUSH2 0x12B6 JUMP JUMPDEST PUSH1 0x40 MLOAD DUP1 SWAP2 SUB SWAP1 RETURN JUMPDEST PUSH2 0x163 PUSH1 0x4 DUP1 CALLDATASIZE SUB DUP2 ADD SWAP1 PUSH2 0x15E SWAP2 SWAP1 PUSH2 0x1173 JUMP JUMPDEST PUSH2 0x70A JUMP JUMPDEST PUSH1 0x40 MLOAD PUSH2 0x172 SWAP4 SWAP3 SWAP2 SWAP1 PUSH2 0x135D JUMP JUMPDEST PUSH1 0x40 MLOAD DUP1 SWAP2 SUB SWAP1 RETURN JUMPDEST PUSH2 0x195 PUSH1 0x4 DUP1 CALLDATASIZE SUB DUP2 ADD SWAP1 PUSH2 0x190 SWAP2 SWAP1 PUSH2 0x1508 JUMP JUMPDEST PUSH2 0x751 JUMP JUMPDEST STOP JUMPDEST PUSH2 0x1B1 PUSH1 0x4 DUP1 CALLDATASIZE SUB DUP2 ADD SWAP1 PUSH2 0x1AC SWAP2 SWAP1 PUSH2 0x1564 JUMP JUMPDEST PUSH2 0xA0A JUMP JUMPDEST PUSH1 0x40 MLOAD PUSH2 0x1BE SWAP2 SWAP1 PUSH2 0x15AC JUMP JUMPDEST PUSH1 0x40 MLOAD DUP1 SWAP2 SUB SWAP1 RETURN JUMPDEST PUSH2 0x1CF PUSH2 0xA2A JUMP JUMPDEST PUSH1 0x40 MLOAD PUSH2 0x1DC SWAP2 SWAP1 PUSH2 0x11AF JUMP JUMPDEST PUSH1 0x40 MLOAD DUP1 SWAP2 SUB SWAP1 RETURN JUMPDEST PUSH2 0x1FF PUSH1 0x4 DUP1 CALLDATASIZE SUB DUP2 ADD SWAP1 PUSH2 0x1FA SWAP2 SWAP1 PUSH2 0x1173 JUMP JUMPDEST PUSH2 0xA30 JUMP JUMPDEST STOP JUMPDEST PUSH2 0x21B PUSH1 0x4 DUP1 CALLDATASIZE SUB DUP2 ADD SWAP1 PUSH2 0x216 SWAP2 SWAP1 PUSH2 0x1173 JUMP JUMPDEST PUSH2 0xDC4 JUMP JUMPDEST STOP JUMPDEST PUSH2 0x225 PUSH2 0x105E JUMP JUMPDEST PUSH1 0x40 MLOAD PUSH2 0x232 SWAP2 SWAP1 PUSH2 0x120B JUMP JUMPDEST PUSH1 0x40 MLOAD DUP1 SWAP2 SUB SWAP1 RETURN JUMPDEST PUSH1 0x4 PUSH1 0x0 CALLER PUSH20 0xFFFFFFFFFFFFFFFFFFFFFFFFFFFFFFFFFFFFFFFF AND PUSH20 0xFFFFFFFFFFFFFFFFFFFFFFFFFFFFFFFFFFFFFFFF AND DUP2 MSTORE PUSH1 0x20 ADD SWAP1 DUP2 MSTORE PUSH1 0x20 ADD PUSH1 0x0 KECCAK256 PUSH1 0x0 SWAP1 SLOAD SWAP1 PUSH2 0x100 EXP SWAP1 DIV PUSH1 0xFF AND PUSH2 0x2C7 JUMPI PUSH1 0x40 MLOAD PUSH32 0x8C379A000000000000000000000000000000000000000000000000000000000 DUP2 MSTORE PUSH1 0x4 ADD PUSH2 0x2BE SWAP1 PUSH2 0x1639 JUMP JUMPDEST PUSH1 0x40 MLOAD DUP1 SWAP2 SUB SWAP1 REVERT JUMPDEST PUSH1 0x0 DUP2 GT PUSH2 0x30A JUMPI PUSH1 0x40 MLOAD PUSH32 0x8C379A000000000000000000000000000000000000000000000000000000000 DUP2 MSTORE PUSH1 0x4 ADD PUSH2 0x301 SWAP1 PUSH2 0x16A5 JUMP JUMPDEST PUSH1 0x40 MLOAD DUP1 SWAP2 SUB SWAP1 REVERT JUMPDEST PUSH1 0x0 PUSH1 0x3 PUSH1 0x1 DUP2 PUSH1 0x1 DUP2 SLOAD ADD DUP1 DUP3 SSTORE DUP1 SWAP2 POP POP SUB SWAP1 PUSH1 0x0 MSTORE PUSH1 0x20 PUSH1 0x0 KECCAK256 SWAP1 PUSH1 0x4 MUL ADD SWAP1 POP DUP2 DUP2 PUSH1 0x0 ADD DUP2 SWAP1 SSTORE POP PUSH1 0x0 DUP2 PUSH1 0x1 ADD PUSH1 0x0 PUSH2 0x100 EXP DUP2 SLOAD DUP2 PUSH1 0xFF MUL NOT AND SWAP1 DUP4 PUSH1 0x2 DUP2 GT ISZERO PUSH2 0x35F JUMPI PUSH2 0x35E PUSH2 0x12E6 JUMP JUMPDEST JUMPDEST MUL OR SWAP1 SSTORE POP PUSH1 0x1 DUP2 PUSH1 0x2 ADD DUP2 SWAP1 SSTORE POP POP POP JUMP JUMPDEST PUSH1 0x0 PUSH1 0x4 PUSH1 0x0 CALLER PUSH20 0xFFFFFFFFFFFFFFFFFFFFFFFFFFFFFFFFFFFFFFFF AND PUSH20 0xFFFFFFFFFFFFFFFFFFFFFFFFFFFFFFFFFFFFFFFF AND DUP2 MSTORE PUSH1 0x20 ADD SWAP1 DUP2 MSTORE PUSH1 0x20 ADD PUSH1 0x0 KECCAK256 PUSH1 0x0 SWAP1 SLOAD SWAP1 PUSH2 0x100 EXP SWAP1 DIV PUSH1 0xFF AND PUSH2 0x400 JUMPI PUSH1 0x40 MLOAD PUSH32 0x8C379A000000000000000000000000000000000000000000000000000000000 DUP2 MSTORE PUSH1 0x4 ADD PUSH2 0x3F7 SWAP1 PUSH2 0x1639 JUMP JUMPDEST PUSH1 0x40 MLOAD DUP1 SWAP2 SUB SWAP1 REVERT JUMPDEST PUSH1 0x2 SLOAD SWAP1 POP SWAP1 JUMP JUMPDEST PUSH1 0x1 DUP2 DUP2 SLOAD DUP2 LT PUSH2 0x418 JUMPI PUSH1 0x0 DUP1 REVERT JUMPDEST SWAP1 PUSH1 0x0 MSTORE PUSH1 0x20 PUSH1 0x0 KECCAK256 ADD PUSH1 0x0 SWAP2 POP SLOAD SWAP1 PUSH2 0x100 EXP SWAP1 DIV PUSH20 0xFFFFFFFFFFFFFFFFFFFFFFFFFFFFFFFFFFFFFFFF AND DUP2 JUMP JUMPDEST PUSH1 0x0 PUSH1 0x60 PUSH1 0x4 PUSH1 0x0 CALLER PUSH20 0xFFFFFFFFFFFFFFFFFFFFFFFFFFFFFFFFFFFFFFFF AND PUSH20 0xFFFFFFFFFFFFFFFFFFFFFFFFFFFFFFFFFFFFFFFF AND DUP2 MSTORE PUSH1 0x20 ADD SWAP1 DUP2 MSTORE PUSH1 0x20 ADD PUSH1 0x0 KECCAK256 PUSH1 0x0 SWAP1 SLOAD SWAP1 PUSH2 0x100 EXP SWAP1 DIV PUSH1 0xFF AND PUSH2 0x4D7 JUMPI PUSH1 0x40 MLOAD PUSH32 0x8C379A000000000000000000000000000000000000000000000000000000000 DUP2 MSTORE PUSH1 0x4 ADD PUSH2 0x4CE SWAP1 PUSH2 0x1639 JUMP JUMPDEST PUSH1 0x40 MLOAD DUP1 SWAP2 SUB SWAP1 REVERT JUMPDEST PUSH1 0x3 DUP1 SLOAD SWAP1 POP DUP4 LT PUSH2 0x51E JUMPI PUSH1 0x40 MLOAD PUSH32 0x8C379A000000000000000000000000000000000000000000000000000000000 DUP2 MSTORE PUSH1 0x4 ADD PUSH2 0x515 SWAP1 PUSH2 0x1711 JUMP JUMPDEST PUSH1 0x40 MLOAD DUP1 SWAP2 SUB SWAP1 REVERT JUMPDEST PUSH1 0x0 PUSH1 0x2 DUP2 GT ISZERO PUSH2 0x532 JUMPI PUSH2 0x531 PUSH2 0x12E6 JUMP JUMPDEST JUMPDEST PUSH1 0x3 DUP5 DUP2 SLOAD DUP2 LT PUSH2 0x546 JUMPI PUSH2 0x545 PUSH2 0x1731 JUMP JUMPDEST JUMPDEST SWAP1 PUSH1 0x0 MSTORE PUSH1 0x20 PUSH1 0x0 KECCAK256 SWAP1 PUSH1 0x4 MUL ADD PUSH1 0x1 ADD PUSH1 0x0 SWAP1 SLOAD SWAP1 PUSH2 0x100 EXP SWAP1 DIV PUSH1 0xFF AND PUSH1 0x2 DUP2 GT ISZERO PUSH2 0x577 JUMPI PUSH2 0x576 PUSH2 0x12E6 JUMP JUMPDEST JUMPDEST SUB PUSH2 0x5E1 JUMPI PUSH1 0x3 DUP4 DUP2 SLOAD DUP2 LT PUSH2 0x590 JUMPI PUSH2 0x58F PUSH2 0x1731 JUMP JUMPDEST JUMPDEST SWAP1 PUSH1 0x0 MSTORE PUSH1 0x20 PUSH1 0x0 KECCAK256 SWAP1 PUSH1 0x4 MUL ADD PUSH1 0x0 ADD SLOAD PUSH1 0x40 MLOAD DUP1 PUSH1 0x40 ADD PUSH1 0x40 MSTORE DUP1 PUSH1 0x7 DUP2 MSTORE PUSH1 0x20 ADD PUSH32 0x70656E64696E6700000000000000000000000000000000000000000000000000 DUP2 MSTORE POP SWAP2 POP SWAP2 POP PUSH2 0x705 JUMP JUMPDEST PUSH1 0x1 PUSH1 0x2 DUP2 GT ISZERO PUSH2 0x5F5 JUMPI PUSH2 0x5F4 PUSH2 0x12E6 JUMP JUMPDEST JUMPDEST PUSH1 0x3 DUP5 DUP2 SLOAD DUP2 LT PUSH2 0x609 JUMPI PUSH2 0x608 PUSH2 0x1731 JUMP JUMPDEST JUMPDEST SWAP1 PUSH1 0x0 MSTORE PUSH1 0x20 PUSH1 0x0 KECCAK256 SWAP1 PUSH1 0x4 MUL ADD PUSH1 0x1 ADD PUSH1 0x0 SWAP1 SLOAD SWAP1 PUSH2 0x100 EXP SWAP1 DIV PUSH1 0xFF AND PUSH1 0x2 DUP2 GT ISZERO PUSH2 0x63A JUMPI PUSH2 0x639 PUSH2 0x12E6 JUMP JUMPDEST JUMPDEST SUB PUSH2 0x6A4 JUMPI PUSH1 0x3 DUP4 DUP2 SLOAD DUP2 LT PUSH2 0x653 JUMPI PUSH2 0x652 PUSH2 0x1731 JUMP JUMPDEST JUMPDEST SWAP1 PUSH1 0x0 MSTORE PUSH1 0x20 PUSH1 0x0 KECCAK256 SWAP1 PUSH1 0x4 MUL ADD PUSH1 0x0 ADD SLOAD PUSH1 0x40 MLOAD DUP1 PUSH1 0x40 ADD PUSH1 0x40 MSTORE DUP1 PUSH1 0x7 DUP2 MSTORE PUSH1 0x20 ADD PUSH32 0x6465626974656400000000000000000000000000000000000000000000000000 DUP2 MSTORE POP SWAP2 POP SWAP2 POP PUSH2 0x705 JUMP JUMPDEST PUSH1 0x3 DUP4 DUP2 SLOAD DUP2 LT PUSH2 0x6B8 JUMPI PUSH2 0x6B7 PUSH2 0x1731 JUMP JUMPDEST JUMPDEST SWAP1 PUSH1 0x0 MSTORE PUSH1 0x20 PUSH1 0x0 KECCAK256 SWAP1 PUSH1 0x4 MUL ADD PUSH1 0x0 ADD SLOAD PUSH1 0x40 MLOAD DUP1 PUSH1 0x40 ADD PUSH1 0x40 MSTORE DUP1 PUSH1 0x6 DUP2 MSTORE PUSH1 0x20 ADD PUSH32 0x6661696C65640000000000000000000000000000000000000000000000000000 DUP2 MSTORE POP SWAP2 POP SWAP2 POP JUMPDEST SWAP2 POP SWAP2 JUMP JUMPDEST PUSH1 0x3 DUP2 DUP2 SLOAD DUP2 LT PUSH2 0x71A JUMPI PUSH1 0x0 DUP1 REVERT JUMPDEST SWAP1 PUSH1 0x0 MSTORE PUSH1 0x20 PUSH1 0x0 KECCAK256 SWAP1 PUSH1 0x4 MUL ADD PUSH1 0x0 SWAP2 POP SWAP1 POP DUP1 PUSH1 0x0 ADD SLOAD SWAP1 DUP1 PUSH1 0x1 ADD PUSH1 0x0 SWAP1 SLOAD SWAP1 PUSH2 0x100 EXP SWAP1 DIV PUSH1 0xFF AND SWAP1 DUP1 PUSH1 0x2 ADD SLOAD SWAP1 POP DUP4 JUMP JUMPDEST PUSH1 0x0 DUP1 SLOAD SWAP1 PUSH2 0x100 EXP SWAP1 DIV PUSH20 0xFFFFFFFFFFFFFFFFFFFFFFFFFFFFFFFFFFFFFFFF AND PUSH20 0xFFFFFFFFFFFFFFFFFFFFFFFFFFFFFFFFFFFFFFFF AND CALLER PUSH20 0xFFFFFFFFFFFFFFFFFFFFFFFFFFFFFFFFFFFFFFFF AND EQ PUSH2 0x7DF JUMPI PUSH1 0x40 MLOAD PUSH32 0x8C379A000000000000000000000000000000000000000000000000000000000 DUP2 MSTORE PUSH1 0x4 ADD PUSH2 0x7D6 SWAP1 PUSH2 0x17D2 JUMP JUMPDEST PUSH1 0x40 MLOAD DUP1 SWAP2 SUB SWAP1 REVERT JUMPDEST PUSH1 0x0 PUSH1 0x1 DUP1 SLOAD SWAP1 POP EQ PUSH2 0x827 JUMPI PUSH1 0x40 MLOAD PUSH32 0x8C379A000000000000000000000000000000000000000000000000000000000 DUP2 MSTORE PUSH1 0x4 ADD PUSH2 0x81E SWAP1 PUSH2 0x183E JUMP JUMPDEST PUSH1 0x40 MLOAD DUP1 SWAP2 SUB SWAP1 REVERT JUMPDEST PUSH1 0x0 DUP3 MLOAD GT PUSH2 0x86B JUMPI PUSH1 0x40 MLOAD PUSH32 0x8C379A000000000000000000000000000000000000000000000000000000000 DUP2 MSTORE PUSH1 0x4 ADD PUSH2 0x862 SWAP1 PUSH2 0x18AA JUMP JUMPDEST PUSH1 0x40 MLOAD DUP1 SWAP2 SUB SWAP1 REVERT JUMPDEST PUSH1 0x0 DUP2 GT PUSH2 0x8AE JUMPI PUSH1 0x40 MLOAD PUSH32 0x8C379A000000000000000000000000000000000000000000000000000000000 DUP2 MSTORE PUSH1 0x4 ADD PUSH2 0x8A5 SWAP1 PUSH2 0x1916 JUMP JUMPDEST PUSH1 0x40 MLOAD DUP1 SWAP2 SUB SWAP1 REVERT JUMPDEST DUP2 PUSH1 0x1 SWAP1 DUP1 MLOAD SWAP1 PUSH1 0x20 ADD SWAP1 PUSH2 0x8C4 SWAP3 SWAP2 SWAP1 PUSH2 0x1082 JUMP JUMPDEST POP DUP1 PUSH1 0x2 DUP2 SWAP1 SSTORE POP PUSH1 0x0 JUMPDEST DUP3 MLOAD DUP2 LT ISZERO PUSH2 0xA05 JUMPI PUSH1 0x0 DUP1 SLOAD SWAP1 PUSH2 0x100 EXP SWAP1 DIV PUSH20 0xFFFFFFFFFFFFFFFFFFFFFFFFFFFFFFFFFFFFFFFF AND PUSH20 0xFFFFFFFFFFFFFFFFFFFFFFFFFFFFFFFFFFFFFFFF AND DUP4 DUP3 DUP2 MLOAD DUP2 LT PUSH2 0x922 JUMPI PUSH2 0x921 PUSH2 0x1731 JUMP JUMPDEST JUMPDEST PUSH1 0x20 MUL PUSH1 0x20 ADD ADD MLOAD PUSH20 0xFFFFFFFFFFFFFFFFFFFFFFFFFFFFFFFFFFFFFFFF AND SUB PUSH2 0x980 JUMPI PUSH1 0x40 MLOAD PUSH32 0x8C379A000000000000000000000000000000000000000000000000000000000 DUP2 MSTORE PUSH1 0x4 ADD PUSH2 0x977 SWAP1 PUSH2 0x1982 JUMP JUMPDEST PUSH1 0x40 MLOAD DUP1 SWAP2 SUB SWAP1 REVERT JUMPDEST PUSH1 0x1 PUSH1 0x4 PUSH1 0x0 DUP6 DUP5 DUP2 MLOAD DUP2 LT PUSH2 0x999 JUMPI PUSH2 0x998 PUSH2 0x1731 JUMP JUMPDEST JUMPDEST PUSH1 0x20 MUL PUSH1 0x20 ADD ADD MLOAD PUSH20 0xFFFFFFFFFFFFFFFFFFFFFFFFFFFFFFFFFFFFFFFF AND PUSH20 0xFFFFFFFFFFFFFFFFFFFFFFFFFFFFFFFFFFFFFFFF AND DUP2 MSTORE PUSH1 0x20 ADD SWAP1 DUP2 MSTORE PUSH1 0x20 ADD PUSH1 0x0 KECCAK256 PUSH1 0x0 PUSH2 0x100 EXP DUP2 SLOAD DUP2 PUSH1 0xFF MUL NOT AND SWAP1 DUP4 ISZERO ISZERO MUL OR SWAP1 SSTORE POP DUP1 DUP1 PUSH2 0x9FD SWAP1 PUSH2 0x19D1 JUMP JUMPDEST SWAP2 POP POP PUSH2 0x8CF JUMP JUMPDEST POP POP POP JUMP JUMPDEST PUSH1 0x4 PUSH1 0x20 MSTORE DUP1 PUSH1 0x0 MSTORE PUSH1 0x40 PUSH1 0x0 KECCAK256 PUSH1 0x0 SWAP2 POP SLOAD SWAP1 PUSH2 0x100 EXP SWAP1 DIV PUSH1 0xFF AND DUP2 JUMP JUMPDEST PUSH1 0x2 SLOAD DUP2 JUMP JUMPDEST PUSH1 0x4 PUSH1 0x0 CALLER PUSH20 0xFFFFFFFFFFFFFFFFFFFFFFFFFFFFFFFFFFFFFFFF AND PUSH20 0xFFFFFFFFFFFFFFFFFFFFFFFFFFFFFFFFFFFFFFFF AND DUP2 MSTORE PUSH1 0x20 ADD SWAP1 DUP2 MSTORE PUSH1 0x20 ADD PUSH1 0x0 KECCAK256 PUSH1 0x0 SWAP1 SLOAD SWAP1 PUSH2 0x100 EXP SWAP1 DIV PUSH1 0xFF AND PUSH2 0xABC JUMPI PUSH1 0x40 MLOAD PUSH32 0x8C379A000000000000000000000000000000000000000000000000000000000 DUP2 MSTORE PUSH1 0x4 ADD PUSH2 0xAB3 SWAP1 PUSH2 0x1639 JUMP JUMPDEST PUSH1 0x40 MLOAD DUP1 SWAP2 SUB SWAP1 REVERT JUMPDEST PUSH1 0x3 DUP1 SLOAD SWAP1 POP DUP2 LT PUSH2 0xB03 JUMPI PUSH1 0x40 MLOAD PUSH32 0x8C379A000000000000000000000000000000000000000000000000000000000 DUP2 MSTORE PUSH1 0x4 ADD PUSH2 0xAFA SWAP1 PUSH2 0x1711 JUMP JUMPDEST PUSH1 0x40 MLOAD DUP1 SWAP2 SUB SWAP1 REVERT JUMPDEST PUSH1 0x3 DUP2 DUP2 SLOAD DUP2 LT PUSH2 0xB17 JUMPI PUSH2 0xB16 PUSH2 0x1731 JUMP JUMPDEST JUMPDEST SWAP1 PUSH1 0x0 MSTORE PUSH1 0x20 PUSH1 0x0 KECCAK256 SWAP1 PUSH1 0x4 MUL ADD PUSH1 0x3 ADD PUSH1 0x0 CALLER PUSH20 0xFFFFFFFFFFFFFFFFFFFFFFFFFFFFFFFFFFFFFFFF AND PUSH20 0xFFFFFFFFFFFFFFFFFFFFFFFFFFFFFFFFFFFFFFFF AND DUP2 MSTORE PUSH1 0x20 ADD SWAP1 DUP2 MSTORE PUSH1 0x20 ADD PUSH1 0x0 KECCAK256 PUSH1 0x0 SWAP1 SLOAD SWAP1 PUSH2 0x100 EXP SWAP1 DIV PUSH1 0xFF AND ISZERO PUSH2 0xBB3 JUMPI PUSH1 0x40 MLOAD PUSH32 0x8C379A000000000000000000000000000000000000000000000000000000000 DUP2 MSTORE PUSH1 0x4 ADD PUSH2 0xBAA SWAP1 PUSH2 0x1A8B JUMP JUMPDEST PUSH1 0x40 MLOAD DUP1 SWAP2 SUB SWAP1 REVERT JUMPDEST PUSH1 0x3 DUP2 DUP2 SLOAD DUP2 LT PUSH2 0xBC7 JUMPI PUSH2 0xBC6 PUSH2 0x1731 JUMP JUMPDEST JUMPDEST SWAP1 PUSH1 0x0 MSTORE PUSH1 0x20 PUSH1 0x0 KECCAK256 SWAP1 PUSH1 0x4 MUL ADD PUSH1 0x2 ADD PUSH1 0x0 DUP2 SLOAD DUP1 SWAP3 SWAP2 SWAP1 PUSH2 0xBE9 SWAP1 PUSH2 0x19D1 JUMP JUMPDEST SWAP2 SWAP1 POP SSTORE POP PUSH1 0x1 PUSH1 0x3 DUP3 DUP2 SLOAD DUP2 LT PUSH2 0xC04 JUMPI PUSH2 0xC03 PUSH2 0x1731 JUMP JUMPDEST JUMPDEST SWAP1 PUSH1 0x0 MSTORE PUSH1 0x20 PUSH1 0x0 KECCAK256 SWAP1 PUSH1 0x4 MUL ADD PUSH1 0x3 ADD PUSH1 0x0 CALLER PUSH20 0xFFFFFFFFFFFFFFFFFFFFFFFFFFFFFFFFFFFFFFFF AND PUSH20 0xFFFFFFFFFFFFFFFFFFFFFFFFFFFFFFFFFFFFFFFF AND DUP2 MSTORE PUSH1 0x20 ADD SWAP1 DUP2 MSTORE PUSH1 0x20 ADD PUSH1 0x0 KECCAK256 PUSH1 0x0 PUSH2 0x100 EXP DUP2 SLOAD DUP2 PUSH1 0xFF MUL NOT AND SWAP1 DUP4 ISZERO ISZERO MUL OR SWAP1 SSTORE POP PUSH1 0x46 PUSH1 0x1 DUP1 SLOAD SWAP1 POP PUSH2 0xC7B SWAP2 SWAP1 PUSH2 0x1AAB JUMP JUMPDEST PUSH1 0x64 PUSH1 0x3 DUP4 DUP2 SLOAD DUP2 LT PUSH2 0xC91 JUMPI PUSH2 0xC90 PUSH2 0x1731 JUMP JUMPDEST JUMPDEST SWAP1 PUSH1 0x0 MSTORE PUSH1 0x20 PUSH1 0x0 KECCAK256 SWAP1 PUSH1 0x4 MUL ADD PUSH1 0x2 ADD SLOAD PUSH2 0xCAD SWAP2 SWAP1 PUSH2 0x1AAB JUMP JUMPDEST LT PUSH2 0xDC1 JUMPI PUSH1 0x1 PUSH1 0x3 DUP3 DUP2 SLOAD DUP2 LT PUSH2 0xCC8 JUMPI PUSH2 0xCC7 PUSH2 0x1731 JUMP JUMPDEST JUMPDEST SWAP1 PUSH1 0x0 MSTORE PUSH1 0x20 PUSH1 0x0 KECCAK256 SWAP1 PUSH1 0x4 MUL ADD PUSH1 0x1 ADD PUSH1 0x0 PUSH2 0x100 EXP DUP2 SLOAD DUP2 PUSH1 0xFF MUL NOT AND SWAP1 DUP4 PUSH1 0x2 DUP2 GT ISZERO PUSH2 0xCFB JUMPI PUSH2 0xCFA PUSH2 0x12E6 JUMP JUMPDEST JUMPDEST MUL OR SWAP1 SSTORE POP PUSH1 0x2 SLOAD PUSH1 0x3 DUP3 DUP2 SLOAD DUP2 LT PUSH2 0xD17 JUMPI PUSH2 0xD16 PUSH2 0x1731 JUMP JUMPDEST JUMPDEST SWAP1 PUSH1 0x0 MSTORE PUSH1 0x20 PUSH1 0x0 KECCAK256 SWAP1 PUSH1 0x4 MUL ADD PUSH1 0x0 ADD SLOAD GT PUSH2 0xD71 JUMPI PUSH1 0x3 DUP2 DUP2 SLOAD DUP2 LT PUSH2 0xD42 JUMPI PUSH2 0xD41 PUSH2 0x1731 JUMP JUMPDEST JUMPDEST SWAP1 PUSH1 0x0 MSTORE PUSH1 0x20 PUSH1 0x0 KECCAK256 SWAP1 PUSH1 0x4 MUL ADD PUSH1 0x0 ADD SLOAD PUSH1 0x2 PUSH1 0x0 DUP3 DUP3 SLOAD PUSH2 0xD65 SWAP2 SWAP1 PUSH2 0x1AED JUMP JUMPDEST SWAP3 POP POP DUP2 SWAP1 SSTORE POP PUSH2 0xDC0 JUMP JUMPDEST PUSH1 0x2 PUSH1 0x3 DUP3 DUP2 SLOAD DUP2 LT PUSH2 0xD87 JUMPI PUSH2 0xD86 PUSH2 0x1731 JUMP JUMPDEST JUMPDEST SWAP1 PUSH1 0x0 MSTORE PUSH1 0x20 PUSH1 0x0 KECCAK256 SWAP1 PUSH1 0x4 MUL ADD PUSH1 0x1 ADD PUSH1 0x0 PUSH2 0x100 EXP DUP2 SLOAD DUP2 PUSH1 0xFF MUL NOT AND SWAP1 DUP4 PUSH1 0x2 DUP2 GT ISZERO PUSH2 0xDBA JUMPI PUSH2 0xDB9 PUSH2 0x12E6 JUMP JUMPDEST JUMPDEST MUL OR SWAP1 SSTORE POP JUMPDEST JUMPDEST POP JUMP JUMPDEST PUSH1 0x4 PUSH1 0x0 CALLER PUSH20 0xFFFFFFFFFFFFFFFFFFFFFFFFFFFFFFFFFFFFFFFF AND PUSH20 0xFFFFFFFFFFFFFFFFFFFFFFFFFFFFFFFFFFFFFFFF AND DUP2 MSTORE PUSH1 0x20 ADD SWAP1 DUP2 MSTORE PUSH1 0x20 ADD PUSH1 0x0 KECCAK256 PUSH1 0x0 SWAP1 SLOAD SWAP1 PUSH2 0x100 EXP SWAP1 DIV PUSH1 0xFF AND PUSH2 0xE50 JUMPI PUSH1 0x40 MLOAD PUSH32 0x8C379A000000000000000000000000000000000000000000000000000000000 DUP2 MSTORE PUSH1 0x4 ADD PUSH2 0xE47 SWAP1 PUSH2 0x1639 JUMP JUMPDEST PUSH1 0x40 MLOAD DUP1 SWAP2 SUB SWAP1 REVERT JUMPDEST PUSH1 0x3 DUP1 SLOAD SWAP1 POP DUP2 LT PUSH2 0xE97 JUMPI PUSH1 0x40 MLOAD PUSH32 0x8C379A000000000000000000000000000000000000000000000000000000000 DUP2 MSTORE PUSH1 0x4 ADD PUSH2 0xE8E SWAP1 PUSH2 0x1711 JUMP JUMPDEST PUSH1 0x40 MLOAD DUP1 SWAP2 SUB SWAP1 REVERT JUMPDEST PUSH1 0x3 DUP2 DUP2 SLOAD DUP2 LT PUSH2 0xEAB JUMPI PUSH2 0xEAA PUSH2 0x1731 JUMP JUMPDEST JUMPDEST SWAP1 PUSH1 0x0 MSTORE PUSH1 0x20 PUSH1 0x0 KECCAK256 SWAP1 PUSH1 0x4 MUL ADD PUSH1 0x3 ADD PUSH1 0x0 CALLER PUSH20 0xFFFFFFFFFFFFFFFFFFFFFFFFFFFFFFFFFFFFFFFF AND PUSH20 0xFFFFFFFFFFFFFFFFFFFFFFFFFFFFFFFFFFFFFFFF AND DUP2 MSTORE PUSH1 0x20 ADD SWAP1 DUP2 MSTORE PUSH1 0x20 ADD PUSH1 0x0 KECCAK256 PUSH1 0x0 SWAP1 SLOAD SWAP1 PUSH2 0x100 EXP SWAP1 DIV PUSH1 0xFF AND ISZERO PUSH2 0xF47 JUMPI PUSH1 0x40 MLOAD PUSH32 0x8C379A000000000000000000000000000000000000000000000000000000000 DUP2 MSTORE PUSH1 0x4 ADD PUSH2 0xF3E SWAP1 PUSH2 0x1A8B JUMP JUMPDEST PUSH1 0x40 MLOAD DUP1 SWAP2 SUB SWAP1 REVERT JUMPDEST PUSH1 0x1 PUSH1 0x3 DUP3 DUP2 SLOAD DUP2 LT PUSH2 0xF5D JUMPI PUSH2 0xF5C PUSH2 0x1731 JUMP JUMPDEST JUMPDEST SWAP1 PUSH1 0x0 MSTORE PUSH1 0x20 PUSH1 0x0 KECCAK256 SWAP1 PUSH1 0x4 MUL ADD PUSH1 0x3 ADD PUSH1 0x0 CALLER PUSH20 0xFFFFFFFFFFFFFFFFFFFFFFFFFFFFFFFFFFFFFFFF AND PUSH20 0xFFFFFFFFFFFFFFFFFFFFFFFFFFFFFFFFFFFFFFFF AND DUP2 MSTORE PUSH1 0x20 ADD SWAP1 DUP2 MSTORE PUSH1 0x20 ADD PUSH1 0x0 KECCAK256 PUSH1 0x0 PUSH2 0x100 EXP DUP2 SLOAD DUP2 PUSH1 0xFF MUL NOT AND SWAP1 DUP4 ISZERO ISZERO MUL OR SWAP1 SSTORE POP PUSH1 0x1E PUSH1 0x1 DUP1 SLOAD SWAP1 POP PUSH2 0xFD4 SWAP2 SWAP1 PUSH2 0x1AAB JUMP JUMPDEST PUSH1 0x64 PUSH1 0x3 DUP4 DUP2 SLOAD DUP2 LT PUSH2 0xFEA JUMPI PUSH2 0xFE9 PUSH2 0x1731 JUMP JUMPDEST JUMPDEST SWAP1 PUSH1 0x0 MSTORE PUSH1 0x20 PUSH1 0x0 KECCAK256 SWAP1 PUSH1 0x4 MUL ADD PUSH1 0x2 ADD SLOAD PUSH2 0x1006 SWAP2 SWAP1 PUSH2 0x1AAB JUMP JUMPDEST GT ISZERO PUSH2 0x105B JUMPI PUSH1 0x2 PUSH1 0x3 DUP3 DUP2 SLOAD DUP2 LT PUSH2 0x1022 JUMPI PUSH2 0x1021 PUSH2 0x1731 JUMP JUMPDEST JUMPDEST SWAP1 PUSH1 0x0 MSTORE PUSH1 0x20 PUSH1 0x0 KECCAK256 SWAP1 PUSH1 0x4 MUL ADD PUSH1 0x1 ADD PUSH1 0x0 PUSH2 0x100 EXP DUP2 SLOAD DUP2 PUSH1 0xFF MUL NOT AND SWAP1 DUP4 PUSH1 0x2 DUP2 GT ISZERO PUSH2 0x1055 JUMPI PUSH2 0x1054 PUSH2 0x12E6 JUMP JUMPDEST JUMPDEST MUL OR SWAP1 SSTORE POP JUMPDEST POP JUMP JUMPDEST PUSH1 0x0 DUP1 SLOAD SWAP1 PUSH2 0x100 EXP SWAP1 DIV PUSH20 0xFFFFFFFFFFFFFFFFFFFFFFFFFFFFFFFFFFFFFFFF AND DUP2 JUMP JUMPDEST DUP3 DUP1 SLOAD DUP3 DUP3 SSTORE SWAP1 PUSH1 0x0 MSTORE PUSH1 0x20 PUSH1 0x0 KECCAK256 SWAP1 DUP2 ADD SWAP3 DUP3 ISZERO PUSH2 0x10FB JUMPI SWAP2 PUSH1 0x20 MUL DUP3 ADD JUMPDEST DUP3 DUP2 GT ISZERO PUSH2 0x10FA JUMPI DUP3 MLOAD DUP3 PUSH1 0x0 PUSH2 0x100 EXP DUP2 SLOAD DUP2 PUSH20 0xFFFFFFFFFFFFFFFFFFFFFFFFFFFFFFFFFFFFFFFF MUL NOT AND SWAP1 DUP4 PUSH20 0xFFFFFFFFFFFFFFFFFFFFFFFFFFFFFFFFFFFFFFFF AND MUL OR SWAP1 SSTORE POP SWAP2 PUSH1 0x20 ADD SWAP2 SWAP1 PUSH1 0x1 ADD SWAP1 PUSH2 0x10A2 JUMP JUMPDEST JUMPDEST POP SWAP1 POP PUSH2 0x1108 SWAP2 SWAP1 PUSH2 0x110C JUMP JUMPDEST POP SWAP1 JUMP JUMPDEST JUMPDEST DUP1 DUP3 GT ISZERO PUSH2 0x1125 JUMPI PUSH1 0x0 DUP2 PUSH1 0x0 SWAP1 SSTORE POP PUSH1 0x1 ADD PUSH2 0x110D JUMP JUMPDEST POP SWAP1 JUMP JUMPDEST PUSH1 0x0 PUSH1 0x40 MLOAD SWAP1 POP SWAP1 JUMP JUMPDEST PUSH1 0x0 DUP1 REVERT JUMPDEST PUSH1 0x0 DUP1 REVERT JUMPDEST PUSH1 0x0 DUP2 SWAP1 POP SWAP2 SWAP1 POP JUMP JUMPDEST PUSH2 0x1150 DUP2 PUSH2 0x113D JUMP JUMPDEST DUP2 EQ PUSH2 0x115B JUMPI PUSH1 0x0 DUP1 REVERT JUMPDEST POP JUMP JUMPDEST PUSH1 0x0 DUP2 CALLDATALOAD SWAP1 POP PUSH2 0x116D DUP2 PUSH2 0x1147 JUMP JUMPDEST SWAP3 SWAP2 POP POP JUMP JUMPDEST PUSH1 0x0 PUSH1 0x20 DUP3 DUP5 SUB SLT ISZERO PUSH2 0x1189 JUMPI PUSH2 0x1188 PUSH2 0x1133 JUMP JUMPDEST JUMPDEST PUSH1 0x0 PUSH2 0x1197 DUP5 DUP3 DUP6 ADD PUSH2 0x115E JUMP JUMPDEST SWAP2 POP POP SWAP3 SWAP2 POP POP JUMP JUMPDEST PUSH2 0x11A9 DUP2 PUSH2 0x113D JUMP JUMPDEST DUP3 MSTORE POP POP JUMP JUMPDEST PUSH1 0x0 PUSH1 0x20 DUP3 ADD SWAP1 POP PUSH2 0x11C4 PUSH1 0x0 DUP4 ADD DUP5 PUSH2 0x11A0 JUMP JUMPDEST SWAP3 SWAP2 POP POP JUMP JUMPDEST PUSH1 0x0 PUSH20 0xFFFFFFFFFFFFFFFFFFFFFFFFFFFFFFFFFFFFFFFF DUP3 AND SWAP1 POP SWAP2 SWAP1 POP JUMP JUMPDEST PUSH1 0x0 PUSH2 0x11F5 DUP3 PUSH2 0x11CA JUMP JUMPDEST SWAP1 POP SWAP2 SWAP1 POP JUMP JUMPDEST PUSH2 0x1205 DUP2 PUSH2 0x11EA JUMP JUMPDEST DUP3 MSTORE POP POP JUMP JUMPDEST PUSH1 0x0 PUSH1 0x20 DUP3 ADD SWAP1 POP PUSH2 0x1220 PUSH1 0x0 DUP4 ADD DUP5 PUSH2 0x11FC JUMP JUMPDEST SWAP3 SWAP2 POP POP JUMP JUMPDEST PUSH1 0x0 DUP2 MLOAD SWAP1 POP SWAP2 SWAP1 POP JUMP JUMPDEST PUSH1 0x0 DUP3 DUP3 MSTORE PUSH1 0x20 DUP3 ADD SWAP1 POP SWAP3 SWAP2 POP POP JUMP JUMPDEST PUSH1 0x0 JUMPDEST DUP4 DUP2 LT ISZERO PUSH2 0x1260 JUMPI DUP1 DUP3 ADD MLOAD DUP2 DUP5 ADD MSTORE PUSH1 0x20 DUP2 ADD SWAP1 POP PUSH2 0x1245 JUMP JUMPDEST PUSH1 0x0 DUP5 DUP5 ADD MSTORE POP POP POP POP JUMP JUMPDEST PUSH1 0x0 PUSH1 0x1F NOT PUSH1 0x1F DUP4 ADD AND SWAP1 POP SWAP2 SWAP1 POP JUMP JUMPDEST PUSH1 0x0 PUSH2 0x1288 DUP3 PUSH2 0x1226 JUMP JUMPDEST PUSH2 0x1292 DUP2 DUP6 PUSH2 0x1231 JUMP JUMPDEST SWAP4 POP PUSH2 0x12A2 DUP2 DUP6 PUSH1 0x20 DUP7 ADD PUSH2 0x1242 JUMP JUMPDEST PUSH2 0x12AB DUP2 PUSH2 0x126C JUMP JUMPDEST DUP5 ADD SWAP2 POP POP SWAP3 SWAP2 POP POP JUMP JUMPDEST PUSH1 0x0 PUSH1 0x40 DUP3 ADD SWAP1 POP PUSH2 0x12CB PUSH1 0x0 DUP4 ADD DUP6 PUSH2 0x11A0 JUMP JUMPDEST DUP2 DUP2 SUB PUSH1 0x20 DUP4 ADD MSTORE PUSH2 0x12DD DUP2 DUP5 PUSH2 0x127D JUMP JUMPDEST SWAP1 POP SWAP4 SWAP3 POP POP POP JUMP JUMPDEST PUSH32 0x4E487B7100000000000000000000000000000000000000000000000000000000 PUSH1 0x0 MSTORE PUSH1 0x21 PUSH1 0x4 MSTORE PUSH1 0x24 PUSH1 0x0 REVERT JUMPDEST PUSH1 0x3 DUP2 LT PUSH2 0x1326 JUMPI PUSH2 0x1325 PUSH2 0x12E6 JUMP JUMPDEST JUMPDEST POP JUMP JUMPDEST PUSH1 0x0 DUP2 SWAP1 POP PUSH2 0x1337 DUP3 PUSH2 0x1315 JUMP JUMPDEST SWAP2 SWAP1 POP JUMP JUMPDEST PUSH1 0x0 PUSH2 0x1347 DUP3 PUSH2 0x1329 JUMP JUMPDEST SWAP1 POP SWAP2 SWAP1 POP JUMP JUMPDEST PUSH2 0x1357 DUP2 PUSH2 0x133C JUMP JUMPDEST DUP3 MSTORE POP POP JUMP JUMPDEST PUSH1 0x0 PUSH1 0x60 DUP3 ADD SWAP1 POP PUSH2 0x1372 PUSH1 0x0 DUP4 ADD DUP7 PUSH2 0x11A0 JUMP JUMPDEST PUSH2 0x137F PUSH1 0x20 DUP4 ADD DUP6 PUSH2 0x134E JUMP JUMPDEST PUSH2 0x138C PUSH1 0x40 DUP4 ADD DUP5 PUSH2 0x11A0 JUMP JUMPDEST SWAP5 SWAP4 POP POP POP POP JUMP JUMPDEST PUSH1 0x0 DUP1 REVERT JUMPDEST PUSH32 0x4E487B7100000000000000000000000000000000000000000000000000000000 PUSH1 0x0 MSTORE PUSH1 0x41 PUSH1 0x4 MSTORE PUSH1 0x24 PUSH1 0x0 REVERT JUMPDEST PUSH2 0x13D1 DUP3 PUSH2 0x126C JUMP JUMPDEST DUP2 ADD DUP2 DUP2 LT PUSH8 0xFFFFFFFFFFFFFFFF DUP3 GT OR ISZERO PUSH2 0x13F0 JUMPI PUSH2 0x13EF PUSH2 0x1399 JUMP JUMPDEST JUMPDEST DUP1 PUSH1 0x40 MSTORE POP POP POP JUMP JUMPDEST PUSH1 0x0 PUSH2 0x1403 PUSH2 0x1129 JUMP JUMPDEST SWAP1 POP PUSH2 0x140F DUP3 DUP3 PUSH2 0x13C8 JUMP JUMPDEST SWAP2 SWAP1 POP JUMP JUMPDEST PUSH1 0x0 PUSH8 0xFFFFFFFFFFFFFFFF DUP3 GT ISZERO PUSH2 0x142F JUMPI PUSH2 0x142E PUSH2 0x1399 JUMP JUMPDEST JUMPDEST PUSH1 0x20 DUP3 MUL SWAP1 POP PUSH1 0x20 DUP2 ADD SWAP1 POP SWAP2 SWAP1 POP JUMP JUMPDEST PUSH1 0x0 DUP1 REVERT JUMPDEST PUSH2 0x144E DUP2 PUSH2 0x11EA JUMP JUMPDEST DUP2 EQ PUSH2 0x1459 JUMPI PUSH1 0x0 DUP1 REVERT JUMPDEST POP JUMP JUMPDEST PUSH1 0x0 DUP2 CALLDATALOAD SWAP1 POP PUSH2 0x146B DUP2 PUSH2 0x1445 JUMP JUMPDEST SWAP3 SWAP2 POP POP JUMP JUMPDEST PUSH1 0x0 PUSH2 0x1484 PUSH2 0x147F DUP5 PUSH2 0x1414 JUMP JUMPDEST PUSH2 0x13F9 JUMP JUMPDEST SWAP1 POP DUP1 DUP4 DUP3 MSTORE PUSH1 0x20 DUP3 ADD SWAP1 POP PUSH1 0x20 DUP5 MUL DUP4 ADD DUP6 DUP2 GT ISZERO PUSH2 0x14A7 JUMPI PUSH2 0x14A6 PUSH2 0x1440 JUMP JUMPDEST JUMPDEST DUP4 JUMPDEST DUP2 DUP2 LT ISZERO PUSH2 0x14D0 JUMPI DUP1 PUSH2 0x14BC DUP9 DUP3 PUSH2 0x145C JUMP JUMPDEST DUP5 MSTORE PUSH1 0x20 DUP5 ADD SWAP4 POP POP PUSH1 0x20 DUP2 ADD SWAP1 POP PUSH2 0x14A9 JUMP JUMPDEST POP POP POP SWAP4 SWAP3 POP POP POP JUMP JUMPDEST PUSH1 0x0 DUP3 PUSH1 0x1F DUP4 ADD SLT PUSH2 0x14EF JUMPI PUSH2 0x14EE PUSH2 0x1394 JUMP JUMPDEST JUMPDEST DUP2 CALLDATALOAD PUSH2 0x14FF DUP5 DUP3 PUSH1 0x20 DUP7 ADD PUSH2 0x1471 JUMP JUMPDEST SWAP2 POP POP SWAP3 SWAP2 POP POP JUMP JUMPDEST PUSH1 0x0 DUP1 PUSH1 0x40 DUP4 DUP6 SUB SLT ISZERO PUSH2 0x151F JUMPI PUSH2 0x151E PUSH2 0x1133 JUMP JUMPDEST JUMPDEST PUSH1 0x0 DUP4 ADD CALLDATALOAD PUSH8 0xFFFFFFFFFFFFFFFF DUP2 GT ISZERO PUSH2 0x153D JUMPI PUSH2 0x153C PUSH2 0x1138 JUMP JUMPDEST JUMPDEST PUSH2 0x1549 DUP6 DUP3 DUP7 ADD PUSH2 0x14DA JUMP JUMPDEST SWAP3 POP POP PUSH1 0x20 PUSH2 0x155A DUP6 DUP3 DUP7 ADD PUSH2 0x115E JUMP JUMPDEST SWAP2 POP POP SWAP3 POP SWAP3 SWAP1 POP JUMP JUMPDEST PUSH1 0x0 PUSH1 0x20 DUP3 DUP5 SUB SLT ISZERO PUSH2 0x157A JUMPI PUSH2 0x1579 PUSH2 0x1133 JUMP JUMPDEST JUMPDEST PUSH1 0x0 PUSH2 0x1588 DUP5 DUP3 DUP6 ADD PUSH2 0x145C JUMP JUMPDEST SWAP2 POP POP SWAP3 SWAP2 POP POP JUMP JUMPDEST PUSH1 0x0 DUP2 ISZERO ISZERO SWAP1 POP SWAP2 SWAP1 POP JUMP JUMPDEST PUSH2 0x15A6 DUP2 PUSH2 0x1591 JUMP JUMPDEST DUP3 MSTORE POP POP JUMP JUMPDEST PUSH1 0x0 PUSH1 0x20 DUP3 ADD SWAP1 POP PUSH2 0x15C1 PUSH1 0x0 DUP4 ADD DUP5 PUSH2 0x159D JUMP JUMPDEST SWAP3 SWAP2 POP POP JUMP JUMPDEST PUSH32 0x4F6E6C79207465616D206D656D626572732063616E2063616C6C207468697320 PUSH1 0x0 DUP3 ADD MSTORE PUSH32 0x66756E6374696F6E000000000000000000000000000000000000000000000000 PUSH1 0x20 DUP3 ADD MSTORE POP JUMP JUMPDEST PUSH1 0x0 PUSH2 0x1623 PUSH1 0x28 DUP4 PUSH2 0x1231 JUMP JUMPDEST SWAP2 POP PUSH2 0x162E DUP3 PUSH2 0x15C7 JUMP JUMPDEST PUSH1 0x40 DUP3 ADD SWAP1 POP SWAP2 SWAP1 POP JUMP JUMPDEST PUSH1 0x0 PUSH1 0x20 DUP3 ADD SWAP1 POP DUP2 DUP2 SUB PUSH1 0x0 DUP4 ADD MSTORE PUSH2 0x1652 DUP2 PUSH2 0x1616 JUMP JUMPDEST SWAP1 POP SWAP2 SWAP1 POP JUMP JUMPDEST PUSH32 0x416D6F756E74206D7573742062652067726561746572207468616E2030000000 PUSH1 0x0 DUP3 ADD MSTORE POP JUMP JUMPDEST PUSH1 0x0 PUSH2 0x168F PUSH1 0x1D DUP4 PUSH2 0x1231 JUMP JUMPDEST SWAP2 POP PUSH2 0x169A DUP3 PUSH2 0x1659 JUMP JUMPDEST PUSH1 0x20 DUP3 ADD SWAP1 POP SWAP2 SWAP1 POP JUMP JUMPDEST PUSH1 0x0 PUSH1 0x20 DUP3 ADD SWAP1 POP DUP2 DUP2 SUB PUSH1 0x0 DUP4 ADD MSTORE PUSH2 0x16BE DUP2 PUSH2 0x1682 JUMP JUMPDEST SWAP1 POP SWAP2 SWAP1 POP JUMP JUMPDEST PUSH32 0x5472616E73616374696F6E20646F6573206E6F74206578697374000000000000 PUSH1 0x0 DUP3 ADD MSTORE POP JUMP JUMPDEST PUSH1 0x0 PUSH2 0x16FB PUSH1 0x1A DUP4 PUSH2 0x1231 JUMP JUMPDEST SWAP2 POP PUSH2 0x1706 DUP3 PUSH2 0x16C5 JUMP JUMPDEST PUSH1 0x20 DUP3 ADD SWAP1 POP SWAP2 SWAP1 POP JUMP JUMPDEST PUSH1 0x0 PUSH1 0x20 DUP3 ADD SWAP1 POP DUP2 DUP2 SUB PUSH1 0x0 DUP4 ADD MSTORE PUSH2 0x172A DUP2 PUSH2 0x16EE JUMP JUMPDEST SWAP1 POP SWAP2 SWAP1 POP JUMP JUMPDEST PUSH32 0x4E487B7100000000000000000000000000000000000000000000000000000000 PUSH1 0x0 MSTORE PUSH1 0x32 PUSH1 0x4 MSTORE PUSH1 0x24 PUSH1 0x0 REVERT JUMPDEST PUSH32 0x4F6E6C7920746865206465706C6F7965722063616E2063616C6C207468697320 PUSH1 0x0 DUP3 ADD MSTORE PUSH32 0x66756E6374696F6E000000000000000000000000000000000000000000000000 PUSH1 0x20 DUP3 ADD MSTORE POP JUMP JUMPDEST PUSH1 0x0 PUSH2 0x17BC PUSH1 0x28 DUP4 PUSH2 0x1231 JUMP JUMPDEST SWAP2 POP PUSH2 0x17C7 DUP3 PUSH2 0x1760 JUMP JUMPDEST PUSH1 0x40 DUP3 ADD SWAP1 POP SWAP2 SWAP1 POP JUMP JUMPDEST PUSH1 0x0 PUSH1 0x20 DUP3 ADD SWAP1 POP DUP2 DUP2 SUB PUSH1 0x0 DUP4 ADD MSTORE PUSH2 0x17EB DUP2 PUSH2 0x17AF JUMP JUMPDEST SWAP1 POP SWAP2 SWAP1 POP JUMP JUMPDEST PUSH32 0x57616C6C657420697320616C7265616479207365740000000000000000000000 PUSH1 0x0 DUP3 ADD MSTORE POP JUMP JUMPDEST PUSH1 0x0 PUSH2 0x1828 PUSH1 0x15 DUP4 PUSH2 0x1231 JUMP JUMPDEST SWAP2 POP PUSH2 0x1833 DUP3 PUSH2 0x17F2 JUMP JUMPDEST PUSH1 0x20 DUP3 ADD SWAP1 POP SWAP2 SWAP1 POP JUMP JUMPDEST PUSH1 0x0 PUSH1 0x20 DUP3 ADD SWAP1 POP DUP2 DUP2 SUB PUSH1 0x0 DUP4 ADD MSTORE PUSH2 0x1857 DUP2 PUSH2 0x181B JUMP JUMPDEST SWAP1 POP SWAP2 SWAP1 POP JUMP JUMPDEST PUSH32 0x4174206C65617374206F6E65206D656D62657220697320726571756972656400 PUSH1 0x0 DUP3 ADD MSTORE POP JUMP JUMPDEST PUSH1 0x0 PUSH2 0x1894 PUSH1 0x1F DUP4 PUSH2 0x1231 JUMP JUMPDEST SWAP2 POP PUSH2 0x189F DUP3 PUSH2 0x185E JUMP JUMPDEST PUSH1 0x20 DUP3 ADD SWAP1 POP SWAP2 SWAP1 POP JUMP JUMPDEST PUSH1 0x0 PUSH1 0x20 DUP3 ADD SWAP1 POP DUP2 DUP2 SUB PUSH1 0x0 DUP4 ADD MSTORE PUSH2 0x18C3 DUP2 PUSH2 0x1887 JUMP JUMPDEST SWAP1 POP SWAP2 SWAP1 POP JUMP JUMPDEST PUSH32 0x43726564697473206D7573742062652067726561746572207468616E20300000 PUSH1 0x0 DUP3 ADD MSTORE POP JUMP JUMPDEST PUSH1 0x0 PUSH2 0x1900 PUSH1 0x1E DUP4 PUSH2 0x1231 JUMP JUMPDEST SWAP2 POP PUSH2 0x190B DUP3 PUSH2 0x18CA JUMP JUMPDEST PUSH1 0x20 DUP3 ADD SWAP1 POP SWAP2 SWAP1 POP JUMP JUMPDEST PUSH1 0x0 PUSH1 0x20 DUP3 ADD SWAP1 POP DUP2 DUP2 SUB PUSH1 0x0 DUP4 ADD MSTORE PUSH2 0x192F DUP2 PUSH2 0x18F3 JUMP JUMPDEST SWAP1 POP SWAP2 SWAP1 POP JUMP JUMPDEST PUSH32 0x4465706C6F7965722063616E6E6F742062652061207465616D206D656D626572 PUSH1 0x0 DUP3 ADD MSTORE POP JUMP JUMPDEST PUSH1 0x0 PUSH2 0x196C PUSH1 0x20 DUP4 PUSH2 0x1231 JUMP JUMPDEST SWAP2 POP PUSH2 0x1977 DUP3 PUSH2 0x1936 JUMP JUMPDEST PUSH1 0x20 DUP3 ADD SWAP1 POP SWAP2 SWAP1 POP JUMP JUMPDEST PUSH1 0x0 PUSH1 0x20 DUP3 ADD SWAP1 POP DUP2 DUP2 SUB PUSH1 0x0 DUP4 ADD MSTORE PUSH2 0x199B DUP2 PUSH2 0x195F JUMP JUMPDEST SWAP1 POP SWAP2 SWAP1 POP JUMP JUMPDEST PUSH32 0x4E487B7100000000000000000000000000000000000000000000000000000000 PUSH1 0x0 MSTORE PUSH1 0x11 PUSH1 0x4 MSTORE PUSH1 0x24 PUSH1 0x0 REVERT JUMPDEST PUSH1 0x0 PUSH2 0x19DC DUP3 PUSH2 0x113D JUMP JUMPDEST SWAP2 POP PUSH32 0xFFFFFFFFFFFFFFFFFFFFFFFFFFFFFFFFFFFFFFFFFFFFFFFFFFFFFFFFFFFFFFFF DUP3 SUB PUSH2 0x1A0E JUMPI PUSH2 0x1A0D PUSH2 0x19A2 JUMP JUMPDEST JUMPDEST PUSH1 0x1 DUP3 ADD SWAP1 POP SWAP2 SWAP1 POP JUMP JUMPDEST PUSH32 0x596F75206861766520616C726561647920766F746564206F6E20746869732074 PUSH1 0x0 DUP3 ADD MSTORE PUSH32 0x72616E73616374696F6E00000000000000000000000000000000000000000000 PUSH1 0x20 DUP3 ADD MSTORE POP JUMP JUMPDEST PUSH1 0x0 PUSH2 0x1A75 PUSH1 0x2A DUP4 PUSH2 0x1231 JUMP JUMPDEST SWAP2 POP PUSH2 0x1A80 DUP3 PUSH2 0x1A19 JUMP JUMPDEST PUSH1 0x40 DUP3 ADD SWAP1 POP SWAP2 SWAP1 POP JUMP JUMPDEST PUSH1 0x0 PUSH1 0x20 DUP3 ADD SWAP1 POP DUP2 DUP2 SUB PUSH1 0x0 DUP4 ADD MSTORE PUSH2 0x1AA4 DUP2 PUSH2 0x1A68 JUMP JUMPDEST SWAP1 POP SWAP2 SWAP1 POP JUMP JUMPDEST PUSH1 0x0 PUSH2 0x1AB6 DUP3 PUSH2 0x113D JUMP JUMPDEST SWAP2 POP PUSH2 0x1AC1 DUP4 PUSH2 0x113D JUMP JUMPDEST SWAP3 POP DUP3 DUP3 MUL PUSH2 0x1ACF DUP2 PUSH2 0x113D JUMP JUMPDEST SWAP2 POP DUP3 DUP3 DIV DUP5 EQ DUP4 ISZERO OR PUSH2 0x1AE6 JUMPI PUSH2 0x1AE5 PUSH2 0x19A2 JUMP JUMPDEST JUMPDEST POP SWAP3 SWAP2 POP POP JUMP JUMPDEST PUSH1 0x0 PUSH2 0x1AF8 DUP3 PUSH2 0x113D JUMP JUMPDEST SWAP2 POP PUSH2 0x1B03 DUP4 PUSH2 0x113D JUMP JUMPDEST SWAP3 POP DUP3 DUP3 SUB SWAP1 POP DUP2 DUP2 GT ISZERO PUSH2 0x1B1B JUMPI PUSH2 0x1B1A PUSH2 0x19A2 JUMP JUMPDEST JUMPDEST SWAP3 SWAP2 POP POP JUMP INVALID LOG2 PUSH5 0x6970667358 0x22 SLT KECCAK256 TIMESTAMP RETURN 0x1E DUP15 0xC7 0xCA 0xB1 DELEGATECALL POP 0xE1 BYTE 0xC7 0x21 EXTCODECOPY SWAP9 0xCC DIV 0x26 SHR BASEFEE AND 0xB4 PUSH20 0x4962B049E276C13B464736F6C63430008120033 "
				},
				"gasEstimates": {
					"creation": {
						"codeDepositCost": "1399800",
						"executionCost": "infinite",
						"totalCost": "infinite"
					},
					"external": {
						"approve(uint256)": "infinite",
						"credits()": "4702",
						"deployer()": "2621",
						"isMember(address)": "2867",
						"members(uint256)": "5001",
						"reject(uint256)": "infinite",
						"setWallet(address[],uint256)": "infinite",
						"spend(uint256)": "95517",
						"totalCredits()": "2473",
						"transactions(uint256)": "infinite",
						"viewTransaction(uint256)": "infinite"
					}
				},
				"methodIdentifiers": {
					"approve(uint256)": "b759f954",
					"credits()": "26540fd2",
					"deployer()": "d5f39488",
					"isMember(address)": "a230c524",
					"members(uint256)": "5daf08ca",
					"reject(uint256)": "b8adaa11",
					"setWallet(address[],uint256)": "9c86836b",
					"spend(uint256)": "1dbf3bc7",
					"totalCredits()": "b5bd3eb9",
					"transactions(uint256)": "9ace38c2",
					"viewTransaction(uint256)": "8916d12c"
				}
			},
			"storageLayout": {
				"storage": [
					{
						"astId": 3,
						"contract": "lcm.sol:SharedWallet",
						"label": "deployer",
						"offset": 0,
						"slot": "0",
						"type": "t_address"
					},
					{
						"astId": 6,
						"contract": "lcm.sol:SharedWallet",
						"label": "members",
						"offset": 0,
						"slot": "1",
						"type": "t_array(t_address)dyn_storage"
					},
					{
						"astId": 8,
						"contract": "lcm.sol:SharedWallet",
						"label": "totalCredits",
						"offset": 0,
						"slot": "2",
						"type": "t_uint256"
					},
					{
						"astId": 28,
						"contract": "lcm.sol:SharedWallet",
						"label": "transactions",
						"offset": 0,
						"slot": "3",
						"type": "t_array(t_struct(Transaction)24_storage)dyn_storage"
					},
					{
						"astId": 32,
						"contract": "lcm.sol:SharedWallet",
						"label": "isMember",
						"offset": 0,
						"slot": "4",
						"type": "t_mapping(t_address,t_bool)"
					}
				],
				"types": {
					"t_address": {
						"encoding": "inplace",
						"label": "address",
						"numberOfBytes": "20"
					},
					"t_array(t_address)dyn_storage": {
						"base": "t_address",
						"encoding": "dynamic_array",
						"label": "address[]",
						"numberOfBytes": "32"
					},
					"t_array(t_struct(Transaction)24_storage)dyn_storage": {
						"base": "t_struct(Transaction)24_storage",
						"encoding": "dynamic_array",
						"label": "struct SharedWallet.Transaction[]",
						"numberOfBytes": "32"
					},
					"t_bool": {
						"encoding": "inplace",
						"label": "bool",
						"numberOfBytes": "1"
					},
					"t_enum(TransactionStatus)12": {
						"encoding": "inplace",
						"label": "enum SharedWallet.TransactionStatus",
						"numberOfBytes": "1"
					},
					"t_mapping(t_address,t_bool)": {
						"encoding": "mapping",
						"key": "t_address",
						"label": "mapping(address => bool)",
						"numberOfBytes": "32",
						"value": "t_bool"
					},
					"t_struct(Transaction)24_storage": {
						"encoding": "inplace",
						"label": "struct SharedWallet.Transaction",
						"members": [
							{
								"astId": 14,
								"contract": "lcm.sol:SharedWallet",
								"label": "amount",
								"offset": 0,
								"slot": "0",
								"type": "t_uint256"
							},
							{
								"astId": 17,
								"contract": "lcm.sol:SharedWallet",
								"label": "status",
								"offset": 0,
								"slot": "1",
								"type": "t_enum(TransactionStatus)12"
							},
							{
								"astId": 19,
								"contract": "lcm.sol:SharedWallet",
								"label": "approvals",
								"offset": 0,
								"slot": "2",
								"type": "t_uint256"
							},
							{
								"astId": 23,
								"contract": "lcm.sol:SharedWallet",
								"label": "hasVoted",
								"offset": 0,
								"slot": "3",
								"type": "t_mapping(t_address,t_bool)"
							}
						],
						"numberOfBytes": "128"
					},
					"t_uint256": {
						"encoding": "inplace",
						"label": "uint256",
						"numberOfBytes": "32"
					}
				}
			},
			"userdoc": {
				"kind": "user",
				"methods": {},
				"version": 1
			}
		}
	}
}