{
	"mtx.sol": {
		"BurnableToken": {
			"abi": [
				{
					"inputs": [
						{
							"internalType": "string",
							"name": "_name",
							"type": "string"
						},
						{
							"internalType": "string",
							"name": "_symbol",
							"type": "string"
						},
						{
							"internalType": "uint8",
							"name": "_decimals",
							"type": "uint8"
						},
						{
							"internalType": "uint256",
							"name": "_initialSupply",
							"type": "uint256"
						}
					],
					"stateMutability": "nonpayable",
					"type": "constructor"
				},
				{
					"anonymous": false,
					"inputs": [
						{
							"indexed": true,
							"internalType": "address",
							"name": "burner",
							"type": "address"
						},
						{
							"indexed": false,
							"internalType": "uint256",
							"name": "value",
							"type": "uint256"
						}
					],
					"name": "Burn",
					"type": "event"
				},
				{
					"anonymous": false,
					"inputs": [
						{
							"indexed": true,
							"internalType": "address",
							"name": "from",
							"type": "address"
						},
						{
							"indexed": true,
							"internalType": "address",
							"name": "to",
							"type": "address"
						},
						{
							"indexed": false,
							"internalType": "uint256",
							"name": "value",
							"type": "uint256"
						}
					],
					"name": "Transfer",
					"type": "event"
				},
				{
					"inputs": [
						{
							"internalType": "address",
							"name": "_owner",
							"type": "address"
						}
					],
					"name": "balanceOf",
					"outputs": [
						{
							"internalType": "uint256",
							"name": "",
							"type": "uint256"
						}
					],
					"stateMutability": "view",
					"type": "function"
				},
				{
					"inputs": [
						{
							"internalType": "uint256",
							"name": "_amount",
							"type": "uint256"
						}
					],
					"name": "burn",
					"outputs": [],
					"stateMutability": "nonpayable",
					"type": "function"
				},
				{
					"inputs": [],
					"name": "decimals",
					"outputs": [
						{
							"internalType": "uint8",
							"name": "",
							"type": "uint8"
						}
					],
					"stateMutability": "view",
					"type": "function"
				},
				{
					"inputs": [],
					"name": "name",
					"outputs": [
						{
							"internalType": "string",
							"name": "",
							"type": "string"
						}
					],
					"stateMutability": "view",
					"type": "function"
				},
				{
					"inputs": [],
					"name": "symbol",
					"outputs": [
						{
							"internalType": "string",
							"name": "",
							"type": "string"
						}
					],
					"stateMutability": "view",
					"type": "function"
				},
				{
					"inputs": [],
					"name": "totalSupply",
					"outputs": [
						{
							"internalType": "uint256",
							"name": "",
							"type": "uint256"
						}
					],
					"stateMutability": "view",
					"type": "function"
				},
				{
					"inputs": [
						{
							"internalType": "address",
							"name": "_to",
							"type": "address"
						},
						{
							"internalType": "uint256",
							"name": "_value",
							"type": "uint256"
						}
					],
					"name": "transfer",
					"outputs": [
						{
							"internalType": "bool",
							"name": "",
							"type": "bool"
						}
					],
					"stateMutability": "nonpayable",
					"type": "function"
				}
			],
			"devdoc": {
				"kind": "dev",
				"methods": {},
				"version": 1
			},
			"evm": {
				"assembly": "    /* \"mtx.sol\":60:1582  contract BurnableToken {... */\n  mstore(0x40, 0x80)\n    /* \"mtx.sol\":451:809  constructor(... */\n  callvalue\n  dup1\n  iszero\n  tag_1\n  jumpi\n  0x00\n  dup1\n  revert\ntag_1:\n  pop\n  mload(0x40)\n  sub(codesize, bytecodeSize)\n  dup1\n  bytecodeSize\n  dup4\n  codecopy\n  dup2\n  dup2\n  add\n  0x40\n  mstore\n  dup2\n  add\n  swap1\n  tag_2\n  swap2\n  swap1\n  tag_3\n  jump\t// in\ntag_2:\n    /* \"mtx.sol\":619:624  _name */\n  dup4\n    /* \"mtx.sol\":612:616  name */\n  0x00\n    /* \"mtx.sol\":612:624  name = _name */\n  swap1\n  dup2\n  tag_6\n  swap2\n  swap1\n  tag_7\n  jump\t// in\ntag_6:\n  pop\n    /* \"mtx.sol\":644:651  _symbol */\n  dup3\n    /* \"mtx.sol\":635:641  symbol */\n  0x01\n    /* \"mtx.sol\":635:651  symbol = _symbol */\n  swap1\n  dup2\n  tag_8\n  swap2\n  swap1\n  tag_7\n  jump\t// in\ntag_8:\n  pop\n    /* \"mtx.sol\":673:682  _decimals */\n  dup2\n    /* \"mtx.sol\":662:670  decimals */\n  0x02\n  0x00\n    /* \"mtx.sol\":662:682  decimals = _decimals */\n  0x0100\n  exp\n  dup2\n  sload\n  dup2\n  0xff\n  mul\n  not\n  and\n  swap1\n  dup4\n  0xff\n  and\n  mul\n  or\n  swap1\n  sstore\n  pop\n    /* \"mtx.sol\":736:745  _decimals */\n  dup2\n    /* \"mtx.sol\":728:746  uint256(_decimals) */\n  0xff\n  and\n    /* \"mtx.sol\":724:726  10 */\n  0x0a\n    /* \"mtx.sol\":724:746  10**uint256(_decimals) */\n  tag_9\n  swap2\n  swap1\n  tag_10\n  jump\t// in\ntag_9:\n    /* \"mtx.sol\":707:721  _initialSupply */\n  dup2\n    /* \"mtx.sol\":707:746  _initialSupply * 10**uint256(_decimals) */\n  tag_11\n  swap2\n  swap1\n  tag_12\n  jump\t// in\ntag_11:\n    /* \"mtx.sol\":693:704  totalSupply */\n  0x03\n    /* \"mtx.sol\":693:746  totalSupply = _initialSupply * 10**uint256(_decimals) */\n  dup2\n  swap1\n  sstore\n  pop\n    /* \"mtx.sol\":780:791  totalSupply */\n  sload(0x03)\n    /* \"mtx.sol\":757:765  balances */\n  0x04\n    /* \"mtx.sol\":757:777  balances[msg.sender] */\n  0x00\n    /* \"mtx.sol\":766:776  msg.sender */\n  caller\n    /* \"mtx.sol\":757:777  balances[msg.sender] */\n  0xffffffffffffffffffffffffffffffffffffffff\n  and\n  0xffffffffffffffffffffffffffffffffffffffff\n  and\n  dup2\n  mstore\n  0x20\n  add\n  swap1\n  dup2\n  mstore\n  0x20\n  add\n  0x00\n  keccak256\n    /* \"mtx.sol\":757:791  balances[msg.sender] = totalSupply */\n  dup2\n  swap1\n  sstore\n  pop\n    /* \"mtx.sol\":451:809  constructor(... */\n  pop\n  pop\n  pop\n  pop\n    /* \"mtx.sol\":60:1582  contract BurnableToken {... */\n  jump(tag_13)\n    /* \"#utility.yul\":7:82   */\ntag_14:\n    /* \"#utility.yul\":40:46   */\n  0x00\n    /* \"#utility.yul\":73:75   */\n  0x40\n    /* \"#utility.yul\":67:76   */\n  mload\n    /* \"#utility.yul\":57:76   */\n  swap1\n  pop\n    /* \"#utility.yul\":7:82   */\n  swap1\n  jump\t// out\n    /* \"#utility.yul\":88:205   */\ntag_15:\n    /* \"#utility.yul\":197:198   */\n  0x00\n    /* \"#utility.yul\":194:195   */\n  dup1\n    /* \"#utility.yul\":187:199   */\n  revert\n    /* \"#utility.yul\":211:328   */\ntag_16:\n    /* \"#utility.yul\":320:321   */\n  0x00\n    /* \"#utility.yul\":317:318   */\n  dup1\n    /* \"#utility.yul\":310:322   */\n  revert\n    /* \"#utility.yul\":334:451   */\ntag_17:\n    /* \"#utility.yul\":443:444   */\n  0x00\n    /* \"#utility.yul\":440:441   */\n  dup1\n    /* \"#utility.yul\":433:445   */\n  revert\n    /* \"#utility.yul\":457:574   */\ntag_18:\n    /* \"#utility.yul\":566:567   */\n  0x00\n    /* \"#utility.yul\":563:564   */\n  dup1\n    /* \"#utility.yul\":556:568   */\n  revert\n    /* \"#utility.yul\":580:682   */\ntag_19:\n    /* \"#utility.yul\":621:627   */\n  0x00\n    /* \"#utility.yul\":672:674   */\n  0x1f\n    /* \"#utility.yul\":668:675   */\n  not\n    /* \"#utility.yul\":663:665   */\n  0x1f\n    /* \"#utility.yul\":656:661   */\n  dup4\n    /* \"#utility.yul\":652:666   */\n  add\n    /* \"#utility.yul\":648:676   */\n  and\n    /* \"#utility.yul\":638:676   */\n  swap1\n  pop\n    /* \"#utility.yul\":580:682   */\n  swap2\n  swap1\n  pop\n  jump\t// out\n    /* \"#utility.yul\":688:868   */\ntag_20:\n    /* \"#utility.yul\":736:813   */\n  0x4e487b7100000000000000000000000000000000000000000000000000000000\n    /* \"#utility.yul\":733:734   */\n  0x00\n    /* \"#utility.yul\":726:814   */\n  mstore\n    /* \"#utility.yul\":833:837   */\n  0x41\n    /* \"#utility.yul\":830:831   */\n  0x04\n    /* \"#utility.yul\":823:838   */\n  mstore\n    /* \"#utility.yul\":857:861   */\n  0x24\n    /* \"#utility.yul\":854:855   */\n  0x00\n    /* \"#utility.yul\":847:862   */\n  revert\n    /* \"#utility.yul\":874:1155   */\ntag_21:\n    /* \"#utility.yul\":957:984   */\n  tag_64\n    /* \"#utility.yul\":979:983   */\n  dup3\n    /* \"#utility.yul\":957:984   */\n  tag_19\n  jump\t// in\ntag_64:\n    /* \"#utility.yul\":949:955   */\n  dup2\n    /* \"#utility.yul\":945:985   */\n  add\n    /* \"#utility.yul\":1087:1093   */\n  dup2\n    /* \"#utility.yul\":1075:1085   */\n  dup2\n    /* \"#utility.yul\":1072:1094   */\n  lt\n    /* \"#utility.yul\":1051:1069   */\n  0xffffffffffffffff\n    /* \"#utility.yul\":1039:1049   */\n  dup3\n    /* \"#utility.yul\":1036:1070   */\n  gt\n    /* \"#utility.yul\":1033:1095   */\n  or\n    /* \"#utility.yul\":1030:1118   */\n  iszero\n  tag_65\n  jumpi\n    /* \"#utility.yul\":1098:1116   */\n  tag_66\n  tag_20\n  jump\t// in\ntag_66:\n    /* \"#utility.yul\":1030:1118   */\ntag_65:\n    /* \"#utility.yul\":1138:1148   */\n  dup1\n    /* \"#utility.yul\":1134:1136   */\n  0x40\n    /* \"#utility.yul\":1127:1149   */\n  mstore\n    /* \"#utility.yul\":917:1155   */\n  pop\n    /* \"#utility.yul\":874:1155   */\n  pop\n  pop\n  jump\t// out\n    /* \"#utility.yul\":1161:1290   */\ntag_22:\n    /* \"#utility.yul\":1195:1201   */\n  0x00\n    /* \"#utility.yul\":1222:1242   */\n  tag_68\n  tag_14\n  jump\t// in\ntag_68:\n    /* \"#utility.yul\":1212:1242   */\n  swap1\n  pop\n    /* \"#utility.yul\":1251:1284   */\n  tag_69\n    /* \"#utility.yul\":1279:1283   */\n  dup3\n    /* \"#utility.yul\":1271:1277   */\n  dup3\n    /* \"#utility.yul\":1251:1284   */\n  tag_21\n  jump\t// in\ntag_69:\n    /* \"#utility.yul\":1161:1290   */\n  swap2\n  swap1\n  pop\n  jump\t// out\n    /* \"#utility.yul\":1296:1604   */\ntag_23:\n    /* \"#utility.yul\":1358:1362   */\n  0x00\n    /* \"#utility.yul\":1448:1466   */\n  0xffffffffffffffff\n    /* \"#utility.yul\":1440:1446   */\n  dup3\n    /* \"#utility.yul\":1437:1467   */\n  gt\n    /* \"#utility.yul\":1434:1490   */\n  iszero\n  tag_71\n  jumpi\n    /* \"#utility.yul\":1470:1488   */\n  tag_72\n  tag_20\n  jump\t// in\ntag_72:\n    /* \"#utility.yul\":1434:1490   */\ntag_71:\n    /* \"#utility.yul\":1508:1537   */\n  tag_73\n    /* \"#utility.yul\":1530:1536   */\n  dup3\n    /* \"#utility.yul\":1508:1537   */\n  tag_19\n  jump\t// in\ntag_73:\n    /* \"#utility.yul\":1500:1537   */\n  swap1\n  pop\n    /* \"#utility.yul\":1592:1596   */\n  0x20\n    /* \"#utility.yul\":1586:1590   */\n  dup2\n    /* \"#utility.yul\":1582:1597   */\n  add\n    /* \"#utility.yul\":1574:1597   */\n  swap1\n  pop\n    /* \"#utility.yul\":1296:1604   */\n  swap2\n  swap1\n  pop\n  jump\t// out\n    /* \"#utility.yul\":1610:1856   */\ntag_24:\n    /* \"#utility.yul\":1691:1692   */\n  0x00\n    /* \"#utility.yul\":1701:1814   */\ntag_75:\n    /* \"#utility.yul\":1715:1721   */\n  dup4\n    /* \"#utility.yul\":1712:1713   */\n  dup2\n    /* \"#utility.yul\":1709:1722   */\n  lt\n    /* \"#utility.yul\":1701:1814   */\n  iszero\n  tag_77\n  jumpi\n    /* \"#utility.yul\":1800:1801   */\n  dup1\n    /* \"#utility.yul\":1795:1798   */\n  dup3\n    /* \"#utility.yul\":1791:1802   */\n  add\n    /* \"#utility.yul\":1785:1803   */\n  mload\n    /* \"#utility.yul\":1781:1782   */\n  dup2\n    /* \"#utility.yul\":1776:1779   */\n  dup5\n    /* \"#utility.yul\":1772:1783   */\n  add\n    /* \"#utility.yul\":1765:1804   */\n  mstore\n    /* \"#utility.yul\":1737:1739   */\n  0x20\n    /* \"#utility.yul\":1734:1735   */\n  dup2\n    /* \"#utility.yul\":1730:1740   */\n  add\n    /* \"#utility.yul\":1725:1740   */\n  swap1\n  pop\n    /* \"#utility.yul\":1701:1814   */\n  jump(tag_75)\ntag_77:\n    /* \"#utility.yul\":1848:1849   */\n  0x00\n    /* \"#utility.yul\":1839:1845   */\n  dup5\n    /* \"#utility.yul\":1834:1837   */\n  dup5\n    /* \"#utility.yul\":1830:1846   */\n  add\n    /* \"#utility.yul\":1823:1850   */\n  mstore\n    /* \"#utility.yul\":1672:1856   */\n  pop\n    /* \"#utility.yul\":1610:1856   */\n  pop\n  pop\n  pop\n  jump\t// out\n    /* \"#utility.yul\":1862:2296   */\ntag_25:\n    /* \"#utility.yul\":1951:1956   */\n  0x00\n    /* \"#utility.yul\":1976:2042   */\n  tag_79\n    /* \"#utility.yul\":1992:2041   */\n  tag_80\n    /* \"#utility.yul\":2034:2040   */\n  dup5\n    /* \"#utility.yul\":1992:2041   */\n  tag_23\n  jump\t// in\ntag_80:\n    /* \"#utility.yul\":1976:2042   */\n  tag_22\n  jump\t// in\ntag_79:\n    /* \"#utility.yul\":1967:2042   */\n  swap1\n  pop\n    /* \"#utility.yul\":2065:2071   */\n  dup3\n    /* \"#utility.yul\":2058:2063   */\n  dup2\n    /* \"#utility.yul\":2051:2072   */\n  mstore\n    /* \"#utility.yul\":2103:2107   */\n  0x20\n    /* \"#utility.yul\":2096:2101   */\n  dup2\n    /* \"#utility.yul\":2092:2108   */\n  add\n    /* \"#utility.yul\":2141:2144   */\n  dup5\n    /* \"#utility.yul\":2132:2138   */\n  dup5\n    /* \"#utility.yul\":2127:2130   */\n  dup5\n    /* \"#utility.yul\":2123:2139   */\n  add\n    /* \"#utility.yul\":2120:2145   */\n  gt\n    /* \"#utility.yul\":2117:2229   */\n  iszero\n  tag_81\n  jumpi\n    /* \"#utility.yul\":2148:2227   */\n  tag_82\n  tag_18\n  jump\t// in\ntag_82:\n    /* \"#utility.yul\":2117:2229   */\ntag_81:\n    /* \"#utility.yul\":2238:2290   */\n  tag_83\n    /* \"#utility.yul\":2283:2289   */\n  dup5\n    /* \"#utility.yul\":2278:2281   */\n  dup3\n    /* \"#utility.yul\":2273:2276   */\n  dup6\n    /* \"#utility.yul\":2238:2290   */\n  tag_24\n  jump\t// in\ntag_83:\n    /* \"#utility.yul\":1957:2296   */\n  pop\n    /* \"#utility.yul\":1862:2296   */\n  swap4\n  swap3\n  pop\n  pop\n  pop\n  jump\t// out\n    /* \"#utility.yul\":2316:2671   */\ntag_26:\n    /* \"#utility.yul\":2383:2388   */\n  0x00\n    /* \"#utility.yul\":2432:2435   */\n  dup3\n    /* \"#utility.yul\":2425:2429   */\n  0x1f\n    /* \"#utility.yul\":2417:2423   */\n  dup4\n    /* \"#utility.yul\":2413:2430   */\n  add\n    /* \"#utility.yul\":2409:2436   */\n  slt\n    /* \"#utility.yul\":2399:2521   */\n  tag_85\n  jumpi\n    /* \"#utility.yul\":2440:2519   */\n  tag_86\n  tag_17\n  jump\t// in\ntag_86:\n    /* \"#utility.yul\":2399:2521   */\ntag_85:\n    /* \"#utility.yul\":2550:2556   */\n  dup2\n    /* \"#utility.yul\":2544:2557   */\n  mload\n    /* \"#utility.yul\":2575:2665   */\n  tag_87\n    /* \"#utility.yul\":2661:2664   */\n  dup5\n    /* \"#utility.yul\":2653:2659   */\n  dup3\n    /* \"#utility.yul\":2646:2650   */\n  0x20\n    /* \"#utility.yul\":2638:2644   */\n  dup7\n    /* \"#utility.yul\":2634:2651   */\n  add\n    /* \"#utility.yul\":2575:2665   */\n  tag_25\n  jump\t// in\ntag_87:\n    /* \"#utility.yul\":2566:2665   */\n  swap2\n  pop\n    /* \"#utility.yul\":2389:2671   */\n  pop\n    /* \"#utility.yul\":2316:2671   */\n  swap3\n  swap2\n  pop\n  pop\n  jump\t// out\n    /* \"#utility.yul\":2677:2763   */\ntag_27:\n    /* \"#utility.yul\":2712:2719   */\n  0x00\n    /* \"#utility.yul\":2752:2756   */\n  0xff\n    /* \"#utility.yul\":2745:2750   */\n  dup3\n    /* \"#utility.yul\":2741:2757   */\n  and\n    /* \"#utility.yul\":2730:2757   */\n  swap1\n  pop\n    /* \"#utility.yul\":2677:2763   */\n  swap2\n  swap1\n  pop\n  jump\t// out\n    /* \"#utility.yul\":2769:2887   */\ntag_28:\n    /* \"#utility.yul\":2840:2862   */\n  tag_90\n    /* \"#utility.yul\":2856:2861   */\n  dup2\n    /* \"#utility.yul\":2840:2862   */\n  tag_27\n  jump\t// in\ntag_90:\n    /* \"#utility.yul\":2833:2838   */\n  dup2\n    /* \"#utility.yul\":2830:2863   */\n  eq\n    /* \"#utility.yul\":2820:2881   */\n  tag_91\n  jumpi\n    /* \"#utility.yul\":2877:2878   */\n  0x00\n    /* \"#utility.yul\":2874:2875   */\n  dup1\n    /* \"#utility.yul\":2867:2879   */\n  revert\n    /* \"#utility.yul\":2820:2881   */\ntag_91:\n    /* \"#utility.yul\":2769:2887   */\n  pop\n  jump\t// out\n    /* \"#utility.yul\":2893:3032   */\ntag_29:\n    /* \"#utility.yul\":2948:2953   */\n  0x00\n    /* \"#utility.yul\":2979:2985   */\n  dup2\n    /* \"#utility.yul\":2973:2986   */\n  mload\n    /* \"#utility.yul\":2964:2986   */\n  swap1\n  pop\n    /* \"#utility.yul\":2995:3026   */\n  tag_93\n    /* \"#utility.yul\":3020:3025   */\n  dup2\n    /* \"#utility.yul\":2995:3026   */\n  tag_28\n  jump\t// in\ntag_93:\n    /* \"#utility.yul\":2893:3032   */\n  swap3\n  swap2\n  pop\n  pop\n  jump\t// out\n    /* \"#utility.yul\":3038:3115   */\ntag_30:\n    /* \"#utility.yul\":3075:3082   */\n  0x00\n    /* \"#utility.yul\":3104:3109   */\n  dup2\n    /* \"#utility.yul\":3093:3109   */\n  swap1\n  pop\n    /* \"#utility.yul\":3038:3115   */\n  swap2\n  swap1\n  pop\n  jump\t// out\n    /* \"#utility.yul\":3121:3243   */\ntag_31:\n    /* \"#utility.yul\":3194:3218   */\n  tag_96\n    /* \"#utility.yul\":3212:3217   */\n  dup2\n    /* \"#utility.yul\":3194:3218   */\n  tag_30\n  jump\t// in\ntag_96:\n    /* \"#utility.yul\":3187:3192   */\n  dup2\n    /* \"#utility.yul\":3184:3219   */\n  eq\n    /* \"#utility.yul\":3174:3237   */\n  tag_97\n  jumpi\n    /* \"#utility.yul\":3233:3234   */\n  0x00\n    /* \"#utility.yul\":3230:3231   */\n  dup1\n    /* \"#utility.yul\":3223:3235   */\n  revert\n    /* \"#utility.yul\":3174:3237   */\ntag_97:\n    /* \"#utility.yul\":3121:3243   */\n  pop\n  jump\t// out\n    /* \"#utility.yul\":3249:3392   */\ntag_32:\n    /* \"#utility.yul\":3306:3311   */\n  0x00\n    /* \"#utility.yul\":3337:3343   */\n  dup2\n    /* \"#utility.yul\":3331:3344   */\n  mload\n    /* \"#utility.yul\":3322:3344   */\n  swap1\n  pop\n    /* \"#utility.yul\":3353:3386   */\n  tag_99\n    /* \"#utility.yul\":3380:3385   */\n  dup2\n    /* \"#utility.yul\":3353:3386   */\n  tag_31\n  jump\t// in\ntag_99:\n    /* \"#utility.yul\":3249:3392   */\n  swap3\n  swap2\n  pop\n  pop\n  jump\t// out\n    /* \"#utility.yul\":3398:4560   */\ntag_3:\n    /* \"#utility.yul\":3513:3519   */\n  0x00\n    /* \"#utility.yul\":3521:3527   */\n  dup1\n    /* \"#utility.yul\":3529:3535   */\n  0x00\n    /* \"#utility.yul\":3537:3543   */\n  dup1\n    /* \"#utility.yul\":3586:3589   */\n  0x80\n    /* \"#utility.yul\":3574:3583   */\n  dup6\n    /* \"#utility.yul\":3565:3572   */\n  dup8\n    /* \"#utility.yul\":3561:3584   */\n  sub\n    /* \"#utility.yul\":3557:3590   */\n  slt\n    /* \"#utility.yul\":3554:3674   */\n  iszero\n  tag_101\n  jumpi\n    /* \"#utility.yul\":3593:3672   */\n  tag_102\n  tag_15\n  jump\t// in\ntag_102:\n    /* \"#utility.yul\":3554:3674   */\ntag_101:\n    /* \"#utility.yul\":3734:3735   */\n  0x00\n    /* \"#utility.yul\":3723:3732   */\n  dup6\n    /* \"#utility.yul\":3719:3736   */\n  add\n    /* \"#utility.yul\":3713:3737   */\n  mload\n    /* \"#utility.yul\":3764:3782   */\n  0xffffffffffffffff\n    /* \"#utility.yul\":3756:3762   */\n  dup2\n    /* \"#utility.yul\":3753:3783   */\n  gt\n    /* \"#utility.yul\":3750:3867   */\n  iszero\n  tag_103\n  jumpi\n    /* \"#utility.yul\":3786:3865   */\n  tag_104\n  tag_16\n  jump\t// in\ntag_104:\n    /* \"#utility.yul\":3750:3867   */\ntag_103:\n    /* \"#utility.yul\":3891:3965   */\n  tag_105\n    /* \"#utility.yul\":3957:3964   */\n  dup8\n    /* \"#utility.yul\":3948:3954   */\n  dup3\n    /* \"#utility.yul\":3937:3946   */\n  dup9\n    /* \"#utility.yul\":3933:3955   */\n  add\n    /* \"#utility.yul\":3891:3965   */\n  tag_26\n  jump\t// in\ntag_105:\n    /* \"#utility.yul\":3881:3965   */\n  swap5\n  pop\n    /* \"#utility.yul\":3684:3975   */\n  pop\n    /* \"#utility.yul\":4035:4037   */\n  0x20\n    /* \"#utility.yul\":4024:4033   */\n  dup6\n    /* \"#utility.yul\":4020:4038   */\n  add\n    /* \"#utility.yul\":4014:4039   */\n  mload\n    /* \"#utility.yul\":4066:4084   */\n  0xffffffffffffffff\n    /* \"#utility.yul\":4058:4064   */\n  dup2\n    /* \"#utility.yul\":4055:4085   */\n  gt\n    /* \"#utility.yul\":4052:4169   */\n  iszero\n  tag_106\n  jumpi\n    /* \"#utility.yul\":4088:4167   */\n  tag_107\n  tag_16\n  jump\t// in\ntag_107:\n    /* \"#utility.yul\":4052:4169   */\ntag_106:\n    /* \"#utility.yul\":4193:4267   */\n  tag_108\n    /* \"#utility.yul\":4259:4266   */\n  dup8\n    /* \"#utility.yul\":4250:4256   */\n  dup3\n    /* \"#utility.yul\":4239:4248   */\n  dup9\n    /* \"#utility.yul\":4235:4257   */\n  add\n    /* \"#utility.yul\":4193:4267   */\n  tag_26\n  jump\t// in\ntag_108:\n    /* \"#utility.yul\":4183:4267   */\n  swap4\n  pop\n    /* \"#utility.yul\":3985:4277   */\n  pop\n    /* \"#utility.yul\":4316:4318   */\n  0x40\n    /* \"#utility.yul\":4342:4404   */\n  tag_109\n    /* \"#utility.yul\":4396:4403   */\n  dup8\n    /* \"#utility.yul\":4387:4393   */\n  dup3\n    /* \"#utility.yul\":4376:4385   */\n  dup9\n    /* \"#utility.yul\":4372:4394   */\n  add\n    /* \"#utility.yul\":4342:4404   */\n  tag_29\n  jump\t// in\ntag_109:\n    /* \"#utility.yul\":4332:4404   */\n  swap3\n  pop\n    /* \"#utility.yul\":4287:4414   */\n  pop\n    /* \"#utility.yul\":4453:4455   */\n  0x60\n    /* \"#utility.yul\":4479:4543   */\n  tag_110\n    /* \"#utility.yul\":4535:4542   */\n  dup8\n    /* \"#utility.yul\":4526:4532   */\n  dup3\n    /* \"#utility.yul\":4515:4524   */\n  dup9\n    /* \"#utility.yul\":4511:4533   */\n  add\n    /* \"#utility.yul\":4479:4543   */\n  tag_32\n  jump\t// in\ntag_110:\n    /* \"#utility.yul\":4469:4543   */\n  swap2\n  pop\n    /* \"#utility.yul\":4424:4553   */\n  pop\n    /* \"#utility.yul\":3398:4560   */\n  swap3\n  swap6\n  swap2\n  swap5\n  pop\n  swap3\n  pop\n  jump\t// out\n    /* \"#utility.yul\":4566:4665   */\ntag_33:\n    /* \"#utility.yul\":4618:4624   */\n  0x00\n    /* \"#utility.yul\":4652:4657   */\n  dup2\n    /* \"#utility.yul\":4646:4658   */\n  mload\n    /* \"#utility.yul\":4636:4658   */\n  swap1\n  pop\n    /* \"#utility.yul\":4566:4665   */\n  swap2\n  swap1\n  pop\n  jump\t// out\n    /* \"#utility.yul\":4671:4851   */\ntag_34:\n    /* \"#utility.yul\":4719:4796   */\n  0x4e487b7100000000000000000000000000000000000000000000000000000000\n    /* \"#utility.yul\":4716:4717   */\n  0x00\n    /* \"#utility.yul\":4709:4797   */\n  mstore\n    /* \"#utility.yul\":4816:4820   */\n  0x22\n    /* \"#utility.yul\":4813:4814   */\n  0x04\n    /* \"#utility.yul\":4806:4821   */\n  mstore\n    /* \"#utility.yul\":4840:4844   */\n  0x24\n    /* \"#utility.yul\":4837:4838   */\n  0x00\n    /* \"#utility.yul\":4830:4845   */\n  revert\n    /* \"#utility.yul\":4857:5177   */\ntag_35:\n    /* \"#utility.yul\":4901:4907   */\n  0x00\n    /* \"#utility.yul\":4938:4939   */\n  0x02\n    /* \"#utility.yul\":4932:4936   */\n  dup3\n    /* \"#utility.yul\":4928:4940   */\n  div\n    /* \"#utility.yul\":4918:4940   */\n  swap1\n  pop\n    /* \"#utility.yul\":4985:4986   */\n  0x01\n    /* \"#utility.yul\":4979:4983   */\n  dup3\n    /* \"#utility.yul\":4975:4987   */\n  and\n    /* \"#utility.yul\":5006:5024   */\n  dup1\n    /* \"#utility.yul\":4996:5077   */\n  tag_114\n  jumpi\n    /* \"#utility.yul\":5062:5066   */\n  0x7f\n    /* \"#utility.yul\":5054:5060   */\n  dup3\n    /* \"#utility.yul\":5050:5067   */\n  and\n    /* \"#utility.yul\":5040:5067   */\n  swap2\n  pop\n    /* \"#utility.yul\":4996:5077   */\ntag_114:\n    /* \"#utility.yul\":5124:5126   */\n  0x20\n    /* \"#utility.yul\":5116:5122   */\n  dup3\n    /* \"#utility.yul\":5113:5127   */\n  lt\n    /* \"#utility.yul\":5093:5111   */\n  dup2\n    /* \"#utility.yul\":5090:5128   */\n  sub\n    /* \"#utility.yul\":5087:5171   */\n  tag_115\n  jumpi\n    /* \"#utility.yul\":5143:5161   */\n  tag_116\n  tag_34\n  jump\t// in\ntag_116:\n    /* \"#utility.yul\":5087:5171   */\ntag_115:\n    /* \"#utility.yul\":4908:5177   */\n  pop\n    /* \"#utility.yul\":4857:5177   */\n  swap2\n  swap1\n  pop\n  jump\t// out\n    /* \"#utility.yul\":5183:5324   */\ntag_36:\n    /* \"#utility.yul\":5232:5236   */\n  0x00\n    /* \"#utility.yul\":5255:5258   */\n  dup2\n    /* \"#utility.yul\":5247:5258   */\n  swap1\n  pop\n    /* \"#utility.yul\":5278:5281   */\n  dup2\n    /* \"#utility.yul\":5275:5276   */\n  0x00\n    /* \"#utility.yul\":5268:5282   */\n  mstore\n    /* \"#utility.yul\":5312:5316   */\n  0x20\n    /* \"#utility.yul\":5309:5310   */\n  0x00\n    /* \"#utility.yul\":5299:5317   */\n  keccak256\n    /* \"#utility.yul\":5291:5317   */\n  swap1\n  pop\n    /* \"#utility.yul\":5183:5324   */\n  swap2\n  swap1\n  pop\n  jump\t// out\n    /* \"#utility.yul\":5330:5423   */\ntag_37:\n    /* \"#utility.yul\":5367:5373   */\n  0x00\n    /* \"#utility.yul\":5414:5416   */\n  0x20\n    /* \"#utility.yul\":5409:5411   */\n  0x1f\n    /* \"#utility.yul\":5402:5407   */\n  dup4\n    /* \"#utility.yul\":5398:5412   */\n  add\n    /* \"#utility.yul\":5394:5417   */\n  div\n    /* \"#utility.yul\":5384:5417   */\n  swap1\n  pop\n    /* \"#utility.yul\":5330:5423   */\n  swap2\n  swap1\n  pop\n  jump\t// out\n    /* \"#utility.yul\":5429:5536   */\ntag_38:\n    /* \"#utility.yul\":5473:5481   */\n  0x00\n    /* \"#utility.yul\":5523:5528   */\n  dup3\n    /* \"#utility.yul\":5517:5521   */\n  dup3\n    /* \"#utility.yul\":5513:5529   */\n  shl\n    /* \"#utility.yul\":5492:5529   */\n  swap1\n  pop\n    /* \"#utility.yul\":5429:5536   */\n  swap3\n  swap2\n  pop\n  pop\n  jump\t// out\n    /* \"#utility.yul\":5542:5935   */\ntag_39:\n    /* \"#utility.yul\":5611:5617   */\n  0x00\n    /* \"#utility.yul\":5661:5662   */\n  0x08\n    /* \"#utility.yul\":5649:5659   */\n  dup4\n    /* \"#utility.yul\":5645:5663   */\n  mul\n    /* \"#utility.yul\":5684:5781   */\n  tag_121\n    /* \"#utility.yul\":5714:5780   */\n  0xffffffffffffffffffffffffffffffffffffffffffffffffffffffffffffffff\n    /* \"#utility.yul\":5703:5712   */\n  dup3\n    /* \"#utility.yul\":5684:5781   */\n  tag_38\n  jump\t// in\ntag_121:\n    /* \"#utility.yul\":5802:5841   */\n  tag_122\n    /* \"#utility.yul\":5832:5840   */\n  dup7\n    /* \"#utility.yul\":5821:5830   */\n  dup4\n    /* \"#utility.yul\":5802:5841   */\n  tag_38\n  jump\t// in\ntag_122:\n    /* \"#utility.yul\":5790:5841   */\n  swap6\n  pop\n    /* \"#utility.yul\":5874:5878   */\n  dup1\n    /* \"#utility.yul\":5870:5879   */\n  not\n    /* \"#utility.yul\":5863:5868   */\n  dup5\n    /* \"#utility.yul\":5859:5880   */\n  and\n    /* \"#utility.yul\":5850:5880   */\n  swap4\n  pop\n    /* \"#utility.yul\":5923:5927   */\n  dup1\n    /* \"#utility.yul\":5913:5921   */\n  dup7\n    /* \"#utility.yul\":5909:5928   */\n  and\n    /* \"#utility.yul\":5902:5907   */\n  dup5\n    /* \"#utility.yul\":5899:5929   */\n  or\n    /* \"#utility.yul\":5889:5929   */\n  swap3\n  pop\n    /* \"#utility.yul\":5618:5935   */\n  pop\n  pop\n    /* \"#utility.yul\":5542:5935   */\n  swap4\n  swap3\n  pop\n  pop\n  pop\n  jump\t// out\n    /* \"#utility.yul\":5941:6001   */\ntag_40:\n    /* \"#utility.yul\":5969:5972   */\n  0x00\n    /* \"#utility.yul\":5990:5995   */\n  dup2\n    /* \"#utility.yul\":5983:5995   */\n  swap1\n  pop\n    /* \"#utility.yul\":5941:6001   */\n  swap2\n  swap1\n  pop\n  jump\t// out\n    /* \"#utility.yul\":6007:6149   */\ntag_41:\n    /* \"#utility.yul\":6057:6066   */\n  0x00\n    /* \"#utility.yul\":6090:6143   */\n  tag_125\n    /* \"#utility.yul\":6108:6142   */\n  tag_126\n    /* \"#utility.yul\":6117:6141   */\n  tag_127\n    /* \"#utility.yul\":6135:6140   */\n  dup5\n    /* \"#utility.yul\":6117:6141   */\n  tag_30\n  jump\t// in\ntag_127:\n    /* \"#utility.yul\":6108:6142   */\n  tag_40\n  jump\t// in\ntag_126:\n    /* \"#utility.yul\":6090:6143   */\n  tag_30\n  jump\t// in\ntag_125:\n    /* \"#utility.yul\":6077:6143   */\n  swap1\n  pop\n    /* \"#utility.yul\":6007:6149   */\n  swap2\n  swap1\n  pop\n  jump\t// out\n    /* \"#utility.yul\":6155:6230   */\ntag_42:\n    /* \"#utility.yul\":6198:6201   */\n  0x00\n    /* \"#utility.yul\":6219:6224   */\n  dup2\n    /* \"#utility.yul\":6212:6224   */\n  swap1\n  pop\n    /* \"#utility.yul\":6155:6230   */\n  swap2\n  swap1\n  pop\n  jump\t// out\n    /* \"#utility.yul\":6236:6505   */\ntag_43:\n    /* \"#utility.yul\":6346:6385   */\n  tag_130\n    /* \"#utility.yul\":6377:6384   */\n  dup4\n    /* \"#utility.yul\":6346:6385   */\n  tag_41\n  jump\t// in\ntag_130:\n    /* \"#utility.yul\":6407:6498   */\n  tag_131\n    /* \"#utility.yul\":6456:6497   */\n  tag_132\n    /* \"#utility.yul\":6480:6496   */\n  dup3\n    /* \"#utility.yul\":6456:6497   */\n  tag_42\n  jump\t// in\ntag_132:\n    /* \"#utility.yul\":6448:6454   */\n  dup5\n    /* \"#utility.yul\":6441:6445   */\n  dup5\n    /* \"#utility.yul\":6435:6446   */\n  sload\n    /* \"#utility.yul\":6407:6498   */\n  tag_39\n  jump\t// in\ntag_131:\n    /* \"#utility.yul\":6401:6405   */\n  dup3\n    /* \"#utility.yul\":6394:6499   */\n  sstore\n    /* \"#utility.yul\":6312:6505   */\n  pop\n    /* \"#utility.yul\":6236:6505   */\n  pop\n  pop\n  pop\n  jump\t// out\n    /* \"#utility.yul\":6511:6584   */\ntag_44:\n    /* \"#utility.yul\":6556:6559   */\n  0x00\n    /* \"#utility.yul\":6511:6584   */\n  swap1\n  jump\t// out\n    /* \"#utility.yul\":6590:6779   */\ntag_45:\n    /* \"#utility.yul\":6667:6699   */\n  tag_135\n  tag_44\n  jump\t// in\ntag_135:\n    /* \"#utility.yul\":6708:6773   */\n  tag_136\n    /* \"#utility.yul\":6766:6772   */\n  dup2\n    /* \"#utility.yul\":6758:6764   */\n  dup5\n    /* \"#utility.yul\":6752:6756   */\n  dup5\n    /* \"#utility.yul\":6708:6773   */\n  tag_43\n  jump\t// in\ntag_136:\n    /* \"#utility.yul\":6643:6779   */\n  pop\n    /* \"#utility.yul\":6590:6779   */\n  pop\n  pop\n  jump\t// out\n    /* \"#utility.yul\":6785:6971   */\ntag_46:\n    /* \"#utility.yul\":6845:6965   */\ntag_138:\n    /* \"#utility.yul\":6862:6865   */\n  dup2\n    /* \"#utility.yul\":6855:6860   */\n  dup2\n    /* \"#utility.yul\":6852:6866   */\n  lt\n    /* \"#utility.yul\":6845:6965   */\n  iszero\n  tag_140\n  jumpi\n    /* \"#utility.yul\":6916:6955   */\n  tag_141\n    /* \"#utility.yul\":6953:6954   */\n  0x00\n    /* \"#utility.yul\":6946:6951   */\n  dup3\n    /* \"#utility.yul\":6916:6955   */\n  tag_45\n  jump\t// in\ntag_141:\n    /* \"#utility.yul\":6889:6890   */\n  0x01\n    /* \"#utility.yul\":6882:6887   */\n  dup2\n    /* \"#utility.yul\":6878:6891   */\n  add\n    /* \"#utility.yul\":6869:6891   */\n  swap1\n  pop\n    /* \"#utility.yul\":6845:6965   */\n  jump(tag_138)\ntag_140:\n    /* \"#utility.yul\":6785:6971   */\n  pop\n  pop\n  jump\t// out\n    /* \"#utility.yul\":6977:7520   */\ntag_47:\n    /* \"#utility.yul\":7078:7080   */\n  0x1f\n    /* \"#utility.yul\":7073:7076   */\n  dup3\n    /* \"#utility.yul\":7070:7081   */\n  gt\n    /* \"#utility.yul\":7067:7513   */\n  iszero\n  tag_143\n  jumpi\n    /* \"#utility.yul\":7112:7150   */\n  tag_144\n    /* \"#utility.yul\":7144:7149   */\n  dup2\n    /* \"#utility.yul\":7112:7150   */\n  tag_36\n  jump\t// in\ntag_144:\n    /* \"#utility.yul\":7196:7225   */\n  tag_145\n    /* \"#utility.yul\":7214:7224   */\n  dup5\n    /* \"#utility.yul\":7196:7225   */\n  tag_37\n  jump\t// in\ntag_145:\n    /* \"#utility.yul\":7186:7194   */\n  dup2\n    /* \"#utility.yul\":7182:7226   */\n  add\n    /* \"#utility.yul\":7379:7381   */\n  0x20\n    /* \"#utility.yul\":7367:7377   */\n  dup6\n    /* \"#utility.yul\":7364:7382   */\n  lt\n    /* \"#utility.yul\":7361:7410   */\n  iszero\n  tag_146\n  jumpi\n    /* \"#utility.yul\":7400:7408   */\n  dup2\n    /* \"#utility.yul\":7385:7408   */\n  swap1\n  pop\n    /* \"#utility.yul\":7361:7410   */\ntag_146:\n    /* \"#utility.yul\":7423:7503   */\n  tag_147\n    /* \"#utility.yul\":7479:7501   */\n  tag_148\n    /* \"#utility.yul\":7497:7500   */\n  dup6\n    /* \"#utility.yul\":7479:7501   */\n  tag_37\n  jump\t// in\ntag_148:\n    /* \"#utility.yul\":7469:7477   */\n  dup4\n    /* \"#utility.yul\":7465:7502   */\n  add\n    /* \"#utility.yul\":7452:7463   */\n  dup3\n    /* \"#utility.yul\":7423:7503   */\n  tag_46\n  jump\t// in\ntag_147:\n    /* \"#utility.yul\":7082:7513   */\n  pop\n  pop\n    /* \"#utility.yul\":7067:7513   */\ntag_143:\n    /* \"#utility.yul\":6977:7520   */\n  pop\n  pop\n  pop\n  jump\t// out\n    /* \"#utility.yul\":7526:7643   */\ntag_48:\n    /* \"#utility.yul\":7580:7588   */\n  0x00\n    /* \"#utility.yul\":7630:7635   */\n  dup3\n    /* \"#utility.yul\":7624:7628   */\n  dup3\n    /* \"#utility.yul\":7620:7636   */\n  shr\n    /* \"#utility.yul\":7599:7636   */\n  swap1\n  pop\n    /* \"#utility.yul\":7526:7643   */\n  swap3\n  swap2\n  pop\n  pop\n  jump\t// out\n    /* \"#utility.yul\":7649:7818   */\ntag_49:\n    /* \"#utility.yul\":7693:7699   */\n  0x00\n    /* \"#utility.yul\":7726:7777   */\n  tag_151\n    /* \"#utility.yul\":7774:7775   */\n  0x00\n    /* \"#utility.yul\":7770:7776   */\n  not\n    /* \"#utility.yul\":7762:7767   */\n  dup5\n    /* \"#utility.yul\":7759:7760   */\n  0x08\n    /* \"#utility.yul\":7755:7768   */\n  mul\n    /* \"#utility.yul\":7726:7777   */\n  tag_48\n  jump\t// in\ntag_151:\n    /* \"#utility.yul\":7722:7778   */\n  not\n    /* \"#utility.yul\":7807:7811   */\n  dup1\n    /* \"#utility.yul\":7801:7805   */\n  dup4\n    /* \"#utility.yul\":7797:7812   */\n  and\n    /* \"#utility.yul\":7787:7812   */\n  swap2\n  pop\n    /* \"#utility.yul\":7700:7818   */\n  pop\n    /* \"#utility.yul\":7649:7818   */\n  swap3\n  swap2\n  pop\n  pop\n  jump\t// out\n    /* \"#utility.yul\":7823:8118   */\ntag_50:\n    /* \"#utility.yul\":7899:7903   */\n  0x00\n    /* \"#utility.yul\":8045:8074   */\n  tag_153\n    /* \"#utility.yul\":8070:8073   */\n  dup4\n    /* \"#utility.yul\":8064:8068   */\n  dup4\n    /* \"#utility.yul\":8045:8074   */\n  tag_49\n  jump\t// in\ntag_153:\n    /* \"#utility.yul\":8037:8074   */\n  swap2\n  pop\n    /* \"#utility.yul\":8107:8110   */\n  dup3\n    /* \"#utility.yul\":8104:8105   */\n  0x02\n    /* \"#utility.yul\":8100:8111   */\n  mul\n    /* \"#utility.yul\":8094:8098   */\n  dup3\n    /* \"#utility.yul\":8091:8112   */\n  or\n    /* \"#utility.yul\":8083:8112   */\n  swap1\n  pop\n    /* \"#utility.yul\":7823:8118   */\n  swap3\n  swap2\n  pop\n  pop\n  jump\t// out\n    /* \"#utility.yul\":8123:9518   */\ntag_7:\n    /* \"#utility.yul\":8240:8277   */\n  tag_155\n    /* \"#utility.yul\":8273:8276   */\n  dup3\n    /* \"#utility.yul\":8240:8277   */\n  tag_33\n  jump\t// in\ntag_155:\n    /* \"#utility.yul\":8342:8360   */\n  0xffffffffffffffff\n    /* \"#utility.yul\":8334:8340   */\n  dup2\n    /* \"#utility.yul\":8331:8361   */\n  gt\n    /* \"#utility.yul\":8328:8384   */\n  iszero\n  tag_156\n  jumpi\n    /* \"#utility.yul\":8364:8382   */\n  tag_157\n  tag_20\n  jump\t// in\ntag_157:\n    /* \"#utility.yul\":8328:8384   */\ntag_156:\n    /* \"#utility.yul\":8408:8446   */\n  tag_158\n    /* \"#utility.yul\":8440:8444   */\n  dup3\n    /* \"#utility.yul\":8434:8445   */\n  sload\n    /* \"#utility.yul\":8408:8446   */\n  tag_35\n  jump\t// in\ntag_158:\n    /* \"#utility.yul\":8493:8560   */\n  tag_159\n    /* \"#utility.yul\":8553:8559   */\n  dup3\n    /* \"#utility.yul\":8545:8551   */\n  dup3\n    /* \"#utility.yul\":8539:8543   */\n  dup6\n    /* \"#utility.yul\":8493:8560   */\n  tag_47\n  jump\t// in\ntag_159:\n    /* \"#utility.yul\":8587:8588   */\n  0x00\n    /* \"#utility.yul\":8611:8615   */\n  0x20\n    /* \"#utility.yul\":8598:8615   */\n  swap1\n  pop\n    /* \"#utility.yul\":8643:8645   */\n  0x1f\n    /* \"#utility.yul\":8635:8641   */\n  dup4\n    /* \"#utility.yul\":8632:8646   */\n  gt\n    /* \"#utility.yul\":8660:8661   */\n  0x01\n    /* \"#utility.yul\":8655:9273   */\n  dup2\n  eq\n  tag_161\n  jumpi\n    /* \"#utility.yul\":9317:9318   */\n  0x00\n    /* \"#utility.yul\":9334:9340   */\n  dup5\n    /* \"#utility.yul\":9331:9408   */\n  iszero\n  tag_162\n  jumpi\n    /* \"#utility.yul\":9383:9392   */\n  dup3\n    /* \"#utility.yul\":9378:9381   */\n  dup8\n    /* \"#utility.yul\":9374:9393   */\n  add\n    /* \"#utility.yul\":9368:9394   */\n  mload\n    /* \"#utility.yul\":9359:9394   */\n  swap1\n  pop\n    /* \"#utility.yul\":9331:9408   */\ntag_162:\n    /* \"#utility.yul\":9434:9501   */\n  tag_163\n    /* \"#utility.yul\":9494:9500   */\n  dup6\n    /* \"#utility.yul\":9487:9492   */\n  dup3\n    /* \"#utility.yul\":9434:9501   */\n  tag_50\n  jump\t// in\ntag_163:\n    /* \"#utility.yul\":9428:9432   */\n  dup7\n    /* \"#utility.yul\":9421:9502   */\n  sstore\n    /* \"#utility.yul\":9290:9512   */\n  pop\n    /* \"#utility.yul\":8625:9512   */\n  jump(tag_160)\n    /* \"#utility.yul\":8655:9273   */\ntag_161:\n    /* \"#utility.yul\":8707:8711   */\n  0x1f\n    /* \"#utility.yul\":8703:8712   */\n  not\n    /* \"#utility.yul\":8695:8701   */\n  dup5\n    /* \"#utility.yul\":8691:8713   */\n  and\n    /* \"#utility.yul\":8741:8778   */\n  tag_164\n    /* \"#utility.yul\":8773:8777   */\n  dup7\n    /* \"#utility.yul\":8741:8778   */\n  tag_36\n  jump\t// in\ntag_164:\n    /* \"#utility.yul\":8800:8801   */\n  0x00\n    /* \"#utility.yul\":8814:9022   */\ntag_165:\n    /* \"#utility.yul\":8828:8835   */\n  dup3\n    /* \"#utility.yul\":8825:8826   */\n  dup2\n    /* \"#utility.yul\":8822:8836   */\n  lt\n    /* \"#utility.yul\":8814:9022   */\n  iszero\n  tag_167\n  jumpi\n    /* \"#utility.yul\":8907:8916   */\n  dup5\n    /* \"#utility.yul\":8902:8905   */\n  dup10\n    /* \"#utility.yul\":8898:8917   */\n  add\n    /* \"#utility.yul\":8892:8918   */\n  mload\n    /* \"#utility.yul\":8884:8890   */\n  dup3\n    /* \"#utility.yul\":8877:8919   */\n  sstore\n    /* \"#utility.yul\":8958:8959   */\n  0x01\n    /* \"#utility.yul\":8950:8956   */\n  dup3\n    /* \"#utility.yul\":8946:8960   */\n  add\n    /* \"#utility.yul\":8936:8960   */\n  swap2\n  pop\n    /* \"#utility.yul\":9005:9007   */\n  0x20\n    /* \"#utility.yul\":8994:9003   */\n  dup6\n    /* \"#utility.yul\":8990:9008   */\n  add\n    /* \"#utility.yul\":8977:9008   */\n  swap5\n  pop\n    /* \"#utility.yul\":8851:8855   */\n  0x20\n    /* \"#utility.yul\":8848:8849   */\n  dup2\n    /* \"#utility.yul\":8844:8856   */\n  add\n    /* \"#utility.yul\":8839:8856   */\n  swap1\n  pop\n    /* \"#utility.yul\":8814:9022   */\n  jump(tag_165)\ntag_167:\n    /* \"#utility.yul\":9050:9056   */\n  dup7\n    /* \"#utility.yul\":9041:9048   */\n  dup4\n    /* \"#utility.yul\":9038:9057   */\n  lt\n    /* \"#utility.yul\":9035:9214   */\n  iszero\n  tag_168\n  jumpi\n    /* \"#utility.yul\":9108:9117   */\n  dup5\n    /* \"#utility.yul\":9103:9106   */\n  dup10\n    /* \"#utility.yul\":9099:9118   */\n  add\n    /* \"#utility.yul\":9093:9119   */\n  mload\n    /* \"#utility.yul\":9151:9199   */\n  tag_169\n    /* \"#utility.yul\":9193:9197   */\n  0x1f\n    /* \"#utility.yul\":9185:9191   */\n  dup10\n    /* \"#utility.yul\":9181:9198   */\n  and\n    /* \"#utility.yul\":9170:9179   */\n  dup3\n    /* \"#utility.yul\":9151:9199   */\n  tag_49\n  jump\t// in\ntag_169:\n    /* \"#utility.yul\":9143:9149   */\n  dup4\n    /* \"#utility.yul\":9136:9200   */\n  sstore\n    /* \"#utility.yul\":9058:9214   */\n  pop\n    /* \"#utility.yul\":9035:9214   */\ntag_168:\n    /* \"#utility.yul\":9260:9261   */\n  0x01\n    /* \"#utility.yul\":9256:9257   */\n  0x02\n    /* \"#utility.yul\":9248:9254   */\n  dup9\n    /* \"#utility.yul\":9244:9258   */\n  mul\n    /* \"#utility.yul\":9240:9262   */\n  add\n    /* \"#utility.yul\":9234:9238   */\n  dup9\n    /* \"#utility.yul\":9227:9263   */\n  sstore\n    /* \"#utility.yul\":8662:9273   */\n  pop\n  pop\n  pop\n    /* \"#utility.yul\":8625:9512   */\ntag_160:\n  pop\n    /* \"#utility.yul\":8215:9518   */\n  pop\n  pop\n  pop\n    /* \"#utility.yul\":8123:9518   */\n  pop\n  pop\n  jump\t// out\n    /* \"#utility.yul\":9524:9704   */\ntag_51:\n    /* \"#utility.yul\":9572:9649   */\n  0x4e487b7100000000000000000000000000000000000000000000000000000000\n    /* \"#utility.yul\":9569:9570   */\n  0x00\n    /* \"#utility.yul\":9562:9650   */\n  mstore\n    /* \"#utility.yul\":9669:9673   */\n  0x11\n    /* \"#utility.yul\":9666:9667   */\n  0x04\n    /* \"#utility.yul\":9659:9674   */\n  mstore\n    /* \"#utility.yul\":9693:9697   */\n  0x24\n    /* \"#utility.yul\":9690:9691   */\n  0x00\n    /* \"#utility.yul\":9683:9698   */\n  revert\n    /* \"#utility.yul\":9710:9812   */\ntag_52:\n    /* \"#utility.yul\":9752:9760   */\n  0x00\n    /* \"#utility.yul\":9799:9804   */\n  dup2\n    /* \"#utility.yul\":9796:9797   */\n  0x01\n    /* \"#utility.yul\":9792:9805   */\n  shr\n    /* \"#utility.yul\":9771:9805   */\n  swap1\n  pop\n    /* \"#utility.yul\":9710:9812   */\n  swap2\n  swap1\n  pop\n  jump\t// out\n    /* \"#utility.yul\":9818:10666   */\ntag_53:\n    /* \"#utility.yul\":9879:9884   */\n  0x00\n    /* \"#utility.yul\":9886:9890   */\n  dup1\n    /* \"#utility.yul\":9910:9916   */\n  dup3\n    /* \"#utility.yul\":9901:9916   */\n  swap2\n  pop\n    /* \"#utility.yul\":9934:9939   */\n  dup4\n    /* \"#utility.yul\":9925:9939   */\n  swap1\n  pop\n    /* \"#utility.yul\":9948:10660   */\ntag_173:\n    /* \"#utility.yul\":9969:9970   */\n  0x01\n    /* \"#utility.yul\":9959:9967   */\n  dup6\n    /* \"#utility.yul\":9956:9971   */\n  gt\n    /* \"#utility.yul\":9948:10660   */\n  iszero\n  tag_175\n  jumpi\n    /* \"#utility.yul\":10064:10068   */\n  dup1\n    /* \"#utility.yul\":10059:10062   */\n  dup7\n    /* \"#utility.yul\":10055:10069   */\n  div\n    /* \"#utility.yul\":10049:10053   */\n  dup2\n    /* \"#utility.yul\":10046:10070   */\n  gt\n    /* \"#utility.yul\":10043:10093   */\n  iszero\n  tag_176\n  jumpi\n    /* \"#utility.yul\":10073:10091   */\n  tag_177\n  tag_51\n  jump\t// in\ntag_177:\n    /* \"#utility.yul\":10043:10093   */\ntag_176:\n    /* \"#utility.yul\":10123:10124   */\n  0x01\n    /* \"#utility.yul\":10113:10121   */\n  dup6\n    /* \"#utility.yul\":10109:10125   */\n  and\n    /* \"#utility.yul\":10106:10557   */\n  iszero\n  tag_178\n  jumpi\n    /* \"#utility.yul\":10538:10542   */\n  dup1\n    /* \"#utility.yul\":10531:10536   */\n  dup3\n    /* \"#utility.yul\":10527:10543   */\n  mul\n    /* \"#utility.yul\":10518:10543   */\n  swap2\n  pop\n    /* \"#utility.yul\":10106:10557   */\ntag_178:\n    /* \"#utility.yul\":10588:10592   */\n  dup1\n    /* \"#utility.yul\":10582:10586   */\n  dup2\n    /* \"#utility.yul\":10578:10593   */\n  mul\n    /* \"#utility.yul\":10570:10593   */\n  swap1\n  pop\n    /* \"#utility.yul\":10618:10650   */\n  tag_179\n    /* \"#utility.yul\":10641:10649   */\n  dup6\n    /* \"#utility.yul\":10618:10650   */\n  tag_52\n  jump\t// in\ntag_179:\n    /* \"#utility.yul\":10606:10650   */\n  swap5\n  pop\n    /* \"#utility.yul\":9948:10660   */\n  jump(tag_173)\ntag_175:\n    /* \"#utility.yul\":9818:10666   */\n  swap5\n  pop\n  swap5\n  swap3\n  pop\n  pop\n  pop\n  jump\t// out\n    /* \"#utility.yul\":10672:11745   */\ntag_54:\n    /* \"#utility.yul\":10726:10731   */\n  0x00\n    /* \"#utility.yul\":10917:10925   */\n  dup3\n    /* \"#utility.yul\":10907:10947   */\n  tag_181\n  jumpi\n    /* \"#utility.yul\":10938:10939   */\n  0x01\n    /* \"#utility.yul\":10929:10939   */\n  swap1\n  pop\n    /* \"#utility.yul\":10940:10945   */\n  jump(tag_180)\n    /* \"#utility.yul\":10907:10947   */\ntag_181:\n    /* \"#utility.yul\":10966:10970   */\n  dup2\n    /* \"#utility.yul\":10956:10992   */\n  tag_182\n  jumpi\n    /* \"#utility.yul\":10983:10984   */\n  0x00\n    /* \"#utility.yul\":10974:10984   */\n  swap1\n  pop\n    /* \"#utility.yul\":10985:10990   */\n  jump(tag_180)\n    /* \"#utility.yul\":10956:10992   */\ntag_182:\n    /* \"#utility.yul\":11052:11056   */\n  dup2\n    /* \"#utility.yul\":11100:11101   */\n  0x01\n    /* \"#utility.yul\":11095:11122   */\n  dup2\n  eq\n  tag_184\n  jumpi\n    /* \"#utility.yul\":11136:11137   */\n  0x02\n    /* \"#utility.yul\":11131:11322   */\n  dup2\n  eq\n  tag_185\n  jumpi\n    /* \"#utility.yul\":11045:11322   */\n  jump(tag_183)\n    /* \"#utility.yul\":11095:11122   */\ntag_184:\n    /* \"#utility.yul\":11113:11114   */\n  0x01\n    /* \"#utility.yul\":11104:11114   */\n  swap2\n  pop\n    /* \"#utility.yul\":11115:11120   */\n  pop\n  jump(tag_180)\n    /* \"#utility.yul\":11131:11322   */\ntag_185:\n    /* \"#utility.yul\":11176:11179   */\n  0xff\n    /* \"#utility.yul\":11166:11174   */\n  dup5\n    /* \"#utility.yul\":11163:11180   */\n  gt\n    /* \"#utility.yul\":11160:11203   */\n  iszero\n  tag_186\n  jumpi\n    /* \"#utility.yul\":11183:11201   */\n  tag_187\n  tag_51\n  jump\t// in\ntag_187:\n    /* \"#utility.yul\":11160:11203   */\ntag_186:\n    /* \"#utility.yul\":11232:11240   */\n  dup4\n    /* \"#utility.yul\":11229:11230   */\n  0x02\n    /* \"#utility.yul\":11225:11241   */\n  exp\n    /* \"#utility.yul\":11216:11241   */\n  swap2\n  pop\n    /* \"#utility.yul\":11267:11270   */\n  dup5\n    /* \"#utility.yul\":11260:11265   */\n  dup3\n    /* \"#utility.yul\":11257:11271   */\n  gt\n    /* \"#utility.yul\":11254:11294   */\n  iszero\n  tag_188\n  jumpi\n    /* \"#utility.yul\":11274:11292   */\n  tag_189\n  tag_51\n  jump\t// in\ntag_189:\n    /* \"#utility.yul\":11254:11294   */\ntag_188:\n    /* \"#utility.yul\":11307:11312   */\n  pop\n  jump(tag_180)\n    /* \"#utility.yul\":11045:11322   */\ntag_183:\n  pop\n    /* \"#utility.yul\":11431:11433   */\n  0x20\n    /* \"#utility.yul\":11421:11429   */\n  dup4\n    /* \"#utility.yul\":11418:11434   */\n  lt\n    /* \"#utility.yul\":11412:11415   */\n  0x0133\n    /* \"#utility.yul\":11406:11410   */\n  dup4\n    /* \"#utility.yul\":11403:11416   */\n  lt\n    /* \"#utility.yul\":11399:11435   */\n  and\n    /* \"#utility.yul\":11381:11383   */\n  0x4e\n    /* \"#utility.yul\":11371:11379   */\n  dup5\n    /* \"#utility.yul\":11368:11384   */\n  lt\n    /* \"#utility.yul\":11363:11365   */\n  0x0b\n    /* \"#utility.yul\":11357:11361   */\n  dup5\n    /* \"#utility.yul\":11354:11366   */\n  lt\n    /* \"#utility.yul\":11350:11385   */\n  and\n    /* \"#utility.yul\":11334:11445   */\n  or\n    /* \"#utility.yul\":11331:11577   */\n  iszero\n  tag_190\n  jumpi\n    /* \"#utility.yul\":11487:11495   */\n  dup3\n    /* \"#utility.yul\":11481:11485   */\n  dup3\n    /* \"#utility.yul\":11477:11496   */\n  exp\n    /* \"#utility.yul\":11468:11496   */\n  swap1\n  pop\n    /* \"#utility.yul\":11522:11525   */\n  dup4\n    /* \"#utility.yul\":11515:11520   */\n  dup2\n    /* \"#utility.yul\":11512:11526   */\n  gt\n    /* \"#utility.yul\":11509:11549   */\n  iszero\n  tag_191\n  jumpi\n    /* \"#utility.yul\":11529:11547   */\n  tag_192\n  tag_51\n  jump\t// in\ntag_192:\n    /* \"#utility.yul\":11509:11549   */\ntag_191:\n    /* \"#utility.yul\":11562:11567   */\n  jump(tag_180)\n    /* \"#utility.yul\":11331:11577   */\ntag_190:\n    /* \"#utility.yul\":11602:11644   */\n  tag_193\n    /* \"#utility.yul\":11640:11643   */\n  dup5\n    /* \"#utility.yul\":11630:11638   */\n  dup5\n    /* \"#utility.yul\":11624:11628   */\n  dup5\n    /* \"#utility.yul\":11621:11622   */\n  0x01\n    /* \"#utility.yul\":11602:11644   */\n  tag_53\n  jump\t// in\ntag_193:\n    /* \"#utility.yul\":11587:11644   */\n  swap3\n  pop\n  swap1\n  pop\n    /* \"#utility.yul\":11676:11680   */\n  dup2\n    /* \"#utility.yul\":11671:11674   */\n  dup5\n    /* \"#utility.yul\":11667:11681   */\n  div\n    /* \"#utility.yul\":11660:11665   */\n  dup2\n    /* \"#utility.yul\":11657:11682   */\n  gt\n    /* \"#utility.yul\":11654:11705   */\n  iszero\n  tag_194\n  jumpi\n    /* \"#utility.yul\":11685:11703   */\n  tag_195\n  tag_51\n  jump\t// in\ntag_195:\n    /* \"#utility.yul\":11654:11705   */\ntag_194:\n    /* \"#utility.yul\":11734:11738   */\n  dup2\n    /* \"#utility.yul\":11727:11732   */\n  dup2\n    /* \"#utility.yul\":11723:11739   */\n  mul\n    /* \"#utility.yul\":11714:11739   */\n  swap1\n  pop\n    /* \"#utility.yul\":10672:11745   */\ntag_180:\n  swap4\n  swap3\n  pop\n  pop\n  pop\n  jump\t// out\n    /* \"#utility.yul\":11751:12036   */\ntag_10:\n    /* \"#utility.yul\":11811:11816   */\n  0x00\n    /* \"#utility.yul\":11835:11858   */\n  tag_197\n    /* \"#utility.yul\":11853:11857   */\n  dup3\n    /* \"#utility.yul\":11835:11858   */\n  tag_30\n  jump\t// in\ntag_197:\n    /* \"#utility.yul\":11827:11858   */\n  swap2\n  pop\n    /* \"#utility.yul\":11879:11906   */\n  tag_198\n    /* \"#utility.yul\":11897:11905   */\n  dup4\n    /* \"#utility.yul\":11879:11906   */\n  tag_30\n  jump\t// in\ntag_198:\n    /* \"#utility.yul\":11867:11906   */\n  swap3\n  pop\n    /* \"#utility.yul\":11925:12029   */\n  tag_199\n    /* \"#utility.yul\":11962:12028   */\n  0xffffffffffffffffffffffffffffffffffffffffffffffffffffffffffffffff\n    /* \"#utility.yul\":11952:11960   */\n  dup5\n    /* \"#utility.yul\":11946:11950   */\n  dup5\n    /* \"#utility.yul\":11925:12029   */\n  tag_54\n  jump\t// in\ntag_199:\n    /* \"#utility.yul\":11916:12029   */\n  swap1\n  pop\n    /* \"#utility.yul\":11751:12036   */\n  swap3\n  swap2\n  pop\n  pop\n  jump\t// out\n    /* \"#utility.yul\":12042:12452   */\ntag_12:\n    /* \"#utility.yul\":12082:12089   */\n  0x00\n    /* \"#utility.yul\":12105:12125   */\n  tag_201\n    /* \"#utility.yul\":12123:12124   */\n  dup3\n    /* \"#utility.yul\":12105:12125   */\n  tag_30\n  jump\t// in\ntag_201:\n    /* \"#utility.yul\":12100:12125   */\n  swap2\n  pop\n    /* \"#utility.yul\":12139:12159   */\n  tag_202\n    /* \"#utility.yul\":12157:12158   */\n  dup4\n    /* \"#utility.yul\":12139:12159   */\n  tag_30\n  jump\t// in\ntag_202:\n    /* \"#utility.yul\":12134:12159   */\n  swap3\n  pop\n    /* \"#utility.yul\":12194:12195   */\n  dup3\n    /* \"#utility.yul\":12191:12192   */\n  dup3\n    /* \"#utility.yul\":12187:12196   */\n  mul\n    /* \"#utility.yul\":12216:12246   */\n  tag_203\n    /* \"#utility.yul\":12234:12245   */\n  dup2\n    /* \"#utility.yul\":12216:12246   */\n  tag_30\n  jump\t// in\ntag_203:\n    /* \"#utility.yul\":12205:12246   */\n  swap2\n  pop\n    /* \"#utility.yul\":12395:12396   */\n  dup3\n    /* \"#utility.yul\":12386:12393   */\n  dup3\n    /* \"#utility.yul\":12382:12397   */\n  div\n    /* \"#utility.yul\":12379:12380   */\n  dup5\n    /* \"#utility.yul\":12376:12398   */\n  eq\n    /* \"#utility.yul\":12356:12357   */\n  dup4\n    /* \"#utility.yul\":12349:12358   */\n  iszero\n    /* \"#utility.yul\":12329:12412   */\n  or\n    /* \"#utility.yul\":12306:12445   */\n  tag_204\n  jumpi\n    /* \"#utility.yul\":12425:12443   */\n  tag_205\n  tag_51\n  jump\t// in\ntag_205:\n    /* \"#utility.yul\":12306:12445   */\ntag_204:\n    /* \"#utility.yul\":12090:12452   */\n  pop\n    /* \"#utility.yul\":12042:12452   */\n  swap3\n  swap2\n  pop\n  pop\n  jump\t// out\n    /* \"mtx.sol\":60:1582  contract BurnableToken {... */\ntag_13:\n  dataSize(sub_0)\n  dup1\n  dataOffset(sub_0)\n  0x00\n  codecopy\n  0x00\n  return\nstop\n\nsub_0: assembly {\n        /* \"mtx.sol\":60:1582  contract BurnableToken {... */\n      mstore(0x40, 0x80)\n      callvalue\n      dup1\n      iszero\n      tag_1\n      jumpi\n      0x00\n      dup1\n      revert\n    tag_1:\n      pop\n      jumpi(tag_2, lt(calldatasize, 0x04))\n      shr(0xe0, calldataload(0x00))\n      dup1\n      0x42966c68\n      gt\n      tag_10\n      jumpi\n      dup1\n      0x42966c68\n      eq\n      tag_6\n      jumpi\n      dup1\n      0x70a08231\n      eq\n      tag_7\n      jumpi\n      dup1\n      0x95d89b41\n      eq\n      tag_8\n      jumpi\n      dup1\n      0xa9059cbb\n      eq\n      tag_9\n      jumpi\n      jump(tag_2)\n    tag_10:\n      dup1\n      0x06fdde03\n      eq\n      tag_3\n      jumpi\n      dup1\n      0x18160ddd\n      eq\n      tag_4\n      jumpi\n      dup1\n      0x313ce567\n      eq\n      tag_5\n      jumpi\n    tag_2:\n      0x00\n      dup1\n      revert\n        /* \"mtx.sol\":90:108  string public name */\n    tag_3:\n      tag_11\n      tag_12\n      jump\t// in\n    tag_11:\n      mload(0x40)\n      tag_13\n      swap2\n      swap1\n      tag_14\n      jump\t// in\n    tag_13:\n      mload(0x40)\n      dup1\n      swap2\n      sub\n      swap1\n      return\n        /* \"mtx.sol\":170:196  uint256 public totalSupply */\n    tag_4:\n      tag_15\n      tag_16\n      jump\t// in\n    tag_15:\n      mload(0x40)\n      tag_17\n      swap2\n      swap1\n      tag_18\n      jump\t// in\n    tag_17:\n      mload(0x40)\n      dup1\n      swap2\n      sub\n      swap1\n      return\n        /* \"mtx.sol\":142:163  uint8 public decimals */\n    tag_5:\n      tag_19\n      tag_20\n      jump\t// in\n    tag_19:\n      mload(0x40)\n      tag_21\n      swap2\n      swap1\n      tag_22\n      jump\t// in\n    tag_21:\n      mload(0x40)\n      dup1\n      swap2\n      sub\n      swap1\n      return\n        /* \"mtx.sol\":1305:1579  function burn(uint256 _amount) external {... */\n    tag_6:\n      tag_23\n      0x04\n      dup1\n      calldatasize\n      sub\n      dup2\n      add\n      swap1\n      tag_24\n      swap2\n      swap1\n      tag_25\n      jump\t// in\n    tag_24:\n      tag_26\n      jump\t// in\n    tag_23:\n      stop\n        /* \"mtx.sol\":817:926  function balanceOf(address _owner) external view returns (uint256) {... */\n    tag_7:\n      tag_27\n      0x04\n      dup1\n      calldatasize\n      sub\n      dup2\n      add\n      swap1\n      tag_28\n      swap2\n      swap1\n      tag_29\n      jump\t// in\n    tag_28:\n      tag_30\n      jump\t// in\n    tag_27:\n      mload(0x40)\n      tag_31\n      swap2\n      swap1\n      tag_18\n      jump\t// in\n    tag_31:\n      mload(0x40)\n      dup1\n      swap2\n      sub\n      swap1\n      return\n        /* \"mtx.sol\":115:135  string public symbol */\n    tag_8:\n      tag_32\n      tag_33\n      jump\t// in\n    tag_32:\n      mload(0x40)\n      tag_34\n      swap2\n      swap1\n      tag_14\n      jump\t// in\n    tag_34:\n      mload(0x40)\n      dup1\n      swap2\n      sub\n      swap1\n      return\n        /* \"mtx.sol\":935:1296  function transfer(address _to, uint256 _value) external  returns(bool){... */\n    tag_9:\n      tag_35\n      0x04\n      dup1\n      calldatasize\n      sub\n      dup2\n      add\n      swap1\n      tag_36\n      swap2\n      swap1\n      tag_37\n      jump\t// in\n    tag_36:\n      tag_38\n      jump\t// in\n    tag_35:\n      mload(0x40)\n      tag_39\n      swap2\n      swap1\n      tag_40\n      jump\t// in\n    tag_39:\n      mload(0x40)\n      dup1\n      swap2\n      sub\n      swap1\n      return\n        /* \"mtx.sol\":90:108  string public name */\n    tag_12:\n      0x00\n      dup1\n      sload\n      tag_41\n      swap1\n      tag_42\n      jump\t// in\n    tag_41:\n      dup1\n      0x1f\n      add\n      0x20\n      dup1\n      swap2\n      div\n      mul\n      0x20\n      add\n      mload(0x40)\n      swap1\n      dup2\n      add\n      0x40\n      mstore\n      dup1\n      swap3\n      swap2\n      swap1\n      dup2\n      dup2\n      mstore\n      0x20\n      add\n      dup3\n      dup1\n      sload\n      tag_43\n      swap1\n      tag_42\n      jump\t// in\n    tag_43:\n      dup1\n      iszero\n      tag_44\n      jumpi\n      dup1\n      0x1f\n      lt\n      tag_45\n      jumpi\n      0x0100\n      dup1\n      dup4\n      sload\n      div\n      mul\n      dup4\n      mstore\n      swap2\n      0x20\n      add\n      swap2\n      jump(tag_44)\n    tag_45:\n      dup3\n      add\n      swap2\n      swap1\n      0x00\n      mstore\n      keccak256(0x00, 0x20)\n      swap1\n    tag_46:\n      dup2\n      sload\n      dup2\n      mstore\n      swap1\n      0x01\n      add\n      swap1\n      0x20\n      add\n      dup1\n      dup4\n      gt\n      tag_46\n      jumpi\n      dup3\n      swap1\n      sub\n      0x1f\n      and\n      dup3\n      add\n      swap2\n    tag_44:\n      pop\n      pop\n      pop\n      pop\n      pop\n      dup2\n      jump\t// out\n        /* \"mtx.sol\":170:196  uint256 public totalSupply */\n    tag_16:\n      sload(0x03)\n      dup2\n      jump\t// out\n        /* \"mtx.sol\":142:163  uint8 public decimals */\n    tag_20:\n      0x02\n      0x00\n      swap1\n      sload\n      swap1\n      0x0100\n      exp\n      swap1\n      div\n      0xff\n      and\n      dup2\n      jump\t// out\n        /* \"mtx.sol\":1305:1579  function burn(uint256 _amount) external {... */\n    tag_26:\n        /* \"mtx.sol\":1374:1375  0 */\n      0x00\n        /* \"mtx.sol\":1364:1371  _amount */\n      dup2\n        /* \"mtx.sol\":1364:1375  _amount > 0 */\n      gt\n        /* \"mtx.sol\":1356:1412  require(_amount > 0, \"Amount must be greater than zero\") */\n      tag_48\n      jumpi\n      mload(0x40)\n      0x08c379a000000000000000000000000000000000000000000000000000000000\n      dup2\n      mstore\n      0x04\n      add\n      tag_49\n      swap1\n      tag_50\n      jump\t// in\n    tag_49:\n      mload(0x40)\n      dup1\n      swap2\n      sub\n      swap1\n      revert\n    tag_48:\n        /* \"mtx.sol\":1442:1450  balances */\n      0x04\n        /* \"mtx.sol\":1442:1462  balances[msg.sender] */\n      0x00\n        /* \"mtx.sol\":1451:1461  msg.sender */\n      caller\n        /* \"mtx.sol\":1442:1462  balances[msg.sender] */\n      0xffffffffffffffffffffffffffffffffffffffff\n      and\n      0xffffffffffffffffffffffffffffffffffffffff\n      and\n      dup2\n      mstore\n      0x20\n      add\n      swap1\n      dup2\n      mstore\n      0x20\n      add\n      0x00\n      keccak256\n      sload\n        /* \"mtx.sol\":1431:1438  _amount */\n      dup2\n        /* \"mtx.sol\":1431:1462  _amount <= balances[msg.sender] */\n      gt\n      iszero\n        /* \"mtx.sol\":1423:1487  require(_amount <= balances[msg.sender], \"Insufficient balance\") */\n      tag_51\n      jumpi\n      mload(0x40)\n      0x08c379a000000000000000000000000000000000000000000000000000000000\n      dup2\n      mstore\n      0x04\n      add\n      tag_52\n      swap1\n      tag_53\n      jump\t// in\n    tag_52:\n      mload(0x40)\n      dup1\n      swap2\n      sub\n      swap1\n      revert\n    tag_51:\n        /* \"mtx.sol\":1523:1530  _amount */\n      dup1\n        /* \"mtx.sol\":1508:1519  totalSupply */\n      0x03\n      0x00\n        /* \"mtx.sol\":1508:1530  totalSupply -= _amount */\n      dup3\n      dup3\n      sload\n      tag_54\n      swap2\n      swap1\n      tag_55\n      jump\t// in\n    tag_54:\n      swap3\n      pop\n      pop\n      dup2\n      swap1\n      sstore\n      pop\n        /* \"mtx.sol\":1551:1561  msg.sender */\n      caller\n        /* \"mtx.sol\":1546:1571  Burn(msg.sender, _amount) */\n      0xffffffffffffffffffffffffffffffffffffffff\n      and\n      0xcc16f5dbb4873280815c1ee09dbd06736cffcc184412cf7a71a0fdb75d397ca5\n        /* \"mtx.sol\":1563:1570  _amount */\n      dup3\n        /* \"mtx.sol\":1546:1571  Burn(msg.sender, _amount) */\n      mload(0x40)\n      tag_56\n      swap2\n      swap1\n      tag_18\n      jump\t// in\n    tag_56:\n      mload(0x40)\n      dup1\n      swap2\n      sub\n      swap1\n      log2\n        /* \"mtx.sol\":1305:1579  function burn(uint256 _amount) external {... */\n      pop\n      jump\t// out\n        /* \"mtx.sol\":817:926  function balanceOf(address _owner) external view returns (uint256) {... */\n    tag_30:\n        /* \"mtx.sol\":875:882  uint256 */\n      0x00\n        /* \"mtx.sol\":902:910  balances */\n      0x04\n        /* \"mtx.sol\":902:918  balances[_owner] */\n      0x00\n        /* \"mtx.sol\":911:917  _owner */\n      dup4\n        /* \"mtx.sol\":902:918  balances[_owner] */\n      0xffffffffffffffffffffffffffffffffffffffff\n      and\n      0xffffffffffffffffffffffffffffffffffffffff\n      and\n      dup2\n      mstore\n      0x20\n      add\n      swap1\n      dup2\n      mstore\n      0x20\n      add\n      0x00\n      keccak256\n      sload\n        /* \"mtx.sol\":895:918  return balances[_owner] */\n      swap1\n      pop\n        /* \"mtx.sol\":817:926  function balanceOf(address _owner) external view returns (uint256) {... */\n      swap2\n      swap1\n      pop\n      jump\t// out\n        /* \"mtx.sol\":115:135  string public symbol */\n    tag_33:\n      0x01\n      dup1\n      sload\n      tag_58\n      swap1\n      tag_42\n      jump\t// in\n    tag_58:\n      dup1\n      0x1f\n      add\n      0x20\n      dup1\n      swap2\n      div\n      mul\n      0x20\n      add\n      mload(0x40)\n      swap1\n      dup2\n      add\n      0x40\n      mstore\n      dup1\n      swap3\n      swap2\n      swap1\n      dup2\n      dup2\n      mstore\n      0x20\n      add\n      dup3\n      dup1\n      sload\n      tag_59\n      swap1\n      tag_42\n      jump\t// in\n    tag_59:\n      dup1\n      iszero\n      tag_60\n      jumpi\n      dup1\n      0x1f\n      lt\n      tag_61\n      jumpi\n      0x0100\n      dup1\n      dup4\n      sload\n      div\n      mul\n      dup4\n      mstore\n      swap2\n      0x20\n      add\n      swap2\n      jump(tag_60)\n    tag_61:\n      dup3\n      add\n      swap2\n      swap1\n      0x00\n      mstore\n      keccak256(0x00, 0x20)\n      swap1\n    tag_62:\n      dup2\n      sload\n      dup2\n      mstore\n      swap1\n      0x01\n      add\n      swap1\n      0x20\n      add\n      dup1\n      dup4\n      gt\n      tag_62\n      jumpi\n      dup3\n      swap1\n      sub\n      0x1f\n      and\n      dup3\n      add\n      swap2\n    tag_60:\n      pop\n      pop\n      pop\n      pop\n      pop\n      dup2\n      jump\t// out\n        /* \"mtx.sol\":935:1296  function transfer(address _to, uint256 _value) external  returns(bool){... */\n    tag_38:\n        /* \"mtx.sol\":1000:1004  bool */\n      0x00\n        /* \"mtx.sol\":1033:1034  0 */\n      dup1\n        /* \"mtx.sol\":1024:1030  _value */\n      dup3\n        /* \"mtx.sol\":1024:1034  _value > 0 */\n      gt\n        /* \"mtx.sol\":1016:1068  require(_value > 0, \"Amount must be greater than 0\") */\n      tag_64\n      jumpi\n      mload(0x40)\n      0x08c379a000000000000000000000000000000000000000000000000000000000\n      dup2\n      mstore\n      0x04\n      add\n      tag_65\n      swap1\n      tag_66\n      jump\t// in\n    tag_65:\n      mload(0x40)\n      dup1\n      swap2\n      sub\n      swap1\n      revert\n    tag_64:\n        /* \"mtx.sol\":1097:1105  balances */\n      0x04\n        /* \"mtx.sol\":1097:1117  balances[msg.sender] */\n      0x00\n        /* \"mtx.sol\":1106:1116  msg.sender */\n      caller\n        /* \"mtx.sol\":1097:1117  balances[msg.sender] */\n      0xffffffffffffffffffffffffffffffffffffffff\n      and\n      0xffffffffffffffffffffffffffffffffffffffff\n      and\n      dup2\n      mstore\n      0x20\n      add\n      swap1\n      dup2\n      mstore\n      0x20\n      add\n      0x00\n      keccak256\n      sload\n        /* \"mtx.sol\":1087:1093  _value */\n      dup3\n        /* \"mtx.sol\":1087:1117  _value <= balances[msg.sender] */\n      gt\n      iszero\n        /* \"mtx.sol\":1079:1142  require(_value <= balances[msg.sender], \"Insufficient balance\") */\n      tag_67\n      jumpi\n      mload(0x40)\n      0x08c379a000000000000000000000000000000000000000000000000000000000\n      dup2\n      mstore\n      0x04\n      add\n      tag_68\n      swap1\n      tag_53\n      jump\t// in\n    tag_68:\n      mload(0x40)\n      dup1\n      swap2\n      sub\n      swap1\n      revert\n    tag_67:\n        /* \"mtx.sol\":1177:1183  _value */\n      dup2\n        /* \"mtx.sol\":1153:1161  balances */\n      0x04\n        /* \"mtx.sol\":1153:1173  balances[msg.sender] */\n      0x00\n        /* \"mtx.sol\":1162:1172  msg.sender */\n      caller\n        /* \"mtx.sol\":1153:1173  balances[msg.sender] */\n      0xffffffffffffffffffffffffffffffffffffffff\n      and\n      0xffffffffffffffffffffffffffffffffffffffff\n      and\n      dup2\n      mstore\n      0x20\n      add\n      swap1\n      dup2\n      mstore\n      0x20\n      add\n      0x00\n      keccak256\n      0x00\n        /* \"mtx.sol\":1153:1183  balances[msg.sender] -= _value */\n      dup3\n      dup3\n      sload\n      tag_69\n      swap2\n      swap1\n      tag_55\n      jump\t// in\n    tag_69:\n      swap3\n      pop\n      pop\n      dup2\n      swap1\n      sstore\n      pop\n        /* \"mtx.sol\":1211:1217  _value */\n      dup2\n        /* \"mtx.sol\":1194:1202  balances */\n      0x04\n        /* \"mtx.sol\":1194:1207  balances[_to] */\n      0x00\n        /* \"mtx.sol\":1203:1206  _to */\n      dup6\n        /* \"mtx.sol\":1194:1207  balances[_to] */\n      0xffffffffffffffffffffffffffffffffffffffff\n      and\n      0xffffffffffffffffffffffffffffffffffffffff\n      and\n      dup2\n      mstore\n      0x20\n      add\n      swap1\n      dup2\n      mstore\n      0x20\n      add\n      0x00\n      keccak256\n      0x00\n        /* \"mtx.sol\":1194:1217  balances[_to] += _value */\n      dup3\n      dup3\n      sload\n      tag_70\n      swap2\n      swap1\n      tag_71\n      jump\t// in\n    tag_70:\n      swap3\n      pop\n      pop\n      dup2\n      swap1\n      sstore\n      pop\n        /* \"mtx.sol\":1254:1257  _to */\n      dup3\n        /* \"mtx.sol\":1233:1266  Transfer(msg.sender, _to, _value) */\n      0xffffffffffffffffffffffffffffffffffffffff\n      and\n        /* \"mtx.sol\":1242:1252  msg.sender */\n      caller\n        /* \"mtx.sol\":1233:1266  Transfer(msg.sender, _to, _value) */\n      0xffffffffffffffffffffffffffffffffffffffff\n      and\n      0xddf252ad1be2c89b69c2b068fc378daa952ba7f163c4a11628f55a4df523b3ef\n        /* \"mtx.sol\":1259:1265  _value */\n      dup5\n        /* \"mtx.sol\":1233:1266  Transfer(msg.sender, _to, _value) */\n      mload(0x40)\n      tag_72\n      swap2\n      swap1\n      tag_18\n      jump\t// in\n    tag_72:\n      mload(0x40)\n      dup1\n      swap2\n      sub\n      swap1\n      log3\n        /* \"mtx.sol\":1284:1288  true */\n      0x01\n        /* \"mtx.sol\":1277:1288  return true */\n      swap1\n      pop\n        /* \"mtx.sol\":935:1296  function transfer(address _to, uint256 _value) external  returns(bool){... */\n      swap3\n      swap2\n      pop\n      pop\n      jump\t// out\n        /* \"#utility.yul\":7:106   */\n    tag_73:\n        /* \"#utility.yul\":59:65   */\n      0x00\n        /* \"#utility.yul\":93:98   */\n      dup2\n        /* \"#utility.yul\":87:99   */\n      mload\n        /* \"#utility.yul\":77:99   */\n      swap1\n      pop\n        /* \"#utility.yul\":7:106   */\n      swap2\n      swap1\n      pop\n      jump\t// out\n        /* \"#utility.yul\":112:281   */\n    tag_74:\n        /* \"#utility.yul\":196:207   */\n      0x00\n        /* \"#utility.yul\":230:236   */\n      dup3\n        /* \"#utility.yul\":225:228   */\n      dup3\n        /* \"#utility.yul\":218:237   */\n      mstore\n        /* \"#utility.yul\":270:274   */\n      0x20\n        /* \"#utility.yul\":265:268   */\n      dup3\n        /* \"#utility.yul\":261:275   */\n      add\n        /* \"#utility.yul\":246:275   */\n      swap1\n      pop\n        /* \"#utility.yul\":112:281   */\n      swap3\n      swap2\n      pop\n      pop\n      jump\t// out\n        /* \"#utility.yul\":287:533   */\n    tag_75:\n        /* \"#utility.yul\":368:369   */\n      0x00\n        /* \"#utility.yul\":378:491   */\n    tag_105:\n        /* \"#utility.yul\":392:398   */\n      dup4\n        /* \"#utility.yul\":389:390   */\n      dup2\n        /* \"#utility.yul\":386:399   */\n      lt\n        /* \"#utility.yul\":378:491   */\n      iszero\n      tag_107\n      jumpi\n        /* \"#utility.yul\":477:478   */\n      dup1\n        /* \"#utility.yul\":472:475   */\n      dup3\n        /* \"#utility.yul\":468:479   */\n      add\n        /* \"#utility.yul\":462:480   */\n      mload\n        /* \"#utility.yul\":458:459   */\n      dup2\n        /* \"#utility.yul\":453:456   */\n      dup5\n        /* \"#utility.yul\":449:460   */\n      add\n        /* \"#utility.yul\":442:481   */\n      mstore\n        /* \"#utility.yul\":414:416   */\n      0x20\n        /* \"#utility.yul\":411:412   */\n      dup2\n        /* \"#utility.yul\":407:417   */\n      add\n        /* \"#utility.yul\":402:417   */\n      swap1\n      pop\n        /* \"#utility.yul\":378:491   */\n      jump(tag_105)\n    tag_107:\n        /* \"#utility.yul\":525:526   */\n      0x00\n        /* \"#utility.yul\":516:522   */\n      dup5\n        /* \"#utility.yul\":511:514   */\n      dup5\n        /* \"#utility.yul\":507:523   */\n      add\n        /* \"#utility.yul\":500:527   */\n      mstore\n        /* \"#utility.yul\":349:533   */\n      pop\n        /* \"#utility.yul\":287:533   */\n      pop\n      pop\n      pop\n      jump\t// out\n        /* \"#utility.yul\":539:641   */\n    tag_76:\n        /* \"#utility.yul\":580:586   */\n      0x00\n        /* \"#utility.yul\":631:633   */\n      0x1f\n        /* \"#utility.yul\":627:634   */\n      not\n        /* \"#utility.yul\":622:624   */\n      0x1f\n        /* \"#utility.yul\":615:620   */\n      dup4\n        /* \"#utility.yul\":611:625   */\n      add\n        /* \"#utility.yul\":607:635   */\n      and\n        /* \"#utility.yul\":597:635   */\n      swap1\n      pop\n        /* \"#utility.yul\":539:641   */\n      swap2\n      swap1\n      pop\n      jump\t// out\n        /* \"#utility.yul\":647:1024   */\n    tag_77:\n        /* \"#utility.yul\":735:738   */\n      0x00\n        /* \"#utility.yul\":763:802   */\n      tag_110\n        /* \"#utility.yul\":796:801   */\n      dup3\n        /* \"#utility.yul\":763:802   */\n      tag_73\n      jump\t// in\n    tag_110:\n        /* \"#utility.yul\":818:889   */\n      tag_111\n        /* \"#utility.yul\":882:888   */\n      dup2\n        /* \"#utility.yul\":877:880   */\n      dup6\n        /* \"#utility.yul\":818:889   */\n      tag_74\n      jump\t// in\n    tag_111:\n        /* \"#utility.yul\":811:889   */\n      swap4\n      pop\n        /* \"#utility.yul\":898:963   */\n      tag_112\n        /* \"#utility.yul\":956:962   */\n      dup2\n        /* \"#utility.yul\":951:954   */\n      dup6\n        /* \"#utility.yul\":944:948   */\n      0x20\n        /* \"#utility.yul\":937:942   */\n      dup7\n        /* \"#utility.yul\":933:949   */\n      add\n        /* \"#utility.yul\":898:963   */\n      tag_75\n      jump\t// in\n    tag_112:\n        /* \"#utility.yul\":988:1017   */\n      tag_113\n        /* \"#utility.yul\":1010:1016   */\n      dup2\n        /* \"#utility.yul\":988:1017   */\n      tag_76\n      jump\t// in\n    tag_113:\n        /* \"#utility.yul\":983:986   */\n      dup5\n        /* \"#utility.yul\":979:1018   */\n      add\n        /* \"#utility.yul\":972:1018   */\n      swap2\n      pop\n        /* \"#utility.yul\":739:1024   */\n      pop\n        /* \"#utility.yul\":647:1024   */\n      swap3\n      swap2\n      pop\n      pop\n      jump\t// out\n        /* \"#utility.yul\":1030:1343   */\n    tag_14:\n        /* \"#utility.yul\":1143:1147   */\n      0x00\n        /* \"#utility.yul\":1181:1183   */\n      0x20\n        /* \"#utility.yul\":1170:1179   */\n      dup3\n        /* \"#utility.yul\":1166:1184   */\n      add\n        /* \"#utility.yul\":1158:1184   */\n      swap1\n      pop\n        /* \"#utility.yul\":1230:1239   */\n      dup2\n        /* \"#utility.yul\":1224:1228   */\n      dup2\n        /* \"#utility.yul\":1220:1240   */\n      sub\n        /* \"#utility.yul\":1216:1217   */\n      0x00\n        /* \"#utility.yul\":1205:1214   */\n      dup4\n        /* \"#utility.yul\":1201:1218   */\n      add\n        /* \"#utility.yul\":1194:1241   */\n      mstore\n        /* \"#utility.yul\":1258:1336   */\n      tag_115\n        /* \"#utility.yul\":1331:1335   */\n      dup2\n        /* \"#utility.yul\":1322:1328   */\n      dup5\n        /* \"#utility.yul\":1258:1336   */\n      tag_77\n      jump\t// in\n    tag_115:\n        /* \"#utility.yul\":1250:1336   */\n      swap1\n      pop\n        /* \"#utility.yul\":1030:1343   */\n      swap3\n      swap2\n      pop\n      pop\n      jump\t// out\n        /* \"#utility.yul\":1349:1426   */\n    tag_78:\n        /* \"#utility.yul\":1386:1393   */\n      0x00\n        /* \"#utility.yul\":1415:1420   */\n      dup2\n        /* \"#utility.yul\":1404:1420   */\n      swap1\n      pop\n        /* \"#utility.yul\":1349:1426   */\n      swap2\n      swap1\n      pop\n      jump\t// out\n        /* \"#utility.yul\":1432:1550   */\n    tag_79:\n        /* \"#utility.yul\":1519:1543   */\n      tag_118\n        /* \"#utility.yul\":1537:1542   */\n      dup2\n        /* \"#utility.yul\":1519:1543   */\n      tag_78\n      jump\t// in\n    tag_118:\n        /* \"#utility.yul\":1514:1517   */\n      dup3\n        /* \"#utility.yul\":1507:1544   */\n      mstore\n        /* \"#utility.yul\":1432:1550   */\n      pop\n      pop\n      jump\t// out\n        /* \"#utility.yul\":1556:1778   */\n    tag_18:\n        /* \"#utility.yul\":1649:1653   */\n      0x00\n        /* \"#utility.yul\":1687:1689   */\n      0x20\n        /* \"#utility.yul\":1676:1685   */\n      dup3\n        /* \"#utility.yul\":1672:1690   */\n      add\n        /* \"#utility.yul\":1664:1690   */\n      swap1\n      pop\n        /* \"#utility.yul\":1700:1771   */\n      tag_120\n        /* \"#utility.yul\":1768:1769   */\n      0x00\n        /* \"#utility.yul\":1757:1766   */\n      dup4\n        /* \"#utility.yul\":1753:1770   */\n      add\n        /* \"#utility.yul\":1744:1750   */\n      dup5\n        /* \"#utility.yul\":1700:1771   */\n      tag_79\n      jump\t// in\n    tag_120:\n        /* \"#utility.yul\":1556:1778   */\n      swap3\n      swap2\n      pop\n      pop\n      jump\t// out\n        /* \"#utility.yul\":1784:1870   */\n    tag_80:\n        /* \"#utility.yul\":1819:1826   */\n      0x00\n        /* \"#utility.yul\":1859:1863   */\n      0xff\n        /* \"#utility.yul\":1852:1857   */\n      dup3\n        /* \"#utility.yul\":1848:1864   */\n      and\n        /* \"#utility.yul\":1837:1864   */\n      swap1\n      pop\n        /* \"#utility.yul\":1784:1870   */\n      swap2\n      swap1\n      pop\n      jump\t// out\n        /* \"#utility.yul\":1876:1988   */\n    tag_81:\n        /* \"#utility.yul\":1959:1981   */\n      tag_123\n        /* \"#utility.yul\":1975:1980   */\n      dup2\n        /* \"#utility.yul\":1959:1981   */\n      tag_80\n      jump\t// in\n    tag_123:\n        /* \"#utility.yul\":1954:1957   */\n      dup3\n        /* \"#utility.yul\":1947:1982   */\n      mstore\n        /* \"#utility.yul\":1876:1988   */\n      pop\n      pop\n      jump\t// out\n        /* \"#utility.yul\":1994:2208   */\n    tag_22:\n        /* \"#utility.yul\":2083:2087   */\n      0x00\n        /* \"#utility.yul\":2121:2123   */\n      0x20\n        /* \"#utility.yul\":2110:2119   */\n      dup3\n        /* \"#utility.yul\":2106:2124   */\n      add\n        /* \"#utility.yul\":2098:2124   */\n      swap1\n      pop\n        /* \"#utility.yul\":2134:2201   */\n      tag_125\n        /* \"#utility.yul\":2198:2199   */\n      0x00\n        /* \"#utility.yul\":2187:2196   */\n      dup4\n        /* \"#utility.yul\":2183:2200   */\n      add\n        /* \"#utility.yul\":2174:2180   */\n      dup5\n        /* \"#utility.yul\":2134:2201   */\n      tag_81\n      jump\t// in\n    tag_125:\n        /* \"#utility.yul\":1994:2208   */\n      swap3\n      swap2\n      pop\n      pop\n      jump\t// out\n        /* \"#utility.yul\":2295:2412   */\n    tag_83:\n        /* \"#utility.yul\":2404:2405   */\n      0x00\n        /* \"#utility.yul\":2401:2402   */\n      dup1\n        /* \"#utility.yul\":2394:2406   */\n      revert\n        /* \"#utility.yul\":2541:2663   */\n    tag_85:\n        /* \"#utility.yul\":2614:2638   */\n      tag_130\n        /* \"#utility.yul\":2632:2637   */\n      dup2\n        /* \"#utility.yul\":2614:2638   */\n      tag_78\n      jump\t// in\n    tag_130:\n        /* \"#utility.yul\":2607:2612   */\n      dup2\n        /* \"#utility.yul\":2604:2639   */\n      eq\n        /* \"#utility.yul\":2594:2657   */\n      tag_131\n      jumpi\n        /* \"#utility.yul\":2653:2654   */\n      0x00\n        /* \"#utility.yul\":2650:2651   */\n      dup1\n        /* \"#utility.yul\":2643:2655   */\n      revert\n        /* \"#utility.yul\":2594:2657   */\n    tag_131:\n        /* \"#utility.yul\":2541:2663   */\n      pop\n      jump\t// out\n        /* \"#utility.yul\":2669:2808   */\n    tag_86:\n        /* \"#utility.yul\":2715:2720   */\n      0x00\n        /* \"#utility.yul\":2753:2759   */\n      dup2\n        /* \"#utility.yul\":2740:2760   */\n      calldataload\n        /* \"#utility.yul\":2731:2760   */\n      swap1\n      pop\n        /* \"#utility.yul\":2769:2802   */\n      tag_133\n        /* \"#utility.yul\":2796:2801   */\n      dup2\n        /* \"#utility.yul\":2769:2802   */\n      tag_85\n      jump\t// in\n    tag_133:\n        /* \"#utility.yul\":2669:2808   */\n      swap3\n      swap2\n      pop\n      pop\n      jump\t// out\n        /* \"#utility.yul\":2814:3143   */\n    tag_25:\n        /* \"#utility.yul\":2873:2879   */\n      0x00\n        /* \"#utility.yul\":2922:2924   */\n      0x20\n        /* \"#utility.yul\":2910:2919   */\n      dup3\n        /* \"#utility.yul\":2901:2908   */\n      dup5\n        /* \"#utility.yul\":2897:2920   */\n      sub\n        /* \"#utility.yul\":2893:2925   */\n      slt\n        /* \"#utility.yul\":2890:3009   */\n      iszero\n      tag_135\n      jumpi\n        /* \"#utility.yul\":2928:3007   */\n      tag_136\n      tag_83\n      jump\t// in\n    tag_136:\n        /* \"#utility.yul\":2890:3009   */\n    tag_135:\n        /* \"#utility.yul\":3048:3049   */\n      0x00\n        /* \"#utility.yul\":3073:3126   */\n      tag_137\n        /* \"#utility.yul\":3118:3125   */\n      dup5\n        /* \"#utility.yul\":3109:3115   */\n      dup3\n        /* \"#utility.yul\":3098:3107   */\n      dup6\n        /* \"#utility.yul\":3094:3116   */\n      add\n        /* \"#utility.yul\":3073:3126   */\n      tag_86\n      jump\t// in\n    tag_137:\n        /* \"#utility.yul\":3063:3126   */\n      swap2\n      pop\n        /* \"#utility.yul\":3019:3136   */\n      pop\n        /* \"#utility.yul\":2814:3143   */\n      swap3\n      swap2\n      pop\n      pop\n      jump\t// out\n        /* \"#utility.yul\":3149:3275   */\n    tag_87:\n        /* \"#utility.yul\":3186:3193   */\n      0x00\n        /* \"#utility.yul\":3226:3268   */\n      0xffffffffffffffffffffffffffffffffffffffff\n        /* \"#utility.yul\":3219:3224   */\n      dup3\n        /* \"#utility.yul\":3215:3269   */\n      and\n        /* \"#utility.yul\":3204:3269   */\n      swap1\n      pop\n        /* \"#utility.yul\":3149:3275   */\n      swap2\n      swap1\n      pop\n      jump\t// out\n        /* \"#utility.yul\":3281:3377   */\n    tag_88:\n        /* \"#utility.yul\":3318:3325   */\n      0x00\n        /* \"#utility.yul\":3347:3371   */\n      tag_140\n        /* \"#utility.yul\":3365:3370   */\n      dup3\n        /* \"#utility.yul\":3347:3371   */\n      tag_87\n      jump\t// in\n    tag_140:\n        /* \"#utility.yul\":3336:3371   */\n      swap1\n      pop\n        /* \"#utility.yul\":3281:3377   */\n      swap2\n      swap1\n      pop\n      jump\t// out\n        /* \"#utility.yul\":3383:3505   */\n    tag_89:\n        /* \"#utility.yul\":3456:3480   */\n      tag_142\n        /* \"#utility.yul\":3474:3479   */\n      dup2\n        /* \"#utility.yul\":3456:3480   */\n      tag_88\n      jump\t// in\n    tag_142:\n        /* \"#utility.yul\":3449:3454   */\n      dup2\n        /* \"#utility.yul\":3446:3481   */\n      eq\n        /* \"#utility.yul\":3436:3499   */\n      tag_143\n      jumpi\n        /* \"#utility.yul\":3495:3496   */\n      0x00\n        /* \"#utility.yul\":3492:3493   */\n      dup1\n        /* \"#utility.yul\":3485:3497   */\n      revert\n        /* \"#utility.yul\":3436:3499   */\n    tag_143:\n        /* \"#utility.yul\":3383:3505   */\n      pop\n      jump\t// out\n        /* \"#utility.yul\":3511:3650   */\n    tag_90:\n        /* \"#utility.yul\":3557:3562   */\n      0x00\n        /* \"#utility.yul\":3595:3601   */\n      dup2\n        /* \"#utility.yul\":3582:3602   */\n      calldataload\n        /* \"#utility.yul\":3573:3602   */\n      swap1\n      pop\n        /* \"#utility.yul\":3611:3644   */\n      tag_145\n        /* \"#utility.yul\":3638:3643   */\n      dup2\n        /* \"#utility.yul\":3611:3644   */\n      tag_89\n      jump\t// in\n    tag_145:\n        /* \"#utility.yul\":3511:3650   */\n      swap3\n      swap2\n      pop\n      pop\n      jump\t// out\n        /* \"#utility.yul\":3656:3985   */\n    tag_29:\n        /* \"#utility.yul\":3715:3721   */\n      0x00\n        /* \"#utility.yul\":3764:3766   */\n      0x20\n        /* \"#utility.yul\":3752:3761   */\n      dup3\n        /* \"#utility.yul\":3743:3750   */\n      dup5\n        /* \"#utility.yul\":3739:3762   */\n      sub\n        /* \"#utility.yul\":3735:3767   */\n      slt\n        /* \"#utility.yul\":3732:3851   */\n      iszero\n      tag_147\n      jumpi\n        /* \"#utility.yul\":3770:3849   */\n      tag_148\n      tag_83\n      jump\t// in\n    tag_148:\n        /* \"#utility.yul\":3732:3851   */\n    tag_147:\n        /* \"#utility.yul\":3890:3891   */\n      0x00\n        /* \"#utility.yul\":3915:3968   */\n      tag_149\n        /* \"#utility.yul\":3960:3967   */\n      dup5\n        /* \"#utility.yul\":3951:3957   */\n      dup3\n        /* \"#utility.yul\":3940:3949   */\n      dup6\n        /* \"#utility.yul\":3936:3958   */\n      add\n        /* \"#utility.yul\":3915:3968   */\n      tag_90\n      jump\t// in\n    tag_149:\n        /* \"#utility.yul\":3905:3968   */\n      swap2\n      pop\n        /* \"#utility.yul\":3861:3978   */\n      pop\n        /* \"#utility.yul\":3656:3985   */\n      swap3\n      swap2\n      pop\n      pop\n      jump\t// out\n        /* \"#utility.yul\":3991:4465   */\n    tag_37:\n        /* \"#utility.yul\":4059:4065   */\n      0x00\n        /* \"#utility.yul\":4067:4073   */\n      dup1\n        /* \"#utility.yul\":4116:4118   */\n      0x40\n        /* \"#utility.yul\":4104:4113   */\n      dup4\n        /* \"#utility.yul\":4095:4102   */\n      dup6\n        /* \"#utility.yul\":4091:4114   */\n      sub\n        /* \"#utility.yul\":4087:4119   */\n      slt\n        /* \"#utility.yul\":4084:4203   */\n      iszero\n      tag_151\n      jumpi\n        /* \"#utility.yul\":4122:4201   */\n      tag_152\n      tag_83\n      jump\t// in\n    tag_152:\n        /* \"#utility.yul\":4084:4203   */\n    tag_151:\n        /* \"#utility.yul\":4242:4243   */\n      0x00\n        /* \"#utility.yul\":4267:4320   */\n      tag_153\n        /* \"#utility.yul\":4312:4319   */\n      dup6\n        /* \"#utility.yul\":4303:4309   */\n      dup3\n        /* \"#utility.yul\":4292:4301   */\n      dup7\n        /* \"#utility.yul\":4288:4310   */\n      add\n        /* \"#utility.yul\":4267:4320   */\n      tag_90\n      jump\t// in\n    tag_153:\n        /* \"#utility.yul\":4257:4320   */\n      swap3\n      pop\n        /* \"#utility.yul\":4213:4330   */\n      pop\n        /* \"#utility.yul\":4369:4371   */\n      0x20\n        /* \"#utility.yul\":4395:4448   */\n      tag_154\n        /* \"#utility.yul\":4440:4447   */\n      dup6\n        /* \"#utility.yul\":4431:4437   */\n      dup3\n        /* \"#utility.yul\":4420:4429   */\n      dup7\n        /* \"#utility.yul\":4416:4438   */\n      add\n        /* \"#utility.yul\":4395:4448   */\n      tag_86\n      jump\t// in\n    tag_154:\n        /* \"#utility.yul\":4385:4448   */\n      swap2\n      pop\n        /* \"#utility.yul\":4340:4458   */\n      pop\n        /* \"#utility.yul\":3991:4465   */\n      swap3\n      pop\n      swap3\n      swap1\n      pop\n      jump\t// out\n        /* \"#utility.yul\":4471:4561   */\n    tag_91:\n        /* \"#utility.yul\":4505:4512   */\n      0x00\n        /* \"#utility.yul\":4548:4553   */\n      dup2\n        /* \"#utility.yul\":4541:4554   */\n      iszero\n        /* \"#utility.yul\":4534:4555   */\n      iszero\n        /* \"#utility.yul\":4523:4555   */\n      swap1\n      pop\n        /* \"#utility.yul\":4471:4561   */\n      swap2\n      swap1\n      pop\n      jump\t// out\n        /* \"#utility.yul\":4567:4676   */\n    tag_92:\n        /* \"#utility.yul\":4648:4669   */\n      tag_157\n        /* \"#utility.yul\":4663:4668   */\n      dup2\n        /* \"#utility.yul\":4648:4669   */\n      tag_91\n      jump\t// in\n    tag_157:\n        /* \"#utility.yul\":4643:4646   */\n      dup3\n        /* \"#utility.yul\":4636:4670   */\n      mstore\n        /* \"#utility.yul\":4567:4676   */\n      pop\n      pop\n      jump\t// out\n        /* \"#utility.yul\":4682:4892   */\n    tag_40:\n        /* \"#utility.yul\":4769:4773   */\n      0x00\n        /* \"#utility.yul\":4807:4809   */\n      0x20\n        /* \"#utility.yul\":4796:4805   */\n      dup3\n        /* \"#utility.yul\":4792:4810   */\n      add\n        /* \"#utility.yul\":4784:4810   */\n      swap1\n      pop\n        /* \"#utility.yul\":4820:4885   */\n      tag_159\n        /* \"#utility.yul\":4882:4883   */\n      0x00\n        /* \"#utility.yul\":4871:4880   */\n      dup4\n        /* \"#utility.yul\":4867:4884   */\n      add\n        /* \"#utility.yul\":4858:4864   */\n      dup5\n        /* \"#utility.yul\":4820:4885   */\n      tag_92\n      jump\t// in\n    tag_159:\n        /* \"#utility.yul\":4682:4892   */\n      swap3\n      swap2\n      pop\n      pop\n      jump\t// out\n        /* \"#utility.yul\":4898:5078   */\n    tag_93:\n        /* \"#utility.yul\":4946:5023   */\n      0x4e487b7100000000000000000000000000000000000000000000000000000000\n        /* \"#utility.yul\":4943:4944   */\n      0x00\n        /* \"#utility.yul\":4936:5024   */\n      mstore\n        /* \"#utility.yul\":5043:5047   */\n      0x22\n        /* \"#utility.yul\":5040:5041   */\n      0x04\n        /* \"#utility.yul\":5033:5048   */\n      mstore\n        /* \"#utility.yul\":5067:5071   */\n      0x24\n        /* \"#utility.yul\":5064:5065   */\n      0x00\n        /* \"#utility.yul\":5057:5072   */\n      revert\n        /* \"#utility.yul\":5084:5404   */\n    tag_42:\n        /* \"#utility.yul\":5128:5134   */\n      0x00\n        /* \"#utility.yul\":5165:5166   */\n      0x02\n        /* \"#utility.yul\":5159:5163   */\n      dup3\n        /* \"#utility.yul\":5155:5167   */\n      div\n        /* \"#utility.yul\":5145:5167   */\n      swap1\n      pop\n        /* \"#utility.yul\":5212:5213   */\n      0x01\n        /* \"#utility.yul\":5206:5210   */\n      dup3\n        /* \"#utility.yul\":5202:5214   */\n      and\n        /* \"#utility.yul\":5233:5251   */\n      dup1\n        /* \"#utility.yul\":5223:5304   */\n      tag_162\n      jumpi\n        /* \"#utility.yul\":5289:5293   */\n      0x7f\n        /* \"#utility.yul\":5281:5287   */\n      dup3\n        /* \"#utility.yul\":5277:5294   */\n      and\n        /* \"#utility.yul\":5267:5294   */\n      swap2\n      pop\n        /* \"#utility.yul\":5223:5304   */\n    tag_162:\n        /* \"#utility.yul\":5351:5353   */\n      0x20\n        /* \"#utility.yul\":5343:5349   */\n      dup3\n        /* \"#utility.yul\":5340:5354   */\n      lt\n        /* \"#utility.yul\":5320:5338   */\n      dup2\n        /* \"#utility.yul\":5317:5355   */\n      sub\n        /* \"#utility.yul\":5314:5398   */\n      tag_163\n      jumpi\n        /* \"#utility.yul\":5370:5388   */\n      tag_164\n      tag_93\n      jump\t// in\n    tag_164:\n        /* \"#utility.yul\":5314:5398   */\n    tag_163:\n        /* \"#utility.yul\":5135:5404   */\n      pop\n        /* \"#utility.yul\":5084:5404   */\n      swap2\n      swap1\n      pop\n      jump\t// out\n        /* \"#utility.yul\":5410:5592   */\n    tag_94:\n        /* \"#utility.yul\":5550:5584   */\n      0x416d6f756e74206d7573742062652067726561746572207468616e207a65726f\n        /* \"#utility.yul\":5546:5547   */\n      0x00\n        /* \"#utility.yul\":5538:5544   */\n      dup3\n        /* \"#utility.yul\":5534:5548   */\n      add\n        /* \"#utility.yul\":5527:5585   */\n      mstore\n        /* \"#utility.yul\":5410:5592   */\n      pop\n      jump\t// out\n        /* \"#utility.yul\":5598:5964   */\n    tag_95:\n        /* \"#utility.yul\":5740:5743   */\n      0x00\n        /* \"#utility.yul\":5761:5828   */\n      tag_167\n        /* \"#utility.yul\":5825:5827   */\n      0x20\n        /* \"#utility.yul\":5820:5823   */\n      dup4\n        /* \"#utility.yul\":5761:5828   */\n      tag_74\n      jump\t// in\n    tag_167:\n        /* \"#utility.yul\":5754:5828   */\n      swap2\n      pop\n        /* \"#utility.yul\":5837:5930   */\n      tag_168\n        /* \"#utility.yul\":5926:5929   */\n      dup3\n        /* \"#utility.yul\":5837:5930   */\n      tag_94\n      jump\t// in\n    tag_168:\n        /* \"#utility.yul\":5955:5957   */\n      0x20\n        /* \"#utility.yul\":5950:5953   */\n      dup3\n        /* \"#utility.yul\":5946:5958   */\n      add\n        /* \"#utility.yul\":5939:5958   */\n      swap1\n      pop\n        /* \"#utility.yul\":5598:5964   */\n      swap2\n      swap1\n      pop\n      jump\t// out\n        /* \"#utility.yul\":5970:6389   */\n    tag_50:\n        /* \"#utility.yul\":6136:6140   */\n      0x00\n        /* \"#utility.yul\":6174:6176   */\n      0x20\n        /* \"#utility.yul\":6163:6172   */\n      dup3\n        /* \"#utility.yul\":6159:6177   */\n      add\n        /* \"#utility.yul\":6151:6177   */\n      swap1\n      pop\n        /* \"#utility.yul\":6223:6232   */\n      dup2\n        /* \"#utility.yul\":6217:6221   */\n      dup2\n        /* \"#utility.yul\":6213:6233   */\n      sub\n        /* \"#utility.yul\":6209:6210   */\n      0x00\n        /* \"#utility.yul\":6198:6207   */\n      dup4\n        /* \"#utility.yul\":6194:6211   */\n      add\n        /* \"#utility.yul\":6187:6234   */\n      mstore\n        /* \"#utility.yul\":6251:6382   */\n      tag_170\n        /* \"#utility.yul\":6377:6381   */\n      dup2\n        /* \"#utility.yul\":6251:6382   */\n      tag_95\n      jump\t// in\n    tag_170:\n        /* \"#utility.yul\":6243:6382   */\n      swap1\n      pop\n        /* \"#utility.yul\":5970:6389   */\n      swap2\n      swap1\n      pop\n      jump\t// out\n        /* \"#utility.yul\":6395:6565   */\n    tag_96:\n        /* \"#utility.yul\":6535:6557   */\n      0x496e73756666696369656e742062616c616e6365000000000000000000000000\n        /* \"#utility.yul\":6531:6532   */\n      0x00\n        /* \"#utility.yul\":6523:6529   */\n      dup3\n        /* \"#utility.yul\":6519:6533   */\n      add\n        /* \"#utility.yul\":6512:6558   */\n      mstore\n        /* \"#utility.yul\":6395:6565   */\n      pop\n      jump\t// out\n        /* \"#utility.yul\":6571:6937   */\n    tag_97:\n        /* \"#utility.yul\":6713:6716   */\n      0x00\n        /* \"#utility.yul\":6734:6801   */\n      tag_173\n        /* \"#utility.yul\":6798:6800   */\n      0x14\n        /* \"#utility.yul\":6793:6796   */\n      dup4\n        /* \"#utility.yul\":6734:6801   */\n      tag_74\n      jump\t// in\n    tag_173:\n        /* \"#utility.yul\":6727:6801   */\n      swap2\n      pop\n        /* \"#utility.yul\":6810:6903   */\n      tag_174\n        /* \"#utility.yul\":6899:6902   */\n      dup3\n        /* \"#utility.yul\":6810:6903   */\n      tag_96\n      jump\t// in\n    tag_174:\n        /* \"#utility.yul\":6928:6930   */\n      0x20\n        /* \"#utility.yul\":6923:6926   */\n      dup3\n        /* \"#utility.yul\":6919:6931   */\n      add\n        /* \"#utility.yul\":6912:6931   */\n      swap1\n      pop\n        /* \"#utility.yul\":6571:6937   */\n      swap2\n      swap1\n      pop\n      jump\t// out\n        /* \"#utility.yul\":6943:7362   */\n    tag_53:\n        /* \"#utility.yul\":7109:7113   */\n      0x00\n        /* \"#utility.yul\":7147:7149   */\n      0x20\n        /* \"#utility.yul\":7136:7145   */\n      dup3\n        /* \"#utility.yul\":7132:7150   */\n      add\n        /* \"#utility.yul\":7124:7150   */\n      swap1\n      pop\n        /* \"#utility.yul\":7196:7205   */\n      dup2\n        /* \"#utility.yul\":7190:7194   */\n      dup2\n        /* \"#utility.yul\":7186:7206   */\n      sub\n        /* \"#utility.yul\":7182:7183   */\n      0x00\n        /* \"#utility.yul\":7171:7180   */\n      dup4\n        /* \"#utility.yul\":7167:7184   */\n      add\n        /* \"#utility.yul\":7160:7207   */\n      mstore\n        /* \"#utility.yul\":7224:7355   */\n      tag_176\n        /* \"#utility.yul\":7350:7354   */\n      dup2\n        /* \"#utility.yul\":7224:7355   */\n      tag_97\n      jump\t// in\n    tag_176:\n        /* \"#utility.yul\":7216:7355   */\n      swap1\n      pop\n        /* \"#utility.yul\":6943:7362   */\n      swap2\n      swap1\n      pop\n      jump\t// out\n        /* \"#utility.yul\":7368:7548   */\n    tag_98:\n        /* \"#utility.yul\":7416:7493   */\n      0x4e487b7100000000000000000000000000000000000000000000000000000000\n        /* \"#utility.yul\":7413:7414   */\n      0x00\n        /* \"#utility.yul\":7406:7494   */\n      mstore\n        /* \"#utility.yul\":7513:7517   */\n      0x11\n        /* \"#utility.yul\":7510:7511   */\n      0x04\n        /* \"#utility.yul\":7503:7518   */\n      mstore\n        /* \"#utility.yul\":7537:7541   */\n      0x24\n        /* \"#utility.yul\":7534:7535   */\n      0x00\n        /* \"#utility.yul\":7527:7542   */\n      revert\n        /* \"#utility.yul\":7554:7748   */\n    tag_55:\n        /* \"#utility.yul\":7594:7598   */\n      0x00\n        /* \"#utility.yul\":7614:7634   */\n      tag_179\n        /* \"#utility.yul\":7632:7633   */\n      dup3\n        /* \"#utility.yul\":7614:7634   */\n      tag_78\n      jump\t// in\n    tag_179:\n        /* \"#utility.yul\":7609:7634   */\n      swap2\n      pop\n        /* \"#utility.yul\":7648:7668   */\n      tag_180\n        /* \"#utility.yul\":7666:7667   */\n      dup4\n        /* \"#utility.yul\":7648:7668   */\n      tag_78\n      jump\t// in\n    tag_180:\n        /* \"#utility.yul\":7643:7668   */\n      swap3\n      pop\n        /* \"#utility.yul\":7692:7693   */\n      dup3\n        /* \"#utility.yul\":7689:7690   */\n      dup3\n        /* \"#utility.yul\":7685:7694   */\n      sub\n        /* \"#utility.yul\":7677:7694   */\n      swap1\n      pop\n        /* \"#utility.yul\":7716:7717   */\n      dup2\n        /* \"#utility.yul\":7710:7714   */\n      dup2\n        /* \"#utility.yul\":7707:7718   */\n      gt\n        /* \"#utility.yul\":7704:7741   */\n      iszero\n      tag_181\n      jumpi\n        /* \"#utility.yul\":7721:7739   */\n      tag_182\n      tag_98\n      jump\t// in\n    tag_182:\n        /* \"#utility.yul\":7704:7741   */\n    tag_181:\n        /* \"#utility.yul\":7554:7748   */\n      swap3\n      swap2\n      pop\n      pop\n      jump\t// out\n        /* \"#utility.yul\":7754:7933   */\n    tag_99:\n        /* \"#utility.yul\":7894:7925   */\n      0x416d6f756e74206d7573742062652067726561746572207468616e2030000000\n        /* \"#utility.yul\":7890:7891   */\n      0x00\n        /* \"#utility.yul\":7882:7888   */\n      dup3\n        /* \"#utility.yul\":7878:7892   */\n      add\n        /* \"#utility.yul\":7871:7926   */\n      mstore\n        /* \"#utility.yul\":7754:7933   */\n      pop\n      jump\t// out\n        /* \"#utility.yul\":7939:8305   */\n    tag_100:\n        /* \"#utility.yul\":8081:8084   */\n      0x00\n        /* \"#utility.yul\":8102:8169   */\n      tag_185\n        /* \"#utility.yul\":8166:8168   */\n      0x1d\n        /* \"#utility.yul\":8161:8164   */\n      dup4\n        /* \"#utility.yul\":8102:8169   */\n      tag_74\n      jump\t// in\n    tag_185:\n        /* \"#utility.yul\":8095:8169   */\n      swap2\n      pop\n        /* \"#utility.yul\":8178:8271   */\n      tag_186\n        /* \"#utility.yul\":8267:8270   */\n      dup3\n        /* \"#utility.yul\":8178:8271   */\n      tag_99\n      jump\t// in\n    tag_186:\n        /* \"#utility.yul\":8296:8298   */\n      0x20\n        /* \"#utility.yul\":8291:8294   */\n      dup3\n        /* \"#utility.yul\":8287:8299   */\n      add\n        /* \"#utility.yul\":8280:8299   */\n      swap1\n      pop\n        /* \"#utility.yul\":7939:8305   */\n      swap2\n      swap1\n      pop\n      jump\t// out\n        /* \"#utility.yul\":8311:8730   */\n    tag_66:\n        /* \"#utility.yul\":8477:8481   */\n      0x00\n        /* \"#utility.yul\":8515:8517   */\n      0x20\n        /* \"#utility.yul\":8504:8513   */\n      dup3\n        /* \"#utility.yul\":8500:8518   */\n      add\n        /* \"#utility.yul\":8492:8518   */\n      swap1\n      pop\n        /* \"#utility.yul\":8564:8573   */\n      dup2\n        /* \"#utility.yul\":8558:8562   */\n      dup2\n        /* \"#utility.yul\":8554:8574   */\n      sub\n        /* \"#utility.yul\":8550:8551   */\n      0x00\n        /* \"#utility.yul\":8539:8548   */\n      dup4\n        /* \"#utility.yul\":8535:8552   */\n      add\n        /* \"#utility.yul\":8528:8575   */\n      mstore\n        /* \"#utility.yul\":8592:8723   */\n      tag_188\n        /* \"#utility.yul\":8718:8722   */\n      dup2\n        /* \"#utility.yul\":8592:8723   */\n      tag_100\n      jump\t// in\n    tag_188:\n        /* \"#utility.yul\":8584:8723   */\n      swap1\n      pop\n        /* \"#utility.yul\":8311:8730   */\n      swap2\n      swap1\n      pop\n      jump\t// out\n        /* \"#utility.yul\":8736:8927   */\n    tag_71:\n        /* \"#utility.yul\":8776:8779   */\n      0x00\n        /* \"#utility.yul\":8795:8815   */\n      tag_190\n        /* \"#utility.yul\":8813:8814   */\n      dup3\n        /* \"#utility.yul\":8795:8815   */\n      tag_78\n      jump\t// in\n    tag_190:\n        /* \"#utility.yul\":8790:8815   */\n      swap2\n      pop\n        /* \"#utility.yul\":8829:8849   */\n      tag_191\n        /* \"#utility.yul\":8847:8848   */\n      dup4\n        /* \"#utility.yul\":8829:8849   */\n      tag_78\n      jump\t// in\n    tag_191:\n        /* \"#utility.yul\":8824:8849   */\n      swap3\n      pop\n        /* \"#utility.yul\":8872:8873   */\n      dup3\n        /* \"#utility.yul\":8869:8870   */\n      dup3\n        /* \"#utility.yul\":8865:8874   */\n      add\n        /* \"#utility.yul\":8858:8874   */\n      swap1\n      pop\n        /* \"#utility.yul\":8893:8896   */\n      dup1\n        /* \"#utility.yul\":8890:8891   */\n      dup3\n        /* \"#utility.yul\":8887:8897   */\n      gt\n        /* \"#utility.yul\":8884:8920   */\n      iszero\n      tag_192\n      jumpi\n        /* \"#utility.yul\":8900:8918   */\n      tag_193\n      tag_98\n      jump\t// in\n    tag_193:\n        /* \"#utility.yul\":8884:8920   */\n    tag_192:\n        /* \"#utility.yul\":8736:8927   */\n      swap3\n      swap2\n      pop\n      pop\n      jump\t// out\n\n    auxdata: 0xa264697066735822122064115b107a69082c26580a55e355b670fd39366e6fac7ecc43bd1b4cf5119bc164736f6c63430008120033\n}\n",
				"bytecode": {
					"linkReferences": {},
					"object": "60806040523480156200001157600080fd5b50604051620013ef380380620013ef8339818101604052810190620000379190620002f7565b8360009081620000489190620005e8565b5082600190816200005a9190620005e8565b5081600260006101000a81548160ff021916908360ff1602179055508160ff16600a62000088919062000852565b81620000959190620008a3565b600381905550600354600460003373ffffffffffffffffffffffffffffffffffffffff1673ffffffffffffffffffffffffffffffffffffffff1681526020019081526020016000208190555050505050620008ee565b6000604051905090565b600080fd5b600080fd5b600080fd5b600080fd5b6000601f19601f8301169050919050565b7f4e487b7100000000000000000000000000000000000000000000000000000000600052604160045260246000fd5b620001548262000109565b810181811067ffffffffffffffff821117156200017657620001756200011a565b5b80604052505050565b60006200018b620000eb565b905062000199828262000149565b919050565b600067ffffffffffffffff821115620001bc57620001bb6200011a565b5b620001c78262000109565b9050602081019050919050565b60005b83811015620001f4578082015181840152602081019050620001d7565b60008484015250505050565b60006200021762000211846200019e565b6200017f565b90508281526020810184848401111562000236576200023562000104565b5b62000243848285620001d4565b509392505050565b600082601f830112620002635762000262620000ff565b5b81516200027584826020860162000200565b91505092915050565b600060ff82169050919050565b62000296816200027e565b8114620002a257600080fd5b50565b600081519050620002b6816200028b565b92915050565b6000819050919050565b620002d181620002bc565b8114620002dd57600080fd5b50565b600081519050620002f181620002c6565b92915050565b60008060008060808587031215620003145762000313620000f5565b5b600085015167ffffffffffffffff811115620003355762000334620000fa565b5b62000343878288016200024b565b945050602085015167ffffffffffffffff811115620003675762000366620000fa565b5b62000375878288016200024b565b93505060406200038887828801620002a5565b92505060606200039b87828801620002e0565b91505092959194509250565b600081519050919050565b7f4e487b7100000000000000000000000000000000000000000000000000000000600052602260045260246000fd5b60006002820490506001821680620003fa57607f821691505b60208210810362000410576200040f620003b2565b5b50919050565b60008190508160005260206000209050919050565b60006020601f8301049050919050565b600082821b905092915050565b6000600883026200047a7fffffffffffffffffffffffffffffffffffffffffffffffffffffffffffffffff826200043b565b6200048686836200043b565b95508019841693508086168417925050509392505050565b6000819050919050565b6000620004c9620004c3620004bd84620002bc565b6200049e565b620002bc565b9050919050565b6000819050919050565b620004e583620004a8565b620004fd620004f482620004d0565b84845462000448565b825550505050565b600090565b6200051462000505565b62000521818484620004da565b505050565b5b8181101562000549576200053d6000826200050a565b60018101905062000527565b5050565b601f8211156200059857620005628162000416565b6200056d846200042b565b810160208510156200057d578190505b620005956200058c856200042b565b83018262000526565b50505b505050565b600082821c905092915050565b6000620005bd600019846008026200059d565b1980831691505092915050565b6000620005d88383620005aa565b9150826002028217905092915050565b620005f382620003a7565b67ffffffffffffffff8111156200060f576200060e6200011a565b5b6200061b8254620003e1565b620006288282856200054d565b600060209050601f8311600181146200066057600084156200064b578287015190505b620006578582620005ca565b865550620006c7565b601f198416620006708662000416565b60005b828110156200069a5784890151825560018201915060208501945060208101905062000673565b86831015620006ba5784890151620006b6601f891682620005aa565b8355505b6001600288020188555050505b505050505050565b7f4e487b7100000000000000000000000000000000000000000000000000000000600052601160045260246000fd5b60008160011c9050919050565b6000808291508390505b60018511156200075d57808604811115620007355762000734620006cf565b5b6001851615620007455780820291505b80810290506200075585620006fe565b945062000715565b94509492505050565b6000826200077857600190506200084b565b816200078857600090506200084b565b8160018114620007a15760028114620007ac57620007e2565b60019150506200084b565b60ff841115620007c157620007c0620006cf565b5b8360020a915084821115620007db57620007da620006cf565b5b506200084b565b5060208310610133831016604e8410600b84101617156200081c5782820a905083811115620008165762000815620006cf565b5b6200084b565b6200082b84848460016200070b565b92509050818404811115620008455762000844620006cf565b5b81810290505b9392505050565b60006200085f82620002bc565b91506200086c83620002bc565b92506200089b7fffffffffffffffffffffffffffffffffffffffffffffffffffffffffffffffff848462000766565b905092915050565b6000620008b082620002bc565b9150620008bd83620002bc565b9250828202620008cd81620002bc565b91508282048414831517620008e757620008e6620006cf565b5b5092915050565b610af180620008fe6000396000f3fe608060405234801561001057600080fd5b506004361061007d5760003560e01c806342966c681161005b57806342966c68146100dc57806370a08231146100f857806395d89b4114610128578063a9059cbb146101465761007d565b806306fdde031461008257806318160ddd146100a0578063313ce567146100be575b600080fd5b61008a610176565b6040516100979190610694565b60405180910390f35b6100a8610204565b6040516100b591906106cf565b60405180910390f35b6100c661020a565b6040516100d39190610706565b60405180910390f35b6100f660048036038101906100f19190610752565b61021d565b005b610112600480360381019061010d91906107dd565b61034c565b60405161011f91906106cf565b60405180910390f35b610130610395565b60405161013d9190610694565b60405180910390f35b610160600480360381019061015b919061080a565b610423565b60405161016d9190610865565b60405180910390f35b60008054610183906108af565b80601f01602080910402602001604051908101604052809291908181526020018280546101af906108af565b80156101fc5780601f106101d1576101008083540402835291602001916101fc565b820191906000526020600020905b8154815290600101906020018083116101df57829003601f168201915b505050505081565b60035481565b600260009054906101000a900460ff1681565b60008111610260576040517f08c379a00000000000000000000000000000000000000000000000000000000081526004016102579061092c565b60405180910390fd5b600460003373ffffffffffffffffffffffffffffffffffffffff1673ffffffffffffffffffffffffffffffffffffffff168152602001908152602001600020548111156102e2576040517f08c379a00000000000000000000000000000000000000000000000000000000081526004016102d990610998565b60405180910390fd5b80600360008282546102f491906109e7565b925050819055503373ffffffffffffffffffffffffffffffffffffffff167fcc16f5dbb4873280815c1ee09dbd06736cffcc184412cf7a71a0fdb75d397ca58260405161034191906106cf565b60405180910390a250565b6000600460008373ffffffffffffffffffffffffffffffffffffffff1673ffffffffffffffffffffffffffffffffffffffff168152602001908152602001600020549050919050565b600180546103a2906108af565b80601f01602080910402602001604051908101604052809291908181526020018280546103ce906108af565b801561041b5780601f106103f05761010080835404028352916020019161041b565b820191906000526020600020905b8154815290600101906020018083116103fe57829003601f168201915b505050505081565b6000808211610467576040517f08c379a000000000000000000000000000000000000000000000000000000000815260040161045e90610a67565b60405180910390fd5b600460003373ffffffffffffffffffffffffffffffffffffffff1673ffffffffffffffffffffffffffffffffffffffff168152602001908152602001600020548211156104e9576040517f08c379a00000000000000000000000000000000000000000000000000000000081526004016104e090610998565b60405180910390fd5b81600460003373ffffffffffffffffffffffffffffffffffffffff1673ffffffffffffffffffffffffffffffffffffffff168152602001908152602001600020600082825461053891906109e7565b9250508190555081600460008573ffffffffffffffffffffffffffffffffffffffff1673ffffffffffffffffffffffffffffffffffffffff168152602001908152602001600020600082825461058e9190610a87565b925050819055508273ffffffffffffffffffffffffffffffffffffffff163373ffffffffffffffffffffffffffffffffffffffff167fddf252ad1be2c89b69c2b068fc378daa952ba7f163c4a11628f55a4df523b3ef846040516105f291906106cf565b60405180910390a36001905092915050565b600081519050919050565b600082825260208201905092915050565b60005b8381101561063e578082015181840152602081019050610623565b60008484015250505050565b6000601f19601f8301169050919050565b600061066682610604565b610670818561060f565b9350610680818560208601610620565b6106898161064a565b840191505092915050565b600060208201905081810360008301526106ae818461065b565b905092915050565b6000819050919050565b6106c9816106b6565b82525050565b60006020820190506106e460008301846106c0565b92915050565b600060ff82169050919050565b610700816106ea565b82525050565b600060208201905061071b60008301846106f7565b92915050565b600080fd5b61072f816106b6565b811461073a57600080fd5b50565b60008135905061074c81610726565b92915050565b60006020828403121561076857610767610721565b5b60006107768482850161073d565b91505092915050565b600073ffffffffffffffffffffffffffffffffffffffff82169050919050565b60006107aa8261077f565b9050919050565b6107ba8161079f565b81146107c557600080fd5b50565b6000813590506107d7816107b1565b92915050565b6000602082840312156107f3576107f2610721565b5b6000610801848285016107c8565b91505092915050565b6000806040838503121561082157610820610721565b5b600061082f858286016107c8565b92505060206108408582860161073d565b9150509250929050565b60008115159050919050565b61085f8161084a565b82525050565b600060208201905061087a6000830184610856565b92915050565b7f4e487b7100000000000000000000000000000000000000000000000000000000600052602260045260246000fd5b600060028204905060018216806108c757607f821691505b6020821081036108da576108d9610880565b5b50919050565b7f416d6f756e74206d7573742062652067726561746572207468616e207a65726f600082015250565b600061091660208361060f565b9150610921826108e0565b602082019050919050565b6000602082019050818103600083015261094581610909565b9050919050565b7f496e73756666696369656e742062616c616e6365000000000000000000000000600082015250565b600061098260148361060f565b915061098d8261094c565b602082019050919050565b600060208201905081810360008301526109b181610975565b9050919050565b7f4e487b7100000000000000000000000000000000000000000000000000000000600052601160045260246000fd5b60006109f2826106b6565b91506109fd836106b6565b9250828203905081811115610a1557610a146109b8565b5b92915050565b7f416d6f756e74206d7573742062652067726561746572207468616e2030000000600082015250565b6000610a51601d8361060f565b9150610a5c82610a1b565b602082019050919050565b60006020820190508181036000830152610a8081610a44565b9050919050565b6000610a92826106b6565b9150610a9d836106b6565b9250828201905080821115610ab557610ab46109b8565b5b9291505056fea264697066735822122064115b107a69082c26580a55e355b670fd39366e6fac7ecc43bd1b4cf5119bc164736f6c63430008120033",
					"opcodes": "PUSH1 0x80 PUSH1 0x40 MSTORE CALLVALUE DUP1 ISZERO PUSH3 0x11 JUMPI PUSH1 0x0 DUP1 REVERT JUMPDEST POP PUSH1 0x40 MLOAD PUSH3 0x13EF CODESIZE SUB DUP1 PUSH3 0x13EF DUP4 CODECOPY DUP2 DUP2 ADD PUSH1 0x40 MSTORE DUP2 ADD SWAP1 PUSH3 0x37 SWAP2 SWAP1 PUSH3 0x2F7 JUMP JUMPDEST DUP4 PUSH1 0x0 SWAP1 DUP2 PUSH3 0x48 SWAP2 SWAP1 PUSH3 0x5E8 JUMP JUMPDEST POP DUP3 PUSH1 0x1 SWAP1 DUP2 PUSH3 0x5A SWAP2 SWAP1 PUSH3 0x5E8 JUMP JUMPDEST POP DUP2 PUSH1 0x2 PUSH1 0x0 PUSH2 0x100 EXP DUP2 SLOAD DUP2 PUSH1 0xFF MUL NOT AND SWAP1 DUP4 PUSH1 0xFF AND MUL OR SWAP1 SSTORE POP DUP2 PUSH1 0xFF AND PUSH1 0xA PUSH3 0x88 SWAP2 SWAP1 PUSH3 0x852 JUMP JUMPDEST DUP2 PUSH3 0x95 SWAP2 SWAP1 PUSH3 0x8A3 JUMP JUMPDEST PUSH1 0x3 DUP2 SWAP1 SSTORE POP PUSH1 0x3 SLOAD PUSH1 0x4 PUSH1 0x0 CALLER PUSH20 0xFFFFFFFFFFFFFFFFFFFFFFFFFFFFFFFFFFFFFFFF AND PUSH20 0xFFFFFFFFFFFFFFFFFFFFFFFFFFFFFFFFFFFFFFFF AND DUP2 MSTORE PUSH1 0x20 ADD SWAP1 DUP2 MSTORE PUSH1 0x20 ADD PUSH1 0x0 KECCAK256 DUP2 SWAP1 SSTORE POP POP POP POP POP PUSH3 0x8EE JUMP JUMPDEST PUSH1 0x0 PUSH1 0x40 MLOAD SWAP1 POP SWAP1 JUMP JUMPDEST PUSH1 0x0 DUP1 REVERT JUMPDEST PUSH1 0x0 DUP1 REVERT JUMPDEST PUSH1 0x0 DUP1 REVERT JUMPDEST PUSH1 0x0 DUP1 REVERT JUMPDEST PUSH1 0x0 PUSH1 0x1F NOT PUSH1 0x1F DUP4 ADD AND SWAP1 POP SWAP2 SWAP1 POP JUMP JUMPDEST PUSH32 0x4E487B7100000000000000000000000000000000000000000000000000000000 PUSH1 0x0 MSTORE PUSH1 0x41 PUSH1 0x4 MSTORE PUSH1 0x24 PUSH1 0x0 REVERT JUMPDEST PUSH3 0x154 DUP3 PUSH3 0x109 JUMP JUMPDEST DUP2 ADD DUP2 DUP2 LT PUSH8 0xFFFFFFFFFFFFFFFF DUP3 GT OR ISZERO PUSH3 0x176 JUMPI PUSH3 0x175 PUSH3 0x11A JUMP JUMPDEST JUMPDEST DUP1 PUSH1 0x40 MSTORE POP POP POP JUMP JUMPDEST PUSH1 0x0 PUSH3 0x18B PUSH3 0xEB JUMP JUMPDEST SWAP1 POP PUSH3 0x199 DUP3 DUP3 PUSH3 0x149 JUMP JUMPDEST SWAP2 SWAP1 POP JUMP JUMPDEST PUSH1 0x0 PUSH8 0xFFFFFFFFFFFFFFFF DUP3 GT ISZERO PUSH3 0x1BC JUMPI PUSH3 0x1BB PUSH3 0x11A JUMP JUMPDEST JUMPDEST PUSH3 0x1C7 DUP3 PUSH3 0x109 JUMP JUMPDEST SWAP1 POP PUSH1 0x20 DUP2 ADD SWAP1 POP SWAP2 SWAP1 POP JUMP JUMPDEST PUSH1 0x0 JUMPDEST DUP4 DUP2 LT ISZERO PUSH3 0x1F4 JUMPI DUP1 DUP3 ADD MLOAD DUP2 DUP5 ADD MSTORE PUSH1 0x20 DUP2 ADD SWAP1 POP PUSH3 0x1D7 JUMP JUMPDEST PUSH1 0x0 DUP5 DUP5 ADD MSTORE POP POP POP POP JUMP JUMPDEST PUSH1 0x0 PUSH3 0x217 PUSH3 0x211 DUP5 PUSH3 0x19E JUMP JUMPDEST PUSH3 0x17F JUMP JUMPDEST SWAP1 POP DUP3 DUP2 MSTORE PUSH1 0x20 DUP2 ADD DUP5 DUP5 DUP5 ADD GT ISZERO PUSH3 0x236 JUMPI PUSH3 0x235 PUSH3 0x104 JUMP JUMPDEST JUMPDEST PUSH3 0x243 DUP5 DUP3 DUP6 PUSH3 0x1D4 JUMP JUMPDEST POP SWAP4 SWAP3 POP POP POP JUMP JUMPDEST PUSH1 0x0 DUP3 PUSH1 0x1F DUP4 ADD SLT PUSH3 0x263 JUMPI PUSH3 0x262 PUSH3 0xFF JUMP JUMPDEST JUMPDEST DUP2 MLOAD PUSH3 0x275 DUP5 DUP3 PUSH1 0x20 DUP7 ADD PUSH3 0x200 JUMP JUMPDEST SWAP2 POP POP SWAP3 SWAP2 POP POP JUMP JUMPDEST PUSH1 0x0 PUSH1 0xFF DUP3 AND SWAP1 POP SWAP2 SWAP1 POP JUMP JUMPDEST PUSH3 0x296 DUP2 PUSH3 0x27E JUMP JUMPDEST DUP2 EQ PUSH3 0x2A2 JUMPI PUSH1 0x0 DUP1 REVERT JUMPDEST POP JUMP JUMPDEST PUSH1 0x0 DUP2 MLOAD SWAP1 POP PUSH3 0x2B6 DUP2 PUSH3 0x28B JUMP JUMPDEST SWAP3 SWAP2 POP POP JUMP JUMPDEST PUSH1 0x0 DUP2 SWAP1 POP SWAP2 SWAP1 POP JUMP JUMPDEST PUSH3 0x2D1 DUP2 PUSH3 0x2BC JUMP JUMPDEST DUP2 EQ PUSH3 0x2DD JUMPI PUSH1 0x0 DUP1 REVERT JUMPDEST POP JUMP JUMPDEST PUSH1 0x0 DUP2 MLOAD SWAP1 POP PUSH3 0x2F1 DUP2 PUSH3 0x2C6 JUMP JUMPDEST SWAP3 SWAP2 POP POP JUMP JUMPDEST PUSH1 0x0 DUP1 PUSH1 0x0 DUP1 PUSH1 0x80 DUP6 DUP8 SUB SLT ISZERO PUSH3 0x314 JUMPI PUSH3 0x313 PUSH3 0xF5 JUMP JUMPDEST JUMPDEST PUSH1 0x0 DUP6 ADD MLOAD PUSH8 0xFFFFFFFFFFFFFFFF DUP2 GT ISZERO PUSH3 0x335 JUMPI PUSH3 0x334 PUSH3 0xFA JUMP JUMPDEST JUMPDEST PUSH3 0x343 DUP8 DUP3 DUP9 ADD PUSH3 0x24B JUMP JUMPDEST SWAP5 POP POP PUSH1 0x20 DUP6 ADD MLOAD PUSH8 0xFFFFFFFFFFFFFFFF DUP2 GT ISZERO PUSH3 0x367 JUMPI PUSH3 0x366 PUSH3 0xFA JUMP JUMPDEST JUMPDEST PUSH3 0x375 DUP8 DUP3 DUP9 ADD PUSH3 0x24B JUMP JUMPDEST SWAP4 POP POP PUSH1 0x40 PUSH3 0x388 DUP8 DUP3 DUP9 ADD PUSH3 0x2A5 JUMP JUMPDEST SWAP3 POP POP PUSH1 0x60 PUSH3 0x39B DUP8 DUP3 DUP9 ADD PUSH3 0x2E0 JUMP JUMPDEST SWAP2 POP POP SWAP3 SWAP6 SWAP2 SWAP5 POP SWAP3 POP JUMP JUMPDEST PUSH1 0x0 DUP2 MLOAD SWAP1 POP SWAP2 SWAP1 POP JUMP JUMPDEST PUSH32 0x4E487B7100000000000000000000000000000000000000000000000000000000 PUSH1 0x0 MSTORE PUSH1 0x22 PUSH1 0x4 MSTORE PUSH1 0x24 PUSH1 0x0 REVERT JUMPDEST PUSH1 0x0 PUSH1 0x2 DUP3 DIV SWAP1 POP PUSH1 0x1 DUP3 AND DUP1 PUSH3 0x3FA JUMPI PUSH1 0x7F DUP3 AND SWAP2 POP JUMPDEST PUSH1 0x20 DUP3 LT DUP2 SUB PUSH3 0x410 JUMPI PUSH3 0x40F PUSH3 0x3B2 JUMP JUMPDEST JUMPDEST POP SWAP2 SWAP1 POP JUMP JUMPDEST PUSH1 0x0 DUP2 SWAP1 POP DUP2 PUSH1 0x0 MSTORE PUSH1 0x20 PUSH1 0x0 KECCAK256 SWAP1 POP SWAP2 SWAP1 POP JUMP JUMPDEST PUSH1 0x0 PUSH1 0x20 PUSH1 0x1F DUP4 ADD DIV SWAP1 POP SWAP2 SWAP1 POP JUMP JUMPDEST PUSH1 0x0 DUP3 DUP3 SHL SWAP1 POP SWAP3 SWAP2 POP POP JUMP JUMPDEST PUSH1 0x0 PUSH1 0x8 DUP4 MUL PUSH3 0x47A PUSH32 0xFFFFFFFFFFFFFFFFFFFFFFFFFFFFFFFFFFFFFFFFFFFFFFFFFFFFFFFFFFFFFFFF DUP3 PUSH3 0x43B JUMP JUMPDEST PUSH3 0x486 DUP7 DUP4 PUSH3 0x43B JUMP JUMPDEST SWAP6 POP DUP1 NOT DUP5 AND SWAP4 POP DUP1 DUP7 AND DUP5 OR SWAP3 POP POP POP SWAP4 SWAP3 POP POP POP JUMP JUMPDEST PUSH1 0x0 DUP2 SWAP1 POP SWAP2 SWAP1 POP JUMP JUMPDEST PUSH1 0x0 PUSH3 0x4C9 PUSH3 0x4C3 PUSH3 0x4BD DUP5 PUSH3 0x2BC JUMP JUMPDEST PUSH3 0x49E JUMP JUMPDEST PUSH3 0x2BC JUMP JUMPDEST SWAP1 POP SWAP2 SWAP1 POP JUMP JUMPDEST PUSH1 0x0 DUP2 SWAP1 POP SWAP2 SWAP1 POP JUMP JUMPDEST PUSH3 0x4E5 DUP4 PUSH3 0x4A8 JUMP JUMPDEST PUSH3 0x4FD PUSH3 0x4F4 DUP3 PUSH3 0x4D0 JUMP JUMPDEST DUP5 DUP5 SLOAD PUSH3 0x448 JUMP JUMPDEST DUP3 SSTORE POP POP POP POP JUMP JUMPDEST PUSH1 0x0 SWAP1 JUMP JUMPDEST PUSH3 0x514 PUSH3 0x505 JUMP JUMPDEST PUSH3 0x521 DUP2 DUP5 DUP5 PUSH3 0x4DA JUMP JUMPDEST POP POP POP JUMP JUMPDEST JUMPDEST DUP2 DUP2 LT ISZERO PUSH3 0x549 JUMPI PUSH3 0x53D PUSH1 0x0 DUP3 PUSH3 0x50A JUMP JUMPDEST PUSH1 0x1 DUP2 ADD SWAP1 POP PUSH3 0x527 JUMP JUMPDEST POP POP JUMP JUMPDEST PUSH1 0x1F DUP3 GT ISZERO PUSH3 0x598 JUMPI PUSH3 0x562 DUP2 PUSH3 0x416 JUMP JUMPDEST PUSH3 0x56D DUP5 PUSH3 0x42B JUMP JUMPDEST DUP2 ADD PUSH1 0x20 DUP6 LT ISZERO PUSH3 0x57D JUMPI DUP2 SWAP1 POP JUMPDEST PUSH3 0x595 PUSH3 0x58C DUP6 PUSH3 0x42B JUMP JUMPDEST DUP4 ADD DUP3 PUSH3 0x526 JUMP JUMPDEST POP POP JUMPDEST POP POP POP JUMP JUMPDEST PUSH1 0x0 DUP3 DUP3 SHR SWAP1 POP SWAP3 SWAP2 POP POP JUMP JUMPDEST PUSH1 0x0 PUSH3 0x5BD PUSH1 0x0 NOT DUP5 PUSH1 0x8 MUL PUSH3 0x59D JUMP JUMPDEST NOT DUP1 DUP4 AND SWAP2 POP POP SWAP3 SWAP2 POP POP JUMP JUMPDEST PUSH1 0x0 PUSH3 0x5D8 DUP4 DUP4 PUSH3 0x5AA JUMP JUMPDEST SWAP2 POP DUP3 PUSH1 0x2 MUL DUP3 OR SWAP1 POP SWAP3 SWAP2 POP POP JUMP JUMPDEST PUSH3 0x5F3 DUP3 PUSH3 0x3A7 JUMP JUMPDEST PUSH8 0xFFFFFFFFFFFFFFFF DUP2 GT ISZERO PUSH3 0x60F JUMPI PUSH3 0x60E PUSH3 0x11A JUMP JUMPDEST JUMPDEST PUSH3 0x61B DUP3 SLOAD PUSH3 0x3E1 JUMP JUMPDEST PUSH3 0x628 DUP3 DUP3 DUP6 PUSH3 0x54D JUMP JUMPDEST PUSH1 0x0 PUSH1 0x20 SWAP1 POP PUSH1 0x1F DUP4 GT PUSH1 0x1 DUP2 EQ PUSH3 0x660 JUMPI PUSH1 0x0 DUP5 ISZERO PUSH3 0x64B JUMPI DUP3 DUP8 ADD MLOAD SWAP1 POP JUMPDEST PUSH3 0x657 DUP6 DUP3 PUSH3 0x5CA JUMP JUMPDEST DUP7 SSTORE POP PUSH3 0x6C7 JUMP JUMPDEST PUSH1 0x1F NOT DUP5 AND PUSH3 0x670 DUP7 PUSH3 0x416 JUMP JUMPDEST PUSH1 0x0 JUMPDEST DUP3 DUP2 LT ISZERO PUSH3 0x69A JUMPI DUP5 DUP10 ADD MLOAD DUP3 SSTORE PUSH1 0x1 DUP3 ADD SWAP2 POP PUSH1 0x20 DUP6 ADD SWAP5 POP PUSH1 0x20 DUP2 ADD SWAP1 POP PUSH3 0x673 JUMP JUMPDEST DUP7 DUP4 LT ISZERO PUSH3 0x6BA JUMPI DUP5 DUP10 ADD MLOAD PUSH3 0x6B6 PUSH1 0x1F DUP10 AND DUP3 PUSH3 0x5AA JUMP JUMPDEST DUP4 SSTORE POP JUMPDEST PUSH1 0x1 PUSH1 0x2 DUP9 MUL ADD DUP9 SSTORE POP POP POP JUMPDEST POP POP POP POP POP POP JUMP JUMPDEST PUSH32 0x4E487B7100000000000000000000000000000000000000000000000000000000 PUSH1 0x0 MSTORE PUSH1 0x11 PUSH1 0x4 MSTORE PUSH1 0x24 PUSH1 0x0 REVERT JUMPDEST PUSH1 0x0 DUP2 PUSH1 0x1 SHR SWAP1 POP SWAP2 SWAP1 POP JUMP JUMPDEST PUSH1 0x0 DUP1 DUP3 SWAP2 POP DUP4 SWAP1 POP JUMPDEST PUSH1 0x1 DUP6 GT ISZERO PUSH3 0x75D JUMPI DUP1 DUP7 DIV DUP2 GT ISZERO PUSH3 0x735 JUMPI PUSH3 0x734 PUSH3 0x6CF JUMP JUMPDEST JUMPDEST PUSH1 0x1 DUP6 AND ISZERO PUSH3 0x745 JUMPI DUP1 DUP3 MUL SWAP2 POP JUMPDEST DUP1 DUP2 MUL SWAP1 POP PUSH3 0x755 DUP6 PUSH3 0x6FE JUMP JUMPDEST SWAP5 POP PUSH3 0x715 JUMP JUMPDEST SWAP5 POP SWAP5 SWAP3 POP POP POP JUMP JUMPDEST PUSH1 0x0 DUP3 PUSH3 0x778 JUMPI PUSH1 0x1 SWAP1 POP PUSH3 0x84B JUMP JUMPDEST DUP2 PUSH3 0x788 JUMPI PUSH1 0x0 SWAP1 POP PUSH3 0x84B JUMP JUMPDEST DUP2 PUSH1 0x1 DUP2 EQ PUSH3 0x7A1 JUMPI PUSH1 0x2 DUP2 EQ PUSH3 0x7AC JUMPI PUSH3 0x7E2 JUMP JUMPDEST PUSH1 0x1 SWAP2 POP POP PUSH3 0x84B JUMP JUMPDEST PUSH1 0xFF DUP5 GT ISZERO PUSH3 0x7C1 JUMPI PUSH3 0x7C0 PUSH3 0x6CF JUMP JUMPDEST JUMPDEST DUP4 PUSH1 0x2 EXP SWAP2 POP DUP5 DUP3 GT ISZERO PUSH3 0x7DB JUMPI PUSH3 0x7DA PUSH3 0x6CF JUMP JUMPDEST JUMPDEST POP PUSH3 0x84B JUMP JUMPDEST POP PUSH1 0x20 DUP4 LT PUSH2 0x133 DUP4 LT AND PUSH1 0x4E DUP5 LT PUSH1 0xB DUP5 LT AND OR ISZERO PUSH3 0x81C JUMPI DUP3 DUP3 EXP SWAP1 POP DUP4 DUP2 GT ISZERO PUSH3 0x816 JUMPI PUSH3 0x815 PUSH3 0x6CF JUMP JUMPDEST JUMPDEST PUSH3 0x84B JUMP JUMPDEST PUSH3 0x82B DUP5 DUP5 DUP5 PUSH1 0x1 PUSH3 0x70B JUMP JUMPDEST SWAP3 POP SWAP1 POP DUP2 DUP5 DIV DUP2 GT ISZERO PUSH3 0x845 JUMPI PUSH3 0x844 PUSH3 0x6CF JUMP JUMPDEST JUMPDEST DUP2 DUP2 MUL SWAP1 POP JUMPDEST SWAP4 SWAP3 POP POP POP JUMP JUMPDEST PUSH1 0x0 PUSH3 0x85F DUP3 PUSH3 0x2BC JUMP JUMPDEST SWAP2 POP PUSH3 0x86C DUP4 PUSH3 0x2BC JUMP JUMPDEST SWAP3 POP PUSH3 0x89B PUSH32 0xFFFFFFFFFFFFFFFFFFFFFFFFFFFFFFFFFFFFFFFFFFFFFFFFFFFFFFFFFFFFFFFF DUP5 DUP5 PUSH3 0x766 JUMP JUMPDEST SWAP1 POP SWAP3 SWAP2 POP POP JUMP JUMPDEST PUSH1 0x0 PUSH3 0x8B0 DUP3 PUSH3 0x2BC JUMP JUMPDEST SWAP2 POP PUSH3 0x8BD DUP4 PUSH3 0x2BC JUMP JUMPDEST SWAP3 POP DUP3 DUP3 MUL PUSH3 0x8CD DUP2 PUSH3 0x2BC JUMP JUMPDEST SWAP2 POP DUP3 DUP3 DIV DUP5 EQ DUP4 ISZERO OR PUSH3 0x8E7 JUMPI PUSH3 0x8E6 PUSH3 0x6CF JUMP JUMPDEST JUMPDEST POP SWAP3 SWAP2 POP POP JUMP JUMPDEST PUSH2 0xAF1 DUP1 PUSH3 0x8FE PUSH1 0x0 CODECOPY PUSH1 0x0 RETURN INVALID PUSH1 0x80 PUSH1 0x40 MSTORE CALLVALUE DUP1 ISZERO PUSH2 0x10 JUMPI PUSH1 0x0 DUP1 REVERT JUMPDEST POP PUSH1 0x4 CALLDATASIZE LT PUSH2 0x7D JUMPI PUSH1 0x0 CALLDATALOAD PUSH1 0xE0 SHR DUP1 PUSH4 0x42966C68 GT PUSH2 0x5B JUMPI DUP1 PUSH4 0x42966C68 EQ PUSH2 0xDC JUMPI DUP1 PUSH4 0x70A08231 EQ PUSH2 0xF8 JUMPI DUP1 PUSH4 0x95D89B41 EQ PUSH2 0x128 JUMPI DUP1 PUSH4 0xA9059CBB EQ PUSH2 0x146 JUMPI PUSH2 0x7D JUMP JUMPDEST DUP1 PUSH4 0x6FDDE03 EQ PUSH2 0x82 JUMPI DUP1 PUSH4 0x18160DDD EQ PUSH2 0xA0 JUMPI DUP1 PUSH4 0x313CE567 EQ PUSH2 0xBE JUMPI JUMPDEST PUSH1 0x0 DUP1 REVERT JUMPDEST PUSH2 0x8A PUSH2 0x176 JUMP JUMPDEST PUSH1 0x40 MLOAD PUSH2 0x97 SWAP2 SWAP1 PUSH2 0x694 JUMP JUMPDEST PUSH1 0x40 MLOAD DUP1 SWAP2 SUB SWAP1 RETURN JUMPDEST PUSH2 0xA8 PUSH2 0x204 JUMP JUMPDEST PUSH1 0x40 MLOAD PUSH2 0xB5 SWAP2 SWAP1 PUSH2 0x6CF JUMP JUMPDEST PUSH1 0x40 MLOAD DUP1 SWAP2 SUB SWAP1 RETURN JUMPDEST PUSH2 0xC6 PUSH2 0x20A JUMP JUMPDEST PUSH1 0x40 MLOAD PUSH2 0xD3 SWAP2 SWAP1 PUSH2 0x706 JUMP JUMPDEST PUSH1 0x40 MLOAD DUP1 SWAP2 SUB SWAP1 RETURN JUMPDEST PUSH2 0xF6 PUSH1 0x4 DUP1 CALLDATASIZE SUB DUP2 ADD SWAP1 PUSH2 0xF1 SWAP2 SWAP1 PUSH2 0x752 JUMP JUMPDEST PUSH2 0x21D JUMP JUMPDEST STOP JUMPDEST PUSH2 0x112 PUSH1 0x4 DUP1 CALLDATASIZE SUB DUP2 ADD SWAP1 PUSH2 0x10D SWAP2 SWAP1 PUSH2 0x7DD JUMP JUMPDEST PUSH2 0x34C JUMP JUMPDEST PUSH1 0x40 MLOAD PUSH2 0x11F SWAP2 SWAP1 PUSH2 0x6CF JUMP JUMPDEST PUSH1 0x40 MLOAD DUP1 SWAP2 SUB SWAP1 RETURN JUMPDEST PUSH2 0x130 PUSH2 0x395 JUMP JUMPDEST PUSH1 0x40 MLOAD PUSH2 0x13D SWAP2 SWAP1 PUSH2 0x694 JUMP JUMPDEST PUSH1 0x40 MLOAD DUP1 SWAP2 SUB SWAP1 RETURN JUMPDEST PUSH2 0x160 PUSH1 0x4 DUP1 CALLDATASIZE SUB DUP2 ADD SWAP1 PUSH2 0x15B SWAP2 SWAP1 PUSH2 0x80A JUMP JUMPDEST PUSH2 0x423 JUMP JUMPDEST PUSH1 0x40 MLOAD PUSH2 0x16D SWAP2 SWAP1 PUSH2 0x865 JUMP JUMPDEST PUSH1 0x40 MLOAD DUP1 SWAP2 SUB SWAP1 RETURN JUMPDEST PUSH1 0x0 DUP1 SLOAD PUSH2 0x183 SWAP1 PUSH2 0x8AF JUMP JUMPDEST DUP1 PUSH1 0x1F ADD PUSH1 0x20 DUP1 SWAP2 DIV MUL PUSH1 0x20 ADD PUSH1 0x40 MLOAD SWAP1 DUP2 ADD PUSH1 0x40 MSTORE DUP1 SWAP3 SWAP2 SWAP1 DUP2 DUP2 MSTORE PUSH1 0x20 ADD DUP3 DUP1 SLOAD PUSH2 0x1AF SWAP1 PUSH2 0x8AF JUMP JUMPDEST DUP1 ISZERO PUSH2 0x1FC JUMPI DUP1 PUSH1 0x1F LT PUSH2 0x1D1 JUMPI PUSH2 0x100 DUP1 DUP4 SLOAD DIV MUL DUP4 MSTORE SWAP2 PUSH1 0x20 ADD SWAP2 PUSH2 0x1FC JUMP JUMPDEST DUP3 ADD SWAP2 SWAP1 PUSH1 0x0 MSTORE PUSH1 0x20 PUSH1 0x0 KECCAK256 SWAP1 JUMPDEST DUP2 SLOAD DUP2 MSTORE SWAP1 PUSH1 0x1 ADD SWAP1 PUSH1 0x20 ADD DUP1 DUP4 GT PUSH2 0x1DF JUMPI DUP3 SWAP1 SUB PUSH1 0x1F AND DUP3 ADD SWAP2 JUMPDEST POP POP POP POP POP DUP2 JUMP JUMPDEST PUSH1 0x3 SLOAD DUP2 JUMP JUMPDEST PUSH1 0x2 PUSH1 0x0 SWAP1 SLOAD SWAP1 PUSH2 0x100 EXP SWAP1 DIV PUSH1 0xFF AND DUP2 JUMP JUMPDEST PUSH1 0x0 DUP2 GT PUSH2 0x260 JUMPI PUSH1 0x40 MLOAD PUSH32 0x8C379A000000000000000000000000000000000000000000000000000000000 DUP2 MSTORE PUSH1 0x4 ADD PUSH2 0x257 SWAP1 PUSH2 0x92C JUMP JUMPDEST PUSH1 0x40 MLOAD DUP1 SWAP2 SUB SWAP1 REVERT JUMPDEST PUSH1 0x4 PUSH1 0x0 CALLER PUSH20 0xFFFFFFFFFFFFFFFFFFFFFFFFFFFFFFFFFFFFFFFF AND PUSH20 0xFFFFFFFFFFFFFFFFFFFFFFFFFFFFFFFFFFFFFFFF AND DUP2 MSTORE PUSH1 0x20 ADD SWAP1 DUP2 MSTORE PUSH1 0x20 ADD PUSH1 0x0 KECCAK256 SLOAD DUP2 GT ISZERO PUSH2 0x2E2 JUMPI PUSH1 0x40 MLOAD PUSH32 0x8C379A000000000000000000000000000000000000000000000000000000000 DUP2 MSTORE PUSH1 0x4 ADD PUSH2 0x2D9 SWAP1 PUSH2 0x998 JUMP JUMPDEST PUSH1 0x40 MLOAD DUP1 SWAP2 SUB SWAP1 REVERT JUMPDEST DUP1 PUSH1 0x3 PUSH1 0x0 DUP3 DUP3 SLOAD PUSH2 0x2F4 SWAP2 SWAP1 PUSH2 0x9E7 JUMP JUMPDEST SWAP3 POP POP DUP2 SWAP1 SSTORE POP CALLER PUSH20 0xFFFFFFFFFFFFFFFFFFFFFFFFFFFFFFFFFFFFFFFF AND PUSH32 0xCC16F5DBB4873280815C1EE09DBD06736CFFCC184412CF7A71A0FDB75D397CA5 DUP3 PUSH1 0x40 MLOAD PUSH2 0x341 SWAP2 SWAP1 PUSH2 0x6CF JUMP JUMPDEST PUSH1 0x40 MLOAD DUP1 SWAP2 SUB SWAP1 LOG2 POP JUMP JUMPDEST PUSH1 0x0 PUSH1 0x4 PUSH1 0x0 DUP4 PUSH20 0xFFFFFFFFFFFFFFFFFFFFFFFFFFFFFFFFFFFFFFFF AND PUSH20 0xFFFFFFFFFFFFFFFFFFFFFFFFFFFFFFFFFFFFFFFF AND DUP2 MSTORE PUSH1 0x20 ADD SWAP1 DUP2 MSTORE PUSH1 0x20 ADD PUSH1 0x0 KECCAK256 SLOAD SWAP1 POP SWAP2 SWAP1 POP JUMP JUMPDEST PUSH1 0x1 DUP1 SLOAD PUSH2 0x3A2 SWAP1 PUSH2 0x8AF JUMP JUMPDEST DUP1 PUSH1 0x1F ADD PUSH1 0x20 DUP1 SWAP2 DIV MUL PUSH1 0x20 ADD PUSH1 0x40 MLOAD SWAP1 DUP2 ADD PUSH1 0x40 MSTORE DUP1 SWAP3 SWAP2 SWAP1 DUP2 DUP2 MSTORE PUSH1 0x20 ADD DUP3 DUP1 SLOAD PUSH2 0x3CE SWAP1 PUSH2 0x8AF JUMP JUMPDEST DUP1 ISZERO PUSH2 0x41B JUMPI DUP1 PUSH1 0x1F LT PUSH2 0x3F0 JUMPI PUSH2 0x100 DUP1 DUP4 SLOAD DIV MUL DUP4 MSTORE SWAP2 PUSH1 0x20 ADD SWAP2 PUSH2 0x41B JUMP JUMPDEST DUP3 ADD SWAP2 SWAP1 PUSH1 0x0 MSTORE PUSH1 0x20 PUSH1 0x0 KECCAK256 SWAP1 JUMPDEST DUP2 SLOAD DUP2 MSTORE SWAP1 PUSH1 0x1 ADD SWAP1 PUSH1 0x20 ADD DUP1 DUP4 GT PUSH2 0x3FE JUMPI DUP3 SWAP1 SUB PUSH1 0x1F AND DUP3 ADD SWAP2 JUMPDEST POP POP POP POP POP DUP2 JUMP JUMPDEST PUSH1 0x0 DUP1 DUP3 GT PUSH2 0x467 JUMPI PUSH1 0x40 MLOAD PUSH32 0x8C379A000000000000000000000000000000000000000000000000000000000 DUP2 MSTORE PUSH1 0x4 ADD PUSH2 0x45E SWAP1 PUSH2 0xA67 JUMP JUMPDEST PUSH1 0x40 MLOAD DUP1 SWAP2 SUB SWAP1 REVERT JUMPDEST PUSH1 0x4 PUSH1 0x0 CALLER PUSH20 0xFFFFFFFFFFFFFFFFFFFFFFFFFFFFFFFFFFFFFFFF AND PUSH20 0xFFFFFFFFFFFFFFFFFFFFFFFFFFFFFFFFFFFFFFFF AND DUP2 MSTORE PUSH1 0x20 ADD SWAP1 DUP2 MSTORE PUSH1 0x20 ADD PUSH1 0x0 KECCAK256 SLOAD DUP3 GT ISZERO PUSH2 0x4E9 JUMPI PUSH1 0x40 MLOAD PUSH32 0x8C379A000000000000000000000000000000000000000000000000000000000 DUP2 MSTORE PUSH1 0x4 ADD PUSH2 0x4E0 SWAP1 PUSH2 0x998 JUMP JUMPDEST PUSH1 0x40 MLOAD DUP1 SWAP2 SUB SWAP1 REVERT JUMPDEST DUP2 PUSH1 0x4 PUSH1 0x0 CALLER PUSH20 0xFFFFFFFFFFFFFFFFFFFFFFFFFFFFFFFFFFFFFFFF AND PUSH20 0xFFFFFFFFFFFFFFFFFFFFFFFFFFFFFFFFFFFFFFFF AND DUP2 MSTORE PUSH1 0x20 ADD SWAP1 DUP2 MSTORE PUSH1 0x20 ADD PUSH1 0x0 KECCAK256 PUSH1 0x0 DUP3 DUP3 SLOAD PUSH2 0x538 SWAP2 SWAP1 PUSH2 0x9E7 JUMP JUMPDEST SWAP3 POP POP DUP2 SWAP1 SSTORE POP DUP2 PUSH1 0x4 PUSH1 0x0 DUP6 PUSH20 0xFFFFFFFFFFFFFFFFFFFFFFFFFFFFFFFFFFFFFFFF AND PUSH20 0xFFFFFFFFFFFFFFFFFFFFFFFFFFFFFFFFFFFFFFFF AND DUP2 MSTORE PUSH1 0x20 ADD SWAP1 DUP2 MSTORE PUSH1 0x20 ADD PUSH1 0x0 KECCAK256 PUSH1 0x0 DUP3 DUP3 SLOAD PUSH2 0x58E SWAP2 SWAP1 PUSH2 0xA87 JUMP JUMPDEST SWAP3 POP POP DUP2 SWAP1 SSTORE POP DUP3 PUSH20 0xFFFFFFFFFFFFFFFFFFFFFFFFFFFFFFFFFFFFFFFF AND CALLER PUSH20 0xFFFFFFFFFFFFFFFFFFFFFFFFFFFFFFFFFFFFFFFF AND PUSH32 0xDDF252AD1BE2C89B69C2B068FC378DAA952BA7F163C4A11628F55A4DF523B3EF DUP5 PUSH1 0x40 MLOAD PUSH2 0x5F2 SWAP2 SWAP1 PUSH2 0x6CF JUMP JUMPDEST PUSH1 0x40 MLOAD DUP1 SWAP2 SUB SWAP1 LOG3 PUSH1 0x1 SWAP1 POP SWAP3 SWAP2 POP POP JUMP JUMPDEST PUSH1 0x0 DUP2 MLOAD SWAP1 POP SWAP2 SWAP1 POP JUMP JUMPDEST PUSH1 0x0 DUP3 DUP3 MSTORE PUSH1 0x20 DUP3 ADD SWAP1 POP SWAP3 SWAP2 POP POP JUMP JUMPDEST PUSH1 0x0 JUMPDEST DUP4 DUP2 LT ISZERO PUSH2 0x63E JUMPI DUP1 DUP3 ADD MLOAD DUP2 DUP5 ADD MSTORE PUSH1 0x20 DUP2 ADD SWAP1 POP PUSH2 0x623 JUMP JUMPDEST PUSH1 0x0 DUP5 DUP5 ADD MSTORE POP POP POP POP JUMP JUMPDEST PUSH1 0x0 PUSH1 0x1F NOT PUSH1 0x1F DUP4 ADD AND SWAP1 POP SWAP2 SWAP1 POP JUMP JUMPDEST PUSH1 0x0 PUSH2 0x666 DUP3 PUSH2 0x604 JUMP JUMPDEST PUSH2 0x670 DUP2 DUP6 PUSH2 0x60F JUMP JUMPDEST SWAP4 POP PUSH2 0x680 DUP2 DUP6 PUSH1 0x20 DUP7 ADD PUSH2 0x620 JUMP JUMPDEST PUSH2 0x689 DUP2 PUSH2 0x64A JUMP JUMPDEST DUP5 ADD SWAP2 POP POP SWAP3 SWAP2 POP POP JUMP JUMPDEST PUSH1 0x0 PUSH1 0x20 DUP3 ADD SWAP1 POP DUP2 DUP2 SUB PUSH1 0x0 DUP4 ADD MSTORE PUSH2 0x6AE DUP2 DUP5 PUSH2 0x65B JUMP JUMPDEST SWAP1 POP SWAP3 SWAP2 POP POP JUMP JUMPDEST PUSH1 0x0 DUP2 SWAP1 POP SWAP2 SWAP1 POP JUMP JUMPDEST PUSH2 0x6C9 DUP2 PUSH2 0x6B6 JUMP JUMPDEST DUP3 MSTORE POP POP JUMP JUMPDEST PUSH1 0x0 PUSH1 0x20 DUP3 ADD SWAP1 POP PUSH2 0x6E4 PUSH1 0x0 DUP4 ADD DUP5 PUSH2 0x6C0 JUMP JUMPDEST SWAP3 SWAP2 POP POP JUMP JUMPDEST PUSH1 0x0 PUSH1 0xFF DUP3 AND SWAP1 POP SWAP2 SWAP1 POP JUMP JUMPDEST PUSH2 0x700 DUP2 PUSH2 0x6EA JUMP JUMPDEST DUP3 MSTORE POP POP JUMP JUMPDEST PUSH1 0x0 PUSH1 0x20 DUP3 ADD SWAP1 POP PUSH2 0x71B PUSH1 0x0 DUP4 ADD DUP5 PUSH2 0x6F7 JUMP JUMPDEST SWAP3 SWAP2 POP POP JUMP JUMPDEST PUSH1 0x0 DUP1 REVERT JUMPDEST PUSH2 0x72F DUP2 PUSH2 0x6B6 JUMP JUMPDEST DUP2 EQ PUSH2 0x73A JUMPI PUSH1 0x0 DUP1 REVERT JUMPDEST POP JUMP JUMPDEST PUSH1 0x0 DUP2 CALLDATALOAD SWAP1 POP PUSH2 0x74C DUP2 PUSH2 0x726 JUMP JUMPDEST SWAP3 SWAP2 POP POP JUMP JUMPDEST PUSH1 0x0 PUSH1 0x20 DUP3 DUP5 SUB SLT ISZERO PUSH2 0x768 JUMPI PUSH2 0x767 PUSH2 0x721 JUMP JUMPDEST JUMPDEST PUSH1 0x0 PUSH2 0x776 DUP5 DUP3 DUP6 ADD PUSH2 0x73D JUMP JUMPDEST SWAP2 POP POP SWAP3 SWAP2 POP POP JUMP JUMPDEST PUSH1 0x0 PUSH20 0xFFFFFFFFFFFFFFFFFFFFFFFFFFFFFFFFFFFFFFFF DUP3 AND SWAP1 POP SWAP2 SWAP1 POP JUMP JUMPDEST PUSH1 0x0 PUSH2 0x7AA DUP3 PUSH2 0x77F JUMP JUMPDEST SWAP1 POP SWAP2 SWAP1 POP JUMP JUMPDEST PUSH2 0x7BA DUP2 PUSH2 0x79F JUMP JUMPDEST DUP2 EQ PUSH2 0x7C5 JUMPI PUSH1 0x0 DUP1 REVERT JUMPDEST POP JUMP JUMPDEST PUSH1 0x0 DUP2 CALLDATALOAD SWAP1 POP PUSH2 0x7D7 DUP2 PUSH2 0x7B1 JUMP JUMPDEST SWAP3 SWAP2 POP POP JUMP JUMPDEST PUSH1 0x0 PUSH1 0x20 DUP3 DUP5 SUB SLT ISZERO PUSH2 0x7F3 JUMPI PUSH2 0x7F2 PUSH2 0x721 JUMP JUMPDEST JUMPDEST PUSH1 0x0 PUSH2 0x801 DUP5 DUP3 DUP6 ADD PUSH2 0x7C8 JUMP JUMPDEST SWAP2 POP POP SWAP3 SWAP2 POP POP JUMP JUMPDEST PUSH1 0x0 DUP1 PUSH1 0x40 DUP4 DUP6 SUB SLT ISZERO PUSH2 0x821 JUMPI PUSH2 0x820 PUSH2 0x721 JUMP JUMPDEST JUMPDEST PUSH1 0x0 PUSH2 0x82F DUP6 DUP3 DUP7 ADD PUSH2 0x7C8 JUMP JUMPDEST SWAP3 POP POP PUSH1 0x20 PUSH2 0x840 DUP6 DUP3 DUP7 ADD PUSH2 0x73D JUMP JUMPDEST SWAP2 POP POP SWAP3 POP SWAP3 SWAP1 POP JUMP JUMPDEST PUSH1 0x0 DUP2 ISZERO ISZERO SWAP1 POP SWAP2 SWAP1 POP JUMP JUMPDEST PUSH2 0x85F DUP2 PUSH2 0x84A JUMP JUMPDEST DUP3 MSTORE POP POP JUMP JUMPDEST PUSH1 0x0 PUSH1 0x20 DUP3 ADD SWAP1 POP PUSH2 0x87A PUSH1 0x0 DUP4 ADD DUP5 PUSH2 0x856 JUMP JUMPDEST SWAP3 SWAP2 POP POP JUMP JUMPDEST PUSH32 0x4E487B7100000000000000000000000000000000000000000000000000000000 PUSH1 0x0 MSTORE PUSH1 0x22 PUSH1 0x4 MSTORE PUSH1 0x24 PUSH1 0x0 REVERT JUMPDEST PUSH1 0x0 PUSH1 0x2 DUP3 DIV SWAP1 POP PUSH1 0x1 DUP3 AND DUP1 PUSH2 0x8C7 JUMPI PUSH1 0x7F DUP3 AND SWAP2 POP JUMPDEST PUSH1 0x20 DUP3 LT DUP2 SUB PUSH2 0x8DA JUMPI PUSH2 0x8D9 PUSH2 0x880 JUMP JUMPDEST JUMPDEST POP SWAP2 SWAP1 POP JUMP JUMPDEST PUSH32 0x416D6F756E74206D7573742062652067726561746572207468616E207A65726F PUSH1 0x0 DUP3 ADD MSTORE POP JUMP JUMPDEST PUSH1 0x0 PUSH2 0x916 PUSH1 0x20 DUP4 PUSH2 0x60F JUMP JUMPDEST SWAP2 POP PUSH2 0x921 DUP3 PUSH2 0x8E0 JUMP JUMPDEST PUSH1 0x20 DUP3 ADD SWAP1 POP SWAP2 SWAP1 POP JUMP JUMPDEST PUSH1 0x0 PUSH1 0x20 DUP3 ADD SWAP1 POP DUP2 DUP2 SUB PUSH1 0x0 DUP4 ADD MSTORE PUSH2 0x945 DUP2 PUSH2 0x909 JUMP JUMPDEST SWAP1 POP SWAP2 SWAP1 POP JUMP JUMPDEST PUSH32 0x496E73756666696369656E742062616C616E6365000000000000000000000000 PUSH1 0x0 DUP3 ADD MSTORE POP JUMP JUMPDEST PUSH1 0x0 PUSH2 0x982 PUSH1 0x14 DUP4 PUSH2 0x60F JUMP JUMPDEST SWAP2 POP PUSH2 0x98D DUP3 PUSH2 0x94C JUMP JUMPDEST PUSH1 0x20 DUP3 ADD SWAP1 POP SWAP2 SWAP1 POP JUMP JUMPDEST PUSH1 0x0 PUSH1 0x20 DUP3 ADD SWAP1 POP DUP2 DUP2 SUB PUSH1 0x0 DUP4 ADD MSTORE PUSH2 0x9B1 DUP2 PUSH2 0x975 JUMP JUMPDEST SWAP1 POP SWAP2 SWAP1 POP JUMP JUMPDEST PUSH32 0x4E487B7100000000000000000000000000000000000000000000000000000000 PUSH1 0x0 MSTORE PUSH1 0x11 PUSH1 0x4 MSTORE PUSH1 0x24 PUSH1 0x0 REVERT JUMPDEST PUSH1 0x0 PUSH2 0x9F2 DUP3 PUSH2 0x6B6 JUMP JUMPDEST SWAP2 POP PUSH2 0x9FD DUP4 PUSH2 0x6B6 JUMP JUMPDEST SWAP3 POP DUP3 DUP3 SUB SWAP1 POP DUP2 DUP2 GT ISZERO PUSH2 0xA15 JUMPI PUSH2 0xA14 PUSH2 0x9B8 JUMP JUMPDEST JUMPDEST SWAP3 SWAP2 POP POP JUMP JUMPDEST PUSH32 0x416D6F756E74206D7573742062652067726561746572207468616E2030000000 PUSH1 0x0 DUP3 ADD MSTORE POP JUMP JUMPDEST PUSH1 0x0 PUSH2 0xA51 PUSH1 0x1D DUP4 PUSH2 0x60F JUMP JUMPDEST SWAP2 POP PUSH2 0xA5C DUP3 PUSH2 0xA1B JUMP JUMPDEST PUSH1 0x20 DUP3 ADD SWAP1 POP SWAP2 SWAP1 POP JUMP JUMPDEST PUSH1 0x0 PUSH1 0x20 DUP3 ADD SWAP1 POP DUP2 DUP2 SUB PUSH1 0x0 DUP4 ADD MSTORE PUSH2 0xA80 DUP2 PUSH2 0xA44 JUMP JUMPDEST SWAP1 POP SWAP2 SWAP1 POP JUMP JUMPDEST PUSH1 0x0 PUSH2 0xA92 DUP3 PUSH2 0x6B6 JUMP JUMPDEST SWAP2 POP PUSH2 0xA9D DUP4 PUSH2 0x6B6 JUMP JUMPDEST SWAP3 POP DUP3 DUP3 ADD SWAP1 POP DUP1 DUP3 GT ISZERO PUSH2 0xAB5 JUMPI PUSH2 0xAB4 PUSH2 0x9B8 JUMP JUMPDEST JUMPDEST SWAP3 SWAP2 POP POP JUMP INVALID LOG2 PUSH5 0x6970667358 0x22 SLT KECCAK256 PUSH5 0x115B107A69 ADDMOD 0x2C 0x26 PC EXP SSTORE 0xE3 SSTORE 0xB6 PUSH17 0xFD39366E6FAC7ECC43BD1B4CF5119BC164 PUSH20 0x6F6C634300081200330000000000000000000000 "
				},
				"gasEstimates": {
					"creation": {
						"codeDepositCost": "560200",
						"executionCost": "infinite",
						"totalCost": "infinite"
					},
					"external": {
						"balanceOf(address)": "2863",
						"burn(uint256)": "infinite",
						"decimals()": "2516",
						"name()": "infinite",
						"symbol()": "infinite",
						"totalSupply()": "2452",
						"transfer(address,uint256)": "infinite"
					}
				},
				"methodIdentifiers": {
					"balanceOf(address)": "70a08231",
					"burn(uint256)": "42966c68",
					"decimals()": "313ce567",
					"name()": "06fdde03",
					"symbol()": "95d89b41",
					"totalSupply()": "18160ddd",
					"transfer(address,uint256)": "a9059cbb"
				}
			},
			"storageLayout": {
				"storage": [
					{
						"astId": 3,
						"contract": "mtx.sol:BurnableToken",
						"label": "name",
						"offset": 0,
						"slot": "0",
						"type": "t_string_storage"
					},
					{
						"astId": 5,
						"contract": "mtx.sol:BurnableToken",
						"label": "symbol",
						"offset": 0,
						"slot": "1",
						"type": "t_string_storage"
					},
					{
						"astId": 7,
						"contract": "mtx.sol:BurnableToken",
						"label": "decimals",
						"offset": 0,
						"slot": "2",
						"type": "t_uint8"
					},
					{
						"astId": 9,
						"contract": "mtx.sol:BurnableToken",
						"label": "totalSupply",
						"offset": 0,
						"slot": "3",
						"type": "t_uint256"
					},
					{
						"astId": 13,
						"contract": "mtx.sol:BurnableToken",
						"label": "balances",
						"offset": 0,
						"slot": "4",
						"type": "t_mapping(t_address,t_uint256)"
					},
					{
						"astId": 19,
						"contract": "mtx.sol:BurnableToken",
						"label": "allowed",
						"offset": 0,
						"slot": "5",
						"type": "t_mapping(t_address,t_mapping(t_address,t_uint256))"
					}
				],
				"types": {
					"t_address": {
						"encoding": "inplace",
						"label": "address",
						"numberOfBytes": "20"
					},
					"t_mapping(t_address,t_mapping(t_address,t_uint256))": {
						"encoding": "mapping",
						"key": "t_address",
						"label": "mapping(address => mapping(address => uint256))",
						"numberOfBytes": "32",
						"value": "t_mapping(t_address,t_uint256)"
					},
					"t_mapping(t_address,t_uint256)": {
						"encoding": "mapping",
						"key": "t_address",
						"label": "mapping(address => uint256)",
						"numberOfBytes": "32",
						"value": "t_uint256"
					},
					"t_string_storage": {
						"encoding": "bytes",
						"label": "string",
						"numberOfBytes": "32"
					},
					"t_uint256": {
						"encoding": "inplace",
						"label": "uint256",
						"numberOfBytes": "32"
					},
					"t_uint8": {
						"encoding": "inplace",
						"label": "uint8",
						"numberOfBytes": "1"
					}
				}
			},
			"userdoc": {
				"kind": "user",
				"methods": {},
				"version": 1
			}
		}
	}
}