{
	"car_Rent_project/carrental.sol": {
		"CarRental": {
			"abi": [
				{
					"inputs": [],
					"stateMutability": "nonpayable",
					"type": "constructor"
				},
				{
					"anonymous": false,
					"inputs": [
						{
							"indexed": false,
							"internalType": "uint256",
							"name": "carId",
							"type": "uint256"
						},
						{
							"indexed": false,
							"internalType": "address",
							"name": "renter",
							"type": "address"
						},
						{
							"indexed": false,
							"internalType": "uint256",
							"name": "rentalPrice",
							"type": "uint256"
						}
					],
					"name": "CarRented",
					"type": "event"
				},
				{
					"inputs": [
						{
							"internalType": "uint256",
							"name": "_id",
							"type": "uint256"
						},
						{
							"internalType": "string",
							"name": "_name",
							"type": "string"
						},
						{
							"internalType": "uint256",
							"name": "_rentalPrice",
							"type": "uint256"
						}
					],
					"name": "addCar",
					"outputs": [],
					"stateMutability": "nonpayable",
					"type": "function"
				},
				{
					"inputs": [
						{
							"internalType": "uint256",
							"name": "",
							"type": "uint256"
						}
					],
					"name": "addedCardIds",
					"outputs": [
						{
							"internalType": "uint256",
							"name": "",
							"type": "uint256"
						}
					],
					"stateMutability": "view",
					"type": "function"
				},
				{
					"inputs": [
						{
							"internalType": "address",
							"name": "",
							"type": "address"
						}
					],
					"name": "balances",
					"outputs": [
						{
							"internalType": "uint256",
							"name": "",
							"type": "uint256"
						}
					],
					"stateMutability": "view",
					"type": "function"
				},
				{
					"inputs": [
						{
							"internalType": "uint256",
							"name": "",
							"type": "uint256"
						}
					],
					"name": "cars",
					"outputs": [
						{
							"internalType": "uint256",
							"name": "id",
							"type": "uint256"
						},
						{
							"internalType": "string",
							"name": "name",
							"type": "string"
						},
						{
							"internalType": "bool",
							"name": "isAvailable",
							"type": "bool"
						},
						{
							"internalType": "uint256",
							"name": "rentalPrice",
							"type": "uint256"
						}
					],
					"stateMutability": "view",
					"type": "function"
				},
				{
					"inputs": [],
					"name": "getAddedIds",
					"outputs": [
						{
							"internalType": "uint256[]",
							"name": "",
							"type": "uint256[]"
						}
					],
					"stateMutability": "view",
					"type": "function"
				},
				{
					"inputs": [],
					"name": "owner",
					"outputs": [
						{
							"internalType": "address",
							"name": "",
							"type": "address"
						}
					],
					"stateMutability": "view",
					"type": "function"
				},
				{
					"inputs": [
						{
							"internalType": "uint256",
							"name": "carId",
							"type": "uint256"
						}
					],
					"name": "rentCar",
					"outputs": [],
					"stateMutability": "payable",
					"type": "function"
				},
				{
					"inputs": [
						{
							"internalType": "uint256",
							"name": "carId",
							"type": "uint256"
						}
					],
					"name": "returnCar",
					"outputs": [],
					"stateMutability": "nonpayable",
					"type": "function"
				},
				{
					"inputs": [],
					"name": "withdrawBalance",
					"outputs": [],
					"stateMutability": "nonpayable",
					"type": "function"
				}
			],
			"devdoc": {
				"kind": "dev",
				"methods": {},
				"version": 1
			},
			"evm": {
				"assembly": "    /* \"car_Rent_project/carrental.sol\":60:2835  contract CarRental {... */\n  mstore(0x40, 0x80)\n    /* \"car_Rent_project/carrental.sol\":689:804  constructor() {                         //constructor to set the contract oener... */\n  callvalue\n  dup1\n  iszero\n  tag_1\n  jumpi\n  0x00\n  dup1\n  revert\ntag_1:\n  pop\n    /* \"car_Rent_project/carrental.sol\":786:796  msg.sender */\n  caller\n    /* \"car_Rent_project/carrental.sol\":778:783  owner */\n  0x01\n  0x00\n    /* \"car_Rent_project/carrental.sol\":778:796  owner = msg.sender */\n  0x0100\n  exp\n  dup2\n  sload\n  dup2\n  0xffffffffffffffffffffffffffffffffffffffff\n  mul\n  not\n  and\n  swap1\n  dup4\n  0xffffffffffffffffffffffffffffffffffffffff\n  and\n  mul\n  or\n  swap1\n  sstore\n  pop\n    /* \"car_Rent_project/carrental.sol\":60:2835  contract CarRental {... */\n  dataSize(sub_0)\n  dup1\n  dataOffset(sub_0)\n  0x00\n  codecopy\n  0x00\n  return\nstop\n\nsub_0: assembly {\n        /* \"car_Rent_project/carrental.sol\":60:2835  contract CarRental {... */\n      mstore(0x40, 0x80)\n      jumpi(tag_1, lt(calldatasize, 0x04))\n      shr(0xe0, calldataload(0x00))\n      dup1\n      0x8da5cb5b\n      gt\n      tag_11\n      jumpi\n      dup1\n      0x8da5cb5b\n      eq\n      tag_6\n      jumpi\n      dup1\n      0xab2a45e9\n      eq\n      tag_7\n      jumpi\n      dup1\n      0xc2df5795\n      eq\n      tag_8\n      jumpi\n      dup1\n      0xe1e8aab7\n      eq\n      tag_9\n      jumpi\n      dup1\n      0xf7746e36\n      eq\n      tag_10\n      jumpi\n      jump(tag_1)\n    tag_11:\n      dup1\n      0x17f956e0\n      eq\n      tag_2\n      jumpi\n      dup1\n      0x243c5c07\n      eq\n      tag_3\n      jumpi\n      dup1\n      0x27e235e3\n      eq\n      tag_4\n      jumpi\n      dup1\n      0x5fd8c710\n      eq\n      tag_5\n      jumpi\n    tag_1:\n      0x00\n      dup1\n      revert\n        /* \"car_Rent_project/carrental.sol\":2277:2495  function returnCar(uint256 carId) public {           ... */\n    tag_2:\n      callvalue\n      dup1\n      iszero\n      tag_12\n      jumpi\n      0x00\n      dup1\n      revert\n    tag_12:\n      pop\n      tag_13\n      0x04\n      dup1\n      calldatasize\n      sub\n      dup2\n      add\n      swap1\n      tag_14\n      swap2\n      swap1\n      tag_15\n      jump\t// in\n    tag_14:\n      tag_16\n      jump\t// in\n    tag_13:\n      stop\n        /* \"car_Rent_project/carrental.sol\":1308:1455  function getAddedIds() public view returns(uint256[] memory){... */\n    tag_3:\n      callvalue\n      dup1\n      iszero\n      tag_17\n      jumpi\n      0x00\n      dup1\n      revert\n    tag_17:\n      pop\n      tag_18\n      tag_19\n      jump\t// in\n    tag_18:\n      mload(0x40)\n      tag_20\n      swap2\n      swap1\n      tag_21\n      jump\t// in\n    tag_20:\n      mload(0x40)\n      dup1\n      swap2\n      sub\n      swap1\n      return\n        /* \"car_Rent_project/carrental.sol\":440:483  mapping(address => uint256) public balances */\n    tag_4:\n      callvalue\n      dup1\n      iszero\n      tag_22\n      jumpi\n      0x00\n      dup1\n      revert\n    tag_22:\n      pop\n      tag_23\n      0x04\n      dup1\n      calldatasize\n      sub\n      dup2\n      add\n      swap1\n      tag_24\n      swap2\n      swap1\n      tag_25\n      jump\t// in\n    tag_24:\n      tag_26\n      jump\t// in\n    tag_23:\n      mload(0x40)\n      tag_27\n      swap2\n      swap1\n      tag_28\n      jump\t// in\n    tag_27:\n      mload(0x40)\n      dup1\n      swap2\n      sub\n      swap1\n      return\n        /* \"car_Rent_project/carrental.sol\":2503:2832  function withdrawBalance() public {    ... */\n    tag_5:\n      callvalue\n      dup1\n      iszero\n      tag_29\n      jumpi\n      0x00\n      dup1\n      revert\n    tag_29:\n      pop\n      tag_30\n      tag_31\n      jump\t// in\n    tag_30:\n      stop\n        /* \"car_Rent_project/carrental.sol\":360:380  address public owner */\n    tag_6:\n      callvalue\n      dup1\n      iszero\n      tag_32\n      jumpi\n      0x00\n      dup1\n      revert\n    tag_32:\n      pop\n      tag_33\n      tag_34\n      jump\t// in\n    tag_33:\n      mload(0x40)\n      tag_35\n      swap2\n      swap1\n      tag_36\n      jump\t// in\n    tag_35:\n      mload(0x40)\n      dup1\n      swap2\n      sub\n      swap1\n      return\n        /* \"car_Rent_project/carrental.sol\":991:1296  function addCar(uint256 _id, string memory _name, uint256 _rentalPrice) public onlyOwner {... */\n    tag_7:\n      callvalue\n      dup1\n      iszero\n      tag_37\n      jumpi\n      0x00\n      dup1\n      revert\n    tag_37:\n      pop\n      tag_38\n      0x04\n      dup1\n      calldatasize\n      sub\n      dup2\n      add\n      swap1\n      tag_39\n      swap2\n      swap1\n      tag_40\n      jump\t// in\n    tag_39:\n      tag_41\n      jump\t// in\n    tag_38:\n      stop\n        /* \"car_Rent_project/carrental.sol\":515:544  uint256[] public addedCardIds */\n    tag_8:\n      callvalue\n      dup1\n      iszero\n      tag_42\n      jumpi\n      0x00\n      dup1\n      revert\n    tag_42:\n      pop\n      tag_43\n      0x04\n      dup1\n      calldatasize\n      sub\n      dup2\n      add\n      swap1\n      tag_44\n      swap2\n      swap1\n      tag_15\n      jump\t// in\n    tag_44:\n      tag_45\n      jump\t// in\n    tag_43:\n      mload(0x40)\n      tag_46\n      swap2\n      swap1\n      tag_28\n      jump\t// in\n    tag_46:\n      mload(0x40)\n      dup1\n      swap2\n      sub\n      swap1\n      return\n        /* \"car_Rent_project/carrental.sol\":1496:2196  function rentCar(uint256 carId) public payable {       ... */\n    tag_9:\n      tag_47\n      0x04\n      dup1\n      calldatasize\n      sub\n      dup2\n      add\n      swap1\n      tag_48\n      swap2\n      swap1\n      tag_15\n      jump\t// in\n    tag_48:\n      tag_49\n      jump\t// in\n    tag_47:\n      stop\n        /* \"car_Rent_project/carrental.sol\":274:309  mapping(uint256 => Car) public cars */\n    tag_10:\n      callvalue\n      dup1\n      iszero\n      tag_50\n      jumpi\n      0x00\n      dup1\n      revert\n    tag_50:\n      pop\n      tag_51\n      0x04\n      dup1\n      calldatasize\n      sub\n      dup2\n      add\n      swap1\n      tag_52\n      swap2\n      swap1\n      tag_15\n      jump\t// in\n    tag_52:\n      tag_53\n      jump\t// in\n    tag_51:\n      mload(0x40)\n      tag_54\n      swap5\n      swap4\n      swap3\n      swap2\n      swap1\n      tag_55\n      jump\t// in\n    tag_54:\n      mload(0x40)\n      dup1\n      swap2\n      sub\n      swap1\n      return\n        /* \"car_Rent_project/carrental.sol\":2277:2495  function returnCar(uint256 carId) public {           ... */\n    tag_16:\n        /* \"car_Rent_project/carrental.sol\":2362:2367  owner */\n      0x01\n      0x00\n      swap1\n      sload\n      swap1\n      0x0100\n      exp\n      swap1\n      div\n      0xffffffffffffffffffffffffffffffffffffffff\n      and\n        /* \"car_Rent_project/carrental.sol\":2348:2367  msg.sender == owner */\n      0xffffffffffffffffffffffffffffffffffffffff\n      and\n        /* \"car_Rent_project/carrental.sol\":2348:2358  msg.sender */\n      caller\n        /* \"car_Rent_project/carrental.sol\":2348:2367  msg.sender == owner */\n      0xffffffffffffffffffffffffffffffffffffffff\n      and\n      eq\n        /* \"car_Rent_project/carrental.sol\":2340:2405  require(msg.sender == owner, \"Only the owner can return the car\") */\n      tag_57\n      jumpi\n      mload(0x40)\n      0x08c379a000000000000000000000000000000000000000000000000000000000\n      dup2\n      mstore\n      0x04\n      add\n      tag_58\n      swap1\n      tag_59\n      jump\t// in\n    tag_58:\n      mload(0x40)\n      dup1\n      swap2\n      sub\n      swap1\n      revert\n    tag_57:\n        /* \"car_Rent_project/carrental.sol\":2442:2446  true */\n      0x01\n        /* \"car_Rent_project/carrental.sol\":2416:2420  cars */\n      0x00\n        /* \"car_Rent_project/carrental.sol\":2416:2427  cars[carId] */\n      dup1\n        /* \"car_Rent_project/carrental.sol\":2421:2426  carId */\n      dup4\n        /* \"car_Rent_project/carrental.sol\":2416:2427  cars[carId] */\n      dup2\n      mstore\n      0x20\n      add\n      swap1\n      dup2\n      mstore\n      0x20\n      add\n      0x00\n      keccak256\n        /* \"car_Rent_project/carrental.sol\":2416:2439  cars[carId].isAvailable */\n      0x02\n      add\n      0x00\n        /* \"car_Rent_project/carrental.sol\":2416:2446  cars[carId].isAvailable = true */\n      0x0100\n      exp\n      dup2\n      sload\n      dup2\n      0xff\n      mul\n      not\n      and\n      swap1\n      dup4\n      iszero\n      iszero\n      mul\n      or\n      swap1\n      sstore\n      pop\n        /* \"car_Rent_project/carrental.sol\":2277:2495  function returnCar(uint256 carId) public {           ... */\n      pop\n      jump\t// out\n        /* \"car_Rent_project/carrental.sol\":1308:1455  function getAddedIds() public view returns(uint256[] memory){... */\n    tag_19:\n        /* \"car_Rent_project/carrental.sol\":1351:1367  uint256[] memory */\n      0x60\n        /* \"car_Rent_project/carrental.sol\":1390:1402  addedCardIds */\n      0x03\n        /* \"car_Rent_project/carrental.sol\":1383:1402  return addedCardIds */\n      dup1\n      sload\n      dup1\n      0x20\n      mul\n      0x20\n      add\n      mload(0x40)\n      swap1\n      dup2\n      add\n      0x40\n      mstore\n      dup1\n      swap3\n      swap2\n      swap1\n      dup2\n      dup2\n      mstore\n      0x20\n      add\n      dup3\n      dup1\n      sload\n      dup1\n      iszero\n      tag_61\n      jumpi\n      0x20\n      mul\n      dup3\n      add\n      swap2\n      swap1\n      0x00\n      mstore\n      keccak256(0x00, 0x20)\n      swap1\n    tag_62:\n      dup2\n      sload\n      dup2\n      mstore\n      0x20\n      add\n      swap1\n      0x01\n      add\n      swap1\n      dup1\n      dup4\n      gt\n      tag_62\n      jumpi\n    tag_61:\n      pop\n      pop\n      pop\n      pop\n      pop\n      swap1\n      pop\n        /* \"car_Rent_project/carrental.sol\":1308:1455  function getAddedIds() public view returns(uint256[] memory){... */\n      swap1\n      jump\t// out\n        /* \"car_Rent_project/carrental.sol\":440:483  mapping(address => uint256) public balances */\n    tag_26:\n      mstore(0x20, 0x02)\n      dup1\n      0x00\n      mstore\n      keccak256(0x00, 0x40)\n      0x00\n      swap2\n      pop\n      swap1\n      pop\n      sload\n      dup2\n      jump\t// out\n        /* \"car_Rent_project/carrental.sol\":2503:2832  function withdrawBalance() public {    ... */\n    tag_31:\n        /* \"car_Rent_project/carrental.sol\":2552:2567  uint256 balance */\n      0x00\n        /* \"car_Rent_project/carrental.sol\":2570:2578  balances */\n      0x02\n        /* \"car_Rent_project/carrental.sol\":2570:2590  balances[msg.sender] */\n      0x00\n        /* \"car_Rent_project/carrental.sol\":2579:2589  msg.sender */\n      caller\n        /* \"car_Rent_project/carrental.sol\":2570:2590  balances[msg.sender] */\n      0xffffffffffffffffffffffffffffffffffffffff\n      and\n      0xffffffffffffffffffffffffffffffffffffffff\n      and\n      dup2\n      mstore\n      0x20\n      add\n      swap1\n      dup2\n      mstore\n      0x20\n      add\n      0x00\n      keccak256\n      sload\n        /* \"car_Rent_project/carrental.sol\":2552:2590  uint256 balance = balances[msg.sender] */\n      swap1\n      pop\n        /* \"car_Rent_project/carrental.sol\":2619:2620  0 */\n      0x00\n        /* \"car_Rent_project/carrental.sol\":2609:2616  balance */\n      dup2\n        /* \"car_Rent_project/carrental.sol\":2609:2620  balance > 0 */\n      gt\n        /* \"car_Rent_project/carrental.sol\":2601:2646  require(balance > 0,\"no balance to withdraw\") */\n      tag_64\n      jumpi\n      mload(0x40)\n      0x08c379a000000000000000000000000000000000000000000000000000000000\n      dup2\n      mstore\n      0x04\n      add\n      tag_65\n      swap1\n      tag_66\n      jump\t// in\n    tag_65:\n      mload(0x40)\n      dup1\n      swap2\n      sub\n      swap1\n      revert\n    tag_64:\n        /* \"car_Rent_project/carrental.sol\":2685:2686  0 */\n      0x00\n        /* \"car_Rent_project/carrental.sol\":2664:2672  balances */\n      0x02\n        /* \"car_Rent_project/carrental.sol\":2664:2684  balances[msg.sender] */\n      0x00\n        /* \"car_Rent_project/carrental.sol\":2673:2683  msg.sender */\n      caller\n        /* \"car_Rent_project/carrental.sol\":2664:2684  balances[msg.sender] */\n      0xffffffffffffffffffffffffffffffffffffffff\n      and\n      0xffffffffffffffffffffffffffffffffffffffff\n      and\n      dup2\n      mstore\n      0x20\n      add\n      swap1\n      dup2\n      mstore\n      0x20\n      add\n      0x00\n      keccak256\n        /* \"car_Rent_project/carrental.sol\":2664:2686  balances[msg.sender]=0 */\n      dup2\n      swap1\n      sstore\n      pop\n        /* \"car_Rent_project/carrental.sol\":2757:2767  msg.sender */\n      caller\n        /* \"car_Rent_project/carrental.sol\":2748:2777  payable (msg.sender).transfer */\n      0xffffffffffffffffffffffffffffffffffffffff\n      and\n        /* \"car_Rent_project/carrental.sol\":2748:2786  payable (msg.sender).transfer(balance) */\n      0x08fc\n        /* \"car_Rent_project/carrental.sol\":2778:2785  balance */\n      dup3\n        /* \"car_Rent_project/carrental.sol\":2748:2786  payable (msg.sender).transfer(balance) */\n      swap1\n      dup2\n      iszero\n      mul\n      swap1\n      mload(0x40)\n      0x00\n      mload(0x40)\n      dup1\n      dup4\n      sub\n      dup2\n      dup6\n      dup9\n      dup9\n      call\n      swap4\n      pop\n      pop\n      pop\n      pop\n      iszero\n      dup1\n      iszero\n      tag_68\n      jumpi\n      returndatasize\n      0x00\n      dup1\n      returndatacopy\n      revert(0x00, returndatasize)\n    tag_68:\n      pop\n        /* \"car_Rent_project/carrental.sol\":2537:2832  {    ... */\n      pop\n        /* \"car_Rent_project/carrental.sol\":2503:2832  function withdrawBalance() public {    ... */\n      jump\t// out\n        /* \"car_Rent_project/carrental.sol\":360:380  address public owner */\n    tag_34:\n      0x01\n      0x00\n      swap1\n      sload\n      swap1\n      0x0100\n      exp\n      swap1\n      div\n      0xffffffffffffffffffffffffffffffffffffffff\n      and\n      dup2\n      jump\t// out\n        /* \"car_Rent_project/carrental.sol\":991:1296  function addCar(uint256 _id, string memory _name, uint256 _rentalPrice) public onlyOwner {... */\n    tag_41:\n        /* \"car_Rent_project/carrental.sol\":916:921  owner */\n      0x01\n      0x00\n      swap1\n      sload\n      swap1\n      0x0100\n      exp\n      swap1\n      div\n      0xffffffffffffffffffffffffffffffffffffffff\n      and\n        /* \"car_Rent_project/carrental.sol\":902:921  msg.sender == owner */\n      0xffffffffffffffffffffffffffffffffffffffff\n      and\n        /* \"car_Rent_project/carrental.sol\":902:912  msg.sender */\n      caller\n        /* \"car_Rent_project/carrental.sol\":902:921  msg.sender == owner */\n      0xffffffffffffffffffffffffffffffffffffffff\n      and\n      eq\n        /* \"car_Rent_project/carrental.sol\":894:963  require(msg.sender == owner, \"Only the owner can call this function\") */\n      tag_70\n      jumpi\n      mload(0x40)\n      0x08c379a000000000000000000000000000000000000000000000000000000000\n      dup2\n      mstore\n      0x04\n      add\n      tag_71\n      swap1\n      tag_72\n      jump\t// in\n    tag_71:\n      mload(0x40)\n      dup1\n      swap2\n      sub\n      swap1\n      revert\n    tag_70:\n        /* \"car_Rent_project/carrental.sol\":1100:1104  cars */\n      0x00\n        /* \"car_Rent_project/carrental.sol\":1100:1109  cars[_id] */\n      dup1\n        /* \"car_Rent_project/carrental.sol\":1105:1108  _id */\n      dup5\n        /* \"car_Rent_project/carrental.sol\":1100:1109  cars[_id] */\n      dup2\n      mstore\n      0x20\n      add\n      swap1\n      dup2\n      mstore\n      0x20\n      add\n      0x00\n      keccak256\n        /* \"car_Rent_project/carrental.sol\":1100:1121  cars[_id].isAvailable */\n      0x02\n      add\n      0x00\n      swap1\n      sload\n      swap1\n      0x0100\n      exp\n      swap1\n      div\n      0xff\n      and\n        /* \"car_Rent_project/carrental.sol\":1099:1121  !cars[_id].isAvailable */\n      iszero\n        /* \"car_Rent_project/carrental.sol\":1091:1157  require(!cars[_id].isAvailable, \"Car with this ID already exists\") */\n      tag_74\n      jumpi\n      mload(0x40)\n      0x08c379a000000000000000000000000000000000000000000000000000000000\n      dup2\n      mstore\n      0x04\n      add\n      tag_75\n      swap1\n      tag_76\n      jump\t// in\n    tag_75:\n      mload(0x40)\n      dup1\n      swap2\n      sub\n      swap1\n      revert\n    tag_74:\n        /* \"car_Rent_project/carrental.sol\":1183:1218  Car(_id, _name, true, _rentalPrice) */\n      mload(0x40)\n      dup1\n      0x80\n      add\n      0x40\n      mstore\n      dup1\n        /* \"car_Rent_project/carrental.sol\":1187:1190  _id */\n      dup5\n        /* \"car_Rent_project/carrental.sol\":1183:1218  Car(_id, _name, true, _rentalPrice) */\n      dup2\n      mstore\n      0x20\n      add\n        /* \"car_Rent_project/carrental.sol\":1192:1197  _name */\n      dup4\n        /* \"car_Rent_project/carrental.sol\":1183:1218  Car(_id, _name, true, _rentalPrice) */\n      dup2\n      mstore\n      0x20\n      add\n        /* \"car_Rent_project/carrental.sol\":1199:1203  true */\n      0x01\n        /* \"car_Rent_project/carrental.sol\":1183:1218  Car(_id, _name, true, _rentalPrice) */\n      iszero\n      iszero\n      dup2\n      mstore\n      0x20\n      add\n        /* \"car_Rent_project/carrental.sol\":1205:1217  _rentalPrice */\n      dup3\n        /* \"car_Rent_project/carrental.sol\":1183:1218  Car(_id, _name, true, _rentalPrice) */\n      dup2\n      mstore\n      pop\n        /* \"car_Rent_project/carrental.sol\":1171:1175  cars */\n      0x00\n        /* \"car_Rent_project/carrental.sol\":1171:1180  cars[_id] */\n      dup1\n        /* \"car_Rent_project/carrental.sol\":1176:1179  _id */\n      dup6\n        /* \"car_Rent_project/carrental.sol\":1171:1180  cars[_id] */\n      dup2\n      mstore\n      0x20\n      add\n      swap1\n      dup2\n      mstore\n      0x20\n      add\n      0x00\n      keccak256\n        /* \"car_Rent_project/carrental.sol\":1171:1218  cars[_id] = Car(_id, _name, true, _rentalPrice) */\n      0x00\n      dup3\n      add\n      mload\n      dup2\n      0x00\n      add\n      sstore\n      0x20\n      dup3\n      add\n      mload\n      dup2\n      0x01\n      add\n      swap1\n      dup2\n      tag_77\n      swap2\n      swap1\n      tag_78\n      jump\t// in\n    tag_77:\n      pop\n      0x40\n      dup3\n      add\n      mload\n      dup2\n      0x02\n      add\n      exp(0x0100, 0x00)\n      dup2\n      sload\n      dup2\n      0xff\n      mul\n      not\n      and\n      swap1\n      dup4\n      iszero\n      iszero\n      mul\n      or\n      swap1\n      sstore\n      pop\n      0x60\n      dup3\n      add\n      mload\n      dup2\n      0x03\n      add\n      sstore\n      swap1\n      pop\n      pop\n        /* \"car_Rent_project/carrental.sol\":1230:1242  addedCardIds */\n      0x03\n        /* \"car_Rent_project/carrental.sol\":1248:1251  _id */\n      dup4\n        /* \"car_Rent_project/carrental.sol\":1230:1252  addedCardIds.push(_id) */\n      swap1\n      dup1\n      0x01\n      dup2\n      sload\n      add\n      dup1\n      dup3\n      sstore\n      dup1\n      swap2\n      pop\n      pop\n      0x01\n      swap1\n      sub\n      swap1\n      0x00\n      mstore\n      keccak256(0x00, 0x20)\n      add\n      0x00\n      swap1\n      swap2\n      swap1\n      swap2\n      swap1\n      swap2\n      pop\n      sstore\n        /* \"car_Rent_project/carrental.sol\":991:1296  function addCar(uint256 _id, string memory _name, uint256 _rentalPrice) public onlyOwner {... */\n      pop\n      pop\n      pop\n      jump\t// out\n        /* \"car_Rent_project/carrental.sol\":515:544  uint256[] public addedCardIds */\n    tag_45:\n      0x03\n      dup2\n      dup2\n      sload\n      dup2\n      lt\n      tag_80\n      jumpi\n      0x00\n      dup1\n      revert\n    tag_80:\n      swap1\n      0x00\n      mstore\n      keccak256(0x00, 0x20)\n      add\n      0x00\n      swap2\n      pop\n      swap1\n      pop\n      sload\n      dup2\n      jump\t// out\n        /* \"car_Rent_project/carrental.sol\":1496:2196  function rentCar(uint256 carId) public payable {       ... */\n    tag_49:\n        /* \"car_Rent_project/carrental.sol\":1569:1573  cars */\n      0x00\n        /* \"car_Rent_project/carrental.sol\":1569:1580  cars[carId] */\n      dup1\n        /* \"car_Rent_project/carrental.sol\":1574:1579  carId */\n      dup3\n        /* \"car_Rent_project/carrental.sol\":1569:1580  cars[carId] */\n      dup2\n      mstore\n      0x20\n      add\n      swap1\n      dup2\n      mstore\n      0x20\n      add\n      0x00\n      keccak256\n        /* \"car_Rent_project/carrental.sol\":1569:1592  cars[carId].isAvailable */\n      0x02\n      add\n      0x00\n      swap1\n      sload\n      swap1\n      0x0100\n      exp\n      swap1\n      div\n      0xff\n      and\n        /* \"car_Rent_project/carrental.sol\":1561:1626  require(cars[carId].isAvailable, \"Car is not available for rent\") */\n      tag_83\n      jumpi\n      mload(0x40)\n      0x08c379a000000000000000000000000000000000000000000000000000000000\n      dup2\n      mstore\n      0x04\n      add\n      tag_84\n      swap1\n      tag_85\n      jump\t// in\n    tag_84:\n      mload(0x40)\n      dup1\n      swap2\n      sub\n      swap1\n      revert\n    tag_83:\n        /* \"car_Rent_project/carrental.sol\":1637:1656  uint256 rentalPrice */\n      0x00\n        /* \"car_Rent_project/carrental.sol\":1659:1663  cars */\n      dup1\n        /* \"car_Rent_project/carrental.sol\":1659:1670  cars[carId] */\n      0x00\n        /* \"car_Rent_project/carrental.sol\":1664:1669  carId */\n      dup4\n        /* \"car_Rent_project/carrental.sol\":1659:1670  cars[carId] */\n      dup2\n      mstore\n      0x20\n      add\n      swap1\n      dup2\n      mstore\n      0x20\n      add\n      0x00\n      keccak256\n        /* \"car_Rent_project/carrental.sol\":1659:1682  cars[carId].rentalPrice */\n      0x03\n      add\n      sload\n        /* \"car_Rent_project/carrental.sol\":1637:1682  uint256 rentalPrice = cars[carId].rentalPrice */\n      swap1\n      pop\n        /* \"car_Rent_project/carrental.sol\":1713:1724  rentalPrice */\n      dup1\n        /* \"car_Rent_project/carrental.sol\":1701:1710  msg.value */\n      callvalue\n        /* \"car_Rent_project/carrental.sol\":1701:1724  msg.value>= rentalPrice */\n      lt\n      iszero\n        /* \"car_Rent_project/carrental.sol\":1693:1748  require(msg.value>= rentalPrice,\"Insufficient payment\") */\n      tag_86\n      jumpi\n      mload(0x40)\n      0x08c379a000000000000000000000000000000000000000000000000000000000\n      dup2\n      mstore\n      0x04\n      add\n      tag_87\n      swap1\n      tag_88\n      jump\t// in\n    tag_87:\n      mload(0x40)\n      dup1\n      swap2\n      sub\n      swap1\n      revert\n    tag_86:\n        /* \"car_Rent_project/carrental.sol\":1769:1793  address payable carOwner */\n      0x00\n        /* \"car_Rent_project/carrental.sol\":1802:1807  owner */\n      0x01\n      0x00\n      swap1\n      sload\n      swap1\n      0x0100\n      exp\n      swap1\n      div\n      0xffffffffffffffffffffffffffffffffffffffff\n      and\n        /* \"car_Rent_project/carrental.sol\":1769:1808  address payable carOwner=payable(owner) */\n      swap1\n      pop\n        /* \"car_Rent_project/carrental.sol\":1867:1875  carOwner */\n      dup1\n        /* \"car_Rent_project/carrental.sol\":1867:1884  carOwner.transfer */\n      0xffffffffffffffffffffffffffffffffffffffff\n      and\n        /* \"car_Rent_project/carrental.sol\":1867:1897  carOwner.transfer(rentalPrice) */\n      0x08fc\n        /* \"car_Rent_project/carrental.sol\":1885:1896  rentalPrice */\n      dup4\n        /* \"car_Rent_project/carrental.sol\":1867:1897  carOwner.transfer(rentalPrice) */\n      swap1\n      dup2\n      iszero\n      mul\n      swap1\n      mload(0x40)\n      0x00\n      mload(0x40)\n      dup1\n      dup4\n      sub\n      dup2\n      dup6\n      dup9\n      dup9\n      call\n      swap4\n      pop\n      pop\n      pop\n      pop\n      iszero\n      dup1\n      iszero\n      tag_90\n      jumpi\n      returndatasize\n      0x00\n      dup1\n      returndatacopy\n      revert(0x00, returndatasize)\n    tag_90:\n      pop\n        /* \"car_Rent_project/carrental.sol\":1942:1953  rentalPrice */\n      dup2\n        /* \"car_Rent_project/carrental.sol\":1932:1941  msg.value */\n      callvalue\n        /* \"car_Rent_project/carrental.sol\":1932:1953  msg.value-rentalPrice */\n      tag_91\n      swap2\n      swap1\n      tag_92\n      jump\t// in\n    tag_91:\n        /* \"car_Rent_project/carrental.sol\":1910:1918  balances */\n      0x02\n        /* \"car_Rent_project/carrental.sol\":1910:1930  balances[msg.sender] */\n      0x00\n        /* \"car_Rent_project/carrental.sol\":1919:1929  msg.sender */\n      caller\n        /* \"car_Rent_project/carrental.sol\":1910:1930  balances[msg.sender] */\n      0xffffffffffffffffffffffffffffffffffffffff\n      and\n      0xffffffffffffffffffffffffffffffffffffffff\n      and\n      dup2\n      mstore\n      0x20\n      add\n      swap1\n      dup2\n      mstore\n      0x20\n      add\n      0x00\n      keccak256\n      0x00\n        /* \"car_Rent_project/carrental.sol\":1910:1953  balances[msg.sender]+=msg.value-rentalPrice */\n      dup3\n      dup3\n      sload\n      tag_93\n      swap2\n      swap1\n      tag_94\n      jump\t// in\n    tag_93:\n      swap3\n      pop\n      pop\n      dup2\n      swap1\n      sstore\n      pop\n        /* \"car_Rent_project/carrental.sol\":2028:2033  false */\n      0x00\n        /* \"car_Rent_project/carrental.sol\":2002:2006  cars */\n      dup1\n        /* \"car_Rent_project/carrental.sol\":2002:2013  cars[carId] */\n      0x00\n        /* \"car_Rent_project/carrental.sol\":2007:2012  carId */\n      dup6\n        /* \"car_Rent_project/carrental.sol\":2002:2013  cars[carId] */\n      dup2\n      mstore\n      0x20\n      add\n      swap1\n      dup2\n      mstore\n      0x20\n      add\n      0x00\n      keccak256\n        /* \"car_Rent_project/carrental.sol\":2002:2025  cars[carId].isAvailable */\n      0x02\n      add\n      0x00\n        /* \"car_Rent_project/carrental.sol\":2002:2033  cars[carId].isAvailable = false */\n      0x0100\n      exp\n      dup2\n      sload\n      dup2\n      0xff\n      mul\n      not\n      and\n      swap1\n      dup4\n      iszero\n      iszero\n      mul\n      or\n      swap1\n      sstore\n      pop\n        /* \"car_Rent_project/carrental.sol\":2100:2140  CarRented(carId, msg.sender,rentalPrice) */\n      0xe880d822f4bdb63368fee99cd4a95706e7c7fdf51c0d2edd68bb8f4d0ea0fe72\n        /* \"car_Rent_project/carrental.sol\":2110:2115  carId */\n      dup4\n        /* \"car_Rent_project/carrental.sol\":2117:2127  msg.sender */\n      caller\n        /* \"car_Rent_project/carrental.sol\":2128:2139  rentalPrice */\n      dup5\n        /* \"car_Rent_project/carrental.sol\":2100:2140  CarRented(carId, msg.sender,rentalPrice) */\n      mload(0x40)\n      tag_95\n      swap4\n      swap3\n      swap2\n      swap1\n      tag_96\n      jump\t// in\n    tag_95:\n      mload(0x40)\n      dup1\n      swap2\n      sub\n      swap1\n      log1\n        /* \"car_Rent_project/carrental.sol\":1543:2196  {       ... */\n      pop\n      pop\n        /* \"car_Rent_project/carrental.sol\":1496:2196  function rentCar(uint256 carId) public payable {       ... */\n      pop\n      jump\t// out\n        /* \"car_Rent_project/carrental.sol\":274:309  mapping(uint256 => Car) public cars */\n    tag_53:\n      mstore(0x20, 0x00)\n      dup1\n      0x00\n      mstore\n      keccak256(0x00, 0x40)\n      0x00\n      swap2\n      pop\n      swap1\n      pop\n      dup1\n      0x00\n      add\n      sload\n      swap1\n      dup1\n      0x01\n      add\n      dup1\n      sload\n      tag_97\n      swap1\n      tag_98\n      jump\t// in\n    tag_97:\n      dup1\n      0x1f\n      add\n      0x20\n      dup1\n      swap2\n      div\n      mul\n      0x20\n      add\n      mload(0x40)\n      swap1\n      dup2\n      add\n      0x40\n      mstore\n      dup1\n      swap3\n      swap2\n      swap1\n      dup2\n      dup2\n      mstore\n      0x20\n      add\n      dup3\n      dup1\n      sload\n      tag_99\n      swap1\n      tag_98\n      jump\t// in\n    tag_99:\n      dup1\n      iszero\n      tag_100\n      jumpi\n      dup1\n      0x1f\n      lt\n      tag_101\n      jumpi\n      0x0100\n      dup1\n      dup4\n      sload\n      div\n      mul\n      dup4\n      mstore\n      swap2\n      0x20\n      add\n      swap2\n      jump(tag_100)\n    tag_101:\n      dup3\n      add\n      swap2\n      swap1\n      0x00\n      mstore\n      keccak256(0x00, 0x20)\n      swap1\n    tag_102:\n      dup2\n      sload\n      dup2\n      mstore\n      swap1\n      0x01\n      add\n      swap1\n      0x20\n      add\n      dup1\n      dup4\n      gt\n      tag_102\n      jumpi\n      dup3\n      swap1\n      sub\n      0x1f\n      and\n      dup3\n      add\n      swap2\n    tag_100:\n      pop\n      pop\n      pop\n      pop\n      pop\n      swap1\n      dup1\n      0x02\n      add\n      0x00\n      swap1\n      sload\n      swap1\n      0x0100\n      exp\n      swap1\n      div\n      0xff\n      and\n      swap1\n      dup1\n      0x03\n      add\n      sload\n      swap1\n      pop\n      dup5\n      jump\t// out\n        /* \"#utility.yul\":7:82   */\n    tag_103:\n        /* \"#utility.yul\":40:46   */\n      0x00\n        /* \"#utility.yul\":73:75   */\n      0x40\n        /* \"#utility.yul\":67:76   */\n      mload\n        /* \"#utility.yul\":57:76   */\n      swap1\n      pop\n        /* \"#utility.yul\":7:82   */\n      swap1\n      jump\t// out\n        /* \"#utility.yul\":88:205   */\n    tag_104:\n        /* \"#utility.yul\":197:198   */\n      0x00\n        /* \"#utility.yul\":194:195   */\n      dup1\n        /* \"#utility.yul\":187:199   */\n      revert\n        /* \"#utility.yul\":211:328   */\n    tag_105:\n        /* \"#utility.yul\":320:321   */\n      0x00\n        /* \"#utility.yul\":317:318   */\n      dup1\n        /* \"#utility.yul\":310:322   */\n      revert\n        /* \"#utility.yul\":334:411   */\n    tag_106:\n        /* \"#utility.yul\":371:378   */\n      0x00\n        /* \"#utility.yul\":400:405   */\n      dup2\n        /* \"#utility.yul\":389:405   */\n      swap1\n      pop\n        /* \"#utility.yul\":334:411   */\n      swap2\n      swap1\n      pop\n      jump\t// out\n        /* \"#utility.yul\":417:539   */\n    tag_107:\n        /* \"#utility.yul\":490:514   */\n      tag_173\n        /* \"#utility.yul\":508:513   */\n      dup2\n        /* \"#utility.yul\":490:514   */\n      tag_106\n      jump\t// in\n    tag_173:\n        /* \"#utility.yul\":483:488   */\n      dup2\n        /* \"#utility.yul\":480:515   */\n      eq\n        /* \"#utility.yul\":470:533   */\n      tag_174\n      jumpi\n        /* \"#utility.yul\":529:530   */\n      0x00\n        /* \"#utility.yul\":526:527   */\n      dup1\n        /* \"#utility.yul\":519:531   */\n      revert\n        /* \"#utility.yul\":470:533   */\n    tag_174:\n        /* \"#utility.yul\":417:539   */\n      pop\n      jump\t// out\n        /* \"#utility.yul\":545:684   */\n    tag_108:\n        /* \"#utility.yul\":591:596   */\n      0x00\n        /* \"#utility.yul\":629:635   */\n      dup2\n        /* \"#utility.yul\":616:636   */\n      calldataload\n        /* \"#utility.yul\":607:636   */\n      swap1\n      pop\n        /* \"#utility.yul\":645:678   */\n      tag_176\n        /* \"#utility.yul\":672:677   */\n      dup2\n        /* \"#utility.yul\":645:678   */\n      tag_107\n      jump\t// in\n    tag_176:\n        /* \"#utility.yul\":545:684   */\n      swap3\n      swap2\n      pop\n      pop\n      jump\t// out\n        /* \"#utility.yul\":690:1019   */\n    tag_15:\n        /* \"#utility.yul\":749:755   */\n      0x00\n        /* \"#utility.yul\":798:800   */\n      0x20\n        /* \"#utility.yul\":786:795   */\n      dup3\n        /* \"#utility.yul\":777:784   */\n      dup5\n        /* \"#utility.yul\":773:796   */\n      sub\n        /* \"#utility.yul\":769:801   */\n      slt\n        /* \"#utility.yul\":766:885   */\n      iszero\n      tag_178\n      jumpi\n        /* \"#utility.yul\":804:883   */\n      tag_179\n      tag_104\n      jump\t// in\n    tag_179:\n        /* \"#utility.yul\":766:885   */\n    tag_178:\n        /* \"#utility.yul\":924:925   */\n      0x00\n        /* \"#utility.yul\":949:1002   */\n      tag_180\n        /* \"#utility.yul\":994:1001   */\n      dup5\n        /* \"#utility.yul\":985:991   */\n      dup3\n        /* \"#utility.yul\":974:983   */\n      dup6\n        /* \"#utility.yul\":970:992   */\n      add\n        /* \"#utility.yul\":949:1002   */\n      tag_108\n      jump\t// in\n    tag_180:\n        /* \"#utility.yul\":939:1002   */\n      swap2\n      pop\n        /* \"#utility.yul\":895:1012   */\n      pop\n        /* \"#utility.yul\":690:1019   */\n      swap3\n      swap2\n      pop\n      pop\n      jump\t// out\n        /* \"#utility.yul\":1025:1139   */\n    tag_109:\n        /* \"#utility.yul\":1092:1098   */\n      0x00\n        /* \"#utility.yul\":1126:1131   */\n      dup2\n        /* \"#utility.yul\":1120:1132   */\n      mload\n        /* \"#utility.yul\":1110:1132   */\n      swap1\n      pop\n        /* \"#utility.yul\":1025:1139   */\n      swap2\n      swap1\n      pop\n      jump\t// out\n        /* \"#utility.yul\":1145:1329   */\n    tag_110:\n        /* \"#utility.yul\":1244:1255   */\n      0x00\n        /* \"#utility.yul\":1278:1284   */\n      dup3\n        /* \"#utility.yul\":1273:1276   */\n      dup3\n        /* \"#utility.yul\":1266:1285   */\n      mstore\n        /* \"#utility.yul\":1318:1322   */\n      0x20\n        /* \"#utility.yul\":1313:1316   */\n      dup3\n        /* \"#utility.yul\":1309:1323   */\n      add\n        /* \"#utility.yul\":1294:1323   */\n      swap1\n      pop\n        /* \"#utility.yul\":1145:1329   */\n      swap3\n      swap2\n      pop\n      pop\n      jump\t// out\n        /* \"#utility.yul\":1335:1467   */\n    tag_111:\n        /* \"#utility.yul\":1402:1406   */\n      0x00\n        /* \"#utility.yul\":1425:1428   */\n      dup2\n        /* \"#utility.yul\":1417:1428   */\n      swap1\n      pop\n        /* \"#utility.yul\":1455:1459   */\n      0x20\n        /* \"#utility.yul\":1450:1453   */\n      dup3\n        /* \"#utility.yul\":1446:1460   */\n      add\n        /* \"#utility.yul\":1438:1460   */\n      swap1\n      pop\n        /* \"#utility.yul\":1335:1467   */\n      swap2\n      swap1\n      pop\n      jump\t// out\n        /* \"#utility.yul\":1473:1581   */\n    tag_112:\n        /* \"#utility.yul\":1550:1574   */\n      tag_185\n        /* \"#utility.yul\":1568:1573   */\n      dup2\n        /* \"#utility.yul\":1550:1574   */\n      tag_106\n      jump\t// in\n    tag_185:\n        /* \"#utility.yul\":1545:1548   */\n      dup3\n        /* \"#utility.yul\":1538:1575   */\n      mstore\n        /* \"#utility.yul\":1473:1581   */\n      pop\n      pop\n      jump\t// out\n        /* \"#utility.yul\":1587:1766   */\n    tag_113:\n        /* \"#utility.yul\":1656:1666   */\n      0x00\n        /* \"#utility.yul\":1677:1723   */\n      tag_187\n        /* \"#utility.yul\":1719:1722   */\n      dup4\n        /* \"#utility.yul\":1711:1717   */\n      dup4\n        /* \"#utility.yul\":1677:1723   */\n      tag_112\n      jump\t// in\n    tag_187:\n        /* \"#utility.yul\":1755:1759   */\n      0x20\n        /* \"#utility.yul\":1750:1753   */\n      dup4\n        /* \"#utility.yul\":1746:1760   */\n      add\n        /* \"#utility.yul\":1732:1760   */\n      swap1\n      pop\n        /* \"#utility.yul\":1587:1766   */\n      swap3\n      swap2\n      pop\n      pop\n      jump\t// out\n        /* \"#utility.yul\":1772:1885   */\n    tag_114:\n        /* \"#utility.yul\":1842:1846   */\n      0x00\n        /* \"#utility.yul\":1874:1878   */\n      0x20\n        /* \"#utility.yul\":1869:1872   */\n      dup3\n        /* \"#utility.yul\":1865:1879   */\n      add\n        /* \"#utility.yul\":1857:1879   */\n      swap1\n      pop\n        /* \"#utility.yul\":1772:1885   */\n      swap2\n      swap1\n      pop\n      jump\t// out\n        /* \"#utility.yul\":1921:2653   */\n    tag_115:\n        /* \"#utility.yul\":2040:2043   */\n      0x00\n        /* \"#utility.yul\":2069:2123   */\n      tag_190\n        /* \"#utility.yul\":2117:2122   */\n      dup3\n        /* \"#utility.yul\":2069:2123   */\n      tag_109\n      jump\t// in\n    tag_190:\n        /* \"#utility.yul\":2139:2225   */\n      tag_191\n        /* \"#utility.yul\":2218:2224   */\n      dup2\n        /* \"#utility.yul\":2213:2216   */\n      dup6\n        /* \"#utility.yul\":2139:2225   */\n      tag_110\n      jump\t// in\n    tag_191:\n        /* \"#utility.yul\":2132:2225   */\n      swap4\n      pop\n        /* \"#utility.yul\":2249:2305   */\n      tag_192\n        /* \"#utility.yul\":2299:2304   */\n      dup4\n        /* \"#utility.yul\":2249:2305   */\n      tag_111\n      jump\t// in\n    tag_192:\n        /* \"#utility.yul\":2328:2335   */\n      dup1\n        /* \"#utility.yul\":2359:2360   */\n      0x00\n        /* \"#utility.yul\":2344:2628   */\n    tag_193:\n        /* \"#utility.yul\":2369:2375   */\n      dup4\n        /* \"#utility.yul\":2366:2367   */\n      dup2\n        /* \"#utility.yul\":2363:2376   */\n      lt\n        /* \"#utility.yul\":2344:2628   */\n      iszero\n      tag_195\n      jumpi\n        /* \"#utility.yul\":2445:2451   */\n      dup2\n        /* \"#utility.yul\":2439:2452   */\n      mload\n        /* \"#utility.yul\":2472:2535   */\n      tag_196\n        /* \"#utility.yul\":2531:2534   */\n      dup9\n        /* \"#utility.yul\":2516:2529   */\n      dup3\n        /* \"#utility.yul\":2472:2535   */\n      tag_113\n      jump\t// in\n    tag_196:\n        /* \"#utility.yul\":2465:2535   */\n      swap8\n      pop\n        /* \"#utility.yul\":2558:2618   */\n      tag_197\n        /* \"#utility.yul\":2611:2617   */\n      dup4\n        /* \"#utility.yul\":2558:2618   */\n      tag_114\n      jump\t// in\n    tag_197:\n        /* \"#utility.yul\":2548:2618   */\n      swap3\n      pop\n        /* \"#utility.yul\":2404:2628   */\n      pop\n        /* \"#utility.yul\":2391:2392   */\n      0x01\n        /* \"#utility.yul\":2388:2389   */\n      dup2\n        /* \"#utility.yul\":2384:2393   */\n      add\n        /* \"#utility.yul\":2379:2393   */\n      swap1\n      pop\n        /* \"#utility.yul\":2344:2628   */\n      jump(tag_193)\n    tag_195:\n        /* \"#utility.yul\":2348:2362   */\n      pop\n        /* \"#utility.yul\":2644:2647   */\n      dup6\n        /* \"#utility.yul\":2637:2647   */\n      swap4\n      pop\n        /* \"#utility.yul\":2045:2653   */\n      pop\n      pop\n      pop\n        /* \"#utility.yul\":1921:2653   */\n      swap3\n      swap2\n      pop\n      pop\n      jump\t// out\n        /* \"#utility.yul\":2659:3032   */\n    tag_21:\n        /* \"#utility.yul\":2802:2806   */\n      0x00\n        /* \"#utility.yul\":2840:2842   */\n      0x20\n        /* \"#utility.yul\":2829:2838   */\n      dup3\n        /* \"#utility.yul\":2825:2843   */\n      add\n        /* \"#utility.yul\":2817:2843   */\n      swap1\n      pop\n        /* \"#utility.yul\":2889:2898   */\n      dup2\n        /* \"#utility.yul\":2883:2887   */\n      dup2\n        /* \"#utility.yul\":2879:2899   */\n      sub\n        /* \"#utility.yul\":2875:2876   */\n      0x00\n        /* \"#utility.yul\":2864:2873   */\n      dup4\n        /* \"#utility.yul\":2860:2877   */\n      add\n        /* \"#utility.yul\":2853:2900   */\n      mstore\n        /* \"#utility.yul\":2917:3025   */\n      tag_199\n        /* \"#utility.yul\":3020:3024   */\n      dup2\n        /* \"#utility.yul\":3011:3017   */\n      dup5\n        /* \"#utility.yul\":2917:3025   */\n      tag_115\n      jump\t// in\n    tag_199:\n        /* \"#utility.yul\":2909:3025   */\n      swap1\n      pop\n        /* \"#utility.yul\":2659:3032   */\n      swap3\n      swap2\n      pop\n      pop\n      jump\t// out\n        /* \"#utility.yul\":3038:3164   */\n    tag_116:\n        /* \"#utility.yul\":3075:3082   */\n      0x00\n        /* \"#utility.yul\":3115:3157   */\n      0xffffffffffffffffffffffffffffffffffffffff\n        /* \"#utility.yul\":3108:3113   */\n      dup3\n        /* \"#utility.yul\":3104:3158   */\n      and\n        /* \"#utility.yul\":3093:3158   */\n      swap1\n      pop\n        /* \"#utility.yul\":3038:3164   */\n      swap2\n      swap1\n      pop\n      jump\t// out\n        /* \"#utility.yul\":3170:3266   */\n    tag_117:\n        /* \"#utility.yul\":3207:3214   */\n      0x00\n        /* \"#utility.yul\":3236:3260   */\n      tag_202\n        /* \"#utility.yul\":3254:3259   */\n      dup3\n        /* \"#utility.yul\":3236:3260   */\n      tag_116\n      jump\t// in\n    tag_202:\n        /* \"#utility.yul\":3225:3260   */\n      swap1\n      pop\n        /* \"#utility.yul\":3170:3266   */\n      swap2\n      swap1\n      pop\n      jump\t// out\n        /* \"#utility.yul\":3272:3394   */\n    tag_118:\n        /* \"#utility.yul\":3345:3369   */\n      tag_204\n        /* \"#utility.yul\":3363:3368   */\n      dup2\n        /* \"#utility.yul\":3345:3369   */\n      tag_117\n      jump\t// in\n    tag_204:\n        /* \"#utility.yul\":3338:3343   */\n      dup2\n        /* \"#utility.yul\":3335:3370   */\n      eq\n        /* \"#utility.yul\":3325:3388   */\n      tag_205\n      jumpi\n        /* \"#utility.yul\":3384:3385   */\n      0x00\n        /* \"#utility.yul\":3381:3382   */\n      dup1\n        /* \"#utility.yul\":3374:3386   */\n      revert\n        /* \"#utility.yul\":3325:3388   */\n    tag_205:\n        /* \"#utility.yul\":3272:3394   */\n      pop\n      jump\t// out\n        /* \"#utility.yul\":3400:3539   */\n    tag_119:\n        /* \"#utility.yul\":3446:3451   */\n      0x00\n        /* \"#utility.yul\":3484:3490   */\n      dup2\n        /* \"#utility.yul\":3471:3491   */\n      calldataload\n        /* \"#utility.yul\":3462:3491   */\n      swap1\n      pop\n        /* \"#utility.yul\":3500:3533   */\n      tag_207\n        /* \"#utility.yul\":3527:3532   */\n      dup2\n        /* \"#utility.yul\":3500:3533   */\n      tag_118\n      jump\t// in\n    tag_207:\n        /* \"#utility.yul\":3400:3539   */\n      swap3\n      swap2\n      pop\n      pop\n      jump\t// out\n        /* \"#utility.yul\":3545:3874   */\n    tag_25:\n        /* \"#utility.yul\":3604:3610   */\n      0x00\n        /* \"#utility.yul\":3653:3655   */\n      0x20\n        /* \"#utility.yul\":3641:3650   */\n      dup3\n        /* \"#utility.yul\":3632:3639   */\n      dup5\n        /* \"#utility.yul\":3628:3651   */\n      sub\n        /* \"#utility.yul\":3624:3656   */\n      slt\n        /* \"#utility.yul\":3621:3740   */\n      iszero\n      tag_209\n      jumpi\n        /* \"#utility.yul\":3659:3738   */\n      tag_210\n      tag_104\n      jump\t// in\n    tag_210:\n        /* \"#utility.yul\":3621:3740   */\n    tag_209:\n        /* \"#utility.yul\":3779:3780   */\n      0x00\n        /* \"#utility.yul\":3804:3857   */\n      tag_211\n        /* \"#utility.yul\":3849:3856   */\n      dup5\n        /* \"#utility.yul\":3840:3846   */\n      dup3\n        /* \"#utility.yul\":3829:3838   */\n      dup6\n        /* \"#utility.yul\":3825:3847   */\n      add\n        /* \"#utility.yul\":3804:3857   */\n      tag_119\n      jump\t// in\n    tag_211:\n        /* \"#utility.yul\":3794:3857   */\n      swap2\n      pop\n        /* \"#utility.yul\":3750:3867   */\n      pop\n        /* \"#utility.yul\":3545:3874   */\n      swap3\n      swap2\n      pop\n      pop\n      jump\t// out\n        /* \"#utility.yul\":3880:3998   */\n    tag_120:\n        /* \"#utility.yul\":3967:3991   */\n      tag_213\n        /* \"#utility.yul\":3985:3990   */\n      dup2\n        /* \"#utility.yul\":3967:3991   */\n      tag_106\n      jump\t// in\n    tag_213:\n        /* \"#utility.yul\":3962:3965   */\n      dup3\n        /* \"#utility.yul\":3955:3992   */\n      mstore\n        /* \"#utility.yul\":3880:3998   */\n      pop\n      pop\n      jump\t// out\n        /* \"#utility.yul\":4004:4226   */\n    tag_28:\n        /* \"#utility.yul\":4097:4101   */\n      0x00\n        /* \"#utility.yul\":4135:4137   */\n      0x20\n        /* \"#utility.yul\":4124:4133   */\n      dup3\n        /* \"#utility.yul\":4120:4138   */\n      add\n        /* \"#utility.yul\":4112:4138   */\n      swap1\n      pop\n        /* \"#utility.yul\":4148:4219   */\n      tag_215\n        /* \"#utility.yul\":4216:4217   */\n      0x00\n        /* \"#utility.yul\":4205:4214   */\n      dup4\n        /* \"#utility.yul\":4201:4218   */\n      add\n        /* \"#utility.yul\":4192:4198   */\n      dup5\n        /* \"#utility.yul\":4148:4219   */\n      tag_120\n      jump\t// in\n    tag_215:\n        /* \"#utility.yul\":4004:4226   */\n      swap3\n      swap2\n      pop\n      pop\n      jump\t// out\n        /* \"#utility.yul\":4232:4350   */\n    tag_121:\n        /* \"#utility.yul\":4319:4343   */\n      tag_217\n        /* \"#utility.yul\":4337:4342   */\n      dup2\n        /* \"#utility.yul\":4319:4343   */\n      tag_117\n      jump\t// in\n    tag_217:\n        /* \"#utility.yul\":4314:4317   */\n      dup3\n        /* \"#utility.yul\":4307:4344   */\n      mstore\n        /* \"#utility.yul\":4232:4350   */\n      pop\n      pop\n      jump\t// out\n        /* \"#utility.yul\":4356:4578   */\n    tag_36:\n        /* \"#utility.yul\":4449:4453   */\n      0x00\n        /* \"#utility.yul\":4487:4489   */\n      0x20\n        /* \"#utility.yul\":4476:4485   */\n      dup3\n        /* \"#utility.yul\":4472:4490   */\n      add\n        /* \"#utility.yul\":4464:4490   */\n      swap1\n      pop\n        /* \"#utility.yul\":4500:4571   */\n      tag_219\n        /* \"#utility.yul\":4568:4569   */\n      0x00\n        /* \"#utility.yul\":4557:4566   */\n      dup4\n        /* \"#utility.yul\":4553:4570   */\n      add\n        /* \"#utility.yul\":4544:4550   */\n      dup5\n        /* \"#utility.yul\":4500:4571   */\n      tag_121\n      jump\t// in\n    tag_219:\n        /* \"#utility.yul\":4356:4578   */\n      swap3\n      swap2\n      pop\n      pop\n      jump\t// out\n        /* \"#utility.yul\":4584:4701   */\n    tag_122:\n        /* \"#utility.yul\":4693:4694   */\n      0x00\n        /* \"#utility.yul\":4690:4691   */\n      dup1\n        /* \"#utility.yul\":4683:4695   */\n      revert\n        /* \"#utility.yul\":4707:4824   */\n    tag_123:\n        /* \"#utility.yul\":4816:4817   */\n      0x00\n        /* \"#utility.yul\":4813:4814   */\n      dup1\n        /* \"#utility.yul\":4806:4818   */\n      revert\n        /* \"#utility.yul\":4830:4932   */\n    tag_124:\n        /* \"#utility.yul\":4871:4877   */\n      0x00\n        /* \"#utility.yul\":4922:4924   */\n      0x1f\n        /* \"#utility.yul\":4918:4925   */\n      not\n        /* \"#utility.yul\":4913:4915   */\n      0x1f\n        /* \"#utility.yul\":4906:4911   */\n      dup4\n        /* \"#utility.yul\":4902:4916   */\n      add\n        /* \"#utility.yul\":4898:4926   */\n      and\n        /* \"#utility.yul\":4888:4926   */\n      swap1\n      pop\n        /* \"#utility.yul\":4830:4932   */\n      swap2\n      swap1\n      pop\n      jump\t// out\n        /* \"#utility.yul\":4938:5118   */\n    tag_125:\n        /* \"#utility.yul\":4986:5063   */\n      0x4e487b7100000000000000000000000000000000000000000000000000000000\n        /* \"#utility.yul\":4983:4984   */\n      0x00\n        /* \"#utility.yul\":4976:5064   */\n      mstore\n        /* \"#utility.yul\":5083:5087   */\n      0x41\n        /* \"#utility.yul\":5080:5081   */\n      0x04\n        /* \"#utility.yul\":5073:5088   */\n      mstore\n        /* \"#utility.yul\":5107:5111   */\n      0x24\n        /* \"#utility.yul\":5104:5105   */\n      0x00\n        /* \"#utility.yul\":5097:5112   */\n      revert\n        /* \"#utility.yul\":5124:5405   */\n    tag_126:\n        /* \"#utility.yul\":5207:5234   */\n      tag_225\n        /* \"#utility.yul\":5229:5233   */\n      dup3\n        /* \"#utility.yul\":5207:5234   */\n      tag_124\n      jump\t// in\n    tag_225:\n        /* \"#utility.yul\":5199:5205   */\n      dup2\n        /* \"#utility.yul\":5195:5235   */\n      add\n        /* \"#utility.yul\":5337:5343   */\n      dup2\n        /* \"#utility.yul\":5325:5335   */\n      dup2\n        /* \"#utility.yul\":5322:5344   */\n      lt\n        /* \"#utility.yul\":5301:5319   */\n      0xffffffffffffffff\n        /* \"#utility.yul\":5289:5299   */\n      dup3\n        /* \"#utility.yul\":5286:5320   */\n      gt\n        /* \"#utility.yul\":5283:5345   */\n      or\n        /* \"#utility.yul\":5280:5368   */\n      iszero\n      tag_226\n      jumpi\n        /* \"#utility.yul\":5348:5366   */\n      tag_227\n      tag_125\n      jump\t// in\n    tag_227:\n        /* \"#utility.yul\":5280:5368   */\n    tag_226:\n        /* \"#utility.yul\":5388:5398   */\n      dup1\n        /* \"#utility.yul\":5384:5386   */\n      0x40\n        /* \"#utility.yul\":5377:5399   */\n      mstore\n        /* \"#utility.yul\":5167:5405   */\n      pop\n        /* \"#utility.yul\":5124:5405   */\n      pop\n      pop\n      jump\t// out\n        /* \"#utility.yul\":5411:5540   */\n    tag_127:\n        /* \"#utility.yul\":5445:5451   */\n      0x00\n        /* \"#utility.yul\":5472:5492   */\n      tag_229\n      tag_103\n      jump\t// in\n    tag_229:\n        /* \"#utility.yul\":5462:5492   */\n      swap1\n      pop\n        /* \"#utility.yul\":5501:5534   */\n      tag_230\n        /* \"#utility.yul\":5529:5533   */\n      dup3\n        /* \"#utility.yul\":5521:5527   */\n      dup3\n        /* \"#utility.yul\":5501:5534   */\n      tag_126\n      jump\t// in\n    tag_230:\n        /* \"#utility.yul\":5411:5540   */\n      swap2\n      swap1\n      pop\n      jump\t// out\n        /* \"#utility.yul\":5546:5854   */\n    tag_128:\n        /* \"#utility.yul\":5608:5612   */\n      0x00\n        /* \"#utility.yul\":5698:5716   */\n      0xffffffffffffffff\n        /* \"#utility.yul\":5690:5696   */\n      dup3\n        /* \"#utility.yul\":5687:5717   */\n      gt\n        /* \"#utility.yul\":5684:5740   */\n      iszero\n      tag_232\n      jumpi\n        /* \"#utility.yul\":5720:5738   */\n      tag_233\n      tag_125\n      jump\t// in\n    tag_233:\n        /* \"#utility.yul\":5684:5740   */\n    tag_232:\n        /* \"#utility.yul\":5758:5787   */\n      tag_234\n        /* \"#utility.yul\":5780:5786   */\n      dup3\n        /* \"#utility.yul\":5758:5787   */\n      tag_124\n      jump\t// in\n    tag_234:\n        /* \"#utility.yul\":5750:5787   */\n      swap1\n      pop\n        /* \"#utility.yul\":5842:5846   */\n      0x20\n        /* \"#utility.yul\":5836:5840   */\n      dup2\n        /* \"#utility.yul\":5832:5847   */\n      add\n        /* \"#utility.yul\":5824:5847   */\n      swap1\n      pop\n        /* \"#utility.yul\":5546:5854   */\n      swap2\n      swap1\n      pop\n      jump\t// out\n        /* \"#utility.yul\":5860:6006   */\n    tag_129:\n        /* \"#utility.yul\":5957:5963   */\n      dup3\n        /* \"#utility.yul\":5952:5955   */\n      dup2\n        /* \"#utility.yul\":5947:5950   */\n      dup4\n        /* \"#utility.yul\":5934:5964   */\n      calldatacopy\n        /* \"#utility.yul\":5998:5999   */\n      0x00\n        /* \"#utility.yul\":5989:5995   */\n      dup4\n        /* \"#utility.yul\":5984:5987   */\n      dup4\n        /* \"#utility.yul\":5980:5996   */\n      add\n        /* \"#utility.yul\":5973:6000   */\n      mstore\n        /* \"#utility.yul\":5860:6006   */\n      pop\n      pop\n      pop\n      jump\t// out\n        /* \"#utility.yul\":6012:6437   */\n    tag_130:\n        /* \"#utility.yul\":6090:6095   */\n      0x00\n        /* \"#utility.yul\":6115:6181   */\n      tag_237\n        /* \"#utility.yul\":6131:6180   */\n      tag_238\n        /* \"#utility.yul\":6173:6179   */\n      dup5\n        /* \"#utility.yul\":6131:6180   */\n      tag_128\n      jump\t// in\n    tag_238:\n        /* \"#utility.yul\":6115:6181   */\n      tag_127\n      jump\t// in\n    tag_237:\n        /* \"#utility.yul\":6106:6181   */\n      swap1\n      pop\n        /* \"#utility.yul\":6204:6210   */\n      dup3\n        /* \"#utility.yul\":6197:6202   */\n      dup2\n        /* \"#utility.yul\":6190:6211   */\n      mstore\n        /* \"#utility.yul\":6242:6246   */\n      0x20\n        /* \"#utility.yul\":6235:6240   */\n      dup2\n        /* \"#utility.yul\":6231:6247   */\n      add\n        /* \"#utility.yul\":6280:6283   */\n      dup5\n        /* \"#utility.yul\":6271:6277   */\n      dup5\n        /* \"#utility.yul\":6266:6269   */\n      dup5\n        /* \"#utility.yul\":6262:6278   */\n      add\n        /* \"#utility.yul\":6259:6284   */\n      gt\n        /* \"#utility.yul\":6256:6368   */\n      iszero\n      tag_239\n      jumpi\n        /* \"#utility.yul\":6287:6366   */\n      tag_240\n      tag_123\n      jump\t// in\n    tag_240:\n        /* \"#utility.yul\":6256:6368   */\n    tag_239:\n        /* \"#utility.yul\":6377:6431   */\n      tag_241\n        /* \"#utility.yul\":6424:6430   */\n      dup5\n        /* \"#utility.yul\":6419:6422   */\n      dup3\n        /* \"#utility.yul\":6414:6417   */\n      dup6\n        /* \"#utility.yul\":6377:6431   */\n      tag_129\n      jump\t// in\n    tag_241:\n        /* \"#utility.yul\":6096:6437   */\n      pop\n        /* \"#utility.yul\":6012:6437   */\n      swap4\n      swap3\n      pop\n      pop\n      pop\n      jump\t// out\n        /* \"#utility.yul\":6457:6797   */\n    tag_131:\n        /* \"#utility.yul\":6513:6518   */\n      0x00\n        /* \"#utility.yul\":6562:6565   */\n      dup3\n        /* \"#utility.yul\":6555:6559   */\n      0x1f\n        /* \"#utility.yul\":6547:6553   */\n      dup4\n        /* \"#utility.yul\":6543:6560   */\n      add\n        /* \"#utility.yul\":6539:6566   */\n      slt\n        /* \"#utility.yul\":6529:6651   */\n      tag_243\n      jumpi\n        /* \"#utility.yul\":6570:6649   */\n      tag_244\n      tag_122\n      jump\t// in\n    tag_244:\n        /* \"#utility.yul\":6529:6651   */\n    tag_243:\n        /* \"#utility.yul\":6687:6693   */\n      dup2\n        /* \"#utility.yul\":6674:6694   */\n      calldataload\n        /* \"#utility.yul\":6712:6791   */\n      tag_245\n        /* \"#utility.yul\":6787:6790   */\n      dup5\n        /* \"#utility.yul\":6779:6785   */\n      dup3\n        /* \"#utility.yul\":6772:6776   */\n      0x20\n        /* \"#utility.yul\":6764:6770   */\n      dup7\n        /* \"#utility.yul\":6760:6777   */\n      add\n        /* \"#utility.yul\":6712:6791   */\n      tag_130\n      jump\t// in\n    tag_245:\n        /* \"#utility.yul\":6703:6791   */\n      swap2\n      pop\n        /* \"#utility.yul\":6519:6797   */\n      pop\n        /* \"#utility.yul\":6457:6797   */\n      swap3\n      swap2\n      pop\n      pop\n      jump\t// out\n        /* \"#utility.yul\":6803:7602   */\n    tag_40:\n        /* \"#utility.yul\":6890:6896   */\n      0x00\n        /* \"#utility.yul\":6898:6904   */\n      dup1\n        /* \"#utility.yul\":6906:6912   */\n      0x00\n        /* \"#utility.yul\":6955:6957   */\n      0x60\n        /* \"#utility.yul\":6943:6952   */\n      dup5\n        /* \"#utility.yul\":6934:6941   */\n      dup7\n        /* \"#utility.yul\":6930:6953   */\n      sub\n        /* \"#utility.yul\":6926:6958   */\n      slt\n        /* \"#utility.yul\":6923:7042   */\n      iszero\n      tag_247\n      jumpi\n        /* \"#utility.yul\":6961:7040   */\n      tag_248\n      tag_104\n      jump\t// in\n    tag_248:\n        /* \"#utility.yul\":6923:7042   */\n    tag_247:\n        /* \"#utility.yul\":7081:7082   */\n      0x00\n        /* \"#utility.yul\":7106:7159   */\n      tag_249\n        /* \"#utility.yul\":7151:7158   */\n      dup7\n        /* \"#utility.yul\":7142:7148   */\n      dup3\n        /* \"#utility.yul\":7131:7140   */\n      dup8\n        /* \"#utility.yul\":7127:7149   */\n      add\n        /* \"#utility.yul\":7106:7159   */\n      tag_108\n      jump\t// in\n    tag_249:\n        /* \"#utility.yul\":7096:7159   */\n      swap4\n      pop\n        /* \"#utility.yul\":7052:7169   */\n      pop\n        /* \"#utility.yul\":7236:7238   */\n      0x20\n        /* \"#utility.yul\":7225:7234   */\n      dup5\n        /* \"#utility.yul\":7221:7239   */\n      add\n        /* \"#utility.yul\":7208:7240   */\n      calldataload\n        /* \"#utility.yul\":7267:7285   */\n      0xffffffffffffffff\n        /* \"#utility.yul\":7259:7265   */\n      dup2\n        /* \"#utility.yul\":7256:7286   */\n      gt\n        /* \"#utility.yul\":7253:7370   */\n      iszero\n      tag_250\n      jumpi\n        /* \"#utility.yul\":7289:7368   */\n      tag_251\n      tag_105\n      jump\t// in\n    tag_251:\n        /* \"#utility.yul\":7253:7370   */\n    tag_250:\n        /* \"#utility.yul\":7394:7457   */\n      tag_252\n        /* \"#utility.yul\":7449:7456   */\n      dup7\n        /* \"#utility.yul\":7440:7446   */\n      dup3\n        /* \"#utility.yul\":7429:7438   */\n      dup8\n        /* \"#utility.yul\":7425:7447   */\n      add\n        /* \"#utility.yul\":7394:7457   */\n      tag_131\n      jump\t// in\n    tag_252:\n        /* \"#utility.yul\":7384:7457   */\n      swap3\n      pop\n        /* \"#utility.yul\":7179:7467   */\n      pop\n        /* \"#utility.yul\":7506:7508   */\n      0x40\n        /* \"#utility.yul\":7532:7585   */\n      tag_253\n        /* \"#utility.yul\":7577:7584   */\n      dup7\n        /* \"#utility.yul\":7568:7574   */\n      dup3\n        /* \"#utility.yul\":7557:7566   */\n      dup8\n        /* \"#utility.yul\":7553:7575   */\n      add\n        /* \"#utility.yul\":7532:7585   */\n      tag_108\n      jump\t// in\n    tag_253:\n        /* \"#utility.yul\":7522:7585   */\n      swap2\n      pop\n        /* \"#utility.yul\":7477:7595   */\n      pop\n        /* \"#utility.yul\":6803:7602   */\n      swap3\n      pop\n      swap3\n      pop\n      swap3\n      jump\t// out\n        /* \"#utility.yul\":7608:7707   */\n    tag_132:\n        /* \"#utility.yul\":7660:7666   */\n      0x00\n        /* \"#utility.yul\":7694:7699   */\n      dup2\n        /* \"#utility.yul\":7688:7700   */\n      mload\n        /* \"#utility.yul\":7678:7700   */\n      swap1\n      pop\n        /* \"#utility.yul\":7608:7707   */\n      swap2\n      swap1\n      pop\n      jump\t// out\n        /* \"#utility.yul\":7713:7882   */\n    tag_133:\n        /* \"#utility.yul\":7797:7808   */\n      0x00\n        /* \"#utility.yul\":7831:7837   */\n      dup3\n        /* \"#utility.yul\":7826:7829   */\n      dup3\n        /* \"#utility.yul\":7819:7838   */\n      mstore\n        /* \"#utility.yul\":7871:7875   */\n      0x20\n        /* \"#utility.yul\":7866:7869   */\n      dup3\n        /* \"#utility.yul\":7862:7876   */\n      add\n        /* \"#utility.yul\":7847:7876   */\n      swap1\n      pop\n        /* \"#utility.yul\":7713:7882   */\n      swap3\n      swap2\n      pop\n      pop\n      jump\t// out\n        /* \"#utility.yul\":7888:8134   */\n    tag_134:\n        /* \"#utility.yul\":7969:7970   */\n      0x00\n        /* \"#utility.yul\":7979:8092   */\n    tag_257:\n        /* \"#utility.yul\":7993:7999   */\n      dup4\n        /* \"#utility.yul\":7990:7991   */\n      dup2\n        /* \"#utility.yul\":7987:8000   */\n      lt\n        /* \"#utility.yul\":7979:8092   */\n      iszero\n      tag_259\n      jumpi\n        /* \"#utility.yul\":8078:8079   */\n      dup1\n        /* \"#utility.yul\":8073:8076   */\n      dup3\n        /* \"#utility.yul\":8069:8080   */\n      add\n        /* \"#utility.yul\":8063:8081   */\n      mload\n        /* \"#utility.yul\":8059:8060   */\n      dup2\n        /* \"#utility.yul\":8054:8057   */\n      dup5\n        /* \"#utility.yul\":8050:8061   */\n      add\n        /* \"#utility.yul\":8043:8082   */\n      mstore\n        /* \"#utility.yul\":8015:8017   */\n      0x20\n        /* \"#utility.yul\":8012:8013   */\n      dup2\n        /* \"#utility.yul\":8008:8018   */\n      add\n        /* \"#utility.yul\":8003:8018   */\n      swap1\n      pop\n        /* \"#utility.yul\":7979:8092   */\n      jump(tag_257)\n    tag_259:\n        /* \"#utility.yul\":8126:8127   */\n      0x00\n        /* \"#utility.yul\":8117:8123   */\n      dup5\n        /* \"#utility.yul\":8112:8115   */\n      dup5\n        /* \"#utility.yul\":8108:8124   */\n      add\n        /* \"#utility.yul\":8101:8128   */\n      mstore\n        /* \"#utility.yul\":7950:8134   */\n      pop\n        /* \"#utility.yul\":7888:8134   */\n      pop\n      pop\n      pop\n      jump\t// out\n        /* \"#utility.yul\":8140:8517   */\n    tag_135:\n        /* \"#utility.yul\":8228:8231   */\n      0x00\n        /* \"#utility.yul\":8256:8295   */\n      tag_261\n        /* \"#utility.yul\":8289:8294   */\n      dup3\n        /* \"#utility.yul\":8256:8295   */\n      tag_132\n      jump\t// in\n    tag_261:\n        /* \"#utility.yul\":8311:8382   */\n      tag_262\n        /* \"#utility.yul\":8375:8381   */\n      dup2\n        /* \"#utility.yul\":8370:8373   */\n      dup6\n        /* \"#utility.yul\":8311:8382   */\n      tag_133\n      jump\t// in\n    tag_262:\n        /* \"#utility.yul\":8304:8382   */\n      swap4\n      pop\n        /* \"#utility.yul\":8391:8456   */\n      tag_263\n        /* \"#utility.yul\":8449:8455   */\n      dup2\n        /* \"#utility.yul\":8444:8447   */\n      dup6\n        /* \"#utility.yul\":8437:8441   */\n      0x20\n        /* \"#utility.yul\":8430:8435   */\n      dup7\n        /* \"#utility.yul\":8426:8442   */\n      add\n        /* \"#utility.yul\":8391:8456   */\n      tag_134\n      jump\t// in\n    tag_263:\n        /* \"#utility.yul\":8481:8510   */\n      tag_264\n        /* \"#utility.yul\":8503:8509   */\n      dup2\n        /* \"#utility.yul\":8481:8510   */\n      tag_124\n      jump\t// in\n    tag_264:\n        /* \"#utility.yul\":8476:8479   */\n      dup5\n        /* \"#utility.yul\":8472:8511   */\n      add\n        /* \"#utility.yul\":8465:8511   */\n      swap2\n      pop\n        /* \"#utility.yul\":8232:8517   */\n      pop\n        /* \"#utility.yul\":8140:8517   */\n      swap3\n      swap2\n      pop\n      pop\n      jump\t// out\n        /* \"#utility.yul\":8523:8613   */\n    tag_136:\n        /* \"#utility.yul\":8557:8564   */\n      0x00\n        /* \"#utility.yul\":8600:8605   */\n      dup2\n        /* \"#utility.yul\":8593:8606   */\n      iszero\n        /* \"#utility.yul\":8586:8607   */\n      iszero\n        /* \"#utility.yul\":8575:8607   */\n      swap1\n      pop\n        /* \"#utility.yul\":8523:8613   */\n      swap2\n      swap1\n      pop\n      jump\t// out\n        /* \"#utility.yul\":8619:8728   */\n    tag_137:\n        /* \"#utility.yul\":8700:8721   */\n      tag_267\n        /* \"#utility.yul\":8715:8720   */\n      dup2\n        /* \"#utility.yul\":8700:8721   */\n      tag_136\n      jump\t// in\n    tag_267:\n        /* \"#utility.yul\":8695:8698   */\n      dup3\n        /* \"#utility.yul\":8688:8722   */\n      mstore\n        /* \"#utility.yul\":8619:8728   */\n      pop\n      pop\n      jump\t// out\n        /* \"#utility.yul\":8734:9366   */\n    tag_55:\n        /* \"#utility.yul\":8925:8929   */\n      0x00\n        /* \"#utility.yul\":8963:8966   */\n      0x80\n        /* \"#utility.yul\":8952:8961   */\n      dup3\n        /* \"#utility.yul\":8948:8967   */\n      add\n        /* \"#utility.yul\":8940:8967   */\n      swap1\n      pop\n        /* \"#utility.yul\":8977:9048   */\n      tag_269\n        /* \"#utility.yul\":9045:9046   */\n      0x00\n        /* \"#utility.yul\":9034:9043   */\n      dup4\n        /* \"#utility.yul\":9030:9047   */\n      add\n        /* \"#utility.yul\":9021:9027   */\n      dup8\n        /* \"#utility.yul\":8977:9048   */\n      tag_120\n      jump\t// in\n    tag_269:\n        /* \"#utility.yul\":9095:9104   */\n      dup2\n        /* \"#utility.yul\":9089:9093   */\n      dup2\n        /* \"#utility.yul\":9085:9105   */\n      sub\n        /* \"#utility.yul\":9080:9082   */\n      0x20\n        /* \"#utility.yul\":9069:9078   */\n      dup4\n        /* \"#utility.yul\":9065:9083   */\n      add\n        /* \"#utility.yul\":9058:9106   */\n      mstore\n        /* \"#utility.yul\":9123:9201   */\n      tag_270\n        /* \"#utility.yul\":9196:9200   */\n      dup2\n        /* \"#utility.yul\":9187:9193   */\n      dup7\n        /* \"#utility.yul\":9123:9201   */\n      tag_135\n      jump\t// in\n    tag_270:\n        /* \"#utility.yul\":9115:9201   */\n      swap1\n      pop\n        /* \"#utility.yul\":9211:9277   */\n      tag_271\n        /* \"#utility.yul\":9273:9275   */\n      0x40\n        /* \"#utility.yul\":9262:9271   */\n      dup4\n        /* \"#utility.yul\":9258:9276   */\n      add\n        /* \"#utility.yul\":9249:9255   */\n      dup6\n        /* \"#utility.yul\":9211:9277   */\n      tag_137\n      jump\t// in\n    tag_271:\n        /* \"#utility.yul\":9287:9359   */\n      tag_272\n        /* \"#utility.yul\":9355:9357   */\n      0x60\n        /* \"#utility.yul\":9344:9353   */\n      dup4\n        /* \"#utility.yul\":9340:9358   */\n      add\n        /* \"#utility.yul\":9331:9337   */\n      dup5\n        /* \"#utility.yul\":9287:9359   */\n      tag_120\n      jump\t// in\n    tag_272:\n        /* \"#utility.yul\":8734:9366   */\n      swap6\n      swap5\n      pop\n      pop\n      pop\n      pop\n      pop\n      jump\t// out\n        /* \"#utility.yul\":9372:9592   */\n    tag_138:\n        /* \"#utility.yul\":9512:9546   */\n      0x4f6e6c7920746865206f776e65722063616e2072657475726e20746865206361\n        /* \"#utility.yul\":9508:9509   */\n      0x00\n        /* \"#utility.yul\":9500:9506   */\n      dup3\n        /* \"#utility.yul\":9496:9510   */\n      add\n        /* \"#utility.yul\":9489:9547   */\n      mstore\n        /* \"#utility.yul\":9581:9584   */\n      0x7200000000000000000000000000000000000000000000000000000000000000\n        /* \"#utility.yul\":9576:9578   */\n      0x20\n        /* \"#utility.yul\":9568:9574   */\n      dup3\n        /* \"#utility.yul\":9564:9579   */\n      add\n        /* \"#utility.yul\":9557:9585   */\n      mstore\n        /* \"#utility.yul\":9372:9592   */\n      pop\n      jump\t// out\n        /* \"#utility.yul\":9598:9964   */\n    tag_139:\n        /* \"#utility.yul\":9740:9743   */\n      0x00\n        /* \"#utility.yul\":9761:9828   */\n      tag_275\n        /* \"#utility.yul\":9825:9827   */\n      0x21\n        /* \"#utility.yul\":9820:9823   */\n      dup4\n        /* \"#utility.yul\":9761:9828   */\n      tag_133\n      jump\t// in\n    tag_275:\n        /* \"#utility.yul\":9754:9828   */\n      swap2\n      pop\n        /* \"#utility.yul\":9837:9930   */\n      tag_276\n        /* \"#utility.yul\":9926:9929   */\n      dup3\n        /* \"#utility.yul\":9837:9930   */\n      tag_138\n      jump\t// in\n    tag_276:\n        /* \"#utility.yul\":9955:9957   */\n      0x40\n        /* \"#utility.yul\":9950:9953   */\n      dup3\n        /* \"#utility.yul\":9946:9958   */\n      add\n        /* \"#utility.yul\":9939:9958   */\n      swap1\n      pop\n        /* \"#utility.yul\":9598:9964   */\n      swap2\n      swap1\n      pop\n      jump\t// out\n        /* \"#utility.yul\":9970:10389   */\n    tag_59:\n        /* \"#utility.yul\":10136:10140   */\n      0x00\n        /* \"#utility.yul\":10174:10176   */\n      0x20\n        /* \"#utility.yul\":10163:10172   */\n      dup3\n        /* \"#utility.yul\":10159:10177   */\n      add\n        /* \"#utility.yul\":10151:10177   */\n      swap1\n      pop\n        /* \"#utility.yul\":10223:10232   */\n      dup2\n        /* \"#utility.yul\":10217:10221   */\n      dup2\n        /* \"#utility.yul\":10213:10233   */\n      sub\n        /* \"#utility.yul\":10209:10210   */\n      0x00\n        /* \"#utility.yul\":10198:10207   */\n      dup4\n        /* \"#utility.yul\":10194:10211   */\n      add\n        /* \"#utility.yul\":10187:10234   */\n      mstore\n        /* \"#utility.yul\":10251:10382   */\n      tag_278\n        /* \"#utility.yul\":10377:10381   */\n      dup2\n        /* \"#utility.yul\":10251:10382   */\n      tag_139\n      jump\t// in\n    tag_278:\n        /* \"#utility.yul\":10243:10382   */\n      swap1\n      pop\n        /* \"#utility.yul\":9970:10389   */\n      swap2\n      swap1\n      pop\n      jump\t// out\n        /* \"#utility.yul\":10395:10567   */\n    tag_140:\n        /* \"#utility.yul\":10535:10559   */\n      0x6e6f2062616c616e636520746f20776974686472617700000000000000000000\n        /* \"#utility.yul\":10531:10532   */\n      0x00\n        /* \"#utility.yul\":10523:10529   */\n      dup3\n        /* \"#utility.yul\":10519:10533   */\n      add\n        /* \"#utility.yul\":10512:10560   */\n      mstore\n        /* \"#utility.yul\":10395:10567   */\n      pop\n      jump\t// out\n        /* \"#utility.yul\":10573:10939   */\n    tag_141:\n        /* \"#utility.yul\":10715:10718   */\n      0x00\n        /* \"#utility.yul\":10736:10803   */\n      tag_281\n        /* \"#utility.yul\":10800:10802   */\n      0x16\n        /* \"#utility.yul\":10795:10798   */\n      dup4\n        /* \"#utility.yul\":10736:10803   */\n      tag_133\n      jump\t// in\n    tag_281:\n        /* \"#utility.yul\":10729:10803   */\n      swap2\n      pop\n        /* \"#utility.yul\":10812:10905   */\n      tag_282\n        /* \"#utility.yul\":10901:10904   */\n      dup3\n        /* \"#utility.yul\":10812:10905   */\n      tag_140\n      jump\t// in\n    tag_282:\n        /* \"#utility.yul\":10930:10932   */\n      0x20\n        /* \"#utility.yul\":10925:10928   */\n      dup3\n        /* \"#utility.yul\":10921:10933   */\n      add\n        /* \"#utility.yul\":10914:10933   */\n      swap1\n      pop\n        /* \"#utility.yul\":10573:10939   */\n      swap2\n      swap1\n      pop\n      jump\t// out\n        /* \"#utility.yul\":10945:11364   */\n    tag_66:\n        /* \"#utility.yul\":11111:11115   */\n      0x00\n        /* \"#utility.yul\":11149:11151   */\n      0x20\n        /* \"#utility.yul\":11138:11147   */\n      dup3\n        /* \"#utility.yul\":11134:11152   */\n      add\n        /* \"#utility.yul\":11126:11152   */\n      swap1\n      pop\n        /* \"#utility.yul\":11198:11207   */\n      dup2\n        /* \"#utility.yul\":11192:11196   */\n      dup2\n        /* \"#utility.yul\":11188:11208   */\n      sub\n        /* \"#utility.yul\":11184:11185   */\n      0x00\n        /* \"#utility.yul\":11173:11182   */\n      dup4\n        /* \"#utility.yul\":11169:11186   */\n      add\n        /* \"#utility.yul\":11162:11209   */\n      mstore\n        /* \"#utility.yul\":11226:11357   */\n      tag_284\n        /* \"#utility.yul\":11352:11356   */\n      dup2\n        /* \"#utility.yul\":11226:11357   */\n      tag_141\n      jump\t// in\n    tag_284:\n        /* \"#utility.yul\":11218:11357   */\n      swap1\n      pop\n        /* \"#utility.yul\":10945:11364   */\n      swap2\n      swap1\n      pop\n      jump\t// out\n        /* \"#utility.yul\":11370:11594   */\n    tag_142:\n        /* \"#utility.yul\":11510:11544   */\n      0x4f6e6c7920746865206f776e65722063616e2063616c6c20746869732066756e\n        /* \"#utility.yul\":11506:11507   */\n      0x00\n        /* \"#utility.yul\":11498:11504   */\n      dup3\n        /* \"#utility.yul\":11494:11508   */\n      add\n        /* \"#utility.yul\":11487:11545   */\n      mstore\n        /* \"#utility.yul\":11579:11586   */\n      0x6374696f6e000000000000000000000000000000000000000000000000000000\n        /* \"#utility.yul\":11574:11576   */\n      0x20\n        /* \"#utility.yul\":11566:11572   */\n      dup3\n        /* \"#utility.yul\":11562:11577   */\n      add\n        /* \"#utility.yul\":11555:11587   */\n      mstore\n        /* \"#utility.yul\":11370:11594   */\n      pop\n      jump\t// out\n        /* \"#utility.yul\":11600:11966   */\n    tag_143:\n        /* \"#utility.yul\":11742:11745   */\n      0x00\n        /* \"#utility.yul\":11763:11830   */\n      tag_287\n        /* \"#utility.yul\":11827:11829   */\n      0x25\n        /* \"#utility.yul\":11822:11825   */\n      dup4\n        /* \"#utility.yul\":11763:11830   */\n      tag_133\n      jump\t// in\n    tag_287:\n        /* \"#utility.yul\":11756:11830   */\n      swap2\n      pop\n        /* \"#utility.yul\":11839:11932   */\n      tag_288\n        /* \"#utility.yul\":11928:11931   */\n      dup3\n        /* \"#utility.yul\":11839:11932   */\n      tag_142\n      jump\t// in\n    tag_288:\n        /* \"#utility.yul\":11957:11959   */\n      0x40\n        /* \"#utility.yul\":11952:11955   */\n      dup3\n        /* \"#utility.yul\":11948:11960   */\n      add\n        /* \"#utility.yul\":11941:11960   */\n      swap1\n      pop\n        /* \"#utility.yul\":11600:11966   */\n      swap2\n      swap1\n      pop\n      jump\t// out\n        /* \"#utility.yul\":11972:12391   */\n    tag_72:\n        /* \"#utility.yul\":12138:12142   */\n      0x00\n        /* \"#utility.yul\":12176:12178   */\n      0x20\n        /* \"#utility.yul\":12165:12174   */\n      dup3\n        /* \"#utility.yul\":12161:12179   */\n      add\n        /* \"#utility.yul\":12153:12179   */\n      swap1\n      pop\n        /* \"#utility.yul\":12225:12234   */\n      dup2\n        /* \"#utility.yul\":12219:12223   */\n      dup2\n        /* \"#utility.yul\":12215:12235   */\n      sub\n        /* \"#utility.yul\":12211:12212   */\n      0x00\n        /* \"#utility.yul\":12200:12209   */\n      dup4\n        /* \"#utility.yul\":12196:12213   */\n      add\n        /* \"#utility.yul\":12189:12236   */\n      mstore\n        /* \"#utility.yul\":12253:12384   */\n      tag_290\n        /* \"#utility.yul\":12379:12383   */\n      dup2\n        /* \"#utility.yul\":12253:12384   */\n      tag_143\n      jump\t// in\n    tag_290:\n        /* \"#utility.yul\":12245:12384   */\n      swap1\n      pop\n        /* \"#utility.yul\":11972:12391   */\n      swap2\n      swap1\n      pop\n      jump\t// out\n        /* \"#utility.yul\":12397:12578   */\n    tag_144:\n        /* \"#utility.yul\":12537:12570   */\n      0x4361722077697468207468697320494420616c72656164792065786973747300\n        /* \"#utility.yul\":12533:12534   */\n      0x00\n        /* \"#utility.yul\":12525:12531   */\n      dup3\n        /* \"#utility.yul\":12521:12535   */\n      add\n        /* \"#utility.yul\":12514:12571   */\n      mstore\n        /* \"#utility.yul\":12397:12578   */\n      pop\n      jump\t// out\n        /* \"#utility.yul\":12584:12950   */\n    tag_145:\n        /* \"#utility.yul\":12726:12729   */\n      0x00\n        /* \"#utility.yul\":12747:12814   */\n      tag_293\n        /* \"#utility.yul\":12811:12813   */\n      0x1f\n        /* \"#utility.yul\":12806:12809   */\n      dup4\n        /* \"#utility.yul\":12747:12814   */\n      tag_133\n      jump\t// in\n    tag_293:\n        /* \"#utility.yul\":12740:12814   */\n      swap2\n      pop\n        /* \"#utility.yul\":12823:12916   */\n      tag_294\n        /* \"#utility.yul\":12912:12915   */\n      dup3\n        /* \"#utility.yul\":12823:12916   */\n      tag_144\n      jump\t// in\n    tag_294:\n        /* \"#utility.yul\":12941:12943   */\n      0x20\n        /* \"#utility.yul\":12936:12939   */\n      dup3\n        /* \"#utility.yul\":12932:12944   */\n      add\n        /* \"#utility.yul\":12925:12944   */\n      swap1\n      pop\n        /* \"#utility.yul\":12584:12950   */\n      swap2\n      swap1\n      pop\n      jump\t// out\n        /* \"#utility.yul\":12956:13375   */\n    tag_76:\n        /* \"#utility.yul\":13122:13126   */\n      0x00\n        /* \"#utility.yul\":13160:13162   */\n      0x20\n        /* \"#utility.yul\":13149:13158   */\n      dup3\n        /* \"#utility.yul\":13145:13163   */\n      add\n        /* \"#utility.yul\":13137:13163   */\n      swap1\n      pop\n        /* \"#utility.yul\":13209:13218   */\n      dup2\n        /* \"#utility.yul\":13203:13207   */\n      dup2\n        /* \"#utility.yul\":13199:13219   */\n      sub\n        /* \"#utility.yul\":13195:13196   */\n      0x00\n        /* \"#utility.yul\":13184:13193   */\n      dup4\n        /* \"#utility.yul\":13180:13197   */\n      add\n        /* \"#utility.yul\":13173:13220   */\n      mstore\n        /* \"#utility.yul\":13237:13368   */\n      tag_296\n        /* \"#utility.yul\":13363:13367   */\n      dup2\n        /* \"#utility.yul\":13237:13368   */\n      tag_145\n      jump\t// in\n    tag_296:\n        /* \"#utility.yul\":13229:13368   */\n      swap1\n      pop\n        /* \"#utility.yul\":12956:13375   */\n      swap2\n      swap1\n      pop\n      jump\t// out\n        /* \"#utility.yul\":13381:13561   */\n    tag_146:\n        /* \"#utility.yul\":13429:13506   */\n      0x4e487b7100000000000000000000000000000000000000000000000000000000\n        /* \"#utility.yul\":13426:13427   */\n      0x00\n        /* \"#utility.yul\":13419:13507   */\n      mstore\n        /* \"#utility.yul\":13526:13530   */\n      0x22\n        /* \"#utility.yul\":13523:13524   */\n      0x04\n        /* \"#utility.yul\":13516:13531   */\n      mstore\n        /* \"#utility.yul\":13550:13554   */\n      0x24\n        /* \"#utility.yul\":13547:13548   */\n      0x00\n        /* \"#utility.yul\":13540:13555   */\n      revert\n        /* \"#utility.yul\":13567:13887   */\n    tag_98:\n        /* \"#utility.yul\":13611:13617   */\n      0x00\n        /* \"#utility.yul\":13648:13649   */\n      0x02\n        /* \"#utility.yul\":13642:13646   */\n      dup3\n        /* \"#utility.yul\":13638:13650   */\n      div\n        /* \"#utility.yul\":13628:13650   */\n      swap1\n      pop\n        /* \"#utility.yul\":13695:13696   */\n      0x01\n        /* \"#utility.yul\":13689:13693   */\n      dup3\n        /* \"#utility.yul\":13685:13697   */\n      and\n        /* \"#utility.yul\":13716:13734   */\n      dup1\n        /* \"#utility.yul\":13706:13787   */\n      tag_299\n      jumpi\n        /* \"#utility.yul\":13772:13776   */\n      0x7f\n        /* \"#utility.yul\":13764:13770   */\n      dup3\n        /* \"#utility.yul\":13760:13777   */\n      and\n        /* \"#utility.yul\":13750:13777   */\n      swap2\n      pop\n        /* \"#utility.yul\":13706:13787   */\n    tag_299:\n        /* \"#utility.yul\":13834:13836   */\n      0x20\n        /* \"#utility.yul\":13826:13832   */\n      dup3\n        /* \"#utility.yul\":13823:13837   */\n      lt\n        /* \"#utility.yul\":13803:13821   */\n      dup2\n        /* \"#utility.yul\":13800:13838   */\n      sub\n        /* \"#utility.yul\":13797:13881   */\n      tag_300\n      jumpi\n        /* \"#utility.yul\":13853:13871   */\n      tag_301\n      tag_146\n      jump\t// in\n    tag_301:\n        /* \"#utility.yul\":13797:13881   */\n    tag_300:\n        /* \"#utility.yul\":13618:13887   */\n      pop\n        /* \"#utility.yul\":13567:13887   */\n      swap2\n      swap1\n      pop\n      jump\t// out\n        /* \"#utility.yul\":13893:14034   */\n    tag_147:\n        /* \"#utility.yul\":13942:13946   */\n      0x00\n        /* \"#utility.yul\":13965:13968   */\n      dup2\n        /* \"#utility.yul\":13957:13968   */\n      swap1\n      pop\n        /* \"#utility.yul\":13988:13991   */\n      dup2\n        /* \"#utility.yul\":13985:13986   */\n      0x00\n        /* \"#utility.yul\":13978:13992   */\n      mstore\n        /* \"#utility.yul\":14022:14026   */\n      0x20\n        /* \"#utility.yul\":14019:14020   */\n      0x00\n        /* \"#utility.yul\":14009:14027   */\n      keccak256\n        /* \"#utility.yul\":14001:14027   */\n      swap1\n      pop\n        /* \"#utility.yul\":13893:14034   */\n      swap2\n      swap1\n      pop\n      jump\t// out\n        /* \"#utility.yul\":14040:14133   */\n    tag_148:\n        /* \"#utility.yul\":14077:14083   */\n      0x00\n        /* \"#utility.yul\":14124:14126   */\n      0x20\n        /* \"#utility.yul\":14119:14121   */\n      0x1f\n        /* \"#utility.yul\":14112:14117   */\n      dup4\n        /* \"#utility.yul\":14108:14122   */\n      add\n        /* \"#utility.yul\":14104:14127   */\n      div\n        /* \"#utility.yul\":14094:14127   */\n      swap1\n      pop\n        /* \"#utility.yul\":14040:14133   */\n      swap2\n      swap1\n      pop\n      jump\t// out\n        /* \"#utility.yul\":14139:14246   */\n    tag_149:\n        /* \"#utility.yul\":14183:14191   */\n      0x00\n        /* \"#utility.yul\":14233:14238   */\n      dup3\n        /* \"#utility.yul\":14227:14231   */\n      dup3\n        /* \"#utility.yul\":14223:14239   */\n      shl\n        /* \"#utility.yul\":14202:14239   */\n      swap1\n      pop\n        /* \"#utility.yul\":14139:14246   */\n      swap3\n      swap2\n      pop\n      pop\n      jump\t// out\n        /* \"#utility.yul\":14252:14645   */\n    tag_150:\n        /* \"#utility.yul\":14321:14327   */\n      0x00\n        /* \"#utility.yul\":14371:14372   */\n      0x08\n        /* \"#utility.yul\":14359:14369   */\n      dup4\n        /* \"#utility.yul\":14355:14373   */\n      mul\n        /* \"#utility.yul\":14394:14491   */\n      tag_306\n        /* \"#utility.yul\":14424:14490   */\n      0xffffffffffffffffffffffffffffffffffffffffffffffffffffffffffffffff\n        /* \"#utility.yul\":14413:14422   */\n      dup3\n        /* \"#utility.yul\":14394:14491   */\n      tag_149\n      jump\t// in\n    tag_306:\n        /* \"#utility.yul\":14512:14551   */\n      tag_307\n        /* \"#utility.yul\":14542:14550   */\n      dup7\n        /* \"#utility.yul\":14531:14540   */\n      dup4\n        /* \"#utility.yul\":14512:14551   */\n      tag_149\n      jump\t// in\n    tag_307:\n        /* \"#utility.yul\":14500:14551   */\n      swap6\n      pop\n        /* \"#utility.yul\":14584:14588   */\n      dup1\n        /* \"#utility.yul\":14580:14589   */\n      not\n        /* \"#utility.yul\":14573:14578   */\n      dup5\n        /* \"#utility.yul\":14569:14590   */\n      and\n        /* \"#utility.yul\":14560:14590   */\n      swap4\n      pop\n        /* \"#utility.yul\":14633:14637   */\n      dup1\n        /* \"#utility.yul\":14623:14631   */\n      dup7\n        /* \"#utility.yul\":14619:14638   */\n      and\n        /* \"#utility.yul\":14612:14617   */\n      dup5\n        /* \"#utility.yul\":14609:14639   */\n      or\n        /* \"#utility.yul\":14599:14639   */\n      swap3\n      pop\n        /* \"#utility.yul\":14328:14645   */\n      pop\n      pop\n        /* \"#utility.yul\":14252:14645   */\n      swap4\n      swap3\n      pop\n      pop\n      pop\n      jump\t// out\n        /* \"#utility.yul\":14651:14711   */\n    tag_151:\n        /* \"#utility.yul\":14679:14682   */\n      0x00\n        /* \"#utility.yul\":14700:14705   */\n      dup2\n        /* \"#utility.yul\":14693:14705   */\n      swap1\n      pop\n        /* \"#utility.yul\":14651:14711   */\n      swap2\n      swap1\n      pop\n      jump\t// out\n        /* \"#utility.yul\":14717:14859   */\n    tag_152:\n        /* \"#utility.yul\":14767:14776   */\n      0x00\n        /* \"#utility.yul\":14800:14853   */\n      tag_310\n        /* \"#utility.yul\":14818:14852   */\n      tag_311\n        /* \"#utility.yul\":14827:14851   */\n      tag_312\n        /* \"#utility.yul\":14845:14850   */\n      dup5\n        /* \"#utility.yul\":14827:14851   */\n      tag_106\n      jump\t// in\n    tag_312:\n        /* \"#utility.yul\":14818:14852   */\n      tag_151\n      jump\t// in\n    tag_311:\n        /* \"#utility.yul\":14800:14853   */\n      tag_106\n      jump\t// in\n    tag_310:\n        /* \"#utility.yul\":14787:14853   */\n      swap1\n      pop\n        /* \"#utility.yul\":14717:14859   */\n      swap2\n      swap1\n      pop\n      jump\t// out\n        /* \"#utility.yul\":14865:14940   */\n    tag_153:\n        /* \"#utility.yul\":14908:14911   */\n      0x00\n        /* \"#utility.yul\":14929:14934   */\n      dup2\n        /* \"#utility.yul\":14922:14934   */\n      swap1\n      pop\n        /* \"#utility.yul\":14865:14940   */\n      swap2\n      swap1\n      pop\n      jump\t// out\n        /* \"#utility.yul\":14946:15215   */\n    tag_154:\n        /* \"#utility.yul\":15056:15095   */\n      tag_315\n        /* \"#utility.yul\":15087:15094   */\n      dup4\n        /* \"#utility.yul\":15056:15095   */\n      tag_152\n      jump\t// in\n    tag_315:\n        /* \"#utility.yul\":15117:15208   */\n      tag_316\n        /* \"#utility.yul\":15166:15207   */\n      tag_317\n        /* \"#utility.yul\":15190:15206   */\n      dup3\n        /* \"#utility.yul\":15166:15207   */\n      tag_153\n      jump\t// in\n    tag_317:\n        /* \"#utility.yul\":15158:15164   */\n      dup5\n        /* \"#utility.yul\":15151:15155   */\n      dup5\n        /* \"#utility.yul\":15145:15156   */\n      sload\n        /* \"#utility.yul\":15117:15208   */\n      tag_150\n      jump\t// in\n    tag_316:\n        /* \"#utility.yul\":15111:15115   */\n      dup3\n        /* \"#utility.yul\":15104:15209   */\n      sstore\n        /* \"#utility.yul\":15022:15215   */\n      pop\n        /* \"#utility.yul\":14946:15215   */\n      pop\n      pop\n      pop\n      jump\t// out\n        /* \"#utility.yul\":15221:15294   */\n    tag_155:\n        /* \"#utility.yul\":15266:15269   */\n      0x00\n        /* \"#utility.yul\":15221:15294   */\n      swap1\n      jump\t// out\n        /* \"#utility.yul\":15300:15489   */\n    tag_156:\n        /* \"#utility.yul\":15377:15409   */\n      tag_320\n      tag_155\n      jump\t// in\n    tag_320:\n        /* \"#utility.yul\":15418:15483   */\n      tag_321\n        /* \"#utility.yul\":15476:15482   */\n      dup2\n        /* \"#utility.yul\":15468:15474   */\n      dup5\n        /* \"#utility.yul\":15462:15466   */\n      dup5\n        /* \"#utility.yul\":15418:15483   */\n      tag_154\n      jump\t// in\n    tag_321:\n        /* \"#utility.yul\":15353:15489   */\n      pop\n        /* \"#utility.yul\":15300:15489   */\n      pop\n      pop\n      jump\t// out\n        /* \"#utility.yul\":15495:15681   */\n    tag_157:\n        /* \"#utility.yul\":15555:15675   */\n    tag_323:\n        /* \"#utility.yul\":15572:15575   */\n      dup2\n        /* \"#utility.yul\":15565:15570   */\n      dup2\n        /* \"#utility.yul\":15562:15576   */\n      lt\n        /* \"#utility.yul\":15555:15675   */\n      iszero\n      tag_325\n      jumpi\n        /* \"#utility.yul\":15626:15665   */\n      tag_326\n        /* \"#utility.yul\":15663:15664   */\n      0x00\n        /* \"#utility.yul\":15656:15661   */\n      dup3\n        /* \"#utility.yul\":15626:15665   */\n      tag_156\n      jump\t// in\n    tag_326:\n        /* \"#utility.yul\":15599:15600   */\n      0x01\n        /* \"#utility.yul\":15592:15597   */\n      dup2\n        /* \"#utility.yul\":15588:15601   */\n      add\n        /* \"#utility.yul\":15579:15601   */\n      swap1\n      pop\n        /* \"#utility.yul\":15555:15675   */\n      jump(tag_323)\n    tag_325:\n        /* \"#utility.yul\":15495:15681   */\n      pop\n      pop\n      jump\t// out\n        /* \"#utility.yul\":15687:16230   */\n    tag_158:\n        /* \"#utility.yul\":15788:15790   */\n      0x1f\n        /* \"#utility.yul\":15783:15786   */\n      dup3\n        /* \"#utility.yul\":15780:15791   */\n      gt\n        /* \"#utility.yul\":15777:16223   */\n      iszero\n      tag_328\n      jumpi\n        /* \"#utility.yul\":15822:15860   */\n      tag_329\n        /* \"#utility.yul\":15854:15859   */\n      dup2\n        /* \"#utility.yul\":15822:15860   */\n      tag_147\n      jump\t// in\n    tag_329:\n        /* \"#utility.yul\":15906:15935   */\n      tag_330\n        /* \"#utility.yul\":15924:15934   */\n      dup5\n        /* \"#utility.yul\":15906:15935   */\n      tag_148\n      jump\t// in\n    tag_330:\n        /* \"#utility.yul\":15896:15904   */\n      dup2\n        /* \"#utility.yul\":15892:15936   */\n      add\n        /* \"#utility.yul\":16089:16091   */\n      0x20\n        /* \"#utility.yul\":16077:16087   */\n      dup6\n        /* \"#utility.yul\":16074:16092   */\n      lt\n        /* \"#utility.yul\":16071:16120   */\n      iszero\n      tag_331\n      jumpi\n        /* \"#utility.yul\":16110:16118   */\n      dup2\n        /* \"#utility.yul\":16095:16118   */\n      swap1\n      pop\n        /* \"#utility.yul\":16071:16120   */\n    tag_331:\n        /* \"#utility.yul\":16133:16213   */\n      tag_332\n        /* \"#utility.yul\":16189:16211   */\n      tag_333\n        /* \"#utility.yul\":16207:16210   */\n      dup6\n        /* \"#utility.yul\":16189:16211   */\n      tag_148\n      jump\t// in\n    tag_333:\n        /* \"#utility.yul\":16179:16187   */\n      dup4\n        /* \"#utility.yul\":16175:16212   */\n      add\n        /* \"#utility.yul\":16162:16173   */\n      dup3\n        /* \"#utility.yul\":16133:16213   */\n      tag_157\n      jump\t// in\n    tag_332:\n        /* \"#utility.yul\":15792:16223   */\n      pop\n      pop\n        /* \"#utility.yul\":15777:16223   */\n    tag_328:\n        /* \"#utility.yul\":15687:16230   */\n      pop\n      pop\n      pop\n      jump\t// out\n        /* \"#utility.yul\":16236:16353   */\n    tag_159:\n        /* \"#utility.yul\":16290:16298   */\n      0x00\n        /* \"#utility.yul\":16340:16345   */\n      dup3\n        /* \"#utility.yul\":16334:16338   */\n      dup3\n        /* \"#utility.yul\":16330:16346   */\n      shr\n        /* \"#utility.yul\":16309:16346   */\n      swap1\n      pop\n        /* \"#utility.yul\":16236:16353   */\n      swap3\n      swap2\n      pop\n      pop\n      jump\t// out\n        /* \"#utility.yul\":16359:16528   */\n    tag_160:\n        /* \"#utility.yul\":16403:16409   */\n      0x00\n        /* \"#utility.yul\":16436:16487   */\n      tag_336\n        /* \"#utility.yul\":16484:16485   */\n      0x00\n        /* \"#utility.yul\":16480:16486   */\n      not\n        /* \"#utility.yul\":16472:16477   */\n      dup5\n        /* \"#utility.yul\":16469:16470   */\n      0x08\n        /* \"#utility.yul\":16465:16478   */\n      mul\n        /* \"#utility.yul\":16436:16487   */\n      tag_159\n      jump\t// in\n    tag_336:\n        /* \"#utility.yul\":16432:16488   */\n      not\n        /* \"#utility.yul\":16517:16521   */\n      dup1\n        /* \"#utility.yul\":16511:16515   */\n      dup4\n        /* \"#utility.yul\":16507:16522   */\n      and\n        /* \"#utility.yul\":16497:16522   */\n      swap2\n      pop\n        /* \"#utility.yul\":16410:16528   */\n      pop\n        /* \"#utility.yul\":16359:16528   */\n      swap3\n      swap2\n      pop\n      pop\n      jump\t// out\n        /* \"#utility.yul\":16533:16828   */\n    tag_161:\n        /* \"#utility.yul\":16609:16613   */\n      0x00\n        /* \"#utility.yul\":16755:16784   */\n      tag_338\n        /* \"#utility.yul\":16780:16783   */\n      dup4\n        /* \"#utility.yul\":16774:16778   */\n      dup4\n        /* \"#utility.yul\":16755:16784   */\n      tag_160\n      jump\t// in\n    tag_338:\n        /* \"#utility.yul\":16747:16784   */\n      swap2\n      pop\n        /* \"#utility.yul\":16817:16820   */\n      dup3\n        /* \"#utility.yul\":16814:16815   */\n      0x02\n        /* \"#utility.yul\":16810:16821   */\n      mul\n        /* \"#utility.yul\":16804:16808   */\n      dup3\n        /* \"#utility.yul\":16801:16822   */\n      or\n        /* \"#utility.yul\":16793:16822   */\n      swap1\n      pop\n        /* \"#utility.yul\":16533:16828   */\n      swap3\n      swap2\n      pop\n      pop\n      jump\t// out\n        /* \"#utility.yul\":16833:18228   */\n    tag_78:\n        /* \"#utility.yul\":16950:16987   */\n      tag_340\n        /* \"#utility.yul\":16983:16986   */\n      dup3\n        /* \"#utility.yul\":16950:16987   */\n      tag_132\n      jump\t// in\n    tag_340:\n        /* \"#utility.yul\":17052:17070   */\n      0xffffffffffffffff\n        /* \"#utility.yul\":17044:17050   */\n      dup2\n        /* \"#utility.yul\":17041:17071   */\n      gt\n        /* \"#utility.yul\":17038:17094   */\n      iszero\n      tag_341\n      jumpi\n        /* \"#utility.yul\":17074:17092   */\n      tag_342\n      tag_125\n      jump\t// in\n    tag_342:\n        /* \"#utility.yul\":17038:17094   */\n    tag_341:\n        /* \"#utility.yul\":17118:17156   */\n      tag_343\n        /* \"#utility.yul\":17150:17154   */\n      dup3\n        /* \"#utility.yul\":17144:17155   */\n      sload\n        /* \"#utility.yul\":17118:17156   */\n      tag_98\n      jump\t// in\n    tag_343:\n        /* \"#utility.yul\":17203:17270   */\n      tag_344\n        /* \"#utility.yul\":17263:17269   */\n      dup3\n        /* \"#utility.yul\":17255:17261   */\n      dup3\n        /* \"#utility.yul\":17249:17253   */\n      dup6\n        /* \"#utility.yul\":17203:17270   */\n      tag_158\n      jump\t// in\n    tag_344:\n        /* \"#utility.yul\":17297:17298   */\n      0x00\n        /* \"#utility.yul\":17321:17325   */\n      0x20\n        /* \"#utility.yul\":17308:17325   */\n      swap1\n      pop\n        /* \"#utility.yul\":17353:17355   */\n      0x1f\n        /* \"#utility.yul\":17345:17351   */\n      dup4\n        /* \"#utility.yul\":17342:17356   */\n      gt\n        /* \"#utility.yul\":17370:17371   */\n      0x01\n        /* \"#utility.yul\":17365:17983   */\n      dup2\n      eq\n      tag_346\n      jumpi\n        /* \"#utility.yul\":18027:18028   */\n      0x00\n        /* \"#utility.yul\":18044:18050   */\n      dup5\n        /* \"#utility.yul\":18041:18118   */\n      iszero\n      tag_347\n      jumpi\n        /* \"#utility.yul\":18093:18102   */\n      dup3\n        /* \"#utility.yul\":18088:18091   */\n      dup8\n        /* \"#utility.yul\":18084:18103   */\n      add\n        /* \"#utility.yul\":18078:18104   */\n      mload\n        /* \"#utility.yul\":18069:18104   */\n      swap1\n      pop\n        /* \"#utility.yul\":18041:18118   */\n    tag_347:\n        /* \"#utility.yul\":18144:18211   */\n      tag_348\n        /* \"#utility.yul\":18204:18210   */\n      dup6\n        /* \"#utility.yul\":18197:18202   */\n      dup3\n        /* \"#utility.yul\":18144:18211   */\n      tag_161\n      jump\t// in\n    tag_348:\n        /* \"#utility.yul\":18138:18142   */\n      dup7\n        /* \"#utility.yul\":18131:18212   */\n      sstore\n        /* \"#utility.yul\":18000:18222   */\n      pop\n        /* \"#utility.yul\":17335:18222   */\n      jump(tag_345)\n        /* \"#utility.yul\":17365:17983   */\n    tag_346:\n        /* \"#utility.yul\":17417:17421   */\n      0x1f\n        /* \"#utility.yul\":17413:17422   */\n      not\n        /* \"#utility.yul\":17405:17411   */\n      dup5\n        /* \"#utility.yul\":17401:17423   */\n      and\n        /* \"#utility.yul\":17451:17488   */\n      tag_349\n        /* \"#utility.yul\":17483:17487   */\n      dup7\n        /* \"#utility.yul\":17451:17488   */\n      tag_147\n      jump\t// in\n    tag_349:\n        /* \"#utility.yul\":17510:17511   */\n      0x00\n        /* \"#utility.yul\":17524:17732   */\n    tag_350:\n        /* \"#utility.yul\":17538:17545   */\n      dup3\n        /* \"#utility.yul\":17535:17536   */\n      dup2\n        /* \"#utility.yul\":17532:17546   */\n      lt\n        /* \"#utility.yul\":17524:17732   */\n      iszero\n      tag_352\n      jumpi\n        /* \"#utility.yul\":17617:17626   */\n      dup5\n        /* \"#utility.yul\":17612:17615   */\n      dup10\n        /* \"#utility.yul\":17608:17627   */\n      add\n        /* \"#utility.yul\":17602:17628   */\n      mload\n        /* \"#utility.yul\":17594:17600   */\n      dup3\n        /* \"#utility.yul\":17587:17629   */\n      sstore\n        /* \"#utility.yul\":17668:17669   */\n      0x01\n        /* \"#utility.yul\":17660:17666   */\n      dup3\n        /* \"#utility.yul\":17656:17670   */\n      add\n        /* \"#utility.yul\":17646:17670   */\n      swap2\n      pop\n        /* \"#utility.yul\":17715:17717   */\n      0x20\n        /* \"#utility.yul\":17704:17713   */\n      dup6\n        /* \"#utility.yul\":17700:17718   */\n      add\n        /* \"#utility.yul\":17687:17718   */\n      swap5\n      pop\n        /* \"#utility.yul\":17561:17565   */\n      0x20\n        /* \"#utility.yul\":17558:17559   */\n      dup2\n        /* \"#utility.yul\":17554:17566   */\n      add\n        /* \"#utility.yul\":17549:17566   */\n      swap1\n      pop\n        /* \"#utility.yul\":17524:17732   */\n      jump(tag_350)\n    tag_352:\n        /* \"#utility.yul\":17760:17766   */\n      dup7\n        /* \"#utility.yul\":17751:17758   */\n      dup4\n        /* \"#utility.yul\":17748:17767   */\n      lt\n        /* \"#utility.yul\":17745:17924   */\n      iszero\n      tag_353\n      jumpi\n        /* \"#utility.yul\":17818:17827   */\n      dup5\n        /* \"#utility.yul\":17813:17816   */\n      dup10\n        /* \"#utility.yul\":17809:17828   */\n      add\n        /* \"#utility.yul\":17803:17829   */\n      mload\n        /* \"#utility.yul\":17861:17909   */\n      tag_354\n        /* \"#utility.yul\":17903:17907   */\n      0x1f\n        /* \"#utility.yul\":17895:17901   */\n      dup10\n        /* \"#utility.yul\":17891:17908   */\n      and\n        /* \"#utility.yul\":17880:17889   */\n      dup3\n        /* \"#utility.yul\":17861:17909   */\n      tag_160\n      jump\t// in\n    tag_354:\n        /* \"#utility.yul\":17853:17859   */\n      dup4\n        /* \"#utility.yul\":17846:17910   */\n      sstore\n        /* \"#utility.yul\":17768:17924   */\n      pop\n        /* \"#utility.yul\":17745:17924   */\n    tag_353:\n        /* \"#utility.yul\":17970:17971   */\n      0x01\n        /* \"#utility.yul\":17966:17967   */\n      0x02\n        /* \"#utility.yul\":17958:17964   */\n      dup9\n        /* \"#utility.yul\":17954:17968   */\n      mul\n        /* \"#utility.yul\":17950:17972   */\n      add\n        /* \"#utility.yul\":17944:17948   */\n      dup9\n        /* \"#utility.yul\":17937:17973   */\n      sstore\n        /* \"#utility.yul\":17372:17983   */\n      pop\n      pop\n      pop\n        /* \"#utility.yul\":17335:18222   */\n    tag_345:\n      pop\n        /* \"#utility.yul\":16925:18228   */\n      pop\n      pop\n      pop\n        /* \"#utility.yul\":16833:18228   */\n      pop\n      pop\n      jump\t// out\n        /* \"#utility.yul\":18234:18413   */\n    tag_162:\n        /* \"#utility.yul\":18374:18405   */\n      0x436172206973206e6f7420617661696c61626c6520666f722072656e74000000\n        /* \"#utility.yul\":18370:18371   */\n      0x00\n        /* \"#utility.yul\":18362:18368   */\n      dup3\n        /* \"#utility.yul\":18358:18372   */\n      add\n        /* \"#utility.yul\":18351:18406   */\n      mstore\n        /* \"#utility.yul\":18234:18413   */\n      pop\n      jump\t// out\n        /* \"#utility.yul\":18419:18785   */\n    tag_163:\n        /* \"#utility.yul\":18561:18564   */\n      0x00\n        /* \"#utility.yul\":18582:18649   */\n      tag_357\n        /* \"#utility.yul\":18646:18648   */\n      0x1d\n        /* \"#utility.yul\":18641:18644   */\n      dup4\n        /* \"#utility.yul\":18582:18649   */\n      tag_133\n      jump\t// in\n    tag_357:\n        /* \"#utility.yul\":18575:18649   */\n      swap2\n      pop\n        /* \"#utility.yul\":18658:18751   */\n      tag_358\n        /* \"#utility.yul\":18747:18750   */\n      dup3\n        /* \"#utility.yul\":18658:18751   */\n      tag_162\n      jump\t// in\n    tag_358:\n        /* \"#utility.yul\":18776:18778   */\n      0x20\n        /* \"#utility.yul\":18771:18774   */\n      dup3\n        /* \"#utility.yul\":18767:18779   */\n      add\n        /* \"#utility.yul\":18760:18779   */\n      swap1\n      pop\n        /* \"#utility.yul\":18419:18785   */\n      swap2\n      swap1\n      pop\n      jump\t// out\n        /* \"#utility.yul\":18791:19210   */\n    tag_85:\n        /* \"#utility.yul\":18957:18961   */\n      0x00\n        /* \"#utility.yul\":18995:18997   */\n      0x20\n        /* \"#utility.yul\":18984:18993   */\n      dup3\n        /* \"#utility.yul\":18980:18998   */\n      add\n        /* \"#utility.yul\":18972:18998   */\n      swap1\n      pop\n        /* \"#utility.yul\":19044:19053   */\n      dup2\n        /* \"#utility.yul\":19038:19042   */\n      dup2\n        /* \"#utility.yul\":19034:19054   */\n      sub\n        /* \"#utility.yul\":19030:19031   */\n      0x00\n        /* \"#utility.yul\":19019:19028   */\n      dup4\n        /* \"#utility.yul\":19015:19032   */\n      add\n        /* \"#utility.yul\":19008:19055   */\n      mstore\n        /* \"#utility.yul\":19072:19203   */\n      tag_360\n        /* \"#utility.yul\":19198:19202   */\n      dup2\n        /* \"#utility.yul\":19072:19203   */\n      tag_163\n      jump\t// in\n    tag_360:\n        /* \"#utility.yul\":19064:19203   */\n      swap1\n      pop\n        /* \"#utility.yul\":18791:19210   */\n      swap2\n      swap1\n      pop\n      jump\t// out\n        /* \"#utility.yul\":19216:19386   */\n    tag_164:\n        /* \"#utility.yul\":19356:19378   */\n      0x496e73756666696369656e74207061796d656e74000000000000000000000000\n        /* \"#utility.yul\":19352:19353   */\n      0x00\n        /* \"#utility.yul\":19344:19350   */\n      dup3\n        /* \"#utility.yul\":19340:19354   */\n      add\n        /* \"#utility.yul\":19333:19379   */\n      mstore\n        /* \"#utility.yul\":19216:19386   */\n      pop\n      jump\t// out\n        /* \"#utility.yul\":19392:19758   */\n    tag_165:\n        /* \"#utility.yul\":19534:19537   */\n      0x00\n        /* \"#utility.yul\":19555:19622   */\n      tag_363\n        /* \"#utility.yul\":19619:19621   */\n      0x14\n        /* \"#utility.yul\":19614:19617   */\n      dup4\n        /* \"#utility.yul\":19555:19622   */\n      tag_133\n      jump\t// in\n    tag_363:\n        /* \"#utility.yul\":19548:19622   */\n      swap2\n      pop\n        /* \"#utility.yul\":19631:19724   */\n      tag_364\n        /* \"#utility.yul\":19720:19723   */\n      dup3\n        /* \"#utility.yul\":19631:19724   */\n      tag_164\n      jump\t// in\n    tag_364:\n        /* \"#utility.yul\":19749:19751   */\n      0x20\n        /* \"#utility.yul\":19744:19747   */\n      dup3\n        /* \"#utility.yul\":19740:19752   */\n      add\n        /* \"#utility.yul\":19733:19752   */\n      swap1\n      pop\n        /* \"#utility.yul\":19392:19758   */\n      swap2\n      swap1\n      pop\n      jump\t// out\n        /* \"#utility.yul\":19764:20183   */\n    tag_88:\n        /* \"#utility.yul\":19930:19934   */\n      0x00\n        /* \"#utility.yul\":19968:19970   */\n      0x20\n        /* \"#utility.yul\":19957:19966   */\n      dup3\n        /* \"#utility.yul\":19953:19971   */\n      add\n        /* \"#utility.yul\":19945:19971   */\n      swap1\n      pop\n        /* \"#utility.yul\":20017:20026   */\n      dup2\n        /* \"#utility.yul\":20011:20015   */\n      dup2\n        /* \"#utility.yul\":20007:20027   */\n      sub\n        /* \"#utility.yul\":20003:20004   */\n      0x00\n        /* \"#utility.yul\":19992:20001   */\n      dup4\n        /* \"#utility.yul\":19988:20005   */\n      add\n        /* \"#utility.yul\":19981:20028   */\n      mstore\n        /* \"#utility.yul\":20045:20176   */\n      tag_366\n        /* \"#utility.yul\":20171:20175   */\n      dup2\n        /* \"#utility.yul\":20045:20176   */\n      tag_165\n      jump\t// in\n    tag_366:\n        /* \"#utility.yul\":20037:20176   */\n      swap1\n      pop\n        /* \"#utility.yul\":19764:20183   */\n      swap2\n      swap1\n      pop\n      jump\t// out\n        /* \"#utility.yul\":20189:20369   */\n    tag_166:\n        /* \"#utility.yul\":20237:20314   */\n      0x4e487b7100000000000000000000000000000000000000000000000000000000\n        /* \"#utility.yul\":20234:20235   */\n      0x00\n        /* \"#utility.yul\":20227:20315   */\n      mstore\n        /* \"#utility.yul\":20334:20338   */\n      0x11\n        /* \"#utility.yul\":20331:20332   */\n      0x04\n        /* \"#utility.yul\":20324:20339   */\n      mstore\n        /* \"#utility.yul\":20358:20362   */\n      0x24\n        /* \"#utility.yul\":20355:20356   */\n      0x00\n        /* \"#utility.yul\":20348:20363   */\n      revert\n        /* \"#utility.yul\":20375:20569   */\n    tag_92:\n        /* \"#utility.yul\":20415:20419   */\n      0x00\n        /* \"#utility.yul\":20435:20455   */\n      tag_369\n        /* \"#utility.yul\":20453:20454   */\n      dup3\n        /* \"#utility.yul\":20435:20455   */\n      tag_106\n      jump\t// in\n    tag_369:\n        /* \"#utility.yul\":20430:20455   */\n      swap2\n      pop\n        /* \"#utility.yul\":20469:20489   */\n      tag_370\n        /* \"#utility.yul\":20487:20488   */\n      dup4\n        /* \"#utility.yul\":20469:20489   */\n      tag_106\n      jump\t// in\n    tag_370:\n        /* \"#utility.yul\":20464:20489   */\n      swap3\n      pop\n        /* \"#utility.yul\":20513:20514   */\n      dup3\n        /* \"#utility.yul\":20510:20511   */\n      dup3\n        /* \"#utility.yul\":20506:20515   */\n      sub\n        /* \"#utility.yul\":20498:20515   */\n      swap1\n      pop\n        /* \"#utility.yul\":20537:20538   */\n      dup2\n        /* \"#utility.yul\":20531:20535   */\n      dup2\n        /* \"#utility.yul\":20528:20539   */\n      gt\n        /* \"#utility.yul\":20525:20562   */\n      iszero\n      tag_371\n      jumpi\n        /* \"#utility.yul\":20542:20560   */\n      tag_372\n      tag_166\n      jump\t// in\n    tag_372:\n        /* \"#utility.yul\":20525:20562   */\n    tag_371:\n        /* \"#utility.yul\":20375:20569   */\n      swap3\n      swap2\n      pop\n      pop\n      jump\t// out\n        /* \"#utility.yul\":20575:20766   */\n    tag_94:\n        /* \"#utility.yul\":20615:20618   */\n      0x00\n        /* \"#utility.yul\":20634:20654   */\n      tag_374\n        /* \"#utility.yul\":20652:20653   */\n      dup3\n        /* \"#utility.yul\":20634:20654   */\n      tag_106\n      jump\t// in\n    tag_374:\n        /* \"#utility.yul\":20629:20654   */\n      swap2\n      pop\n        /* \"#utility.yul\":20668:20688   */\n      tag_375\n        /* \"#utility.yul\":20686:20687   */\n      dup4\n        /* \"#utility.yul\":20668:20688   */\n      tag_106\n      jump\t// in\n    tag_375:\n        /* \"#utility.yul\":20663:20688   */\n      swap3\n      pop\n        /* \"#utility.yul\":20711:20712   */\n      dup3\n        /* \"#utility.yul\":20708:20709   */\n      dup3\n        /* \"#utility.yul\":20704:20713   */\n      add\n        /* \"#utility.yul\":20697:20713   */\n      swap1\n      pop\n        /* \"#utility.yul\":20732:20735   */\n      dup1\n        /* \"#utility.yul\":20729:20730   */\n      dup3\n        /* \"#utility.yul\":20726:20736   */\n      gt\n        /* \"#utility.yul\":20723:20759   */\n      iszero\n      tag_376\n      jumpi\n        /* \"#utility.yul\":20739:20757   */\n      tag_377\n      tag_166\n      jump\t// in\n    tag_377:\n        /* \"#utility.yul\":20723:20759   */\n    tag_376:\n        /* \"#utility.yul\":20575:20766   */\n      swap3\n      swap2\n      pop\n      pop\n      jump\t// out\n        /* \"#utility.yul\":20772:21214   */\n    tag_96:\n        /* \"#utility.yul\":20921:20925   */\n      0x00\n        /* \"#utility.yul\":20959:20961   */\n      0x60\n        /* \"#utility.yul\":20948:20957   */\n      dup3\n        /* \"#utility.yul\":20944:20962   */\n      add\n        /* \"#utility.yul\":20936:20962   */\n      swap1\n      pop\n        /* \"#utility.yul\":20972:21043   */\n      tag_379\n        /* \"#utility.yul\":21040:21041   */\n      0x00\n        /* \"#utility.yul\":21029:21038   */\n      dup4\n        /* \"#utility.yul\":21025:21042   */\n      add\n        /* \"#utility.yul\":21016:21022   */\n      dup7\n        /* \"#utility.yul\":20972:21043   */\n      tag_120\n      jump\t// in\n    tag_379:\n        /* \"#utility.yul\":21053:21125   */\n      tag_380\n        /* \"#utility.yul\":21121:21123   */\n      0x20\n        /* \"#utility.yul\":21110:21119   */\n      dup4\n        /* \"#utility.yul\":21106:21124   */\n      add\n        /* \"#utility.yul\":21097:21103   */\n      dup6\n        /* \"#utility.yul\":21053:21125   */\n      tag_121\n      jump\t// in\n    tag_380:\n        /* \"#utility.yul\":21135:21207   */\n      tag_381\n        /* \"#utility.yul\":21203:21205   */\n      0x40\n        /* \"#utility.yul\":21192:21201   */\n      dup4\n        /* \"#utility.yul\":21188:21206   */\n      add\n        /* \"#utility.yul\":21179:21185   */\n      dup5\n        /* \"#utility.yul\":21135:21207   */\n      tag_120\n      jump\t// in\n    tag_381:\n        /* \"#utility.yul\":20772:21214   */\n      swap5\n      swap4\n      pop\n      pop\n      pop\n      pop\n      jump\t// out\n\n    auxdata: 0xa2646970667358221220bcc8464c55a39804bc4ff8d5561694996057bb7689ef5a24a0640fe1fda35dcf64736f6c63430008120033\n}\n",
				"bytecode": {
					"linkReferences": {},
					"object": "608060405234801561001057600080fd5b5033600160006101000a81548173ffffffffffffffffffffffffffffffffffffffff021916908373ffffffffffffffffffffffffffffffffffffffff16021790555061149d806100616000396000f3fe6080604052600436106100865760003560e01c80638da5cb5b116100595780638da5cb5b14610133578063ab2a45e91461015e578063c2df579514610187578063e1e8aab7146101c4578063f7746e36146101e057610086565b806317f956e01461008b578063243c5c07146100b457806327e235e3146100df5780635fd8c7101461011c575b600080fd5b34801561009757600080fd5b506100b260048036038101906100ad9190610960565b610220565b005b3480156100c057600080fd5b506100c96102e1565b6040516100d69190610a4b565b60405180910390f35b3480156100eb57600080fd5b5061010660048036038101906101019190610acb565b610339565b6040516101139190610b07565b60405180910390f35b34801561012857600080fd5b50610131610351565b005b34801561013f57600080fd5b50610148610467565b6040516101559190610b31565b60405180910390f35b34801561016a57600080fd5b5061018560048036038101906101809190610c92565b61048d565b005b34801561019357600080fd5b506101ae60048036038101906101a99190610960565b610631565b6040516101bb9190610b07565b60405180910390f35b6101de60048036038101906101d99190610960565b610655565b005b3480156101ec57600080fd5b5061020760048036038101906102029190610960565b610851565b6040516102179493929190610d9b565b60405180910390f35b600160009054906101000a900473ffffffffffffffffffffffffffffffffffffffff1673ffffffffffffffffffffffffffffffffffffffff163373ffffffffffffffffffffffffffffffffffffffff16146102b0576040517f08c379a00000000000000000000000000000000000000000000000000000000081526004016102a790610e59565b60405180910390fd5b600160008083815260200190815260200160002060020160006101000a81548160ff02191690831515021790555050565b6060600380548060200260200160405190810160405280929190818152602001828054801561032f57602002820191906000526020600020905b81548152602001906001019080831161031b575b5050505050905090565b60026020528060005260406000206000915090505481565b6000600260003373ffffffffffffffffffffffffffffffffffffffff1673ffffffffffffffffffffffffffffffffffffffff168152602001908152602001600020549050600081116103d8576040517f08c379a00000000000000000000000000000000000000000000000000000000081526004016103cf90610ec5565b60405180910390fd5b6000600260003373ffffffffffffffffffffffffffffffffffffffff1673ffffffffffffffffffffffffffffffffffffffff168152602001908152602001600020819055503373ffffffffffffffffffffffffffffffffffffffff166108fc829081150290604051600060405180830381858888f19350505050158015610463573d6000803e3d6000fd5b5050565b600160009054906101000a900473ffffffffffffffffffffffffffffffffffffffff1681565b600160009054906101000a900473ffffffffffffffffffffffffffffffffffffffff1673ffffffffffffffffffffffffffffffffffffffff163373ffffffffffffffffffffffffffffffffffffffff161461051d576040517f08c379a000000000000000000000000000000000000000000000000000000000815260040161051490610f57565b60405180910390fd5b60008084815260200190815260200160002060020160009054906101000a900460ff1615610580576040517f08c379a000000000000000000000000000000000000000000000000000000000815260040161057790610fc3565b60405180910390fd5b6040518060800160405280848152602001838152602001600115158152602001828152506000808581526020019081526020016000206000820151816000015560208201518160010190816105d591906111ef565b5060408201518160020160006101000a81548160ff021916908315150217905550606082015181600301559050506003839080600181540180825580915050600190039060005260206000200160009091909190915055505050565b6003818154811061064157600080fd5b906000526020600020016000915090505481565b60008082815260200190815260200160002060020160009054906101000a900460ff166106b7576040517f08c379a00000000000000000000000000000000000000000000000000000000081526004016106ae9061130d565b60405180910390fd5b600080600083815260200190815260200160002060030154905080341015610714576040517f08c379a000000000000000000000000000000000000000000000000000000000815260040161070b90611379565b60405180910390fd5b6000600160009054906101000a900473ffffffffffffffffffffffffffffffffffffffff1690508073ffffffffffffffffffffffffffffffffffffffff166108fc839081150290604051600060405180830381858888f19350505050158015610781573d6000803e3d6000fd5b50813461078e91906113c8565b600260003373ffffffffffffffffffffffffffffffffffffffff1673ffffffffffffffffffffffffffffffffffffffff16815260200190815260200160002060008282546107dc91906113fc565b92505081905550600080600085815260200190815260200160002060020160006101000a81548160ff0219169083151502179055507fe880d822f4bdb63368fee99cd4a95706e7c7fdf51c0d2edd68bb8f4d0ea0fe7283338460405161084493929190611430565b60405180910390a1505050565b600060205280600052604060002060009150905080600001549080600101805461087a90611012565b80601f01602080910402602001604051908101604052809291908181526020018280546108a690611012565b80156108f35780601f106108c8576101008083540402835291602001916108f3565b820191906000526020600020905b8154815290600101906020018083116108d657829003601f168201915b5050505050908060020160009054906101000a900460ff16908060030154905084565b6000604051905090565b600080fd5b600080fd5b6000819050919050565b61093d8161092a565b811461094857600080fd5b50565b60008135905061095a81610934565b92915050565b60006020828403121561097657610975610920565b5b60006109848482850161094b565b91505092915050565b600081519050919050565b600082825260208201905092915050565b6000819050602082019050919050565b6109c28161092a565b82525050565b60006109d483836109b9565b60208301905092915050565b6000602082019050919050565b60006109f88261098d565b610a028185610998565b9350610a0d836109a9565b8060005b83811015610a3e578151610a2588826109c8565b9750610a30836109e0565b925050600181019050610a11565b5085935050505092915050565b60006020820190508181036000830152610a6581846109ed565b905092915050565b600073ffffffffffffffffffffffffffffffffffffffff82169050919050565b6000610a9882610a6d565b9050919050565b610aa881610a8d565b8114610ab357600080fd5b50565b600081359050610ac581610a9f565b92915050565b600060208284031215610ae157610ae0610920565b5b6000610aef84828501610ab6565b91505092915050565b610b018161092a565b82525050565b6000602082019050610b1c6000830184610af8565b92915050565b610b2b81610a8d565b82525050565b6000602082019050610b466000830184610b22565b92915050565b600080fd5b600080fd5b6000601f19601f8301169050919050565b7f4e487b7100000000000000000000000000000000000000000000000000000000600052604160045260246000fd5b610b9f82610b56565b810181811067ffffffffffffffff82111715610bbe57610bbd610b67565b5b80604052505050565b6000610bd1610916565b9050610bdd8282610b96565b919050565b600067ffffffffffffffff821115610bfd57610bfc610b67565b5b610c0682610b56565b9050602081019050919050565b82818337600083830152505050565b6000610c35610c3084610be2565b610bc7565b905082815260208101848484011115610c5157610c50610b51565b5b610c5c848285610c13565b509392505050565b600082601f830112610c7957610c78610b4c565b5b8135610c89848260208601610c22565b91505092915050565b600080600060608486031215610cab57610caa610920565b5b6000610cb98682870161094b565b935050602084013567ffffffffffffffff811115610cda57610cd9610925565b5b610ce686828701610c64565b9250506040610cf78682870161094b565b9150509250925092565b600081519050919050565b600082825260208201905092915050565b60005b83811015610d3b578082015181840152602081019050610d20565b60008484015250505050565b6000610d5282610d01565b610d5c8185610d0c565b9350610d6c818560208601610d1d565b610d7581610b56565b840191505092915050565b60008115159050919050565b610d9581610d80565b82525050565b6000608082019050610db06000830187610af8565b8181036020830152610dc28186610d47565b9050610dd16040830185610d8c565b610dde6060830184610af8565b95945050505050565b7f4f6e6c7920746865206f776e65722063616e2072657475726e2074686520636160008201527f7200000000000000000000000000000000000000000000000000000000000000602082015250565b6000610e43602183610d0c565b9150610e4e82610de7565b604082019050919050565b60006020820190508181036000830152610e7281610e36565b9050919050565b7f6e6f2062616c616e636520746f20776974686472617700000000000000000000600082015250565b6000610eaf601683610d0c565b9150610eba82610e79565b602082019050919050565b60006020820190508181036000830152610ede81610ea2565b9050919050565b7f4f6e6c7920746865206f776e65722063616e2063616c6c20746869732066756e60008201527f6374696f6e000000000000000000000000000000000000000000000000000000602082015250565b6000610f41602583610d0c565b9150610f4c82610ee5565b604082019050919050565b60006020820190508181036000830152610f7081610f34565b9050919050565b7f4361722077697468207468697320494420616c72656164792065786973747300600082015250565b6000610fad601f83610d0c565b9150610fb882610f77565b602082019050919050565b60006020820190508181036000830152610fdc81610fa0565b9050919050565b7f4e487b7100000000000000000000000000000000000000000000000000000000600052602260045260246000fd5b6000600282049050600182168061102a57607f821691505b60208210810361103d5761103c610fe3565b5b50919050565b60008190508160005260206000209050919050565b60006020601f8301049050919050565b600082821b905092915050565b6000600883026110a57fffffffffffffffffffffffffffffffffffffffffffffffffffffffffffffffff82611068565b6110af8683611068565b95508019841693508086168417925050509392505050565b6000819050919050565b60006110ec6110e76110e28461092a565b6110c7565b61092a565b9050919050565b6000819050919050565b611106836110d1565b61111a611112826110f3565b848454611075565b825550505050565b600090565b61112f611122565b61113a8184846110fd565b505050565b5b8181101561115e57611153600082611127565b600181019050611140565b5050565b601f8211156111a35761117481611043565b61117d84611058565b8101602085101561118c578190505b6111a061119885611058565b83018261113f565b50505b505050565b600082821c905092915050565b60006111c6600019846008026111a8565b1980831691505092915050565b60006111df83836111b5565b9150826002028217905092915050565b6111f882610d01565b67ffffffffffffffff81111561121157611210610b67565b5b61121b8254611012565b611226828285611162565b600060209050601f8311600181146112595760008415611247578287015190505b61125185826111d3565b8655506112b9565b601f19841661126786611043565b60005b8281101561128f5784890151825560018201915060208501945060208101905061126a565b868310156112ac57848901516112a8601f8916826111b5565b8355505b6001600288020188555050505b505050505050565b7f436172206973206e6f7420617661696c61626c6520666f722072656e74000000600082015250565b60006112f7601d83610d0c565b9150611302826112c1565b602082019050919050565b60006020820190508181036000830152611326816112ea565b9050919050565b7f496e73756666696369656e74207061796d656e74000000000000000000000000600082015250565b6000611363601483610d0c565b915061136e8261132d565b602082019050919050565b6000602082019050818103600083015261139281611356565b9050919050565b7f4e487b7100000000000000000000000000000000000000000000000000000000600052601160045260246000fd5b60006113d38261092a565b91506113de8361092a565b92508282039050818111156113f6576113f5611399565b5b92915050565b60006114078261092a565b91506114128361092a565b925082820190508082111561142a57611429611399565b5b92915050565b60006060820190506114456000830186610af8565b6114526020830185610b22565b61145f6040830184610af8565b94935050505056fea2646970667358221220bcc8464c55a39804bc4ff8d5561694996057bb7689ef5a24a0640fe1fda35dcf64736f6c63430008120033",
					"opcodes": "PUSH1 0x80 PUSH1 0x40 MSTORE CALLVALUE DUP1 ISZERO PUSH2 0x10 JUMPI PUSH1 0x0 DUP1 REVERT JUMPDEST POP CALLER PUSH1 0x1 PUSH1 0x0 PUSH2 0x100 EXP DUP2 SLOAD DUP2 PUSH20 0xFFFFFFFFFFFFFFFFFFFFFFFFFFFFFFFFFFFFFFFF MUL NOT AND SWAP1 DUP4 PUSH20 0xFFFFFFFFFFFFFFFFFFFFFFFFFFFFFFFFFFFFFFFF AND MUL OR SWAP1 SSTORE POP PUSH2 0x149D DUP1 PUSH2 0x61 PUSH1 0x0 CODECOPY PUSH1 0x0 RETURN INVALID PUSH1 0x80 PUSH1 0x40 MSTORE PUSH1 0x4 CALLDATASIZE LT PUSH2 0x86 JUMPI PUSH1 0x0 CALLDATALOAD PUSH1 0xE0 SHR DUP1 PUSH4 0x8DA5CB5B GT PUSH2 0x59 JUMPI DUP1 PUSH4 0x8DA5CB5B EQ PUSH2 0x133 JUMPI DUP1 PUSH4 0xAB2A45E9 EQ PUSH2 0x15E JUMPI DUP1 PUSH4 0xC2DF5795 EQ PUSH2 0x187 JUMPI DUP1 PUSH4 0xE1E8AAB7 EQ PUSH2 0x1C4 JUMPI DUP1 PUSH4 0xF7746E36 EQ PUSH2 0x1E0 JUMPI PUSH2 0x86 JUMP JUMPDEST DUP1 PUSH4 0x17F956E0 EQ PUSH2 0x8B JUMPI DUP1 PUSH4 0x243C5C07 EQ PUSH2 0xB4 JUMPI DUP1 PUSH4 0x27E235E3 EQ PUSH2 0xDF JUMPI DUP1 PUSH4 0x5FD8C710 EQ PUSH2 0x11C JUMPI JUMPDEST PUSH1 0x0 DUP1 REVERT JUMPDEST CALLVALUE DUP1 ISZERO PUSH2 0x97 JUMPI PUSH1 0x0 DUP1 REVERT JUMPDEST POP PUSH2 0xB2 PUSH1 0x4 DUP1 CALLDATASIZE SUB DUP2 ADD SWAP1 PUSH2 0xAD SWAP2 SWAP1 PUSH2 0x960 JUMP JUMPDEST PUSH2 0x220 JUMP JUMPDEST STOP JUMPDEST CALLVALUE DUP1 ISZERO PUSH2 0xC0 JUMPI PUSH1 0x0 DUP1 REVERT JUMPDEST POP PUSH2 0xC9 PUSH2 0x2E1 JUMP JUMPDEST PUSH1 0x40 MLOAD PUSH2 0xD6 SWAP2 SWAP1 PUSH2 0xA4B JUMP JUMPDEST PUSH1 0x40 MLOAD DUP1 SWAP2 SUB SWAP1 RETURN JUMPDEST CALLVALUE DUP1 ISZERO PUSH2 0xEB JUMPI PUSH1 0x0 DUP1 REVERT JUMPDEST POP PUSH2 0x106 PUSH1 0x4 DUP1 CALLDATASIZE SUB DUP2 ADD SWAP1 PUSH2 0x101 SWAP2 SWAP1 PUSH2 0xACB JUMP JUMPDEST PUSH2 0x339 JUMP JUMPDEST PUSH1 0x40 MLOAD PUSH2 0x113 SWAP2 SWAP1 PUSH2 0xB07 JUMP JUMPDEST PUSH1 0x40 MLOAD DUP1 SWAP2 SUB SWAP1 RETURN JUMPDEST CALLVALUE DUP1 ISZERO PUSH2 0x128 JUMPI PUSH1 0x0 DUP1 REVERT JUMPDEST POP PUSH2 0x131 PUSH2 0x351 JUMP JUMPDEST STOP JUMPDEST CALLVALUE DUP1 ISZERO PUSH2 0x13F JUMPI PUSH1 0x0 DUP1 REVERT JUMPDEST POP PUSH2 0x148 PUSH2 0x467 JUMP JUMPDEST PUSH1 0x40 MLOAD PUSH2 0x155 SWAP2 SWAP1 PUSH2 0xB31 JUMP JUMPDEST PUSH1 0x40 MLOAD DUP1 SWAP2 SUB SWAP1 RETURN JUMPDEST CALLVALUE DUP1 ISZERO PUSH2 0x16A JUMPI PUSH1 0x0 DUP1 REVERT JUMPDEST POP PUSH2 0x185 PUSH1 0x4 DUP1 CALLDATASIZE SUB DUP2 ADD SWAP1 PUSH2 0x180 SWAP2 SWAP1 PUSH2 0xC92 JUMP JUMPDEST PUSH2 0x48D JUMP JUMPDEST STOP JUMPDEST CALLVALUE DUP1 ISZERO PUSH2 0x193 JUMPI PUSH1 0x0 DUP1 REVERT JUMPDEST POP PUSH2 0x1AE PUSH1 0x4 DUP1 CALLDATASIZE SUB DUP2 ADD SWAP1 PUSH2 0x1A9 SWAP2 SWAP1 PUSH2 0x960 JUMP JUMPDEST PUSH2 0x631 JUMP JUMPDEST PUSH1 0x40 MLOAD PUSH2 0x1BB SWAP2 SWAP1 PUSH2 0xB07 JUMP JUMPDEST PUSH1 0x40 MLOAD DUP1 SWAP2 SUB SWAP1 RETURN JUMPDEST PUSH2 0x1DE PUSH1 0x4 DUP1 CALLDATASIZE SUB DUP2 ADD SWAP1 PUSH2 0x1D9 SWAP2 SWAP1 PUSH2 0x960 JUMP JUMPDEST PUSH2 0x655 JUMP JUMPDEST STOP JUMPDEST CALLVALUE DUP1 ISZERO PUSH2 0x1EC JUMPI PUSH1 0x0 DUP1 REVERT JUMPDEST POP PUSH2 0x207 PUSH1 0x4 DUP1 CALLDATASIZE SUB DUP2 ADD SWAP1 PUSH2 0x202 SWAP2 SWAP1 PUSH2 0x960 JUMP JUMPDEST PUSH2 0x851 JUMP JUMPDEST PUSH1 0x40 MLOAD PUSH2 0x217 SWAP5 SWAP4 SWAP3 SWAP2 SWAP1 PUSH2 0xD9B JUMP JUMPDEST PUSH1 0x40 MLOAD DUP1 SWAP2 SUB SWAP1 RETURN JUMPDEST PUSH1 0x1 PUSH1 0x0 SWAP1 SLOAD SWAP1 PUSH2 0x100 EXP SWAP1 DIV PUSH20 0xFFFFFFFFFFFFFFFFFFFFFFFFFFFFFFFFFFFFFFFF AND PUSH20 0xFFFFFFFFFFFFFFFFFFFFFFFFFFFFFFFFFFFFFFFF AND CALLER PUSH20 0xFFFFFFFFFFFFFFFFFFFFFFFFFFFFFFFFFFFFFFFF AND EQ PUSH2 0x2B0 JUMPI PUSH1 0x40 MLOAD PUSH32 0x8C379A000000000000000000000000000000000000000000000000000000000 DUP2 MSTORE PUSH1 0x4 ADD PUSH2 0x2A7 SWAP1 PUSH2 0xE59 JUMP JUMPDEST PUSH1 0x40 MLOAD DUP1 SWAP2 SUB SWAP1 REVERT JUMPDEST PUSH1 0x1 PUSH1 0x0 DUP1 DUP4 DUP2 MSTORE PUSH1 0x20 ADD SWAP1 DUP2 MSTORE PUSH1 0x20 ADD PUSH1 0x0 KECCAK256 PUSH1 0x2 ADD PUSH1 0x0 PUSH2 0x100 EXP DUP2 SLOAD DUP2 PUSH1 0xFF MUL NOT AND SWAP1 DUP4 ISZERO ISZERO MUL OR SWAP1 SSTORE POP POP JUMP JUMPDEST PUSH1 0x60 PUSH1 0x3 DUP1 SLOAD DUP1 PUSH1 0x20 MUL PUSH1 0x20 ADD PUSH1 0x40 MLOAD SWAP1 DUP2 ADD PUSH1 0x40 MSTORE DUP1 SWAP3 SWAP2 SWAP1 DUP2 DUP2 MSTORE PUSH1 0x20 ADD DUP3 DUP1 SLOAD DUP1 ISZERO PUSH2 0x32F JUMPI PUSH1 0x20 MUL DUP3 ADD SWAP2 SWAP1 PUSH1 0x0 MSTORE PUSH1 0x20 PUSH1 0x0 KECCAK256 SWAP1 JUMPDEST DUP2 SLOAD DUP2 MSTORE PUSH1 0x20 ADD SWAP1 PUSH1 0x1 ADD SWAP1 DUP1 DUP4 GT PUSH2 0x31B JUMPI JUMPDEST POP POP POP POP POP SWAP1 POP SWAP1 JUMP JUMPDEST PUSH1 0x2 PUSH1 0x20 MSTORE DUP1 PUSH1 0x0 MSTORE PUSH1 0x40 PUSH1 0x0 KECCAK256 PUSH1 0x0 SWAP2 POP SWAP1 POP SLOAD DUP2 JUMP JUMPDEST PUSH1 0x0 PUSH1 0x2 PUSH1 0x0 CALLER PUSH20 0xFFFFFFFFFFFFFFFFFFFFFFFFFFFFFFFFFFFFFFFF AND PUSH20 0xFFFFFFFFFFFFFFFFFFFFFFFFFFFFFFFFFFFFFFFF AND DUP2 MSTORE PUSH1 0x20 ADD SWAP1 DUP2 MSTORE PUSH1 0x20 ADD PUSH1 0x0 KECCAK256 SLOAD SWAP1 POP PUSH1 0x0 DUP2 GT PUSH2 0x3D8 JUMPI PUSH1 0x40 MLOAD PUSH32 0x8C379A000000000000000000000000000000000000000000000000000000000 DUP2 MSTORE PUSH1 0x4 ADD PUSH2 0x3CF SWAP1 PUSH2 0xEC5 JUMP JUMPDEST PUSH1 0x40 MLOAD DUP1 SWAP2 SUB SWAP1 REVERT JUMPDEST PUSH1 0x0 PUSH1 0x2 PUSH1 0x0 CALLER PUSH20 0xFFFFFFFFFFFFFFFFFFFFFFFFFFFFFFFFFFFFFFFF AND PUSH20 0xFFFFFFFFFFFFFFFFFFFFFFFFFFFFFFFFFFFFFFFF AND DUP2 MSTORE PUSH1 0x20 ADD SWAP1 DUP2 MSTORE PUSH1 0x20 ADD PUSH1 0x0 KECCAK256 DUP2 SWAP1 SSTORE POP CALLER PUSH20 0xFFFFFFFFFFFFFFFFFFFFFFFFFFFFFFFFFFFFFFFF AND PUSH2 0x8FC DUP3 SWAP1 DUP2 ISZERO MUL SWAP1 PUSH1 0x40 MLOAD PUSH1 0x0 PUSH1 0x40 MLOAD DUP1 DUP4 SUB DUP2 DUP6 DUP9 DUP9 CALL SWAP4 POP POP POP POP ISZERO DUP1 ISZERO PUSH2 0x463 JUMPI RETURNDATASIZE PUSH1 0x0 DUP1 RETURNDATACOPY RETURNDATASIZE PUSH1 0x0 REVERT JUMPDEST POP POP JUMP JUMPDEST PUSH1 0x1 PUSH1 0x0 SWAP1 SLOAD SWAP1 PUSH2 0x100 EXP SWAP1 DIV PUSH20 0xFFFFFFFFFFFFFFFFFFFFFFFFFFFFFFFFFFFFFFFF AND DUP2 JUMP JUMPDEST PUSH1 0x1 PUSH1 0x0 SWAP1 SLOAD SWAP1 PUSH2 0x100 EXP SWAP1 DIV PUSH20 0xFFFFFFFFFFFFFFFFFFFFFFFFFFFFFFFFFFFFFFFF AND PUSH20 0xFFFFFFFFFFFFFFFFFFFFFFFFFFFFFFFFFFFFFFFF AND CALLER PUSH20 0xFFFFFFFFFFFFFFFFFFFFFFFFFFFFFFFFFFFFFFFF AND EQ PUSH2 0x51D JUMPI PUSH1 0x40 MLOAD PUSH32 0x8C379A000000000000000000000000000000000000000000000000000000000 DUP2 MSTORE PUSH1 0x4 ADD PUSH2 0x514 SWAP1 PUSH2 0xF57 JUMP JUMPDEST PUSH1 0x40 MLOAD DUP1 SWAP2 SUB SWAP1 REVERT JUMPDEST PUSH1 0x0 DUP1 DUP5 DUP2 MSTORE PUSH1 0x20 ADD SWAP1 DUP2 MSTORE PUSH1 0x20 ADD PUSH1 0x0 KECCAK256 PUSH1 0x2 ADD PUSH1 0x0 SWAP1 SLOAD SWAP1 PUSH2 0x100 EXP SWAP1 DIV PUSH1 0xFF AND ISZERO PUSH2 0x580 JUMPI PUSH1 0x40 MLOAD PUSH32 0x8C379A000000000000000000000000000000000000000000000000000000000 DUP2 MSTORE PUSH1 0x4 ADD PUSH2 0x577 SWAP1 PUSH2 0xFC3 JUMP JUMPDEST PUSH1 0x40 MLOAD DUP1 SWAP2 SUB SWAP1 REVERT JUMPDEST PUSH1 0x40 MLOAD DUP1 PUSH1 0x80 ADD PUSH1 0x40 MSTORE DUP1 DUP5 DUP2 MSTORE PUSH1 0x20 ADD DUP4 DUP2 MSTORE PUSH1 0x20 ADD PUSH1 0x1 ISZERO ISZERO DUP2 MSTORE PUSH1 0x20 ADD DUP3 DUP2 MSTORE POP PUSH1 0x0 DUP1 DUP6 DUP2 MSTORE PUSH1 0x20 ADD SWAP1 DUP2 MSTORE PUSH1 0x20 ADD PUSH1 0x0 KECCAK256 PUSH1 0x0 DUP3 ADD MLOAD DUP2 PUSH1 0x0 ADD SSTORE PUSH1 0x20 DUP3 ADD MLOAD DUP2 PUSH1 0x1 ADD SWAP1 DUP2 PUSH2 0x5D5 SWAP2 SWAP1 PUSH2 0x11EF JUMP JUMPDEST POP PUSH1 0x40 DUP3 ADD MLOAD DUP2 PUSH1 0x2 ADD PUSH1 0x0 PUSH2 0x100 EXP DUP2 SLOAD DUP2 PUSH1 0xFF MUL NOT AND SWAP1 DUP4 ISZERO ISZERO MUL OR SWAP1 SSTORE POP PUSH1 0x60 DUP3 ADD MLOAD DUP2 PUSH1 0x3 ADD SSTORE SWAP1 POP POP PUSH1 0x3 DUP4 SWAP1 DUP1 PUSH1 0x1 DUP2 SLOAD ADD DUP1 DUP3 SSTORE DUP1 SWAP2 POP POP PUSH1 0x1 SWAP1 SUB SWAP1 PUSH1 0x0 MSTORE PUSH1 0x20 PUSH1 0x0 KECCAK256 ADD PUSH1 0x0 SWAP1 SWAP2 SWAP1 SWAP2 SWAP1 SWAP2 POP SSTORE POP POP POP JUMP JUMPDEST PUSH1 0x3 DUP2 DUP2 SLOAD DUP2 LT PUSH2 0x641 JUMPI PUSH1 0x0 DUP1 REVERT JUMPDEST SWAP1 PUSH1 0x0 MSTORE PUSH1 0x20 PUSH1 0x0 KECCAK256 ADD PUSH1 0x0 SWAP2 POP SWAP1 POP SLOAD DUP2 JUMP JUMPDEST PUSH1 0x0 DUP1 DUP3 DUP2 MSTORE PUSH1 0x20 ADD SWAP1 DUP2 MSTORE PUSH1 0x20 ADD PUSH1 0x0 KECCAK256 PUSH1 0x2 ADD PUSH1 0x0 SWAP1 SLOAD SWAP1 PUSH2 0x100 EXP SWAP1 DIV PUSH1 0xFF AND PUSH2 0x6B7 JUMPI PUSH1 0x40 MLOAD PUSH32 0x8C379A000000000000000000000000000000000000000000000000000000000 DUP2 MSTORE PUSH1 0x4 ADD PUSH2 0x6AE SWAP1 PUSH2 0x130D JUMP JUMPDEST PUSH1 0x40 MLOAD DUP1 SWAP2 SUB SWAP1 REVERT JUMPDEST PUSH1 0x0 DUP1 PUSH1 0x0 DUP4 DUP2 MSTORE PUSH1 0x20 ADD SWAP1 DUP2 MSTORE PUSH1 0x20 ADD PUSH1 0x0 KECCAK256 PUSH1 0x3 ADD SLOAD SWAP1 POP DUP1 CALLVALUE LT ISZERO PUSH2 0x714 JUMPI PUSH1 0x40 MLOAD PUSH32 0x8C379A000000000000000000000000000000000000000000000000000000000 DUP2 MSTORE PUSH1 0x4 ADD PUSH2 0x70B SWAP1 PUSH2 0x1379 JUMP JUMPDEST PUSH1 0x40 MLOAD DUP1 SWAP2 SUB SWAP1 REVERT JUMPDEST PUSH1 0x0 PUSH1 0x1 PUSH1 0x0 SWAP1 SLOAD SWAP1 PUSH2 0x100 EXP SWAP1 DIV PUSH20 0xFFFFFFFFFFFFFFFFFFFFFFFFFFFFFFFFFFFFFFFF AND SWAP1 POP DUP1 PUSH20 0xFFFFFFFFFFFFFFFFFFFFFFFFFFFFFFFFFFFFFFFF AND PUSH2 0x8FC DUP4 SWAP1 DUP2 ISZERO MUL SWAP1 PUSH1 0x40 MLOAD PUSH1 0x0 PUSH1 0x40 MLOAD DUP1 DUP4 SUB DUP2 DUP6 DUP9 DUP9 CALL SWAP4 POP POP POP POP ISZERO DUP1 ISZERO PUSH2 0x781 JUMPI RETURNDATASIZE PUSH1 0x0 DUP1 RETURNDATACOPY RETURNDATASIZE PUSH1 0x0 REVERT JUMPDEST POP DUP2 CALLVALUE PUSH2 0x78E SWAP2 SWAP1 PUSH2 0x13C8 JUMP JUMPDEST PUSH1 0x2 PUSH1 0x0 CALLER PUSH20 0xFFFFFFFFFFFFFFFFFFFFFFFFFFFFFFFFFFFFFFFF AND PUSH20 0xFFFFFFFFFFFFFFFFFFFFFFFFFFFFFFFFFFFFFFFF AND DUP2 MSTORE PUSH1 0x20 ADD SWAP1 DUP2 MSTORE PUSH1 0x20 ADD PUSH1 0x0 KECCAK256 PUSH1 0x0 DUP3 DUP3 SLOAD PUSH2 0x7DC SWAP2 SWAP1 PUSH2 0x13FC JUMP JUMPDEST SWAP3 POP POP DUP2 SWAP1 SSTORE POP PUSH1 0x0 DUP1 PUSH1 0x0 DUP6 DUP2 MSTORE PUSH1 0x20 ADD SWAP1 DUP2 MSTORE PUSH1 0x20 ADD PUSH1 0x0 KECCAK256 PUSH1 0x2 ADD PUSH1 0x0 PUSH2 0x100 EXP DUP2 SLOAD DUP2 PUSH1 0xFF MUL NOT AND SWAP1 DUP4 ISZERO ISZERO MUL OR SWAP1 SSTORE POP PUSH32 0xE880D822F4BDB63368FEE99CD4A95706E7C7FDF51C0D2EDD68BB8F4D0EA0FE72 DUP4 CALLER DUP5 PUSH1 0x40 MLOAD PUSH2 0x844 SWAP4 SWAP3 SWAP2 SWAP1 PUSH2 0x1430 JUMP JUMPDEST PUSH1 0x40 MLOAD DUP1 SWAP2 SUB SWAP1 LOG1 POP POP POP JUMP JUMPDEST PUSH1 0x0 PUSH1 0x20 MSTORE DUP1 PUSH1 0x0 MSTORE PUSH1 0x40 PUSH1 0x0 KECCAK256 PUSH1 0x0 SWAP2 POP SWAP1 POP DUP1 PUSH1 0x0 ADD SLOAD SWAP1 DUP1 PUSH1 0x1 ADD DUP1 SLOAD PUSH2 0x87A SWAP1 PUSH2 0x1012 JUMP JUMPDEST DUP1 PUSH1 0x1F ADD PUSH1 0x20 DUP1 SWAP2 DIV MUL PUSH1 0x20 ADD PUSH1 0x40 MLOAD SWAP1 DUP2 ADD PUSH1 0x40 MSTORE DUP1 SWAP3 SWAP2 SWAP1 DUP2 DUP2 MSTORE PUSH1 0x20 ADD DUP3 DUP1 SLOAD PUSH2 0x8A6 SWAP1 PUSH2 0x1012 JUMP JUMPDEST DUP1 ISZERO PUSH2 0x8F3 JUMPI DUP1 PUSH1 0x1F LT PUSH2 0x8C8 JUMPI PUSH2 0x100 DUP1 DUP4 SLOAD DIV MUL DUP4 MSTORE SWAP2 PUSH1 0x20 ADD SWAP2 PUSH2 0x8F3 JUMP JUMPDEST DUP3 ADD SWAP2 SWAP1 PUSH1 0x0 MSTORE PUSH1 0x20 PUSH1 0x0 KECCAK256 SWAP1 JUMPDEST DUP2 SLOAD DUP2 MSTORE SWAP1 PUSH1 0x1 ADD SWAP1 PUSH1 0x20 ADD DUP1 DUP4 GT PUSH2 0x8D6 JUMPI DUP3 SWAP1 SUB PUSH1 0x1F AND DUP3 ADD SWAP2 JUMPDEST POP POP POP POP POP SWAP1 DUP1 PUSH1 0x2 ADD PUSH1 0x0 SWAP1 SLOAD SWAP1 PUSH2 0x100 EXP SWAP1 DIV PUSH1 0xFF AND SWAP1 DUP1 PUSH1 0x3 ADD SLOAD SWAP1 POP DUP5 JUMP JUMPDEST PUSH1 0x0 PUSH1 0x40 MLOAD SWAP1 POP SWAP1 JUMP JUMPDEST PUSH1 0x0 DUP1 REVERT JUMPDEST PUSH1 0x0 DUP1 REVERT JUMPDEST PUSH1 0x0 DUP2 SWAP1 POP SWAP2 SWAP1 POP JUMP JUMPDEST PUSH2 0x93D DUP2 PUSH2 0x92A JUMP JUMPDEST DUP2 EQ PUSH2 0x948 JUMPI PUSH1 0x0 DUP1 REVERT JUMPDEST POP JUMP JUMPDEST PUSH1 0x0 DUP2 CALLDATALOAD SWAP1 POP PUSH2 0x95A DUP2 PUSH2 0x934 JUMP JUMPDEST SWAP3 SWAP2 POP POP JUMP JUMPDEST PUSH1 0x0 PUSH1 0x20 DUP3 DUP5 SUB SLT ISZERO PUSH2 0x976 JUMPI PUSH2 0x975 PUSH2 0x920 JUMP JUMPDEST JUMPDEST PUSH1 0x0 PUSH2 0x984 DUP5 DUP3 DUP6 ADD PUSH2 0x94B JUMP JUMPDEST SWAP2 POP POP SWAP3 SWAP2 POP POP JUMP JUMPDEST PUSH1 0x0 DUP2 MLOAD SWAP1 POP SWAP2 SWAP1 POP JUMP JUMPDEST PUSH1 0x0 DUP3 DUP3 MSTORE PUSH1 0x20 DUP3 ADD SWAP1 POP SWAP3 SWAP2 POP POP JUMP JUMPDEST PUSH1 0x0 DUP2 SWAP1 POP PUSH1 0x20 DUP3 ADD SWAP1 POP SWAP2 SWAP1 POP JUMP JUMPDEST PUSH2 0x9C2 DUP2 PUSH2 0x92A JUMP JUMPDEST DUP3 MSTORE POP POP JUMP JUMPDEST PUSH1 0x0 PUSH2 0x9D4 DUP4 DUP4 PUSH2 0x9B9 JUMP JUMPDEST PUSH1 0x20 DUP4 ADD SWAP1 POP SWAP3 SWAP2 POP POP JUMP JUMPDEST PUSH1 0x0 PUSH1 0x20 DUP3 ADD SWAP1 POP SWAP2 SWAP1 POP JUMP JUMPDEST PUSH1 0x0 PUSH2 0x9F8 DUP3 PUSH2 0x98D JUMP JUMPDEST PUSH2 0xA02 DUP2 DUP6 PUSH2 0x998 JUMP JUMPDEST SWAP4 POP PUSH2 0xA0D DUP4 PUSH2 0x9A9 JUMP JUMPDEST DUP1 PUSH1 0x0 JUMPDEST DUP4 DUP2 LT ISZERO PUSH2 0xA3E JUMPI DUP2 MLOAD PUSH2 0xA25 DUP9 DUP3 PUSH2 0x9C8 JUMP JUMPDEST SWAP8 POP PUSH2 0xA30 DUP4 PUSH2 0x9E0 JUMP JUMPDEST SWAP3 POP POP PUSH1 0x1 DUP2 ADD SWAP1 POP PUSH2 0xA11 JUMP JUMPDEST POP DUP6 SWAP4 POP POP POP POP SWAP3 SWAP2 POP POP JUMP JUMPDEST PUSH1 0x0 PUSH1 0x20 DUP3 ADD SWAP1 POP DUP2 DUP2 SUB PUSH1 0x0 DUP4 ADD MSTORE PUSH2 0xA65 DUP2 DUP5 PUSH2 0x9ED JUMP JUMPDEST SWAP1 POP SWAP3 SWAP2 POP POP JUMP JUMPDEST PUSH1 0x0 PUSH20 0xFFFFFFFFFFFFFFFFFFFFFFFFFFFFFFFFFFFFFFFF DUP3 AND SWAP1 POP SWAP2 SWAP1 POP JUMP JUMPDEST PUSH1 0x0 PUSH2 0xA98 DUP3 PUSH2 0xA6D JUMP JUMPDEST SWAP1 POP SWAP2 SWAP1 POP JUMP JUMPDEST PUSH2 0xAA8 DUP2 PUSH2 0xA8D JUMP JUMPDEST DUP2 EQ PUSH2 0xAB3 JUMPI PUSH1 0x0 DUP1 REVERT JUMPDEST POP JUMP JUMPDEST PUSH1 0x0 DUP2 CALLDATALOAD SWAP1 POP PUSH2 0xAC5 DUP2 PUSH2 0xA9F JUMP JUMPDEST SWAP3 SWAP2 POP POP JUMP JUMPDEST PUSH1 0x0 PUSH1 0x20 DUP3 DUP5 SUB SLT ISZERO PUSH2 0xAE1 JUMPI PUSH2 0xAE0 PUSH2 0x920 JUMP JUMPDEST JUMPDEST PUSH1 0x0 PUSH2 0xAEF DUP5 DUP3 DUP6 ADD PUSH2 0xAB6 JUMP JUMPDEST SWAP2 POP POP SWAP3 SWAP2 POP POP JUMP JUMPDEST PUSH2 0xB01 DUP2 PUSH2 0x92A JUMP JUMPDEST DUP3 MSTORE POP POP JUMP JUMPDEST PUSH1 0x0 PUSH1 0x20 DUP3 ADD SWAP1 POP PUSH2 0xB1C PUSH1 0x0 DUP4 ADD DUP5 PUSH2 0xAF8 JUMP JUMPDEST SWAP3 SWAP2 POP POP JUMP JUMPDEST PUSH2 0xB2B DUP2 PUSH2 0xA8D JUMP JUMPDEST DUP3 MSTORE POP POP JUMP JUMPDEST PUSH1 0x0 PUSH1 0x20 DUP3 ADD SWAP1 POP PUSH2 0xB46 PUSH1 0x0 DUP4 ADD DUP5 PUSH2 0xB22 JUMP JUMPDEST SWAP3 SWAP2 POP POP JUMP JUMPDEST PUSH1 0x0 DUP1 REVERT JUMPDEST PUSH1 0x0 DUP1 REVERT JUMPDEST PUSH1 0x0 PUSH1 0x1F NOT PUSH1 0x1F DUP4 ADD AND SWAP1 POP SWAP2 SWAP1 POP JUMP JUMPDEST PUSH32 0x4E487B7100000000000000000000000000000000000000000000000000000000 PUSH1 0x0 MSTORE PUSH1 0x41 PUSH1 0x4 MSTORE PUSH1 0x24 PUSH1 0x0 REVERT JUMPDEST PUSH2 0xB9F DUP3 PUSH2 0xB56 JUMP JUMPDEST DUP2 ADD DUP2 DUP2 LT PUSH8 0xFFFFFFFFFFFFFFFF DUP3 GT OR ISZERO PUSH2 0xBBE JUMPI PUSH2 0xBBD PUSH2 0xB67 JUMP JUMPDEST JUMPDEST DUP1 PUSH1 0x40 MSTORE POP POP POP JUMP JUMPDEST PUSH1 0x0 PUSH2 0xBD1 PUSH2 0x916 JUMP JUMPDEST SWAP1 POP PUSH2 0xBDD DUP3 DUP3 PUSH2 0xB96 JUMP JUMPDEST SWAP2 SWAP1 POP JUMP JUMPDEST PUSH1 0x0 PUSH8 0xFFFFFFFFFFFFFFFF DUP3 GT ISZERO PUSH2 0xBFD JUMPI PUSH2 0xBFC PUSH2 0xB67 JUMP JUMPDEST JUMPDEST PUSH2 0xC06 DUP3 PUSH2 0xB56 JUMP JUMPDEST SWAP1 POP PUSH1 0x20 DUP2 ADD SWAP1 POP SWAP2 SWAP1 POP JUMP JUMPDEST DUP3 DUP2 DUP4 CALLDATACOPY PUSH1 0x0 DUP4 DUP4 ADD MSTORE POP POP POP JUMP JUMPDEST PUSH1 0x0 PUSH2 0xC35 PUSH2 0xC30 DUP5 PUSH2 0xBE2 JUMP JUMPDEST PUSH2 0xBC7 JUMP JUMPDEST SWAP1 POP DUP3 DUP2 MSTORE PUSH1 0x20 DUP2 ADD DUP5 DUP5 DUP5 ADD GT ISZERO PUSH2 0xC51 JUMPI PUSH2 0xC50 PUSH2 0xB51 JUMP JUMPDEST JUMPDEST PUSH2 0xC5C DUP5 DUP3 DUP6 PUSH2 0xC13 JUMP JUMPDEST POP SWAP4 SWAP3 POP POP POP JUMP JUMPDEST PUSH1 0x0 DUP3 PUSH1 0x1F DUP4 ADD SLT PUSH2 0xC79 JUMPI PUSH2 0xC78 PUSH2 0xB4C JUMP JUMPDEST JUMPDEST DUP2 CALLDATALOAD PUSH2 0xC89 DUP5 DUP3 PUSH1 0x20 DUP7 ADD PUSH2 0xC22 JUMP JUMPDEST SWAP2 POP POP SWAP3 SWAP2 POP POP JUMP JUMPDEST PUSH1 0x0 DUP1 PUSH1 0x0 PUSH1 0x60 DUP5 DUP7 SUB SLT ISZERO PUSH2 0xCAB JUMPI PUSH2 0xCAA PUSH2 0x920 JUMP JUMPDEST JUMPDEST PUSH1 0x0 PUSH2 0xCB9 DUP7 DUP3 DUP8 ADD PUSH2 0x94B JUMP JUMPDEST SWAP4 POP POP PUSH1 0x20 DUP5 ADD CALLDATALOAD PUSH8 0xFFFFFFFFFFFFFFFF DUP2 GT ISZERO PUSH2 0xCDA JUMPI PUSH2 0xCD9 PUSH2 0x925 JUMP JUMPDEST JUMPDEST PUSH2 0xCE6 DUP7 DUP3 DUP8 ADD PUSH2 0xC64 JUMP JUMPDEST SWAP3 POP POP PUSH1 0x40 PUSH2 0xCF7 DUP7 DUP3 DUP8 ADD PUSH2 0x94B JUMP JUMPDEST SWAP2 POP POP SWAP3 POP SWAP3 POP SWAP3 JUMP JUMPDEST PUSH1 0x0 DUP2 MLOAD SWAP1 POP SWAP2 SWAP1 POP JUMP JUMPDEST PUSH1 0x0 DUP3 DUP3 MSTORE PUSH1 0x20 DUP3 ADD SWAP1 POP SWAP3 SWAP2 POP POP JUMP JUMPDEST PUSH1 0x0 JUMPDEST DUP4 DUP2 LT ISZERO PUSH2 0xD3B JUMPI DUP1 DUP3 ADD MLOAD DUP2 DUP5 ADD MSTORE PUSH1 0x20 DUP2 ADD SWAP1 POP PUSH2 0xD20 JUMP JUMPDEST PUSH1 0x0 DUP5 DUP5 ADD MSTORE POP POP POP POP JUMP JUMPDEST PUSH1 0x0 PUSH2 0xD52 DUP3 PUSH2 0xD01 JUMP JUMPDEST PUSH2 0xD5C DUP2 DUP6 PUSH2 0xD0C JUMP JUMPDEST SWAP4 POP PUSH2 0xD6C DUP2 DUP6 PUSH1 0x20 DUP7 ADD PUSH2 0xD1D JUMP JUMPDEST PUSH2 0xD75 DUP2 PUSH2 0xB56 JUMP JUMPDEST DUP5 ADD SWAP2 POP POP SWAP3 SWAP2 POP POP JUMP JUMPDEST PUSH1 0x0 DUP2 ISZERO ISZERO SWAP1 POP SWAP2 SWAP1 POP JUMP JUMPDEST PUSH2 0xD95 DUP2 PUSH2 0xD80 JUMP JUMPDEST DUP3 MSTORE POP POP JUMP JUMPDEST PUSH1 0x0 PUSH1 0x80 DUP3 ADD SWAP1 POP PUSH2 0xDB0 PUSH1 0x0 DUP4 ADD DUP8 PUSH2 0xAF8 JUMP JUMPDEST DUP2 DUP2 SUB PUSH1 0x20 DUP4 ADD MSTORE PUSH2 0xDC2 DUP2 DUP7 PUSH2 0xD47 JUMP JUMPDEST SWAP1 POP PUSH2 0xDD1 PUSH1 0x40 DUP4 ADD DUP6 PUSH2 0xD8C JUMP JUMPDEST PUSH2 0xDDE PUSH1 0x60 DUP4 ADD DUP5 PUSH2 0xAF8 JUMP JUMPDEST SWAP6 SWAP5 POP POP POP POP POP JUMP JUMPDEST PUSH32 0x4F6E6C7920746865206F776E65722063616E2072657475726E20746865206361 PUSH1 0x0 DUP3 ADD MSTORE PUSH32 0x7200000000000000000000000000000000000000000000000000000000000000 PUSH1 0x20 DUP3 ADD MSTORE POP JUMP JUMPDEST PUSH1 0x0 PUSH2 0xE43 PUSH1 0x21 DUP4 PUSH2 0xD0C JUMP JUMPDEST SWAP2 POP PUSH2 0xE4E DUP3 PUSH2 0xDE7 JUMP JUMPDEST PUSH1 0x40 DUP3 ADD SWAP1 POP SWAP2 SWAP1 POP JUMP JUMPDEST PUSH1 0x0 PUSH1 0x20 DUP3 ADD SWAP1 POP DUP2 DUP2 SUB PUSH1 0x0 DUP4 ADD MSTORE PUSH2 0xE72 DUP2 PUSH2 0xE36 JUMP JUMPDEST SWAP1 POP SWAP2 SWAP1 POP JUMP JUMPDEST PUSH32 0x6E6F2062616C616E636520746F20776974686472617700000000000000000000 PUSH1 0x0 DUP3 ADD MSTORE POP JUMP JUMPDEST PUSH1 0x0 PUSH2 0xEAF PUSH1 0x16 DUP4 PUSH2 0xD0C JUMP JUMPDEST SWAP2 POP PUSH2 0xEBA DUP3 PUSH2 0xE79 JUMP JUMPDEST PUSH1 0x20 DUP3 ADD SWAP1 POP SWAP2 SWAP1 POP JUMP JUMPDEST PUSH1 0x0 PUSH1 0x20 DUP3 ADD SWAP1 POP DUP2 DUP2 SUB PUSH1 0x0 DUP4 ADD MSTORE PUSH2 0xEDE DUP2 PUSH2 0xEA2 JUMP JUMPDEST SWAP1 POP SWAP2 SWAP1 POP JUMP JUMPDEST PUSH32 0x4F6E6C7920746865206F776E65722063616E2063616C6C20746869732066756E PUSH1 0x0 DUP3 ADD MSTORE PUSH32 0x6374696F6E000000000000000000000000000000000000000000000000000000 PUSH1 0x20 DUP3 ADD MSTORE POP JUMP JUMPDEST PUSH1 0x0 PUSH2 0xF41 PUSH1 0x25 DUP4 PUSH2 0xD0C JUMP JUMPDEST SWAP2 POP PUSH2 0xF4C DUP3 PUSH2 0xEE5 JUMP JUMPDEST PUSH1 0x40 DUP3 ADD SWAP1 POP SWAP2 SWAP1 POP JUMP JUMPDEST PUSH1 0x0 PUSH1 0x20 DUP3 ADD SWAP1 POP DUP2 DUP2 SUB PUSH1 0x0 DUP4 ADD MSTORE PUSH2 0xF70 DUP2 PUSH2 0xF34 JUMP JUMPDEST SWAP1 POP SWAP2 SWAP1 POP JUMP JUMPDEST PUSH32 0x4361722077697468207468697320494420616C72656164792065786973747300 PUSH1 0x0 DUP3 ADD MSTORE POP JUMP JUMPDEST PUSH1 0x0 PUSH2 0xFAD PUSH1 0x1F DUP4 PUSH2 0xD0C JUMP JUMPDEST SWAP2 POP PUSH2 0xFB8 DUP3 PUSH2 0xF77 JUMP JUMPDEST PUSH1 0x20 DUP3 ADD SWAP1 POP SWAP2 SWAP1 POP JUMP JUMPDEST PUSH1 0x0 PUSH1 0x20 DUP3 ADD SWAP1 POP DUP2 DUP2 SUB PUSH1 0x0 DUP4 ADD MSTORE PUSH2 0xFDC DUP2 PUSH2 0xFA0 JUMP JUMPDEST SWAP1 POP SWAP2 SWAP1 POP JUMP JUMPDEST PUSH32 0x4E487B7100000000000000000000000000000000000000000000000000000000 PUSH1 0x0 MSTORE PUSH1 0x22 PUSH1 0x4 MSTORE PUSH1 0x24 PUSH1 0x0 REVERT JUMPDEST PUSH1 0x0 PUSH1 0x2 DUP3 DIV SWAP1 POP PUSH1 0x1 DUP3 AND DUP1 PUSH2 0x102A JUMPI PUSH1 0x7F DUP3 AND SWAP2 POP JUMPDEST PUSH1 0x20 DUP3 LT DUP2 SUB PUSH2 0x103D JUMPI PUSH2 0x103C PUSH2 0xFE3 JUMP JUMPDEST JUMPDEST POP SWAP2 SWAP1 POP JUMP JUMPDEST PUSH1 0x0 DUP2 SWAP1 POP DUP2 PUSH1 0x0 MSTORE PUSH1 0x20 PUSH1 0x0 KECCAK256 SWAP1 POP SWAP2 SWAP1 POP JUMP JUMPDEST PUSH1 0x0 PUSH1 0x20 PUSH1 0x1F DUP4 ADD DIV SWAP1 POP SWAP2 SWAP1 POP JUMP JUMPDEST PUSH1 0x0 DUP3 DUP3 SHL SWAP1 POP SWAP3 SWAP2 POP POP JUMP JUMPDEST PUSH1 0x0 PUSH1 0x8 DUP4 MUL PUSH2 0x10A5 PUSH32 0xFFFFFFFFFFFFFFFFFFFFFFFFFFFFFFFFFFFFFFFFFFFFFFFFFFFFFFFFFFFFFFFF DUP3 PUSH2 0x1068 JUMP JUMPDEST PUSH2 0x10AF DUP7 DUP4 PUSH2 0x1068 JUMP JUMPDEST SWAP6 POP DUP1 NOT DUP5 AND SWAP4 POP DUP1 DUP7 AND DUP5 OR SWAP3 POP POP POP SWAP4 SWAP3 POP POP POP JUMP JUMPDEST PUSH1 0x0 DUP2 SWAP1 POP SWAP2 SWAP1 POP JUMP JUMPDEST PUSH1 0x0 PUSH2 0x10EC PUSH2 0x10E7 PUSH2 0x10E2 DUP5 PUSH2 0x92A JUMP JUMPDEST PUSH2 0x10C7 JUMP JUMPDEST PUSH2 0x92A JUMP JUMPDEST SWAP1 POP SWAP2 SWAP1 POP JUMP JUMPDEST PUSH1 0x0 DUP2 SWAP1 POP SWAP2 SWAP1 POP JUMP JUMPDEST PUSH2 0x1106 DUP4 PUSH2 0x10D1 JUMP JUMPDEST PUSH2 0x111A PUSH2 0x1112 DUP3 PUSH2 0x10F3 JUMP JUMPDEST DUP5 DUP5 SLOAD PUSH2 0x1075 JUMP JUMPDEST DUP3 SSTORE POP POP POP POP JUMP JUMPDEST PUSH1 0x0 SWAP1 JUMP JUMPDEST PUSH2 0x112F PUSH2 0x1122 JUMP JUMPDEST PUSH2 0x113A DUP2 DUP5 DUP5 PUSH2 0x10FD JUMP JUMPDEST POP POP POP JUMP JUMPDEST JUMPDEST DUP2 DUP2 LT ISZERO PUSH2 0x115E JUMPI PUSH2 0x1153 PUSH1 0x0 DUP3 PUSH2 0x1127 JUMP JUMPDEST PUSH1 0x1 DUP2 ADD SWAP1 POP PUSH2 0x1140 JUMP JUMPDEST POP POP JUMP JUMPDEST PUSH1 0x1F DUP3 GT ISZERO PUSH2 0x11A3 JUMPI PUSH2 0x1174 DUP2 PUSH2 0x1043 JUMP JUMPDEST PUSH2 0x117D DUP5 PUSH2 0x1058 JUMP JUMPDEST DUP2 ADD PUSH1 0x20 DUP6 LT ISZERO PUSH2 0x118C JUMPI DUP2 SWAP1 POP JUMPDEST PUSH2 0x11A0 PUSH2 0x1198 DUP6 PUSH2 0x1058 JUMP JUMPDEST DUP4 ADD DUP3 PUSH2 0x113F JUMP JUMPDEST POP POP JUMPDEST POP POP POP JUMP JUMPDEST PUSH1 0x0 DUP3 DUP3 SHR SWAP1 POP SWAP3 SWAP2 POP POP JUMP JUMPDEST PUSH1 0x0 PUSH2 0x11C6 PUSH1 0x0 NOT DUP5 PUSH1 0x8 MUL PUSH2 0x11A8 JUMP JUMPDEST NOT DUP1 DUP4 AND SWAP2 POP POP SWAP3 SWAP2 POP POP JUMP JUMPDEST PUSH1 0x0 PUSH2 0x11DF DUP4 DUP4 PUSH2 0x11B5 JUMP JUMPDEST SWAP2 POP DUP3 PUSH1 0x2 MUL DUP3 OR SWAP1 POP SWAP3 SWAP2 POP POP JUMP JUMPDEST PUSH2 0x11F8 DUP3 PUSH2 0xD01 JUMP JUMPDEST PUSH8 0xFFFFFFFFFFFFFFFF DUP2 GT ISZERO PUSH2 0x1211 JUMPI PUSH2 0x1210 PUSH2 0xB67 JUMP JUMPDEST JUMPDEST PUSH2 0x121B DUP3 SLOAD PUSH2 0x1012 JUMP JUMPDEST PUSH2 0x1226 DUP3 DUP3 DUP6 PUSH2 0x1162 JUMP JUMPDEST PUSH1 0x0 PUSH1 0x20 SWAP1 POP PUSH1 0x1F DUP4 GT PUSH1 0x1 DUP2 EQ PUSH2 0x1259 JUMPI PUSH1 0x0 DUP5 ISZERO PUSH2 0x1247 JUMPI DUP3 DUP8 ADD MLOAD SWAP1 POP JUMPDEST PUSH2 0x1251 DUP6 DUP3 PUSH2 0x11D3 JUMP JUMPDEST DUP7 SSTORE POP PUSH2 0x12B9 JUMP JUMPDEST PUSH1 0x1F NOT DUP5 AND PUSH2 0x1267 DUP7 PUSH2 0x1043 JUMP JUMPDEST PUSH1 0x0 JUMPDEST DUP3 DUP2 LT ISZERO PUSH2 0x128F JUMPI DUP5 DUP10 ADD MLOAD DUP3 SSTORE PUSH1 0x1 DUP3 ADD SWAP2 POP PUSH1 0x20 DUP6 ADD SWAP5 POP PUSH1 0x20 DUP2 ADD SWAP1 POP PUSH2 0x126A JUMP JUMPDEST DUP7 DUP4 LT ISZERO PUSH2 0x12AC JUMPI DUP5 DUP10 ADD MLOAD PUSH2 0x12A8 PUSH1 0x1F DUP10 AND DUP3 PUSH2 0x11B5 JUMP JUMPDEST DUP4 SSTORE POP JUMPDEST PUSH1 0x1 PUSH1 0x2 DUP9 MUL ADD DUP9 SSTORE POP POP POP JUMPDEST POP POP POP POP POP POP JUMP JUMPDEST PUSH32 0x436172206973206E6F7420617661696C61626C6520666F722072656E74000000 PUSH1 0x0 DUP3 ADD MSTORE POP JUMP JUMPDEST PUSH1 0x0 PUSH2 0x12F7 PUSH1 0x1D DUP4 PUSH2 0xD0C JUMP JUMPDEST SWAP2 POP PUSH2 0x1302 DUP3 PUSH2 0x12C1 JUMP JUMPDEST PUSH1 0x20 DUP3 ADD SWAP1 POP SWAP2 SWAP1 POP JUMP JUMPDEST PUSH1 0x0 PUSH1 0x20 DUP3 ADD SWAP1 POP DUP2 DUP2 SUB PUSH1 0x0 DUP4 ADD MSTORE PUSH2 0x1326 DUP2 PUSH2 0x12EA JUMP JUMPDEST SWAP1 POP SWAP2 SWAP1 POP JUMP JUMPDEST PUSH32 0x496E73756666696369656E74207061796D656E74000000000000000000000000 PUSH1 0x0 DUP3 ADD MSTORE POP JUMP JUMPDEST PUSH1 0x0 PUSH2 0x1363 PUSH1 0x14 DUP4 PUSH2 0xD0C JUMP JUMPDEST SWAP2 POP PUSH2 0x136E DUP3 PUSH2 0x132D JUMP JUMPDEST PUSH1 0x20 DUP3 ADD SWAP1 POP SWAP2 SWAP1 POP JUMP JUMPDEST PUSH1 0x0 PUSH1 0x20 DUP3 ADD SWAP1 POP DUP2 DUP2 SUB PUSH1 0x0 DUP4 ADD MSTORE PUSH2 0x1392 DUP2 PUSH2 0x1356 JUMP JUMPDEST SWAP1 POP SWAP2 SWAP1 POP JUMP JUMPDEST PUSH32 0x4E487B7100000000000000000000000000000000000000000000000000000000 PUSH1 0x0 MSTORE PUSH1 0x11 PUSH1 0x4 MSTORE PUSH1 0x24 PUSH1 0x0 REVERT JUMPDEST PUSH1 0x0 PUSH2 0x13D3 DUP3 PUSH2 0x92A JUMP JUMPDEST SWAP2 POP PUSH2 0x13DE DUP4 PUSH2 0x92A JUMP JUMPDEST SWAP3 POP DUP3 DUP3 SUB SWAP1 POP DUP2 DUP2 GT ISZERO PUSH2 0x13F6 JUMPI PUSH2 0x13F5 PUSH2 0x1399 JUMP JUMPDEST JUMPDEST SWAP3 SWAP2 POP POP JUMP JUMPDEST PUSH1 0x0 PUSH2 0x1407 DUP3 PUSH2 0x92A JUMP JUMPDEST SWAP2 POP PUSH2 0x1412 DUP4 PUSH2 0x92A JUMP JUMPDEST SWAP3 POP DUP3 DUP3 ADD SWAP1 POP DUP1 DUP3 GT ISZERO PUSH2 0x142A JUMPI PUSH2 0x1429 PUSH2 0x1399 JUMP JUMPDEST JUMPDEST SWAP3 SWAP2 POP POP JUMP JUMPDEST PUSH1 0x0 PUSH1 0x60 DUP3 ADD SWAP1 POP PUSH2 0x1445 PUSH1 0x0 DUP4 ADD DUP7 PUSH2 0xAF8 JUMP JUMPDEST PUSH2 0x1452 PUSH1 0x20 DUP4 ADD DUP6 PUSH2 0xB22 JUMP JUMPDEST PUSH2 0x145F PUSH1 0x40 DUP4 ADD DUP5 PUSH2 0xAF8 JUMP JUMPDEST SWAP5 SWAP4 POP POP POP POP JUMP INVALID LOG2 PUSH5 0x6970667358 0x22 SLT KECCAK256 0xBC 0xC8 CHAINID 0x4C SSTORE LOG3 SWAP9 DIV 0xBC 0x4F 0xF8 0xD5 JUMP AND SWAP5 SWAP10 PUSH1 0x57 0xBB PUSH23 0x89EF5A24A0640FE1FDA35DCF64736F6C63430008120033 "
				},
				"gasEstimates": {
					"creation": {
						"codeDepositCost": "1055400",
						"executionCost": "25360",
						"totalCost": "1080760"
					},
					"external": {
						"addCar(uint256,string,uint256)": "infinite",
						"addedCardIds(uint256)": "infinite",
						"balances(address)": "2859",
						"cars(uint256)": "infinite",
						"getAddedIds()": "infinite",
						"owner()": "2514",
						"rentCar(uint256)": "infinite",
						"returnCar(uint256)": "26928",
						"withdrawBalance()": "infinite"
					}
				},
				"methodIdentifiers": {
					"addCar(uint256,string,uint256)": "ab2a45e9",
					"addedCardIds(uint256)": "c2df5795",
					"balances(address)": "27e235e3",
					"cars(uint256)": "f7746e36",
					"getAddedIds()": "243c5c07",
					"owner()": "8da5cb5b",
					"rentCar(uint256)": "e1e8aab7",
					"returnCar(uint256)": "17f956e0",
					"withdrawBalance()": "5fd8c710"
				}
			},
			"storageLayout": {
				"storage": [
					{
						"astId": 15,
						"contract": "car_Rent_project/carrental.sol:CarRental",
						"label": "cars",
						"offset": 0,
						"slot": "0",
						"type": "t_mapping(t_uint256,t_struct(Car)10_storage)"
					},
					{
						"astId": 17,
						"contract": "car_Rent_project/carrental.sol:CarRental",
						"label": "owner",
						"offset": 0,
						"slot": "1",
						"type": "t_address"
					},
					{
						"astId": 21,
						"contract": "car_Rent_project/carrental.sol:CarRental",
						"label": "balances",
						"offset": 0,
						"slot": "2",
						"type": "t_mapping(t_address,t_uint256)"
					},
					{
						"astId": 24,
						"contract": "car_Rent_project/carrental.sol:CarRental",
						"label": "addedCardIds",
						"offset": 0,
						"slot": "3",
						"type": "t_array(t_uint256)dyn_storage"
					}
				],
				"types": {
					"t_address": {
						"encoding": "inplace",
						"label": "address",
						"numberOfBytes": "20"
					},
					"t_array(t_uint256)dyn_storage": {
						"base": "t_uint256",
						"encoding": "dynamic_array",
						"label": "uint256[]",
						"numberOfBytes": "32"
					},
					"t_bool": {
						"encoding": "inplace",
						"label": "bool",
						"numberOfBytes": "1"
					},
					"t_mapping(t_address,t_uint256)": {
						"encoding": "mapping",
						"key": "t_address",
						"label": "mapping(address => uint256)",
						"numberOfBytes": "32",
						"value": "t_uint256"
					},
					"t_mapping(t_uint256,t_struct(Car)10_storage)": {
						"encoding": "mapping",
						"key": "t_uint256",
						"label": "mapping(uint256 => struct CarRental.Car)",
						"numberOfBytes": "32",
						"value": "t_struct(Car)10_storage"
					},
					"t_string_storage": {
						"encoding": "bytes",
						"label": "string",
						"numberOfBytes": "32"
					},
					"t_struct(Car)10_storage": {
						"encoding": "inplace",
						"label": "struct CarRental.Car",
						"members": [
							{
								"astId": 3,
								"contract": "car_Rent_project/carrental.sol:CarRental",
								"label": "id",
								"offset": 0,
								"slot": "0",
								"type": "t_uint256"
							},
							{
								"astId": 5,
								"contract": "car_Rent_project/carrental.sol:CarRental",
								"label": "name",
								"offset": 0,
								"slot": "1",
								"type": "t_string_storage"
							},
							{
								"astId": 7,
								"contract": "car_Rent_project/carrental.sol:CarRental",
								"label": "isAvailable",
								"offset": 0,
								"slot": "2",
								"type": "t_bool"
							},
							{
								"astId": 9,
								"contract": "car_Rent_project/carrental.sol:CarRental",
								"label": "rentalPrice",
								"offset": 0,
								"slot": "3",
								"type": "t_uint256"
							}
						],
						"numberOfBytes": "128"
					},
					"t_uint256": {
						"encoding": "inplace",
						"label": "uint256",
						"numberOfBytes": "32"
					}
				}
			},
			"userdoc": {
				"kind": "user",
				"methods": {},
				"version": 1
			}
		}
	}
}