{
	"data": {
		"bytecode": {
			"linkReferences": {},
			"object": "608060405234801561001057600080fd5b50610222806100206000396000f3fe608060405234801561001057600080fd5b506004361061002b5760003560e01c80634471ad9d14610030575b600080fd5b61004a600480360381019061004591906100f3565b61004c565b005b6000600190505b600a81116100b357600081846100699190610162565b90506000600190505b600a811161009e57600081856100889190610162565b9050508080610096906101a4565b915050610072565b505080806100ab906101a4565b915050610053565b505050565b600080fd5b6000819050919050565b6100d0816100bd565b81146100db57600080fd5b50565b6000813590506100ed816100c7565b92915050565b6000806040838503121561010a576101096100b8565b5b6000610118858286016100de565b9250506020610129858286016100de565b9150509250929050565b7f4e487b7100000000000000000000000000000000000000000000000000000000600052601160045260246000fd5b600061016d826100bd565b9150610178836100bd565b9250828202610186816100bd565b9150828204841483151761019d5761019c610133565b5b5092915050565b60006101af826100bd565b91507fffffffffffffffffffffffffffffffffffffffffffffffffffffffffffffffff82036101e1576101e0610133565b5b60018201905091905056fea2646970667358221220b3284ac54b8456fa7d25ac95c45a57138f7dcf2a2124d742ee77120a06f7951b64736f6c63430008120033",
			"opcodes": "PUSH1 0x80 PUSH1 0x40 MSTORE CALLVALUE DUP1 ISZERO PUSH2 0x10 JUMPI PUSH1 0x0 DUP1 REVERT JUMPDEST POP PUSH2 0x222 DUP1 PUSH2 0x20 PUSH1 0x0 CODECOPY PUSH1 0x0 RETURN INVALID PUSH1 0x80 PUSH1 0x40 MSTORE CALLVALUE DUP1 ISZERO PUSH2 0x10 JUMPI PUSH1 0x0 DUP1 REVERT JUMPDEST POP PUSH1 0x4 CALLDATASIZE LT PUSH2 0x2B JUMPI PUSH1 0x0 CALLDATALOAD PUSH1 0xE0 SHR DUP1 PUSH4 0x4471AD9D EQ PUSH2 0x30 JUMPI JUMPDEST PUSH1 0x0 DUP1 REVERT JUMPDEST PUSH2 0x4A PUSH1 0x4 DUP1 CALLDATASIZE SUB DUP2 ADD SWAP1 PUSH2 0x45 SWAP2 SWAP1 PUSH2 0xF3 JUMP JUMPDEST PUSH2 0x4C JUMP JUMPDEST STOP JUMPDEST PUSH1 0x0 PUSH1 0x1 SWAP1 POP JUMPDEST PUSH1 0xA DUP2 GT PUSH2 0xB3 JUMPI PUSH1 0x0 DUP2 DUP5 PUSH2 0x69 SWAP2 SWAP1 PUSH2 0x162 JUMP JUMPDEST SWAP1 POP PUSH1 0x0 PUSH1 0x1 SWAP1 POP JUMPDEST PUSH1 0xA DUP2 GT PUSH2 0x9E JUMPI PUSH1 0x0 DUP2 DUP6 PUSH2 0x88 SWAP2 SWAP1 PUSH2 0x162 JUMP JUMPDEST SWAP1 POP POP DUP1 DUP1 PUSH2 0x96 SWAP1 PUSH2 0x1A4 JUMP JUMPDEST SWAP2 POP POP PUSH2 0x72 JUMP JUMPDEST POP POP DUP1 DUP1 PUSH2 0xAB SWAP1 PUSH2 0x1A4 JUMP JUMPDEST SWAP2 POP POP PUSH2 0x53 JUMP JUMPDEST POP POP POP JUMP JUMPDEST PUSH1 0x0 DUP1 REVERT JUMPDEST PUSH1 0x0 DUP2 SWAP1 POP SWAP2 SWAP1 POP JUMP JUMPDEST PUSH2 0xD0 DUP2 PUSH2 0xBD JUMP JUMPDEST DUP2 EQ PUSH2 0xDB JUMPI PUSH1 0x0 DUP1 REVERT JUMPDEST POP JUMP JUMPDEST PUSH1 0x0 DUP2 CALLDATALOAD SWAP1 POP PUSH2 0xED DUP2 PUSH2 0xC7 JUMP JUMPDEST SWAP3 SWAP2 POP POP JUMP JUMPDEST PUSH1 0x0 DUP1 PUSH1 0x40 DUP4 DUP6 SUB SLT ISZERO PUSH2 0x10A JUMPI PUSH2 0x109 PUSH2 0xB8 JUMP JUMPDEST JUMPDEST PUSH1 0x0 PUSH2 0x118 DUP6 DUP3 DUP7 ADD PUSH2 0xDE JUMP JUMPDEST SWAP3 POP POP PUSH1 0x20 PUSH2 0x129 DUP6 DUP3 DUP7 ADD PUSH2 0xDE JUMP JUMPDEST SWAP2 POP POP SWAP3 POP SWAP3 SWAP1 POP JUMP JUMPDEST PUSH32 0x4E487B7100000000000000000000000000000000000000000000000000000000 PUSH1 0x0 MSTORE PUSH1 0x11 PUSH1 0x4 MSTORE PUSH1 0x24 PUSH1 0x0 REVERT JUMPDEST PUSH1 0x0 PUSH2 0x16D DUP3 PUSH2 0xBD JUMP JUMPDEST SWAP2 POP PUSH2 0x178 DUP4 PUSH2 0xBD JUMP JUMPDEST SWAP3 POP DUP3 DUP3 MUL PUSH2 0x186 DUP2 PUSH2 0xBD JUMP JUMPDEST SWAP2 POP DUP3 DUP3 DIV DUP5 EQ DUP4 ISZERO OR PUSH2 0x19D JUMPI PUSH2 0x19C PUSH2 0x133 JUMP JUMPDEST JUMPDEST POP SWAP3 SWAP2 POP POP JUMP JUMPDEST PUSH1 0x0 PUSH2 0x1AF DUP3 PUSH2 0xBD JUMP JUMPDEST SWAP2 POP PUSH32 0xFFFFFFFFFFFFFFFFFFFFFFFFFFFFFFFFFFFFFFFFFFFFFFFFFFFFFFFFFFFFFFFF DUP3 SUB PUSH2 0x1E1 JUMPI PUSH2 0x1E0 PUSH2 0x133 JUMP JUMPDEST JUMPDEST PUSH1 0x1 DUP3 ADD SWAP1 POP SWAP2 SWAP1 POP JUMP INVALID LOG2 PUSH5 0x6970667358 0x22 SLT KECCAK256 0xB3 0x28 0x4A 0xC5 0x4B DUP5 JUMP STATICCALL PUSH30 0x25AC95C45A57138F7DCF2A2124D742EE77120A06F7951B64736F6C634300 ADDMOD SLT STOP CALLER "
		},
		"gasEstimates": {
			"creation": {
				"codeDepositCost": "109200",
				"executionCost": "159",
				"totalCost": "109359"
			},
			"external": {
				"lcm(uint256,uint256)": "infinite"
			}
		},
		"methodIdentifiers": {
			"lcm(uint256,uint256)": "4471ad9d"
		}
	},
	"abi": [
		{
			"inputs": [
				{
					"internalType": "uint256",
					"name": "a",
					"type": "uint256"
				},
				{
					"internalType": "uint256",
					"name": "b",
					"type": "uint256"
				}
			],
			"name": "lcm",
			"outputs": [],
			"stateMutability": "nonpayable",
			"type": "function"
		}
	]
}